{
	"projects/1_PresidentElection.sol": {
		"Ballot": {
			"abi": [
				{
					"inputs": [],
					"stateMutability": "nonpayable",
					"type": "constructor"
				},
				{
					"inputs": [
						{
							"internalType": "uint256",
							"name": "",
							"type": "uint256"
						}
					],
					"name": "candidates",
					"outputs": [
						{
							"internalType": "bytes32",
							"name": "name",
							"type": "bytes32"
						},
						{
							"internalType": "uint256",
							"name": "voteCount",
							"type": "uint256"
						}
					],
					"stateMutability": "view",
					"type": "function"
				},
				{
					"inputs": [],
					"name": "chairperson",
					"outputs": [
						{
							"internalType": "address",
							"name": "",
							"type": "address"
						}
					],
					"stateMutability": "view",
					"type": "function"
				},
				{
					"inputs": [
						{
							"internalType": "address",
							"name": "to",
							"type": "address"
						}
					],
					"name": "delegate",
					"outputs": [],
					"stateMutability": "nonpayable",
					"type": "function"
				},
				{
					"inputs": [
						{
							"internalType": "address",
							"name": "voter",
							"type": "address"
						}
					],
					"name": "giveRightToVote",
					"outputs": [],
					"stateMutability": "nonpayable",
					"type": "function"
				},
				{
					"inputs": [
						{
							"internalType": "uint256",
							"name": "candidate",
							"type": "uint256"
						}
					],
					"name": "vote",
					"outputs": [],
					"stateMutability": "nonpayable",
					"type": "function"
				},
				{
					"inputs": [
						{
							"internalType": "address",
							"name": "",
							"type": "address"
						}
					],
					"name": "voters",
					"outputs": [
						{
							"internalType": "uint256",
							"name": "weight",
							"type": "uint256"
						},
						{
							"internalType": "bool",
							"name": "voted",
							"type": "bool"
						},
						{
							"internalType": "address",
							"name": "delegate",
							"type": "address"
						},
						{
							"internalType": "uint256",
							"name": "vote",
							"type": "uint256"
						}
					],
					"stateMutability": "view",
					"type": "function"
				},
				{
					"inputs": [],
					"name": "winnerName",
					"outputs": [
						{
							"internalType": "string",
							"name": "winnerName_",
							"type": "string"
						}
					],
					"stateMutability": "view",
					"type": "function"
				},
				{
					"inputs": [],
					"name": "winningCandidate",
					"outputs": [
						{
							"internalType": "uint256",
							"name": "winningCandidate_",
							"type": "uint256"
						}
					],
					"stateMutability": "view",
					"type": "function"
				}
			],
			"devdoc": {
				"details": "Implements pvoting process along with vote delegation",
				"kind": "dev",
				"methods": {
					"delegate(address)": {
						"details": "Delegate your vote to the voter 'to'.",
						"params": {
							"to": "address to which vote is delegated"
						}
					},
					"giveRightToVote(address)": {
						"details": "Give 'voter' the right to vote on this ballot. May only be called by 'chairperson'.",
						"params": {
							"voter": "address of voter"
						}
					},
					"vote(uint256)": {
						"details": "Give your vote (including votes delegated to you) to proposal 'proposals[proposal].name'.",
						"params": {
							"candidate": "index of candidate in the candidates array"
						}
					},
					"winnerName()": {
						"details": "Calls winningCandidate() function to get the index of the winner contained in the candidates array and then",
						"returns": {
							"winnerName_": "the name of the winner"
						}
					},
					"winningCandidate()": {
						"details": "Computes the winning candidate taking all previous votes into account.",
						"returns": {
							"winningCandidate_": "index of winning candidate in the candidates array"
						}
					}
				},
				"title": "President Election",
				"version": 1
			},
			"evm": {
				"assembly": "    /* \"projects/1_PresidentElection.sol\":170:5088  contract Ballot {... */\n  mstore(0x40, 0x80)\n    /* \"projects/1_PresidentElection.sol\":907:1015  bytes32[3]  candidateNames = [bytes32(\"Droupadi Murmu\"), bytes32(\"Yashwant Sinha\"), bytes32(\"Kapil Sibbal\")] */\n  mload(0x40)\n  dup1\n  0x60\n  add\n  0x40\n  mstore\n  dup1\n    /* \"projects/1_PresidentElection.sol\":937:962  bytes32(\"Droupadi Murmu\") */\n  0x44726f7570616469204d75726d75000000000000000000000000000000000000\n    /* \"projects/1_PresidentElection.sol\":907:1015  bytes32[3]  candidateNames = [bytes32(\"Droupadi Murmu\"), bytes32(\"Yashwant Sinha\"), bytes32(\"Kapil Sibbal\")] */\n  dup2\n  mstore\n  0x20\n  add\n    /* \"projects/1_PresidentElection.sol\":964:989  bytes32(\"Yashwant Sinha\") */\n  0x5961736877616e742053696e6861000000000000000000000000000000000000\n    /* \"projects/1_PresidentElection.sol\":907:1015  bytes32[3]  candidateNames = [bytes32(\"Droupadi Murmu\"), bytes32(\"Yashwant Sinha\"), bytes32(\"Kapil Sibbal\")] */\n  dup2\n  mstore\n  0x20\n  add\n    /* \"projects/1_PresidentElection.sol\":991:1014  bytes32(\"Kapil Sibbal\") */\n  0x4b6170696c2053696262616c0000000000000000000000000000000000000000\n    /* \"projects/1_PresidentElection.sol\":907:1015  bytes32[3]  candidateNames = [bytes32(\"Droupadi Murmu\"), bytes32(\"Yashwant Sinha\"), bytes32(\"Kapil Sibbal\")] */\n  dup2\n  mstore\n  pop\n  0x03\n  swap1\n  0x03\n  tag_1\n  swap3\n  swap2\n  swap1\n  tag_2\n  jump\t// in\ntag_1:\n  pop\n    /* \"projects/1_PresidentElection.sol\":1211:1667  constructor( ) {... */\n  callvalue\n  dup1\n  iszero\n  tag_3\n  jumpi\n  0x00\n  dup1\n  revert\ntag_3:\n  pop\n    /* \"projects/1_PresidentElection.sol\":1250:1260  msg.sender */\n  caller\n    /* \"projects/1_PresidentElection.sol\":1236:1247  chairperson */\n  0x00\n  dup1\n    /* \"projects/1_PresidentElection.sol\":1236:1260  chairperson = msg.sender */\n  0x0100\n  exp\n  dup2\n  sload\n  dup2\n  0xffffffffffffffffffffffffffffffffffffffff\n  mul\n  not\n  and\n  swap1\n  dup4\n  0xffffffffffffffffffffffffffffffffffffffff\n  and\n  mul\n  or\n  swap1\n  sstore\n  pop\n    /* \"projects/1_PresidentElection.sol\":1299:1300  1 */\n  0x01\n    /* \"projects/1_PresidentElection.sol\":1270:1276  voters */\n  dup1\n    /* \"projects/1_PresidentElection.sol\":1270:1289  voters[chairperson] */\n  0x00\n    /* \"projects/1_PresidentElection.sol\":1277:1288  chairperson */\n  dup1\n  0x00\n  swap1\n  sload\n  swap1\n  0x0100\n  exp\n  swap1\n  div\n  0xffffffffffffffffffffffffffffffffffffffff\n  and\n    /* \"projects/1_PresidentElection.sol\":1270:1289  voters[chairperson] */\n  0xffffffffffffffffffffffffffffffffffffffff\n  and\n  0xffffffffffffffffffffffffffffffffffffffff\n  and\n  dup2\n  mstore\n  0x20\n  add\n  swap1\n  dup2\n  mstore\n  0x20\n  add\n  0x00\n  keccak256\n    /* \"projects/1_PresidentElection.sol\":1270:1296  voters[chairperson].weight */\n  0x00\n  add\n    /* \"projects/1_PresidentElection.sol\":1270:1300  voters[chairperson].weight = 1 */\n  dup2\n  swap1\n  sstore\n  pop\n    /* \"projects/1_PresidentElection.sol\":1316:1322  uint i */\n  0x00\n    /* \"projects/1_PresidentElection.sol\":1311:1661  for (uint i = 0; i < candidateNames.length; i++) {... */\ntag_6:\n    /* \"projects/1_PresidentElection.sol\":1332:1353  candidateNames.length */\n  0x03\n    /* \"projects/1_PresidentElection.sol\":1328:1329  i */\n  dup2\n    /* \"projects/1_PresidentElection.sol\":1328:1353  i < candidateNames.length */\n  lt\n    /* \"projects/1_PresidentElection.sol\":1311:1661  for (uint i = 0; i < candidateNames.length; i++) {... */\n  iszero\n  tag_7\n  jumpi\n    /* \"projects/1_PresidentElection.sol\":1537:1547  candidates */\n  0x02\n    /* \"projects/1_PresidentElection.sol\":1553:1649  Candidate({... */\n  mload(0x40)\n  dup1\n  0x40\n  add\n  0x40\n  mstore\n  dup1\n    /* \"projects/1_PresidentElection.sol\":1587:1601  candidateNames */\n  0x03\n    /* \"projects/1_PresidentElection.sol\":1602:1603  i */\n  dup5\n    /* \"projects/1_PresidentElection.sol\":1587:1604  candidateNames[i] */\n  0x03\n  dup2\n  lt\n  tag_9\n  jumpi\n  tag_10\n  tag_11\n  jump\t// in\ntag_10:\ntag_9:\n  add\n  sload\n    /* \"projects/1_PresidentElection.sol\":1553:1649  Candidate({... */\n  dup2\n  mstore\n  0x20\n  add\n    /* \"projects/1_PresidentElection.sol\":1633:1634  0 */\n  0x00\n    /* \"projects/1_PresidentElection.sol\":1553:1649  Candidate({... */\n  dup2\n  mstore\n  pop\n    /* \"projects/1_PresidentElection.sol\":1537:1650  candidates.push(Candidate({... */\n  swap1\n  dup1\n  0x01\n  dup2\n  sload\n  add\n  dup1\n  dup3\n  sstore\n  dup1\n  swap2\n  pop\n  pop\n  0x01\n  swap1\n  sub\n  swap1\n  0x00\n  mstore\n  keccak256(0x00, 0x20)\n  swap1\n  0x02\n  mul\n  add\n  0x00\n  swap1\n  swap2\n  swap1\n  swap2\n  swap1\n  swap2\n  pop\n  0x00\n  dup3\n  add\n  mload\n  dup2\n  0x00\n  add\n  sstore\n  0x20\n  dup3\n  add\n  mload\n  dup2\n  0x01\n  add\n  sstore\n  pop\n  pop\n    /* \"projects/1_PresidentElection.sol\":1355:1358  i++ */\n  dup1\n  dup1\n  tag_14\n  swap1\n  tag_15\n  jump\t// in\ntag_14:\n  swap2\n  pop\n  pop\n    /* \"projects/1_PresidentElection.sol\":1311:1661  for (uint i = 0; i < candidateNames.length; i++) {... */\n  jump(tag_6)\ntag_7:\n  pop\n    /* \"projects/1_PresidentElection.sol\":170:5088  contract Ballot {... */\n  jump(tag_16)\ntag_2:\n  dup3\n  0x03\n  dup2\n  add\n  swap3\n  dup3\n  iszero\n  tag_17\n  jumpi\n  swap2\n  0x20\n  mul\n  dup3\n  add\ntag_18:\n  dup3\n  dup2\n  gt\n  iszero\n  tag_19\n  jumpi\n  dup3\n  mload\n  dup3\n  sstore\n  swap2\n  0x20\n  add\n  swap2\n  swap1\n  0x01\n  add\n  swap1\n  jump(tag_18)\ntag_19:\ntag_17:\n  pop\n  swap1\n  pop\n  tag_20\n  swap2\n  swap1\n  tag_21\n  jump\t// in\ntag_20:\n  pop\n  swap1\n  jump\t// out\ntag_21:\ntag_22:\n  dup1\n  dup3\n  gt\n  iszero\n  tag_23\n  jumpi\n  0x00\n  dup2\n  0x00\n  swap1\n  sstore\n  pop\n  0x01\n  add\n  jump(tag_22)\ntag_23:\n  pop\n  swap1\n  jump\t// out\n    /* \"#utility.yul\":7:187   */\ntag_11:\n    /* \"#utility.yul\":55:132   */\n  0x4e487b7100000000000000000000000000000000000000000000000000000000\n    /* \"#utility.yul\":52:53   */\n  0x00\n    /* \"#utility.yul\":45:133   */\n  mstore\n    /* \"#utility.yul\":152:156   */\n  0x32\n    /* \"#utility.yul\":149:150   */\n  0x04\n    /* \"#utility.yul\":142:157   */\n  mstore\n    /* \"#utility.yul\":176:180   */\n  0x24\n    /* \"#utility.yul\":173:174   */\n  0x00\n    /* \"#utility.yul\":166:181   */\n  revert\n    /* \"#utility.yul\":193:373   */\ntag_24:\n    /* \"#utility.yul\":241:318   */\n  0x4e487b7100000000000000000000000000000000000000000000000000000000\n    /* \"#utility.yul\":238:239   */\n  0x00\n    /* \"#utility.yul\":231:319   */\n  mstore\n    /* \"#utility.yul\":338:342   */\n  0x11\n    /* \"#utility.yul\":335:336   */\n  0x04\n    /* \"#utility.yul\":328:343   */\n  mstore\n    /* \"#utility.yul\":362:366   */\n  0x24\n    /* \"#utility.yul\":359:360   */\n  0x00\n    /* \"#utility.yul\":352:367   */\n  revert\n    /* \"#utility.yul\":379:456   */\ntag_25:\n    /* \"#utility.yul\":416:423   */\n  0x00\n    /* \"#utility.yul\":445:450   */\n  dup2\n    /* \"#utility.yul\":434:450   */\n  swap1\n  pop\n    /* \"#utility.yul\":379:456   */\n  swap2\n  swap1\n  pop\n  jump\t// out\n    /* \"#utility.yul\":462:695   */\ntag_15:\n    /* \"#utility.yul\":501:504   */\n  0x00\n    /* \"#utility.yul\":524:548   */\n  tag_31\n    /* \"#utility.yul\":542:547   */\n  dup3\n    /* \"#utility.yul\":524:548   */\n  tag_25\n  jump\t// in\ntag_31:\n    /* \"#utility.yul\":515:548   */\n  swap2\n  pop\n    /* \"#utility.yul\":570:636   */\n  0xffffffffffffffffffffffffffffffffffffffffffffffffffffffffffffffff\n    /* \"#utility.yul\":563:568   */\n  dup3\n    /* \"#utility.yul\":560:637   */\n  sub\n    /* \"#utility.yul\":557:660   */\n  tag_32\n  jumpi\n    /* \"#utility.yul\":640:658   */\n  tag_33\n  tag_24\n  jump\t// in\ntag_33:\n    /* \"#utility.yul\":557:660   */\ntag_32:\n    /* \"#utility.yul\":687:688   */\n  0x01\n    /* \"#utility.yul\":680:685   */\n  dup3\n    /* \"#utility.yul\":676:689   */\n  add\n    /* \"#utility.yul\":669:689   */\n  swap1\n  pop\n    /* \"#utility.yul\":462:695   */\n  swap2\n  swap1\n  pop\n  jump\t// out\n    /* \"projects/1_PresidentElection.sol\":170:5088  contract Ballot {... */\ntag_16:\n  dataSize(sub_0)\n  dup1\n  dataOffset(sub_0)\n  0x00\n  codecopy\n  0x00\n  return\nstop\n\nsub_0: assembly {\n        /* \"projects/1_PresidentElection.sol\":170:5088  contract Ballot {... */\n      mstore(0x40, 0x80)\n      callvalue\n      dup1\n      iszero\n      tag_1\n      jumpi\n      0x00\n      dup1\n      revert\n    tag_1:\n      pop\n      jumpi(tag_2, lt(calldatasize, 0x04))\n      shr(0xe0, calldataload(0x00))\n      dup1\n      0x9e7b8d61\n      gt\n      tag_11\n      jumpi\n      dup1\n      0x9e7b8d61\n      eq\n      tag_7\n      jumpi\n      dup1\n      0xa3ec138d\n      eq\n      tag_8\n      jumpi\n      dup1\n      0xd28178d7\n      eq\n      tag_9\n      jumpi\n      dup1\n      0xe2ba53f0\n      eq\n      tag_10\n      jumpi\n      jump(tag_2)\n    tag_11:\n      dup1\n      0x0121b93f\n      eq\n      tag_3\n      jumpi\n      dup1\n      0x2e4176cf\n      eq\n      tag_4\n      jumpi\n      dup1\n      0x3477ee2e\n      eq\n      tag_5\n      jumpi\n      dup1\n      0x5c19a95c\n      eq\n      tag_6\n      jumpi\n    tag_2:\n      0x00\n      dup1\n      revert\n        /* \"projects/1_PresidentElection.sol\":3620:4083  function vote(uint candidate) public {... */\n    tag_3:\n      tag_12\n      0x04\n      dup1\n      calldatasize\n      sub\n      dup2\n      add\n      swap1\n      tag_13\n      swap2\n      swap1\n      tag_14\n      jump\t// in\n    tag_13:\n      tag_15\n      jump\t// in\n    tag_12:\n      stop\n        /* \"projects/1_PresidentElection.sol\":753:779  address public chairperson */\n    tag_4:\n      tag_16\n      tag_17\n      jump\t// in\n    tag_16:\n      mload(0x40)\n      tag_18\n      swap2\n      swap1\n      tag_19\n      jump\t// in\n    tag_18:\n      mload(0x40)\n      dup1\n      swap2\n      sub\n      swap1\n      return\n        /* \"projects/1_PresidentElection.sol\":867:896  Candidate[] public candidates */\n    tag_5:\n      tag_20\n      0x04\n      dup1\n      calldatasize\n      sub\n      dup2\n      add\n      swap1\n      tag_21\n      swap2\n      swap1\n      tag_14\n      jump\t// in\n    tag_21:\n      tag_22\n      jump\t// in\n    tag_20:\n      mload(0x40)\n      tag_23\n      swap3\n      swap2\n      swap1\n      tag_24\n      jump\t// in\n    tag_23:\n      mload(0x40)\n      dup1\n      swap2\n      sub\n      swap1\n      return\n        /* \"projects/1_PresidentElection.sol\":2306:3429  function delegate(address to) public {... */\n    tag_6:\n      tag_25\n      0x04\n      dup1\n      calldatasize\n      sub\n      dup2\n      add\n      swap1\n      tag_26\n      swap2\n      swap1\n      tag_27\n      jump\t// in\n    tag_26:\n      tag_28\n      jump\t// in\n    tag_25:\n      stop\n        /* \"projects/1_PresidentElection.sol\":1827:2182  function giveRightToVote(address voter) public {... */\n    tag_7:\n      tag_29\n      0x04\n      dup1\n      calldatasize\n      sub\n      dup2\n      add\n      swap1\n      tag_30\n      swap2\n      swap1\n      tag_27\n      jump\t// in\n    tag_30:\n      tag_31\n      jump\t// in\n    tag_29:\n      stop\n        /* \"projects/1_PresidentElection.sol\":786:825  mapping(address => Voter) public voters */\n    tag_8:\n      tag_32\n      0x04\n      dup1\n      calldatasize\n      sub\n      dup2\n      add\n      swap1\n      tag_33\n      swap2\n      swap1\n      tag_27\n      jump\t// in\n    tag_33:\n      tag_34\n      jump\t// in\n    tag_32:\n      mload(0x40)\n      tag_35\n      swap5\n      swap4\n      swap3\n      swap2\n      swap1\n      tag_36\n      jump\t// in\n    tag_35:\n      mload(0x40)\n      dup1\n      swap2\n      sub\n      swap1\n      return\n        /* \"projects/1_PresidentElection.sol\":4273:4644  function winningCandidate() public view... */\n    tag_9:\n      tag_37\n      tag_38\n      jump\t// in\n    tag_37:\n      mload(0x40)\n      tag_39\n      swap2\n      swap1\n      tag_40\n      jump\t// in\n    tag_39:\n      mload(0x40)\n      dup1\n      swap2\n      sub\n      swap1\n      return\n        /* \"projects/1_PresidentElection.sol\":4837:5086  function winnerName() public view... */\n    tag_10:\n      tag_41\n      tag_42\n      jump\t// in\n    tag_41:\n      mload(0x40)\n      tag_43\n      swap2\n      swap1\n      tag_44\n      jump\t// in\n    tag_43:\n      mload(0x40)\n      dup1\n      swap2\n      sub\n      swap1\n      return\n        /* \"projects/1_PresidentElection.sol\":3620:4083  function vote(uint candidate) public {... */\n    tag_15:\n        /* \"projects/1_PresidentElection.sol\":3667:3687  Voter storage sender */\n      0x00\n        /* \"projects/1_PresidentElection.sol\":3690:3696  voters */\n      0x01\n        /* \"projects/1_PresidentElection.sol\":3690:3708  voters[msg.sender] */\n      0x00\n        /* \"projects/1_PresidentElection.sol\":3697:3707  msg.sender */\n      caller\n        /* \"projects/1_PresidentElection.sol\":3690:3708  voters[msg.sender] */\n      0xffffffffffffffffffffffffffffffffffffffff\n      and\n      0xffffffffffffffffffffffffffffffffffffffff\n      and\n      dup2\n      mstore\n      0x20\n      add\n      swap1\n      dup2\n      mstore\n      0x20\n      add\n      0x00\n      keccak256\n        /* \"projects/1_PresidentElection.sol\":3667:3708  Voter storage sender = voters[msg.sender] */\n      swap1\n      pop\n        /* \"projects/1_PresidentElection.sol\":3743:3744  0 */\n      0x00\n        /* \"projects/1_PresidentElection.sol\":3726:3732  sender */\n      dup2\n        /* \"projects/1_PresidentElection.sol\":3726:3739  sender.weight */\n      0x00\n      add\n      sload\n        /* \"projects/1_PresidentElection.sol\":3726:3744  sender.weight != 0 */\n      sub\n        /* \"projects/1_PresidentElection.sol\":3718:3769  require(sender.weight != 0, \"Has no right to vote\") */\n      tag_46\n      jumpi\n      mload(0x40)\n      0x08c379a000000000000000000000000000000000000000000000000000000000\n      dup2\n      mstore\n      0x04\n      add\n      tag_47\n      swap1\n      tag_48\n      jump\t// in\n    tag_47:\n      mload(0x40)\n      dup1\n      swap2\n      sub\n      swap1\n      revert\n    tag_46:\n        /* \"projects/1_PresidentElection.sol\":3788:3794  sender */\n      dup1\n        /* \"projects/1_PresidentElection.sol\":3788:3800  sender.voted */\n      0x01\n      add\n      0x00\n      swap1\n      sload\n      swap1\n      0x0100\n      exp\n      swap1\n      div\n      0xff\n      and\n        /* \"projects/1_PresidentElection.sol\":3787:3800  !sender.voted */\n      iszero\n        /* \"projects/1_PresidentElection.sol\":3779:3819  require(!sender.voted, \"Already voted.\") */\n      tag_49\n      jumpi\n      mload(0x40)\n      0x08c379a000000000000000000000000000000000000000000000000000000000\n      dup2\n      mstore\n      0x04\n      add\n      tag_50\n      swap1\n      tag_51\n      jump\t// in\n    tag_50:\n      mload(0x40)\n      dup1\n      swap2\n      sub\n      swap1\n      revert\n    tag_49:\n        /* \"projects/1_PresidentElection.sol\":3844:3848  true */\n      0x01\n        /* \"projects/1_PresidentElection.sol\":3829:3835  sender */\n      dup2\n        /* \"projects/1_PresidentElection.sol\":3829:3841  sender.voted */\n      0x01\n      add\n      0x00\n        /* \"projects/1_PresidentElection.sol\":3829:3848  sender.voted = true */\n      0x0100\n      exp\n      dup2\n      sload\n      dup2\n      0xff\n      mul\n      not\n      and\n      swap1\n      dup4\n      iszero\n      iszero\n      mul\n      or\n      swap1\n      sstore\n      pop\n        /* \"projects/1_PresidentElection.sol\":3872:3881  candidate */\n      dup2\n        /* \"projects/1_PresidentElection.sol\":3858:3864  sender */\n      dup2\n        /* \"projects/1_PresidentElection.sol\":3858:3869  sender.vote */\n      0x02\n      add\n        /* \"projects/1_PresidentElection.sol\":3858:3881  sender.vote = candidate */\n      dup2\n      swap1\n      sstore\n      pop\n        /* \"projects/1_PresidentElection.sol\":4063:4069  sender */\n      dup1\n        /* \"projects/1_PresidentElection.sol\":4063:4076  sender.weight */\n      0x00\n      add\n      sload\n        /* \"projects/1_PresidentElection.sol\":4028:4038  candidates */\n      0x02\n        /* \"projects/1_PresidentElection.sol\":4039:4048  candidate */\n      dup4\n        /* \"projects/1_PresidentElection.sol\":4028:4049  candidates[candidate] */\n      dup2\n      sload\n      dup2\n      lt\n      tag_52\n      jumpi\n      tag_53\n      tag_54\n      jump\t// in\n    tag_53:\n    tag_52:\n      swap1\n      0x00\n      mstore\n      keccak256(0x00, 0x20)\n      swap1\n      0x02\n      mul\n      add\n        /* \"projects/1_PresidentElection.sol\":4028:4059  candidates[candidate].voteCount */\n      0x01\n      add\n      0x00\n        /* \"projects/1_PresidentElection.sol\":4028:4076  candidates[candidate].voteCount += sender.weight */\n      dup3\n      dup3\n      sload\n      tag_56\n      swap2\n      swap1\n      tag_57\n      jump\t// in\n    tag_56:\n      swap3\n      pop\n      pop\n      dup2\n      swap1\n      sstore\n      pop\n        /* \"projects/1_PresidentElection.sol\":3657:4083  {... */\n      pop\n        /* \"projects/1_PresidentElection.sol\":3620:4083  function vote(uint candidate) public {... */\n      pop\n      jump\t// out\n        /* \"projects/1_PresidentElection.sol\":753:779  address public chairperson */\n    tag_17:\n      0x00\n      dup1\n      sload\n      swap1\n      0x0100\n      exp\n      swap1\n      div\n      0xffffffffffffffffffffffffffffffffffffffff\n      and\n      dup2\n      jump\t// out\n        /* \"projects/1_PresidentElection.sol\":867:896  Candidate[] public candidates */\n    tag_22:\n      0x02\n      dup2\n      dup2\n      sload\n      dup2\n      lt\n      tag_58\n      jumpi\n      0x00\n      dup1\n      revert\n    tag_58:\n      swap1\n      0x00\n      mstore\n      keccak256(0x00, 0x20)\n      swap1\n      0x02\n      mul\n      add\n      0x00\n      swap2\n      pop\n      swap1\n      pop\n      dup1\n      0x00\n      add\n      sload\n      swap1\n      dup1\n      0x01\n      add\n      sload\n      swap1\n      pop\n      dup3\n      jump\t// out\n        /* \"projects/1_PresidentElection.sol\":2306:3429  function delegate(address to) public {... */\n    tag_28:\n        /* \"projects/1_PresidentElection.sol\":2353:2373  Voter storage sender */\n      0x00\n        /* \"projects/1_PresidentElection.sol\":2376:2382  voters */\n      0x01\n        /* \"projects/1_PresidentElection.sol\":2376:2394  voters[msg.sender] */\n      0x00\n        /* \"projects/1_PresidentElection.sol\":2383:2393  msg.sender */\n      caller\n        /* \"projects/1_PresidentElection.sol\":2376:2394  voters[msg.sender] */\n      0xffffffffffffffffffffffffffffffffffffffff\n      and\n      0xffffffffffffffffffffffffffffffffffffffff\n      and\n      dup2\n      mstore\n      0x20\n      add\n      swap1\n      dup2\n      mstore\n      0x20\n      add\n      0x00\n      keccak256\n        /* \"projects/1_PresidentElection.sol\":2353:2394  Voter storage sender = voters[msg.sender] */\n      swap1\n      pop\n        /* \"projects/1_PresidentElection.sol\":2413:2419  sender */\n      dup1\n        /* \"projects/1_PresidentElection.sol\":2413:2425  sender.voted */\n      0x01\n      add\n      0x00\n      swap1\n      sload\n      swap1\n      0x0100\n      exp\n      swap1\n      div\n      0xff\n      and\n        /* \"projects/1_PresidentElection.sol\":2412:2425  !sender.voted */\n      iszero\n        /* \"projects/1_PresidentElection.sol\":2404:2448  require(!sender.voted, \"You already voted.\") */\n      tag_61\n      jumpi\n      mload(0x40)\n      0x08c379a000000000000000000000000000000000000000000000000000000000\n      dup2\n      mstore\n      0x04\n      add\n      tag_62\n      swap1\n      tag_63\n      jump\t// in\n    tag_62:\n      mload(0x40)\n      dup1\n      swap2\n      sub\n      swap1\n      revert\n    tag_61:\n        /* \"projects/1_PresidentElection.sol\":2472:2482  msg.sender */\n      caller\n        /* \"projects/1_PresidentElection.sol\":2466:2482  to != msg.sender */\n      0xffffffffffffffffffffffffffffffffffffffff\n      and\n        /* \"projects/1_PresidentElection.sol\":2466:2468  to */\n      dup3\n        /* \"projects/1_PresidentElection.sol\":2466:2482  to != msg.sender */\n      0xffffffffffffffffffffffffffffffffffffffff\n      and\n      sub\n        /* \"projects/1_PresidentElection.sol\":2458:2517  require(to != msg.sender, \"Self-delegation is disallowed.\") */\n      tag_64\n      jumpi\n      mload(0x40)\n      0x08c379a000000000000000000000000000000000000000000000000000000000\n      dup2\n      mstore\n      0x04\n      add\n      tag_65\n      swap1\n      tag_66\n      jump\t// in\n    tag_65:\n      mload(0x40)\n      dup1\n      swap2\n      sub\n      swap1\n      revert\n    tag_64:\n        /* \"projects/1_PresidentElection.sol\":2743:2966  while (voters[to].delegate != address(0)) {... */\n    tag_67:\n        /* \"projects/1_PresidentElection.sol\":2781:2782  0 */\n      0x00\n        /* \"projects/1_PresidentElection.sol\":2750:2783  voters[to].delegate != address(0) */\n      0xffffffffffffffffffffffffffffffffffffffff\n      and\n        /* \"projects/1_PresidentElection.sol\":2750:2756  voters */\n      0x01\n        /* \"projects/1_PresidentElection.sol\":2750:2760  voters[to] */\n      0x00\n        /* \"projects/1_PresidentElection.sol\":2757:2759  to */\n      dup5\n        /* \"projects/1_PresidentElection.sol\":2750:2760  voters[to] */\n      0xffffffffffffffffffffffffffffffffffffffff\n      and\n      0xffffffffffffffffffffffffffffffffffffffff\n      and\n      dup2\n      mstore\n      0x20\n      add\n      swap1\n      dup2\n      mstore\n      0x20\n      add\n      0x00\n      keccak256\n        /* \"projects/1_PresidentElection.sol\":2750:2769  voters[to].delegate */\n      0x01\n      add\n      0x01\n      swap1\n      sload\n      swap1\n      0x0100\n      exp\n      swap1\n      div\n      0xffffffffffffffffffffffffffffffffffffffff\n      and\n        /* \"projects/1_PresidentElection.sol\":2750:2783  voters[to].delegate != address(0) */\n      0xffffffffffffffffffffffffffffffffffffffff\n      and\n      eq\n        /* \"projects/1_PresidentElection.sol\":2743:2966  while (voters[to].delegate != address(0)) {... */\n      tag_68\n      jumpi\n        /* \"projects/1_PresidentElection.sol\":2804:2810  voters */\n      0x01\n        /* \"projects/1_PresidentElection.sol\":2804:2814  voters[to] */\n      0x00\n        /* \"projects/1_PresidentElection.sol\":2811:2813  to */\n      dup4\n        /* \"projects/1_PresidentElection.sol\":2804:2814  voters[to] */\n      0xffffffffffffffffffffffffffffffffffffffff\n      and\n      0xffffffffffffffffffffffffffffffffffffffff\n      and\n      dup2\n      mstore\n      0x20\n      add\n      swap1\n      dup2\n      mstore\n      0x20\n      add\n      0x00\n      keccak256\n        /* \"projects/1_PresidentElection.sol\":2804:2823  voters[to].delegate */\n      0x01\n      add\n      0x01\n      swap1\n      sload\n      swap1\n      0x0100\n      exp\n      swap1\n      div\n      0xffffffffffffffffffffffffffffffffffffffff\n      and\n        /* \"projects/1_PresidentElection.sol\":2799:2823  to = voters[to].delegate */\n      swap2\n      pop\n        /* \"projects/1_PresidentElection.sol\":2915:2925  msg.sender */\n      caller\n        /* \"projects/1_PresidentElection.sol\":2909:2925  to != msg.sender */\n      0xffffffffffffffffffffffffffffffffffffffff\n      and\n        /* \"projects/1_PresidentElection.sol\":2909:2911  to */\n      dup3\n        /* \"projects/1_PresidentElection.sol\":2909:2925  to != msg.sender */\n      0xffffffffffffffffffffffffffffffffffffffff\n      and\n      sub\n        /* \"projects/1_PresidentElection.sol\":2901:2955  require(to != msg.sender, \"Found loop in delegation.\") */\n      tag_69\n      jumpi\n      mload(0x40)\n      0x08c379a000000000000000000000000000000000000000000000000000000000\n      dup2\n      mstore\n      0x04\n      add\n      tag_70\n      swap1\n      tag_71\n      jump\t// in\n    tag_70:\n      mload(0x40)\n      dup1\n      swap2\n      sub\n      swap1\n      revert\n    tag_69:\n        /* \"projects/1_PresidentElection.sol\":2743:2966  while (voters[to].delegate != address(0)) {... */\n      jump(tag_67)\n    tag_68:\n        /* \"projects/1_PresidentElection.sol\":2990:2994  true */\n      0x01\n        /* \"projects/1_PresidentElection.sol\":2975:2981  sender */\n      dup2\n        /* \"projects/1_PresidentElection.sol\":2975:2987  sender.voted */\n      0x01\n      add\n      0x00\n        /* \"projects/1_PresidentElection.sol\":2975:2994  sender.voted = true */\n      0x0100\n      exp\n      dup2\n      sload\n      dup2\n      0xff\n      mul\n      not\n      and\n      swap1\n      dup4\n      iszero\n      iszero\n      mul\n      or\n      swap1\n      sstore\n      pop\n        /* \"projects/1_PresidentElection.sol\":3022:3024  to */\n      dup2\n        /* \"projects/1_PresidentElection.sol\":3004:3010  sender */\n      dup2\n        /* \"projects/1_PresidentElection.sol\":3004:3019  sender.delegate */\n      0x01\n      add\n      0x01\n        /* \"projects/1_PresidentElection.sol\":3004:3024  sender.delegate = to */\n      0x0100\n      exp\n      dup2\n      sload\n      dup2\n      0xffffffffffffffffffffffffffffffffffffffff\n      mul\n      not\n      and\n      swap1\n      dup4\n      0xffffffffffffffffffffffffffffffffffffffff\n      and\n      mul\n      or\n      swap1\n      sstore\n      pop\n        /* \"projects/1_PresidentElection.sol\":3034:3057  Voter storage delegate_ */\n      0x00\n        /* \"projects/1_PresidentElection.sol\":3060:3066  voters */\n      0x01\n        /* \"projects/1_PresidentElection.sol\":3060:3070  voters[to] */\n      0x00\n        /* \"projects/1_PresidentElection.sol\":3067:3069  to */\n      dup5\n        /* \"projects/1_PresidentElection.sol\":3060:3070  voters[to] */\n      0xffffffffffffffffffffffffffffffffffffffff\n      and\n      0xffffffffffffffffffffffffffffffffffffffff\n      and\n      dup2\n      mstore\n      0x20\n      add\n      swap1\n      dup2\n      mstore\n      0x20\n      add\n      0x00\n      keccak256\n        /* \"projects/1_PresidentElection.sol\":3034:3070  Voter storage delegate_ = voters[to] */\n      swap1\n      pop\n        /* \"projects/1_PresidentElection.sol\":3084:3093  delegate_ */\n      dup1\n        /* \"projects/1_PresidentElection.sol\":3084:3099  delegate_.voted */\n      0x01\n      add\n      0x00\n      swap1\n      sload\n      swap1\n      0x0100\n      exp\n      swap1\n      div\n      0xff\n      and\n        /* \"projects/1_PresidentElection.sol\":3080:3423  if (delegate_.voted) {... */\n      iszero\n      tag_72\n      jumpi\n        /* \"projects/1_PresidentElection.sol\":3252:3258  sender */\n      dup2\n        /* \"projects/1_PresidentElection.sol\":3252:3265  sender.weight */\n      0x00\n      add\n      sload\n        /* \"projects/1_PresidentElection.sol\":3212:3222  candidates */\n      0x02\n        /* \"projects/1_PresidentElection.sol\":3223:3232  delegate_ */\n      dup3\n        /* \"projects/1_PresidentElection.sol\":3223:3237  delegate_.vote */\n      0x02\n      add\n      sload\n        /* \"projects/1_PresidentElection.sol\":3212:3238  candidates[delegate_.vote] */\n      dup2\n      sload\n      dup2\n      lt\n      tag_73\n      jumpi\n      tag_74\n      tag_54\n      jump\t// in\n    tag_74:\n    tag_73:\n      swap1\n      0x00\n      mstore\n      keccak256(0x00, 0x20)\n      swap1\n      0x02\n      mul\n      add\n        /* \"projects/1_PresidentElection.sol\":3212:3248  candidates[delegate_.vote].voteCount */\n      0x01\n      add\n      0x00\n        /* \"projects/1_PresidentElection.sol\":3212:3265  candidates[delegate_.vote].voteCount += sender.weight */\n      dup3\n      dup3\n      sload\n      tag_76\n      swap2\n      swap1\n      tag_57\n      jump\t// in\n    tag_76:\n      swap3\n      pop\n      pop\n      dup2\n      swap1\n      sstore\n      pop\n        /* \"projects/1_PresidentElection.sol\":3080:3423  if (delegate_.voted) {... */\n      jump(tag_77)\n    tag_72:\n        /* \"projects/1_PresidentElection.sol\":3399:3405  sender */\n      dup2\n        /* \"projects/1_PresidentElection.sol\":3399:3412  sender.weight */\n      0x00\n      add\n      sload\n        /* \"projects/1_PresidentElection.sol\":3379:3388  delegate_ */\n      dup2\n        /* \"projects/1_PresidentElection.sol\":3379:3395  delegate_.weight */\n      0x00\n      add\n      0x00\n        /* \"projects/1_PresidentElection.sol\":3379:3412  delegate_.weight += sender.weight */\n      dup3\n      dup3\n      sload\n      tag_78\n      swap2\n      swap1\n      tag_57\n      jump\t// in\n    tag_78:\n      swap3\n      pop\n      pop\n      dup2\n      swap1\n      sstore\n      pop\n        /* \"projects/1_PresidentElection.sol\":3080:3423  if (delegate_.voted) {... */\n    tag_77:\n        /* \"projects/1_PresidentElection.sol\":2343:3429  {... */\n      pop\n      pop\n        /* \"projects/1_PresidentElection.sol\":2306:3429  function delegate(address to) public {... */\n      pop\n      jump\t// out\n        /* \"projects/1_PresidentElection.sol\":1827:2182  function giveRightToVote(address voter) public {... */\n    tag_31:\n        /* \"projects/1_PresidentElection.sol\":1919:1930  chairperson */\n      0x00\n      dup1\n      sload\n      swap1\n      0x0100\n      exp\n      swap1\n      div\n      0xffffffffffffffffffffffffffffffffffffffff\n      and\n        /* \"projects/1_PresidentElection.sol\":1905:1930  msg.sender == chairperson */\n      0xffffffffffffffffffffffffffffffffffffffff\n      and\n        /* \"projects/1_PresidentElection.sol\":1905:1915  msg.sender */\n      caller\n        /* \"projects/1_PresidentElection.sol\":1905:1930  msg.sender == chairperson */\n      0xffffffffffffffffffffffffffffffffffffffff\n      and\n      eq\n        /* \"projects/1_PresidentElection.sol\":1884:1996  require(... */\n      tag_80\n      jumpi\n      mload(0x40)\n      0x08c379a000000000000000000000000000000000000000000000000000000000\n      dup2\n      mstore\n      0x04\n      add\n      tag_81\n      swap1\n      tag_82\n      jump\t// in\n    tag_81:\n      mload(0x40)\n      dup1\n      swap2\n      sub\n      swap1\n      revert\n    tag_80:\n        /* \"projects/1_PresidentElection.sol\":2028:2034  voters */\n      0x01\n        /* \"projects/1_PresidentElection.sol\":2028:2041  voters[voter] */\n      0x00\n        /* \"projects/1_PresidentElection.sol\":2035:2040  voter */\n      dup3\n        /* \"projects/1_PresidentElection.sol\":2028:2041  voters[voter] */\n      0xffffffffffffffffffffffffffffffffffffffff\n      and\n      0xffffffffffffffffffffffffffffffffffffffff\n      and\n      dup2\n      mstore\n      0x20\n      add\n      swap1\n      dup2\n      mstore\n      0x20\n      add\n      0x00\n      keccak256\n        /* \"projects/1_PresidentElection.sol\":2028:2047  voters[voter].voted */\n      0x01\n      add\n      0x00\n      swap1\n      sload\n      swap1\n      0x0100\n      exp\n      swap1\n      div\n      0xff\n      and\n        /* \"projects/1_PresidentElection.sol\":2027:2047  !voters[voter].voted */\n      iszero\n        /* \"projects/1_PresidentElection.sol\":2006:2097  require(... */\n      tag_83\n      jumpi\n      mload(0x40)\n      0x08c379a000000000000000000000000000000000000000000000000000000000\n      dup2\n      mstore\n      0x04\n      add\n      tag_84\n      swap1\n      tag_85\n      jump\t// in\n    tag_84:\n      mload(0x40)\n      dup1\n      swap2\n      sub\n      swap1\n      revert\n    tag_83:\n        /* \"projects/1_PresidentElection.sol\":2139:2140  0 */\n      0x00\n        /* \"projects/1_PresidentElection.sol\":2115:2121  voters */\n      0x01\n        /* \"projects/1_PresidentElection.sol\":2115:2128  voters[voter] */\n      0x00\n        /* \"projects/1_PresidentElection.sol\":2122:2127  voter */\n      dup4\n        /* \"projects/1_PresidentElection.sol\":2115:2128  voters[voter] */\n      0xffffffffffffffffffffffffffffffffffffffff\n      and\n      0xffffffffffffffffffffffffffffffffffffffff\n      and\n      dup2\n      mstore\n      0x20\n      add\n      swap1\n      dup2\n      mstore\n      0x20\n      add\n      0x00\n      keccak256\n        /* \"projects/1_PresidentElection.sol\":2115:2135  voters[voter].weight */\n      0x00\n      add\n      sload\n        /* \"projects/1_PresidentElection.sol\":2115:2140  voters[voter].weight == 0 */\n      eq\n        /* \"projects/1_PresidentElection.sol\":2107:2141  require(voters[voter].weight == 0) */\n      tag_86\n      jumpi\n      0x00\n      dup1\n      revert\n    tag_86:\n        /* \"projects/1_PresidentElection.sol\":2174:2175  1 */\n      0x01\n        /* \"projects/1_PresidentElection.sol\":2151:2157  voters */\n      dup1\n        /* \"projects/1_PresidentElection.sol\":2151:2164  voters[voter] */\n      0x00\n        /* \"projects/1_PresidentElection.sol\":2158:2163  voter */\n      dup4\n        /* \"projects/1_PresidentElection.sol\":2151:2164  voters[voter] */\n      0xffffffffffffffffffffffffffffffffffffffff\n      and\n      0xffffffffffffffffffffffffffffffffffffffff\n      and\n      dup2\n      mstore\n      0x20\n      add\n      swap1\n      dup2\n      mstore\n      0x20\n      add\n      0x00\n      keccak256\n        /* \"projects/1_PresidentElection.sol\":2151:2171  voters[voter].weight */\n      0x00\n      add\n        /* \"projects/1_PresidentElection.sol\":2151:2175  voters[voter].weight = 1 */\n      dup2\n      swap1\n      sstore\n      pop\n        /* \"projects/1_PresidentElection.sol\":1827:2182  function giveRightToVote(address voter) public {... */\n      pop\n      jump\t// out\n        /* \"projects/1_PresidentElection.sol\":786:825  mapping(address => Voter) public voters */\n    tag_34:\n      mstore(0x20, 0x01)\n      dup1\n      0x00\n      mstore\n      keccak256(0x00, 0x40)\n      0x00\n      swap2\n      pop\n      swap1\n      pop\n      dup1\n      0x00\n      add\n      sload\n      swap1\n      dup1\n      0x01\n      add\n      0x00\n      swap1\n      sload\n      swap1\n      0x0100\n      exp\n      swap1\n      div\n      0xff\n      and\n      swap1\n      dup1\n      0x01\n      add\n      0x01\n      swap1\n      sload\n      swap1\n      0x0100\n      exp\n      swap1\n      div\n      0xffffffffffffffffffffffffffffffffffffffff\n      and\n      swap1\n      dup1\n      0x02\n      add\n      sload\n      swap1\n      pop\n      dup5\n      jump\t// out\n        /* \"projects/1_PresidentElection.sol\":4273:4644  function winningCandidate() public view... */\n    tag_38:\n        /* \"projects/1_PresidentElection.sol\":4334:4356  uint winningCandidate_ */\n      0x00\n        /* \"projects/1_PresidentElection.sol\":4372:4393  uint winningVoteCount */\n      dup1\n        /* \"projects/1_PresidentElection.sol\":4396:4397  0 */\n      0x00\n        /* \"projects/1_PresidentElection.sol\":4372:4397  uint winningVoteCount = 0 */\n      swap1\n      pop\n        /* \"projects/1_PresidentElection.sol\":4412:4418  uint p */\n      0x00\n        /* \"projects/1_PresidentElection.sol\":4407:4638  for (uint p = 0; p < candidates.length; p++) {... */\n    tag_88:\n        /* \"projects/1_PresidentElection.sol\":4428:4438  candidates */\n      0x02\n        /* \"projects/1_PresidentElection.sol\":4428:4445  candidates.length */\n      dup1\n      sload\n      swap1\n      pop\n        /* \"projects/1_PresidentElection.sol\":4424:4425  p */\n      dup2\n        /* \"projects/1_PresidentElection.sol\":4424:4445  p < candidates.length */\n      lt\n        /* \"projects/1_PresidentElection.sol\":4407:4638  for (uint p = 0; p < candidates.length; p++) {... */\n      iszero\n      tag_89\n      jumpi\n        /* \"projects/1_PresidentElection.sol\":4496:4512  winningVoteCount */\n      dup2\n        /* \"projects/1_PresidentElection.sol\":4470:4480  candidates */\n      0x02\n        /* \"projects/1_PresidentElection.sol\":4481:4482  p */\n      dup3\n        /* \"projects/1_PresidentElection.sol\":4470:4483  candidates[p] */\n      dup2\n      sload\n      dup2\n      lt\n      tag_91\n      jumpi\n      tag_92\n      tag_54\n      jump\t// in\n    tag_92:\n    tag_91:\n      swap1\n      0x00\n      mstore\n      keccak256(0x00, 0x20)\n      swap1\n      0x02\n      mul\n      add\n        /* \"projects/1_PresidentElection.sol\":4470:4493  candidates[p].voteCount */\n      0x01\n      add\n      sload\n        /* \"projects/1_PresidentElection.sol\":4470:4512  candidates[p].voteCount > winningVoteCount */\n      gt\n        /* \"projects/1_PresidentElection.sol\":4466:4628  if (candidates[p].voteCount > winningVoteCount) {... */\n      iszero\n      tag_94\n      jumpi\n        /* \"projects/1_PresidentElection.sol\":4551:4561  candidates */\n      0x02\n        /* \"projects/1_PresidentElection.sol\":4562:4563  p */\n      dup2\n        /* \"projects/1_PresidentElection.sol\":4551:4564  candidates[p] */\n      dup2\n      sload\n      dup2\n      lt\n      tag_95\n      jumpi\n      tag_96\n      tag_54\n      jump\t// in\n    tag_96:\n    tag_95:\n      swap1\n      0x00\n      mstore\n      keccak256(0x00, 0x20)\n      swap1\n      0x02\n      mul\n      add\n        /* \"projects/1_PresidentElection.sol\":4551:4574  candidates[p].voteCount */\n      0x01\n      add\n      sload\n        /* \"projects/1_PresidentElection.sol\":4532:4574  winningVoteCount = candidates[p].voteCount */\n      swap2\n      pop\n        /* \"projects/1_PresidentElection.sol\":4612:4613  p */\n      dup1\n        /* \"projects/1_PresidentElection.sol\":4592:4613  winningCandidate_ = p */\n      swap3\n      pop\n        /* \"projects/1_PresidentElection.sol\":4466:4628  if (candidates[p].voteCount > winningVoteCount) {... */\n    tag_94:\n        /* \"projects/1_PresidentElection.sol\":4447:4450  p++ */\n      dup1\n      dup1\n      tag_98\n      swap1\n      tag_99\n      jump\t// in\n    tag_98:\n      swap2\n      pop\n      pop\n        /* \"projects/1_PresidentElection.sol\":4407:4638  for (uint p = 0; p < candidates.length; p++) {... */\n      jump(tag_88)\n    tag_89:\n      pop\n        /* \"projects/1_PresidentElection.sol\":4362:4644  {... */\n      pop\n        /* \"projects/1_PresidentElection.sol\":4273:4644  function winningCandidate() public view... */\n      swap1\n      jump\t// out\n        /* \"projects/1_PresidentElection.sol\":4837:5086  function winnerName() public view... */\n    tag_42:\n        /* \"projects/1_PresidentElection.sol\":4892:4918  string  memory winnerName_ */\n      0x60\n        /* \"projects/1_PresidentElection.sol\":4972:4985  bytes32  temp */\n      0x00\n        /* \"projects/1_PresidentElection.sol\":4988:4998  candidates */\n      0x02\n        /* \"projects/1_PresidentElection.sol\":4999:5017  winningCandidate() */\n      tag_101\n        /* \"projects/1_PresidentElection.sol\":4999:5015  winningCandidate */\n      tag_38\n        /* \"projects/1_PresidentElection.sol\":4999:5017  winningCandidate() */\n      jump\t// in\n    tag_101:\n        /* \"projects/1_PresidentElection.sol\":4988:5018  candidates[winningCandidate()] */\n      dup2\n      sload\n      dup2\n      lt\n      tag_102\n      jumpi\n      tag_103\n      tag_54\n      jump\t// in\n    tag_103:\n    tag_102:\n      swap1\n      0x00\n      mstore\n      keccak256(0x00, 0x20)\n      swap1\n      0x02\n      mul\n      add\n        /* \"projects/1_PresidentElection.sol\":4988:5023  candidates[winningCandidate()].name */\n      0x00\n      add\n      sload\n        /* \"projects/1_PresidentElection.sol\":4972:5023  bytes32  temp = candidates[winningCandidate()].name */\n      swap1\n      pop\n        /* \"projects/1_PresidentElection.sol\":5072:5076  temp */\n      dup1\n        /* \"projects/1_PresidentElection.sol\":5055:5077  abi.encodePacked(temp) */\n      add(0x20, mload(0x40))\n      tag_105\n      swap2\n      swap1\n      tag_106\n      jump\t// in\n    tag_105:\n      mload(0x40)\n      0x20\n      dup2\n      dup4\n      sub\n      sub\n      dup2\n      mstore\n      swap1\n      0x40\n      mstore\n        /* \"projects/1_PresidentElection.sol\":5033:5078  winnerName_ =  string(abi.encodePacked(temp)) */\n      swap2\n      pop\n        /* \"projects/1_PresidentElection.sol\":4968:5086  {   bytes32  temp = candidates[winningCandidate()].name;... */\n      pop\n        /* \"projects/1_PresidentElection.sol\":4837:5086  function winnerName() public view... */\n      swap1\n      jump\t// out\n        /* \"#utility.yul\":88:205   */\n    tag_108:\n        /* \"#utility.yul\":197:198   */\n      0x00\n        /* \"#utility.yul\":194:195   */\n      dup1\n        /* \"#utility.yul\":187:199   */\n      revert\n        /* \"#utility.yul\":334:411   */\n    tag_110:\n        /* \"#utility.yul\":371:378   */\n      0x00\n        /* \"#utility.yul\":400:405   */\n      dup2\n        /* \"#utility.yul\":389:405   */\n      swap1\n      pop\n        /* \"#utility.yul\":334:411   */\n      swap2\n      swap1\n      pop\n      jump\t// out\n        /* \"#utility.yul\":417:539   */\n    tag_111:\n        /* \"#utility.yul\":490:514   */\n      tag_151\n        /* \"#utility.yul\":508:513   */\n      dup2\n        /* \"#utility.yul\":490:514   */\n      tag_110\n      jump\t// in\n    tag_151:\n        /* \"#utility.yul\":483:488   */\n      dup2\n        /* \"#utility.yul\":480:515   */\n      eq\n        /* \"#utility.yul\":470:533   */\n      tag_152\n      jumpi\n        /* \"#utility.yul\":529:530   */\n      0x00\n        /* \"#utility.yul\":526:527   */\n      dup1\n        /* \"#utility.yul\":519:531   */\n      revert\n        /* \"#utility.yul\":470:533   */\n    tag_152:\n        /* \"#utility.yul\":417:539   */\n      pop\n      jump\t// out\n        /* \"#utility.yul\":545:684   */\n    tag_112:\n        /* \"#utility.yul\":591:596   */\n      0x00\n        /* \"#utility.yul\":629:635   */\n      dup2\n        /* \"#utility.yul\":616:636   */\n      calldataload\n        /* \"#utility.yul\":607:636   */\n      swap1\n      pop\n        /* \"#utility.yul\":645:678   */\n      tag_154\n        /* \"#utility.yul\":672:677   */\n      dup2\n        /* \"#utility.yul\":645:678   */\n      tag_111\n      jump\t// in\n    tag_154:\n        /* \"#utility.yul\":545:684   */\n      swap3\n      swap2\n      pop\n      pop\n      jump\t// out\n        /* \"#utility.yul\":690:1019   */\n    tag_14:\n        /* \"#utility.yul\":749:755   */\n      0x00\n        /* \"#utility.yul\":798:800   */\n      0x20\n        /* \"#utility.yul\":786:795   */\n      dup3\n        /* \"#utility.yul\":777:784   */\n      dup5\n        /* \"#utility.yul\":773:796   */\n      sub\n        /* \"#utility.yul\":769:801   */\n      slt\n        /* \"#utility.yul\":766:885   */\n      iszero\n      tag_156\n      jumpi\n        /* \"#utility.yul\":804:883   */\n      tag_157\n      tag_108\n      jump\t// in\n    tag_157:\n        /* \"#utility.yul\":766:885   */\n    tag_156:\n        /* \"#utility.yul\":924:925   */\n      0x00\n        /* \"#utility.yul\":949:1002   */\n      tag_158\n        /* \"#utility.yul\":994:1001   */\n      dup5\n        /* \"#utility.yul\":985:991   */\n      dup3\n        /* \"#utility.yul\":974:983   */\n      dup6\n        /* \"#utility.yul\":970:992   */\n      add\n        /* \"#utility.yul\":949:1002   */\n      tag_112\n      jump\t// in\n    tag_158:\n        /* \"#utility.yul\":939:1002   */\n      swap2\n      pop\n        /* \"#utility.yul\":895:1012   */\n      pop\n        /* \"#utility.yul\":690:1019   */\n      swap3\n      swap2\n      pop\n      pop\n      jump\t// out\n        /* \"#utility.yul\":1025:1151   */\n    tag_113:\n        /* \"#utility.yul\":1062:1069   */\n      0x00\n        /* \"#utility.yul\":1102:1144   */\n      0xffffffffffffffffffffffffffffffffffffffff\n        /* \"#utility.yul\":1095:1100   */\n      dup3\n        /* \"#utility.yul\":1091:1145   */\n      and\n        /* \"#utility.yul\":1080:1145   */\n      swap1\n      pop\n        /* \"#utility.yul\":1025:1151   */\n      swap2\n      swap1\n      pop\n      jump\t// out\n        /* \"#utility.yul\":1157:1253   */\n    tag_114:\n        /* \"#utility.yul\":1194:1201   */\n      0x00\n        /* \"#utility.yul\":1223:1247   */\n      tag_161\n        /* \"#utility.yul\":1241:1246   */\n      dup3\n        /* \"#utility.yul\":1223:1247   */\n      tag_113\n      jump\t// in\n    tag_161:\n        /* \"#utility.yul\":1212:1247   */\n      swap1\n      pop\n        /* \"#utility.yul\":1157:1253   */\n      swap2\n      swap1\n      pop\n      jump\t// out\n        /* \"#utility.yul\":1259:1377   */\n    tag_115:\n        /* \"#utility.yul\":1346:1370   */\n      tag_163\n        /* \"#utility.yul\":1364:1369   */\n      dup2\n        /* \"#utility.yul\":1346:1370   */\n      tag_114\n      jump\t// in\n    tag_163:\n        /* \"#utility.yul\":1341:1344   */\n      dup3\n        /* \"#utility.yul\":1334:1371   */\n      mstore\n        /* \"#utility.yul\":1259:1377   */\n      pop\n      pop\n      jump\t// out\n        /* \"#utility.yul\":1383:1605   */\n    tag_19:\n        /* \"#utility.yul\":1476:1480   */\n      0x00\n        /* \"#utility.yul\":1514:1516   */\n      0x20\n        /* \"#utility.yul\":1503:1512   */\n      dup3\n        /* \"#utility.yul\":1499:1517   */\n      add\n        /* \"#utility.yul\":1491:1517   */\n      swap1\n      pop\n        /* \"#utility.yul\":1527:1598   */\n      tag_165\n        /* \"#utility.yul\":1595:1596   */\n      0x00\n        /* \"#utility.yul\":1584:1593   */\n      dup4\n        /* \"#utility.yul\":1580:1597   */\n      add\n        /* \"#utility.yul\":1571:1577   */\n      dup5\n        /* \"#utility.yul\":1527:1598   */\n      tag_115\n      jump\t// in\n    tag_165:\n        /* \"#utility.yul\":1383:1605   */\n      swap3\n      swap2\n      pop\n      pop\n      jump\t// out\n        /* \"#utility.yul\":1611:1688   */\n    tag_116:\n        /* \"#utility.yul\":1648:1655   */\n      0x00\n        /* \"#utility.yul\":1677:1682   */\n      dup2\n        /* \"#utility.yul\":1666:1682   */\n      swap1\n      pop\n        /* \"#utility.yul\":1611:1688   */\n      swap2\n      swap1\n      pop\n      jump\t// out\n        /* \"#utility.yul\":1694:1812   */\n    tag_117:\n        /* \"#utility.yul\":1781:1805   */\n      tag_168\n        /* \"#utility.yul\":1799:1804   */\n      dup2\n        /* \"#utility.yul\":1781:1805   */\n      tag_116\n      jump\t// in\n    tag_168:\n        /* \"#utility.yul\":1776:1779   */\n      dup3\n        /* \"#utility.yul\":1769:1806   */\n      mstore\n        /* \"#utility.yul\":1694:1812   */\n      pop\n      pop\n      jump\t// out\n        /* \"#utility.yul\":1818:1936   */\n    tag_118:\n        /* \"#utility.yul\":1905:1929   */\n      tag_170\n        /* \"#utility.yul\":1923:1928   */\n      dup2\n        /* \"#utility.yul\":1905:1929   */\n      tag_110\n      jump\t// in\n    tag_170:\n        /* \"#utility.yul\":1900:1903   */\n      dup3\n        /* \"#utility.yul\":1893:1930   */\n      mstore\n        /* \"#utility.yul\":1818:1936   */\n      pop\n      pop\n      jump\t// out\n        /* \"#utility.yul\":1942:2274   */\n    tag_24:\n        /* \"#utility.yul\":2063:2067   */\n      0x00\n        /* \"#utility.yul\":2101:2103   */\n      0x40\n        /* \"#utility.yul\":2090:2099   */\n      dup3\n        /* \"#utility.yul\":2086:2104   */\n      add\n        /* \"#utility.yul\":2078:2104   */\n      swap1\n      pop\n        /* \"#utility.yul\":2114:2185   */\n      tag_172\n        /* \"#utility.yul\":2182:2183   */\n      0x00\n        /* \"#utility.yul\":2171:2180   */\n      dup4\n        /* \"#utility.yul\":2167:2184   */\n      add\n        /* \"#utility.yul\":2158:2164   */\n      dup6\n        /* \"#utility.yul\":2114:2185   */\n      tag_117\n      jump\t// in\n    tag_172:\n        /* \"#utility.yul\":2195:2267   */\n      tag_173\n        /* \"#utility.yul\":2263:2265   */\n      0x20\n        /* \"#utility.yul\":2252:2261   */\n      dup4\n        /* \"#utility.yul\":2248:2266   */\n      add\n        /* \"#utility.yul\":2239:2245   */\n      dup5\n        /* \"#utility.yul\":2195:2267   */\n      tag_118\n      jump\t// in\n    tag_173:\n        /* \"#utility.yul\":1942:2274   */\n      swap4\n      swap3\n      pop\n      pop\n      pop\n      jump\t// out\n        /* \"#utility.yul\":2280:2402   */\n    tag_119:\n        /* \"#utility.yul\":2353:2377   */\n      tag_175\n        /* \"#utility.yul\":2371:2376   */\n      dup2\n        /* \"#utility.yul\":2353:2377   */\n      tag_114\n      jump\t// in\n    tag_175:\n        /* \"#utility.yul\":2346:2351   */\n      dup2\n        /* \"#utility.yul\":2343:2378   */\n      eq\n        /* \"#utility.yul\":2333:2396   */\n      tag_176\n      jumpi\n        /* \"#utility.yul\":2392:2393   */\n      0x00\n        /* \"#utility.yul\":2389:2390   */\n      dup1\n        /* \"#utility.yul\":2382:2394   */\n      revert\n        /* \"#utility.yul\":2333:2396   */\n    tag_176:\n        /* \"#utility.yul\":2280:2402   */\n      pop\n      jump\t// out\n        /* \"#utility.yul\":2408:2547   */\n    tag_120:\n        /* \"#utility.yul\":2454:2459   */\n      0x00\n        /* \"#utility.yul\":2492:2498   */\n      dup2\n        /* \"#utility.yul\":2479:2499   */\n      calldataload\n        /* \"#utility.yul\":2470:2499   */\n      swap1\n      pop\n        /* \"#utility.yul\":2508:2541   */\n      tag_178\n        /* \"#utility.yul\":2535:2540   */\n      dup2\n        /* \"#utility.yul\":2508:2541   */\n      tag_119\n      jump\t// in\n    tag_178:\n        /* \"#utility.yul\":2408:2547   */\n      swap3\n      swap2\n      pop\n      pop\n      jump\t// out\n        /* \"#utility.yul\":2553:2882   */\n    tag_27:\n        /* \"#utility.yul\":2612:2618   */\n      0x00\n        /* \"#utility.yul\":2661:2663   */\n      0x20\n        /* \"#utility.yul\":2649:2658   */\n      dup3\n        /* \"#utility.yul\":2640:2647   */\n      dup5\n        /* \"#utility.yul\":2636:2659   */\n      sub\n        /* \"#utility.yul\":2632:2664   */\n      slt\n        /* \"#utility.yul\":2629:2748   */\n      iszero\n      tag_180\n      jumpi\n        /* \"#utility.yul\":2667:2746   */\n      tag_181\n      tag_108\n      jump\t// in\n    tag_181:\n        /* \"#utility.yul\":2629:2748   */\n    tag_180:\n        /* \"#utility.yul\":2787:2788   */\n      0x00\n        /* \"#utility.yul\":2812:2865   */\n      tag_182\n        /* \"#utility.yul\":2857:2864   */\n      dup5\n        /* \"#utility.yul\":2848:2854   */\n      dup3\n        /* \"#utility.yul\":2837:2846   */\n      dup6\n        /* \"#utility.yul\":2833:2855   */\n      add\n        /* \"#utility.yul\":2812:2865   */\n      tag_120\n      jump\t// in\n    tag_182:\n        /* \"#utility.yul\":2802:2865   */\n      swap2\n      pop\n        /* \"#utility.yul\":2758:2875   */\n      pop\n        /* \"#utility.yul\":2553:2882   */\n      swap3\n      swap2\n      pop\n      pop\n      jump\t// out\n        /* \"#utility.yul\":2888:2978   */\n    tag_121:\n        /* \"#utility.yul\":2922:2929   */\n      0x00\n        /* \"#utility.yul\":2965:2970   */\n      dup2\n        /* \"#utility.yul\":2958:2971   */\n      iszero\n        /* \"#utility.yul\":2951:2972   */\n      iszero\n        /* \"#utility.yul\":2940:2972   */\n      swap1\n      pop\n        /* \"#utility.yul\":2888:2978   */\n      swap2\n      swap1\n      pop\n      jump\t// out\n        /* \"#utility.yul\":2984:3093   */\n    tag_122:\n        /* \"#utility.yul\":3065:3086   */\n      tag_185\n        /* \"#utility.yul\":3080:3085   */\n      dup2\n        /* \"#utility.yul\":3065:3086   */\n      tag_121\n      jump\t// in\n    tag_185:\n        /* \"#utility.yul\":3060:3063   */\n      dup3\n        /* \"#utility.yul\":3053:3087   */\n      mstore\n        /* \"#utility.yul\":2984:3093   */\n      pop\n      pop\n      jump\t// out\n        /* \"#utility.yul\":3099:3640   */\n    tag_36:\n        /* \"#utility.yul\":3270:3274   */\n      0x00\n        /* \"#utility.yul\":3308:3311   */\n      0x80\n        /* \"#utility.yul\":3297:3306   */\n      dup3\n        /* \"#utility.yul\":3293:3312   */\n      add\n        /* \"#utility.yul\":3285:3312   */\n      swap1\n      pop\n        /* \"#utility.yul\":3322:3393   */\n      tag_187\n        /* \"#utility.yul\":3390:3391   */\n      0x00\n        /* \"#utility.yul\":3379:3388   */\n      dup4\n        /* \"#utility.yul\":3375:3392   */\n      add\n        /* \"#utility.yul\":3366:3372   */\n      dup8\n        /* \"#utility.yul\":3322:3393   */\n      tag_118\n      jump\t// in\n    tag_187:\n        /* \"#utility.yul\":3403:3469   */\n      tag_188\n        /* \"#utility.yul\":3465:3467   */\n      0x20\n        /* \"#utility.yul\":3454:3463   */\n      dup4\n        /* \"#utility.yul\":3450:3468   */\n      add\n        /* \"#utility.yul\":3441:3447   */\n      dup7\n        /* \"#utility.yul\":3403:3469   */\n      tag_122\n      jump\t// in\n    tag_188:\n        /* \"#utility.yul\":3479:3551   */\n      tag_189\n        /* \"#utility.yul\":3547:3549   */\n      0x40\n        /* \"#utility.yul\":3536:3545   */\n      dup4\n        /* \"#utility.yul\":3532:3550   */\n      add\n        /* \"#utility.yul\":3523:3529   */\n      dup6\n        /* \"#utility.yul\":3479:3551   */\n      tag_115\n      jump\t// in\n    tag_189:\n        /* \"#utility.yul\":3561:3633   */\n      tag_190\n        /* \"#utility.yul\":3629:3631   */\n      0x60\n        /* \"#utility.yul\":3618:3627   */\n      dup4\n        /* \"#utility.yul\":3614:3632   */\n      add\n        /* \"#utility.yul\":3605:3611   */\n      dup5\n        /* \"#utility.yul\":3561:3633   */\n      tag_118\n      jump\t// in\n    tag_190:\n        /* \"#utility.yul\":3099:3640   */\n      swap6\n      swap5\n      pop\n      pop\n      pop\n      pop\n      pop\n      jump\t// out\n        /* \"#utility.yul\":3646:3868   */\n    tag_40:\n        /* \"#utility.yul\":3739:3743   */\n      0x00\n        /* \"#utility.yul\":3777:3779   */\n      0x20\n        /* \"#utility.yul\":3766:3775   */\n      dup3\n        /* \"#utility.yul\":3762:3780   */\n      add\n        /* \"#utility.yul\":3754:3780   */\n      swap1\n      pop\n        /* \"#utility.yul\":3790:3861   */\n      tag_192\n        /* \"#utility.yul\":3858:3859   */\n      0x00\n        /* \"#utility.yul\":3847:3856   */\n      dup4\n        /* \"#utility.yul\":3843:3860   */\n      add\n        /* \"#utility.yul\":3834:3840   */\n      dup5\n        /* \"#utility.yul\":3790:3861   */\n      tag_118\n      jump\t// in\n    tag_192:\n        /* \"#utility.yul\":3646:3868   */\n      swap3\n      swap2\n      pop\n      pop\n      jump\t// out\n        /* \"#utility.yul\":3874:3973   */\n    tag_123:\n        /* \"#utility.yul\":3926:3932   */\n      0x00\n        /* \"#utility.yul\":3960:3965   */\n      dup2\n        /* \"#utility.yul\":3954:3966   */\n      mload\n        /* \"#utility.yul\":3944:3966   */\n      swap1\n      pop\n        /* \"#utility.yul\":3874:3973   */\n      swap2\n      swap1\n      pop\n      jump\t// out\n        /* \"#utility.yul\":3979:4148   */\n    tag_124:\n        /* \"#utility.yul\":4063:4074   */\n      0x00\n        /* \"#utility.yul\":4097:4103   */\n      dup3\n        /* \"#utility.yul\":4092:4095   */\n      dup3\n        /* \"#utility.yul\":4085:4104   */\n      mstore\n        /* \"#utility.yul\":4137:4141   */\n      0x20\n        /* \"#utility.yul\":4132:4135   */\n      dup3\n        /* \"#utility.yul\":4128:4142   */\n      add\n        /* \"#utility.yul\":4113:4142   */\n      swap1\n      pop\n        /* \"#utility.yul\":3979:4148   */\n      swap3\n      swap2\n      pop\n      pop\n      jump\t// out\n        /* \"#utility.yul\":4154:4461   */\n    tag_125:\n        /* \"#utility.yul\":4222:4223   */\n      0x00\n        /* \"#utility.yul\":4232:4345   */\n    tag_196:\n        /* \"#utility.yul\":4246:4252   */\n      dup4\n        /* \"#utility.yul\":4243:4244   */\n      dup2\n        /* \"#utility.yul\":4240:4253   */\n      lt\n        /* \"#utility.yul\":4232:4345   */\n      iszero\n      tag_198\n      jumpi\n        /* \"#utility.yul\":4331:4332   */\n      dup1\n        /* \"#utility.yul\":4326:4329   */\n      dup3\n        /* \"#utility.yul\":4322:4333   */\n      add\n        /* \"#utility.yul\":4316:4334   */\n      mload\n        /* \"#utility.yul\":4312:4313   */\n      dup2\n        /* \"#utility.yul\":4307:4310   */\n      dup5\n        /* \"#utility.yul\":4303:4314   */\n      add\n        /* \"#utility.yul\":4296:4335   */\n      mstore\n        /* \"#utility.yul\":4268:4270   */\n      0x20\n        /* \"#utility.yul\":4265:4266   */\n      dup2\n        /* \"#utility.yul\":4261:4271   */\n      add\n        /* \"#utility.yul\":4256:4271   */\n      swap1\n      pop\n        /* \"#utility.yul\":4232:4345   */\n      jump(tag_196)\n    tag_198:\n        /* \"#utility.yul\":4363:4369   */\n      dup4\n        /* \"#utility.yul\":4360:4361   */\n      dup2\n        /* \"#utility.yul\":4357:4370   */\n      gt\n        /* \"#utility.yul\":4354:4455   */\n      iszero\n      tag_199\n      jumpi\n        /* \"#utility.yul\":4443:4444   */\n      0x00\n        /* \"#utility.yul\":4434:4440   */\n      dup5\n        /* \"#utility.yul\":4429:4432   */\n      dup5\n        /* \"#utility.yul\":4425:4441   */\n      add\n        /* \"#utility.yul\":4418:4445   */\n      mstore\n        /* \"#utility.yul\":4354:4455   */\n    tag_199:\n        /* \"#utility.yul\":4203:4461   */\n      pop\n        /* \"#utility.yul\":4154:4461   */\n      pop\n      pop\n      pop\n      jump\t// out\n        /* \"#utility.yul\":4467:4569   */\n    tag_126:\n        /* \"#utility.yul\":4508:4514   */\n      0x00\n        /* \"#utility.yul\":4559:4561   */\n      0x1f\n        /* \"#utility.yul\":4555:4562   */\n      not\n        /* \"#utility.yul\":4550:4552   */\n      0x1f\n        /* \"#utility.yul\":4543:4548   */\n      dup4\n        /* \"#utility.yul\":4539:4553   */\n      add\n        /* \"#utility.yul\":4535:4563   */\n      and\n        /* \"#utility.yul\":4525:4563   */\n      swap1\n      pop\n        /* \"#utility.yul\":4467:4569   */\n      swap2\n      swap1\n      pop\n      jump\t// out\n        /* \"#utility.yul\":4575:4939   */\n    tag_127:\n        /* \"#utility.yul\":4663:4666   */\n      0x00\n        /* \"#utility.yul\":4691:4730   */\n      tag_202\n        /* \"#utility.yul\":4724:4729   */\n      dup3\n        /* \"#utility.yul\":4691:4730   */\n      tag_123\n      jump\t// in\n    tag_202:\n        /* \"#utility.yul\":4746:4817   */\n      tag_203\n        /* \"#utility.yul\":4810:4816   */\n      dup2\n        /* \"#utility.yul\":4805:4808   */\n      dup6\n        /* \"#utility.yul\":4746:4817   */\n      tag_124\n      jump\t// in\n    tag_203:\n        /* \"#utility.yul\":4739:4817   */\n      swap4\n      pop\n        /* \"#utility.yul\":4826:4878   */\n      tag_204\n        /* \"#utility.yul\":4871:4877   */\n      dup2\n        /* \"#utility.yul\":4866:4869   */\n      dup6\n        /* \"#utility.yul\":4859:4863   */\n      0x20\n        /* \"#utility.yul\":4852:4857   */\n      dup7\n        /* \"#utility.yul\":4848:4864   */\n      add\n        /* \"#utility.yul\":4826:4878   */\n      tag_125\n      jump\t// in\n    tag_204:\n        /* \"#utility.yul\":4903:4932   */\n      tag_205\n        /* \"#utility.yul\":4925:4931   */\n      dup2\n        /* \"#utility.yul\":4903:4932   */\n      tag_126\n      jump\t// in\n    tag_205:\n        /* \"#utility.yul\":4898:4901   */\n      dup5\n        /* \"#utility.yul\":4894:4933   */\n      add\n        /* \"#utility.yul\":4887:4933   */\n      swap2\n      pop\n        /* \"#utility.yul\":4667:4939   */\n      pop\n        /* \"#utility.yul\":4575:4939   */\n      swap3\n      swap2\n      pop\n      pop\n      jump\t// out\n        /* \"#utility.yul\":4945:5258   */\n    tag_44:\n        /* \"#utility.yul\":5058:5062   */\n      0x00\n        /* \"#utility.yul\":5096:5098   */\n      0x20\n        /* \"#utility.yul\":5085:5094   */\n      dup3\n        /* \"#utility.yul\":5081:5099   */\n      add\n        /* \"#utility.yul\":5073:5099   */\n      swap1\n      pop\n        /* \"#utility.yul\":5145:5154   */\n      dup2\n        /* \"#utility.yul\":5139:5143   */\n      dup2\n        /* \"#utility.yul\":5135:5155   */\n      sub\n        /* \"#utility.yul\":5131:5132   */\n      0x00\n        /* \"#utility.yul\":5120:5129   */\n      dup4\n        /* \"#utility.yul\":5116:5133   */\n      add\n        /* \"#utility.yul\":5109:5156   */\n      mstore\n        /* \"#utility.yul\":5173:5251   */\n      tag_207\n        /* \"#utility.yul\":5246:5250   */\n      dup2\n        /* \"#utility.yul\":5237:5243   */\n      dup5\n        /* \"#utility.yul\":5173:5251   */\n      tag_127\n      jump\t// in\n    tag_207:\n        /* \"#utility.yul\":5165:5251   */\n      swap1\n      pop\n        /* \"#utility.yul\":4945:5258   */\n      swap3\n      swap2\n      pop\n      pop\n      jump\t// out\n        /* \"#utility.yul\":5264:5434   */\n    tag_128:\n        /* \"#utility.yul\":5404:5426   */\n      0x486173206e6f20726967687420746f20766f7465000000000000000000000000\n        /* \"#utility.yul\":5400:5401   */\n      0x00\n        /* \"#utility.yul\":5392:5398   */\n      dup3\n        /* \"#utility.yul\":5388:5402   */\n      add\n        /* \"#utility.yul\":5381:5427   */\n      mstore\n        /* \"#utility.yul\":5264:5434   */\n      pop\n      jump\t// out\n        /* \"#utility.yul\":5440:5806   */\n    tag_129:\n        /* \"#utility.yul\":5582:5585   */\n      0x00\n        /* \"#utility.yul\":5603:5670   */\n      tag_210\n        /* \"#utility.yul\":5667:5669   */\n      0x14\n        /* \"#utility.yul\":5662:5665   */\n      dup4\n        /* \"#utility.yul\":5603:5670   */\n      tag_124\n      jump\t// in\n    tag_210:\n        /* \"#utility.yul\":5596:5670   */\n      swap2\n      pop\n        /* \"#utility.yul\":5679:5772   */\n      tag_211\n        /* \"#utility.yul\":5768:5771   */\n      dup3\n        /* \"#utility.yul\":5679:5772   */\n      tag_128\n      jump\t// in\n    tag_211:\n        /* \"#utility.yul\":5797:5799   */\n      0x20\n        /* \"#utility.yul\":5792:5795   */\n      dup3\n        /* \"#utility.yul\":5788:5800   */\n      add\n        /* \"#utility.yul\":5781:5800   */\n      swap1\n      pop\n        /* \"#utility.yul\":5440:5806   */\n      swap2\n      swap1\n      pop\n      jump\t// out\n        /* \"#utility.yul\":5812:6231   */\n    tag_48:\n        /* \"#utility.yul\":5978:5982   */\n      0x00\n        /* \"#utility.yul\":6016:6018   */\n      0x20\n        /* \"#utility.yul\":6005:6014   */\n      dup3\n        /* \"#utility.yul\":6001:6019   */\n      add\n        /* \"#utility.yul\":5993:6019   */\n      swap1\n      pop\n        /* \"#utility.yul\":6065:6074   */\n      dup2\n        /* \"#utility.yul\":6059:6063   */\n      dup2\n        /* \"#utility.yul\":6055:6075   */\n      sub\n        /* \"#utility.yul\":6051:6052   */\n      0x00\n        /* \"#utility.yul\":6040:6049   */\n      dup4\n        /* \"#utility.yul\":6036:6053   */\n      add\n        /* \"#utility.yul\":6029:6076   */\n      mstore\n        /* \"#utility.yul\":6093:6224   */\n      tag_213\n        /* \"#utility.yul\":6219:6223   */\n      dup2\n        /* \"#utility.yul\":6093:6224   */\n      tag_129\n      jump\t// in\n    tag_213:\n        /* \"#utility.yul\":6085:6224   */\n      swap1\n      pop\n        /* \"#utility.yul\":5812:6231   */\n      swap2\n      swap1\n      pop\n      jump\t// out\n        /* \"#utility.yul\":6237:6401   */\n    tag_130:\n        /* \"#utility.yul\":6377:6393   */\n      0x416c726561647920766f7465642e000000000000000000000000000000000000\n        /* \"#utility.yul\":6373:6374   */\n      0x00\n        /* \"#utility.yul\":6365:6371   */\n      dup3\n        /* \"#utility.yul\":6361:6375   */\n      add\n        /* \"#utility.yul\":6354:6394   */\n      mstore\n        /* \"#utility.yul\":6237:6401   */\n      pop\n      jump\t// out\n        /* \"#utility.yul\":6407:6773   */\n    tag_131:\n        /* \"#utility.yul\":6549:6552   */\n      0x00\n        /* \"#utility.yul\":6570:6637   */\n      tag_216\n        /* \"#utility.yul\":6634:6636   */\n      0x0e\n        /* \"#utility.yul\":6629:6632   */\n      dup4\n        /* \"#utility.yul\":6570:6637   */\n      tag_124\n      jump\t// in\n    tag_216:\n        /* \"#utility.yul\":6563:6637   */\n      swap2\n      pop\n        /* \"#utility.yul\":6646:6739   */\n      tag_217\n        /* \"#utility.yul\":6735:6738   */\n      dup3\n        /* \"#utility.yul\":6646:6739   */\n      tag_130\n      jump\t// in\n    tag_217:\n        /* \"#utility.yul\":6764:6766   */\n      0x20\n        /* \"#utility.yul\":6759:6762   */\n      dup3\n        /* \"#utility.yul\":6755:6767   */\n      add\n        /* \"#utility.yul\":6748:6767   */\n      swap1\n      pop\n        /* \"#utility.yul\":6407:6773   */\n      swap2\n      swap1\n      pop\n      jump\t// out\n        /* \"#utility.yul\":6779:7198   */\n    tag_51:\n        /* \"#utility.yul\":6945:6949   */\n      0x00\n        /* \"#utility.yul\":6983:6985   */\n      0x20\n        /* \"#utility.yul\":6972:6981   */\n      dup3\n        /* \"#utility.yul\":6968:6986   */\n      add\n        /* \"#utility.yul\":6960:6986   */\n      swap1\n      pop\n        /* \"#utility.yul\":7032:7041   */\n      dup2\n        /* \"#utility.yul\":7026:7030   */\n      dup2\n        /* \"#utility.yul\":7022:7042   */\n      sub\n        /* \"#utility.yul\":7018:7019   */\n      0x00\n        /* \"#utility.yul\":7007:7016   */\n      dup4\n        /* \"#utility.yul\":7003:7020   */\n      add\n        /* \"#utility.yul\":6996:7043   */\n      mstore\n        /* \"#utility.yul\":7060:7191   */\n      tag_219\n        /* \"#utility.yul\":7186:7190   */\n      dup2\n        /* \"#utility.yul\":7060:7191   */\n      tag_131\n      jump\t// in\n    tag_219:\n        /* \"#utility.yul\":7052:7191   */\n      swap1\n      pop\n        /* \"#utility.yul\":6779:7198   */\n      swap2\n      swap1\n      pop\n      jump\t// out\n        /* \"#utility.yul\":7204:7384   */\n    tag_54:\n        /* \"#utility.yul\":7252:7329   */\n      0x4e487b7100000000000000000000000000000000000000000000000000000000\n        /* \"#utility.yul\":7249:7250   */\n      0x00\n        /* \"#utility.yul\":7242:7330   */\n      mstore\n        /* \"#utility.yul\":7349:7353   */\n      0x32\n        /* \"#utility.yul\":7346:7347   */\n      0x04\n        /* \"#utility.yul\":7339:7354   */\n      mstore\n        /* \"#utility.yul\":7373:7377   */\n      0x24\n        /* \"#utility.yul\":7370:7371   */\n      0x00\n        /* \"#utility.yul\":7363:7378   */\n      revert\n        /* \"#utility.yul\":7390:7570   */\n    tag_132:\n        /* \"#utility.yul\":7438:7515   */\n      0x4e487b7100000000000000000000000000000000000000000000000000000000\n        /* \"#utility.yul\":7435:7436   */\n      0x00\n        /* \"#utility.yul\":7428:7516   */\n      mstore\n        /* \"#utility.yul\":7535:7539   */\n      0x11\n        /* \"#utility.yul\":7532:7533   */\n      0x04\n        /* \"#utility.yul\":7525:7540   */\n      mstore\n        /* \"#utility.yul\":7559:7563   */\n      0x24\n        /* \"#utility.yul\":7556:7557   */\n      0x00\n        /* \"#utility.yul\":7549:7564   */\n      revert\n        /* \"#utility.yul\":7576:7881   */\n    tag_57:\n        /* \"#utility.yul\":7616:7619   */\n      0x00\n        /* \"#utility.yul\":7635:7655   */\n      tag_223\n        /* \"#utility.yul\":7653:7654   */\n      dup3\n        /* \"#utility.yul\":7635:7655   */\n      tag_110\n      jump\t// in\n    tag_223:\n        /* \"#utility.yul\":7630:7655   */\n      swap2\n      pop\n        /* \"#utility.yul\":7669:7689   */\n      tag_224\n        /* \"#utility.yul\":7687:7688   */\n      dup4\n        /* \"#utility.yul\":7669:7689   */\n      tag_110\n      jump\t// in\n    tag_224:\n        /* \"#utility.yul\":7664:7689   */\n      swap3\n      pop\n        /* \"#utility.yul\":7823:7824   */\n      dup3\n        /* \"#utility.yul\":7755:7821   */\n      0xffffffffffffffffffffffffffffffffffffffffffffffffffffffffffffffff\n        /* \"#utility.yul\":7751:7825   */\n      sub\n        /* \"#utility.yul\":7748:7749   */\n      dup3\n        /* \"#utility.yul\":7745:7826   */\n      gt\n        /* \"#utility.yul\":7742:7849   */\n      iszero\n      tag_225\n      jumpi\n        /* \"#utility.yul\":7829:7847   */\n      tag_226\n      tag_132\n      jump\t// in\n    tag_226:\n        /* \"#utility.yul\":7742:7849   */\n    tag_225:\n        /* \"#utility.yul\":7873:7874   */\n      dup3\n        /* \"#utility.yul\":7870:7871   */\n      dup3\n        /* \"#utility.yul\":7866:7875   */\n      add\n        /* \"#utility.yul\":7859:7875   */\n      swap1\n      pop\n        /* \"#utility.yul\":7576:7881   */\n      swap3\n      swap2\n      pop\n      pop\n      jump\t// out\n        /* \"#utility.yul\":7887:8055   */\n    tag_133:\n        /* \"#utility.yul\":8027:8047   */\n      0x596f7520616c726561647920766f7465642e0000000000000000000000000000\n        /* \"#utility.yul\":8023:8024   */\n      0x00\n        /* \"#utility.yul\":8015:8021   */\n      dup3\n        /* \"#utility.yul\":8011:8025   */\n      add\n        /* \"#utility.yul\":8004:8048   */\n      mstore\n        /* \"#utility.yul\":7887:8055   */\n      pop\n      jump\t// out\n        /* \"#utility.yul\":8061:8427   */\n    tag_134:\n        /* \"#utility.yul\":8203:8206   */\n      0x00\n        /* \"#utility.yul\":8224:8291   */\n      tag_229\n        /* \"#utility.yul\":8288:8290   */\n      0x12\n        /* \"#utility.yul\":8283:8286   */\n      dup4\n        /* \"#utility.yul\":8224:8291   */\n      tag_124\n      jump\t// in\n    tag_229:\n        /* \"#utility.yul\":8217:8291   */\n      swap2\n      pop\n        /* \"#utility.yul\":8300:8393   */\n      tag_230\n        /* \"#utility.yul\":8389:8392   */\n      dup3\n        /* \"#utility.yul\":8300:8393   */\n      tag_133\n      jump\t// in\n    tag_230:\n        /* \"#utility.yul\":8418:8420   */\n      0x20\n        /* \"#utility.yul\":8413:8416   */\n      dup3\n        /* \"#utility.yul\":8409:8421   */\n      add\n        /* \"#utility.yul\":8402:8421   */\n      swap1\n      pop\n        /* \"#utility.yul\":8061:8427   */\n      swap2\n      swap1\n      pop\n      jump\t// out\n        /* \"#utility.yul\":8433:8852   */\n    tag_63:\n        /* \"#utility.yul\":8599:8603   */\n      0x00\n        /* \"#utility.yul\":8637:8639   */\n      0x20\n        /* \"#utility.yul\":8626:8635   */\n      dup3\n        /* \"#utility.yul\":8622:8640   */\n      add\n        /* \"#utility.yul\":8614:8640   */\n      swap1\n      pop\n        /* \"#utility.yul\":8686:8695   */\n      dup2\n        /* \"#utility.yul\":8680:8684   */\n      dup2\n        /* \"#utility.yul\":8676:8696   */\n      sub\n        /* \"#utility.yul\":8672:8673   */\n      0x00\n        /* \"#utility.yul\":8661:8670   */\n      dup4\n        /* \"#utility.yul\":8657:8674   */\n      add\n        /* \"#utility.yul\":8650:8697   */\n      mstore\n        /* \"#utility.yul\":8714:8845   */\n      tag_232\n        /* \"#utility.yul\":8840:8844   */\n      dup2\n        /* \"#utility.yul\":8714:8845   */\n      tag_134\n      jump\t// in\n    tag_232:\n        /* \"#utility.yul\":8706:8845   */\n      swap1\n      pop\n        /* \"#utility.yul\":8433:8852   */\n      swap2\n      swap1\n      pop\n      jump\t// out\n        /* \"#utility.yul\":8858:9038   */\n    tag_135:\n        /* \"#utility.yul\":8998:9030   */\n      0x53656c662d64656c65676174696f6e20697320646973616c6c6f7765642e0000\n        /* \"#utility.yul\":8994:8995   */\n      0x00\n        /* \"#utility.yul\":8986:8992   */\n      dup3\n        /* \"#utility.yul\":8982:8996   */\n      add\n        /* \"#utility.yul\":8975:9031   */\n      mstore\n        /* \"#utility.yul\":8858:9038   */\n      pop\n      jump\t// out\n        /* \"#utility.yul\":9044:9410   */\n    tag_136:\n        /* \"#utility.yul\":9186:9189   */\n      0x00\n        /* \"#utility.yul\":9207:9274   */\n      tag_235\n        /* \"#utility.yul\":9271:9273   */\n      0x1e\n        /* \"#utility.yul\":9266:9269   */\n      dup4\n        /* \"#utility.yul\":9207:9274   */\n      tag_124\n      jump\t// in\n    tag_235:\n        /* \"#utility.yul\":9200:9274   */\n      swap2\n      pop\n        /* \"#utility.yul\":9283:9376   */\n      tag_236\n        /* \"#utility.yul\":9372:9375   */\n      dup3\n        /* \"#utility.yul\":9283:9376   */\n      tag_135\n      jump\t// in\n    tag_236:\n        /* \"#utility.yul\":9401:9403   */\n      0x20\n        /* \"#utility.yul\":9396:9399   */\n      dup3\n        /* \"#utility.yul\":9392:9404   */\n      add\n        /* \"#utility.yul\":9385:9404   */\n      swap1\n      pop\n        /* \"#utility.yul\":9044:9410   */\n      swap2\n      swap1\n      pop\n      jump\t// out\n        /* \"#utility.yul\":9416:9835   */\n    tag_66:\n        /* \"#utility.yul\":9582:9586   */\n      0x00\n        /* \"#utility.yul\":9620:9622   */\n      0x20\n        /* \"#utility.yul\":9609:9618   */\n      dup3\n        /* \"#utility.yul\":9605:9623   */\n      add\n        /* \"#utility.yul\":9597:9623   */\n      swap1\n      pop\n        /* \"#utility.yul\":9669:9678   */\n      dup2\n        /* \"#utility.yul\":9663:9667   */\n      dup2\n        /* \"#utility.yul\":9659:9679   */\n      sub\n        /* \"#utility.yul\":9655:9656   */\n      0x00\n        /* \"#utility.yul\":9644:9653   */\n      dup4\n        /* \"#utility.yul\":9640:9657   */\n      add\n        /* \"#utility.yul\":9633:9680   */\n      mstore\n        /* \"#utility.yul\":9697:9828   */\n      tag_238\n        /* \"#utility.yul\":9823:9827   */\n      dup2\n        /* \"#utility.yul\":9697:9828   */\n      tag_136\n      jump\t// in\n    tag_238:\n        /* \"#utility.yul\":9689:9828   */\n      swap1\n      pop\n        /* \"#utility.yul\":9416:9835   */\n      swap2\n      swap1\n      pop\n      jump\t// out\n        /* \"#utility.yul\":9841:10016   */\n    tag_137:\n        /* \"#utility.yul\":9981:10008   */\n      0x466f756e64206c6f6f7020696e2064656c65676174696f6e2e00000000000000\n        /* \"#utility.yul\":9977:9978   */\n      0x00\n        /* \"#utility.yul\":9969:9975   */\n      dup3\n        /* \"#utility.yul\":9965:9979   */\n      add\n        /* \"#utility.yul\":9958:10009   */\n      mstore\n        /* \"#utility.yul\":9841:10016   */\n      pop\n      jump\t// out\n        /* \"#utility.yul\":10022:10388   */\n    tag_138:\n        /* \"#utility.yul\":10164:10167   */\n      0x00\n        /* \"#utility.yul\":10185:10252   */\n      tag_241\n        /* \"#utility.yul\":10249:10251   */\n      0x19\n        /* \"#utility.yul\":10244:10247   */\n      dup4\n        /* \"#utility.yul\":10185:10252   */\n      tag_124\n      jump\t// in\n    tag_241:\n        /* \"#utility.yul\":10178:10252   */\n      swap2\n      pop\n        /* \"#utility.yul\":10261:10354   */\n      tag_242\n        /* \"#utility.yul\":10350:10353   */\n      dup3\n        /* \"#utility.yul\":10261:10354   */\n      tag_137\n      jump\t// in\n    tag_242:\n        /* \"#utility.yul\":10379:10381   */\n      0x20\n        /* \"#utility.yul\":10374:10377   */\n      dup3\n        /* \"#utility.yul\":10370:10382   */\n      add\n        /* \"#utility.yul\":10363:10382   */\n      swap1\n      pop\n        /* \"#utility.yul\":10022:10388   */\n      swap2\n      swap1\n      pop\n      jump\t// out\n        /* \"#utility.yul\":10394:10813   */\n    tag_71:\n        /* \"#utility.yul\":10560:10564   */\n      0x00\n        /* \"#utility.yul\":10598:10600   */\n      0x20\n        /* \"#utility.yul\":10587:10596   */\n      dup3\n        /* \"#utility.yul\":10583:10601   */\n      add\n        /* \"#utility.yul\":10575:10601   */\n      swap1\n      pop\n        /* \"#utility.yul\":10647:10656   */\n      dup2\n        /* \"#utility.yul\":10641:10645   */\n      dup2\n        /* \"#utility.yul\":10637:10657   */\n      sub\n        /* \"#utility.yul\":10633:10634   */\n      0x00\n        /* \"#utility.yul\":10622:10631   */\n      dup4\n        /* \"#utility.yul\":10618:10635   */\n      add\n        /* \"#utility.yul\":10611:10658   */\n      mstore\n        /* \"#utility.yul\":10675:10806   */\n      tag_244\n        /* \"#utility.yul\":10801:10805   */\n      dup2\n        /* \"#utility.yul\":10675:10806   */\n      tag_138\n      jump\t// in\n    tag_244:\n        /* \"#utility.yul\":10667:10806   */\n      swap1\n      pop\n        /* \"#utility.yul\":10394:10813   */\n      swap2\n      swap1\n      pop\n      jump\t// out\n        /* \"#utility.yul\":10819:11046   */\n    tag_139:\n        /* \"#utility.yul\":10959:10993   */\n      0x4f6e6c79206368616972706572736f6e2063616e206769766520726967687420\n        /* \"#utility.yul\":10955:10956   */\n      0x00\n        /* \"#utility.yul\":10947:10953   */\n      dup3\n        /* \"#utility.yul\":10943:10957   */\n      add\n        /* \"#utility.yul\":10936:10994   */\n      mstore\n        /* \"#utility.yul\":11028:11038   */\n      0x746f20766f74652e000000000000000000000000000000000000000000000000\n        /* \"#utility.yul\":11023:11025   */\n      0x20\n        /* \"#utility.yul\":11015:11021   */\n      dup3\n        /* \"#utility.yul\":11011:11026   */\n      add\n        /* \"#utility.yul\":11004:11039   */\n      mstore\n        /* \"#utility.yul\":10819:11046   */\n      pop\n      jump\t// out\n        /* \"#utility.yul\":11052:11418   */\n    tag_140:\n        /* \"#utility.yul\":11194:11197   */\n      0x00\n        /* \"#utility.yul\":11215:11282   */\n      tag_247\n        /* \"#utility.yul\":11279:11281   */\n      0x28\n        /* \"#utility.yul\":11274:11277   */\n      dup4\n        /* \"#utility.yul\":11215:11282   */\n      tag_124\n      jump\t// in\n    tag_247:\n        /* \"#utility.yul\":11208:11282   */\n      swap2\n      pop\n        /* \"#utility.yul\":11291:11384   */\n      tag_248\n        /* \"#utility.yul\":11380:11383   */\n      dup3\n        /* \"#utility.yul\":11291:11384   */\n      tag_139\n      jump\t// in\n    tag_248:\n        /* \"#utility.yul\":11409:11411   */\n      0x40\n        /* \"#utility.yul\":11404:11407   */\n      dup3\n        /* \"#utility.yul\":11400:11412   */\n      add\n        /* \"#utility.yul\":11393:11412   */\n      swap1\n      pop\n        /* \"#utility.yul\":11052:11418   */\n      swap2\n      swap1\n      pop\n      jump\t// out\n        /* \"#utility.yul\":11424:11843   */\n    tag_82:\n        /* \"#utility.yul\":11590:11594   */\n      0x00\n        /* \"#utility.yul\":11628:11630   */\n      0x20\n        /* \"#utility.yul\":11617:11626   */\n      dup3\n        /* \"#utility.yul\":11613:11631   */\n      add\n        /* \"#utility.yul\":11605:11631   */\n      swap1\n      pop\n        /* \"#utility.yul\":11677:11686   */\n      dup2\n        /* \"#utility.yul\":11671:11675   */\n      dup2\n        /* \"#utility.yul\":11667:11687   */\n      sub\n        /* \"#utility.yul\":11663:11664   */\n      0x00\n        /* \"#utility.yul\":11652:11661   */\n      dup4\n        /* \"#utility.yul\":11648:11665   */\n      add\n        /* \"#utility.yul\":11641:11688   */\n      mstore\n        /* \"#utility.yul\":11705:11836   */\n      tag_250\n        /* \"#utility.yul\":11831:11835   */\n      dup2\n        /* \"#utility.yul\":11705:11836   */\n      tag_140\n      jump\t// in\n    tag_250:\n        /* \"#utility.yul\":11697:11836   */\n      swap1\n      pop\n        /* \"#utility.yul\":11424:11843   */\n      swap2\n      swap1\n      pop\n      jump\t// out\n        /* \"#utility.yul\":11849:12023   */\n    tag_141:\n        /* \"#utility.yul\":11989:12015   */\n      0x54686520766f74657220616c726561647920766f7465642e0000000000000000\n        /* \"#utility.yul\":11985:11986   */\n      0x00\n        /* \"#utility.yul\":11977:11983   */\n      dup3\n        /* \"#utility.yul\":11973:11987   */\n      add\n        /* \"#utility.yul\":11966:12016   */\n      mstore\n        /* \"#utility.yul\":11849:12023   */\n      pop\n      jump\t// out\n        /* \"#utility.yul\":12029:12395   */\n    tag_142:\n        /* \"#utility.yul\":12171:12174   */\n      0x00\n        /* \"#utility.yul\":12192:12259   */\n      tag_253\n        /* \"#utility.yul\":12256:12258   */\n      0x18\n        /* \"#utility.yul\":12251:12254   */\n      dup4\n        /* \"#utility.yul\":12192:12259   */\n      tag_124\n      jump\t// in\n    tag_253:\n        /* \"#utility.yul\":12185:12259   */\n      swap2\n      pop\n        /* \"#utility.yul\":12268:12361   */\n      tag_254\n        /* \"#utility.yul\":12357:12360   */\n      dup3\n        /* \"#utility.yul\":12268:12361   */\n      tag_141\n      jump\t// in\n    tag_254:\n        /* \"#utility.yul\":12386:12388   */\n      0x20\n        /* \"#utility.yul\":12381:12384   */\n      dup3\n        /* \"#utility.yul\":12377:12389   */\n      add\n        /* \"#utility.yul\":12370:12389   */\n      swap1\n      pop\n        /* \"#utility.yul\":12029:12395   */\n      swap2\n      swap1\n      pop\n      jump\t// out\n        /* \"#utility.yul\":12401:12820   */\n    tag_85:\n        /* \"#utility.yul\":12567:12571   */\n      0x00\n        /* \"#utility.yul\":12605:12607   */\n      0x20\n        /* \"#utility.yul\":12594:12603   */\n      dup3\n        /* \"#utility.yul\":12590:12608   */\n      add\n        /* \"#utility.yul\":12582:12608   */\n      swap1\n      pop\n        /* \"#utility.yul\":12654:12663   */\n      dup2\n        /* \"#utility.yul\":12648:12652   */\n      dup2\n        /* \"#utility.yul\":12644:12664   */\n      sub\n        /* \"#utility.yul\":12640:12641   */\n      0x00\n        /* \"#utility.yul\":12629:12638   */\n      dup4\n        /* \"#utility.yul\":12625:12642   */\n      add\n        /* \"#utility.yul\":12618:12665   */\n      mstore\n        /* \"#utility.yul\":12682:12813   */\n      tag_256\n        /* \"#utility.yul\":12808:12812   */\n      dup2\n        /* \"#utility.yul\":12682:12813   */\n      tag_142\n      jump\t// in\n    tag_256:\n        /* \"#utility.yul\":12674:12813   */\n      swap1\n      pop\n        /* \"#utility.yul\":12401:12820   */\n      swap2\n      swap1\n      pop\n      jump\t// out\n        /* \"#utility.yul\":12826:13059   */\n    tag_99:\n        /* \"#utility.yul\":12865:12868   */\n      0x00\n        /* \"#utility.yul\":12888:12912   */\n      tag_258\n        /* \"#utility.yul\":12906:12911   */\n      dup3\n        /* \"#utility.yul\":12888:12912   */\n      tag_110\n      jump\t// in\n    tag_258:\n        /* \"#utility.yul\":12879:12912   */\n      swap2\n      pop\n        /* \"#utility.yul\":12934:13000   */\n      0xffffffffffffffffffffffffffffffffffffffffffffffffffffffffffffffff\n        /* \"#utility.yul\":12927:12932   */\n      dup3\n        /* \"#utility.yul\":12924:13001   */\n      sub\n        /* \"#utility.yul\":12921:13024   */\n      tag_259\n      jumpi\n        /* \"#utility.yul\":13004:13022   */\n      tag_260\n      tag_132\n      jump\t// in\n    tag_260:\n        /* \"#utility.yul\":12921:13024   */\n    tag_259:\n        /* \"#utility.yul\":13051:13052   */\n      0x01\n        /* \"#utility.yul\":13044:13049   */\n      dup3\n        /* \"#utility.yul\":13040:13053   */\n      add\n        /* \"#utility.yul\":13033:13053   */\n      swap1\n      pop\n        /* \"#utility.yul\":12826:13059   */\n      swap2\n      swap1\n      pop\n      jump\t// out\n        /* \"#utility.yul\":13065:13144   */\n    tag_143:\n        /* \"#utility.yul\":13104:13111   */\n      0x00\n        /* \"#utility.yul\":13133:13138   */\n      dup2\n        /* \"#utility.yul\":13122:13138   */\n      swap1\n      pop\n        /* \"#utility.yul\":13065:13144   */\n      swap2\n      swap1\n      pop\n      jump\t// out\n        /* \"#utility.yul\":13150:13307   */\n    tag_144:\n        /* \"#utility.yul\":13255:13300   */\n      tag_263\n        /* \"#utility.yul\":13275:13299   */\n      tag_264\n        /* \"#utility.yul\":13293:13298   */\n      dup3\n        /* \"#utility.yul\":13275:13299   */\n      tag_116\n      jump\t// in\n    tag_264:\n        /* \"#utility.yul\":13255:13300   */\n      tag_143\n      jump\t// in\n    tag_263:\n        /* \"#utility.yul\":13250:13253   */\n      dup3\n        /* \"#utility.yul\":13243:13301   */\n      mstore\n        /* \"#utility.yul\":13150:13307   */\n      pop\n      pop\n      jump\t// out\n        /* \"#utility.yul\":13313:13569   */\n    tag_106:\n        /* \"#utility.yul\":13425:13428   */\n      0x00\n        /* \"#utility.yul\":13440:13515   */\n      tag_266\n        /* \"#utility.yul\":13511:13514   */\n      dup3\n        /* \"#utility.yul\":13502:13508   */\n      dup5\n        /* \"#utility.yul\":13440:13515   */\n      tag_144\n      jump\t// in\n    tag_266:\n        /* \"#utility.yul\":13540:13542   */\n      0x20\n        /* \"#utility.yul\":13535:13538   */\n      dup3\n        /* \"#utility.yul\":13531:13543   */\n      add\n        /* \"#utility.yul\":13524:13543   */\n      swap2\n      pop\n        /* \"#utility.yul\":13560:13563   */\n      dup2\n        /* \"#utility.yul\":13553:13563   */\n      swap1\n      pop\n        /* \"#utility.yul\":13313:13569   */\n      swap3\n      swap2\n      pop\n      pop\n      jump\t// out\n\n    auxdata: 0xa26469706673582212208129b77a30a9bf650e3c530d7a2429d70834a830cab9372a69c40aeee131746364736f6c634300080f0033\n}\n",
				"bytecode": {
					"linkReferences": {},
					"object": "608060405260405180606001604052807f44726f7570616469204d75726d7500000000000000000000000000000000000081526020017f5961736877616e742053696e686100000000000000000000000000000000000081526020017f4b6170696c2053696262616c0000000000000000000000000000000000000000815250600390600362000091929190620001e1565b503480156200009f57600080fd5b50336000806101000a81548173ffffffffffffffffffffffffffffffffffffffff021916908373ffffffffffffffffffffffffffffffffffffffff16021790555060018060008060009054906101000a900473ffffffffffffffffffffffffffffffffffffffff1673ffffffffffffffffffffffffffffffffffffffff1673ffffffffffffffffffffffffffffffffffffffff1681526020019081526020016000206000018190555060005b6003811015620001da57600260405180604001604052806003846003811062000179576200017862000245565b5b0154815260200160008152509080600181540180825580915050600190039060005260206000209060020201600090919091909150600082015181600001556020820151816001015550508080620001d190620002ad565b9150506200014b565b50620002fa565b826003810192821562000213579160200282015b8281111562000212578251825591602001919060010190620001f5565b5b50905062000222919062000226565b5090565b5b808211156200024157600081600090555060010162000227565b5090565b7f4e487b7100000000000000000000000000000000000000000000000000000000600052603260045260246000fd5b7f4e487b7100000000000000000000000000000000000000000000000000000000600052601160045260246000fd5b6000819050919050565b6000620002ba82620002a3565b91507fffffffffffffffffffffffffffffffffffffffffffffffffffffffffffffffff8203620002ef57620002ee62000274565b5b600182019050919050565b6110f8806200030a6000396000f3fe608060405234801561001057600080fd5b50600436106100885760003560e01c80639e7b8d611161005b5780639e7b8d6114610114578063a3ec138d14610130578063d28178d714610163578063e2ba53f01461018157610088565b80630121b93f1461008d5780632e4176cf146100a95780633477ee2e146100c75780635c19a95c146100f8575b600080fd5b6100a760048036038101906100a29190610a07565b61019f565b005b6100b16102e5565b6040516100be9190610a75565b60405180910390f35b6100e160048036038101906100dc9190610a07565b610309565b6040516100ef929190610ab8565b60405180910390f35b610112600480360381019061010d9190610b0d565b61033d565b005b61012e60048036038101906101299190610b0d565b6106d7565b005b61014a60048036038101906101459190610b0d565b61088e565b60405161015a9493929190610b55565b60405180910390f35b61016b6108eb565b6040516101789190610b9a565b60405180910390f35b610189610973565b6040516101969190610c4e565b60405180910390f35b6000600160003373ffffffffffffffffffffffffffffffffffffffff1673ffffffffffffffffffffffffffffffffffffffff16815260200190815260200160002090506000816000015403610229576040517f08c379a000000000000000000000000000000000000000000000000000000000815260040161022090610cbc565b60405180910390fd5b8060010160009054906101000a900460ff161561027b576040517f08c379a000000000000000000000000000000000000000000000000000000000815260040161027290610d28565b60405180910390fd5b60018160010160006101000a81548160ff0219169083151502179055508181600201819055508060000154600283815481106102ba576102b9610d48565b5b906000526020600020906002020160010160008282546102da9190610da6565b925050819055505050565b60008054906101000a900473ffffffffffffffffffffffffffffffffffffffff1681565b6002818154811061031957600080fd5b90600052602060002090600202016000915090508060000154908060010154905082565b6000600160003373ffffffffffffffffffffffffffffffffffffffff1673ffffffffffffffffffffffffffffffffffffffff16815260200190815260200160002090508060010160009054906101000a900460ff16156103d2576040517f08c379a00000000000000000000000000000000000000000000000000000000081526004016103c990610e48565b60405180910390fd5b3373ffffffffffffffffffffffffffffffffffffffff168273ffffffffffffffffffffffffffffffffffffffff1603610440576040517f08c379a000000000000000000000000000000000000000000000000000000000815260040161043790610eb4565b60405180910390fd5b5b600073ffffffffffffffffffffffffffffffffffffffff16600160008473ffffffffffffffffffffffffffffffffffffffff1673ffffffffffffffffffffffffffffffffffffffff16815260200190815260200160002060010160019054906101000a900473ffffffffffffffffffffffffffffffffffffffff1673ffffffffffffffffffffffffffffffffffffffff16146105af57600160008373ffffffffffffffffffffffffffffffffffffffff1673ffffffffffffffffffffffffffffffffffffffff16815260200190815260200160002060010160019054906101000a900473ffffffffffffffffffffffffffffffffffffffff1691503373ffffffffffffffffffffffffffffffffffffffff168273ffffffffffffffffffffffffffffffffffffffff16036105aa576040517f08c379a00000000000000000000000000000000000000000000000000000000081526004016105a190610f20565b60405180910390fd5b610441565b60018160010160006101000a81548160ff021916908315150217905550818160010160016101000a81548173ffffffffffffffffffffffffffffffffffffffff021916908373ffffffffffffffffffffffffffffffffffffffff1602179055506000600160008473ffffffffffffffffffffffffffffffffffffffff1673ffffffffffffffffffffffffffffffffffffffff16815260200190815260200160002090508060010160009054906101000a900460ff16156106b2578160000154600282600201548154811061068657610685610d48565b5b906000526020600020906002020160010160008282546106a69190610da6565b925050819055506106d2565b81600001548160000160008282546106ca9190610da6565b925050819055505b505050565b60008054906101000a900473ffffffffffffffffffffffffffffffffffffffff1673ffffffffffffffffffffffffffffffffffffffff163373ffffffffffffffffffffffffffffffffffffffff1614610765576040517f08c379a000000000000000000000000000000000000000000000000000000000815260040161075c90610fb2565b60405180910390fd5b600160008273ffffffffffffffffffffffffffffffffffffffff1673ffffffffffffffffffffffffffffffffffffffff16815260200190815260200160002060010160009054906101000a900460ff16156107f5576040517f08c379a00000000000000000000000000000000000000000000000000000000081526004016107ec9061101e565b60405180910390fd5b6000600160008373ffffffffffffffffffffffffffffffffffffffff1673ffffffffffffffffffffffffffffffffffffffff168152602001908152602001600020600001541461084457600080fd5b60018060008373ffffffffffffffffffffffffffffffffffffffff1673ffffffffffffffffffffffffffffffffffffffff1681526020019081526020016000206000018190555050565b60016020528060005260406000206000915090508060000154908060010160009054906101000a900460ff16908060010160019054906101000a900473ffffffffffffffffffffffffffffffffffffffff16908060020154905084565b6000806000905060005b60028054905081101561096e57816002828154811061091757610916610d48565b5b906000526020600020906002020160010154111561095b576002818154811061094357610942610d48565b5b90600052602060002090600202016001015491508092505b80806109669061103e565b9150506108f5565b505090565b6060600060026109816108eb565b8154811061099257610991610d48565b5b9060005260206000209060020201600001549050806040516020016109b791906110a7565b60405160208183030381529060405291505090565b600080fd5b6000819050919050565b6109e4816109d1565b81146109ef57600080fd5b50565b600081359050610a01816109db565b92915050565b600060208284031215610a1d57610a1c6109cc565b5b6000610a2b848285016109f2565b91505092915050565b600073ffffffffffffffffffffffffffffffffffffffff82169050919050565b6000610a5f82610a34565b9050919050565b610a6f81610a54565b82525050565b6000602082019050610a8a6000830184610a66565b92915050565b6000819050919050565b610aa381610a90565b82525050565b610ab2816109d1565b82525050565b6000604082019050610acd6000830185610a9a565b610ada6020830184610aa9565b9392505050565b610aea81610a54565b8114610af557600080fd5b50565b600081359050610b0781610ae1565b92915050565b600060208284031215610b2357610b226109cc565b5b6000610b3184828501610af8565b91505092915050565b60008115159050919050565b610b4f81610b3a565b82525050565b6000608082019050610b6a6000830187610aa9565b610b776020830186610b46565b610b846040830185610a66565b610b916060830184610aa9565b95945050505050565b6000602082019050610baf6000830184610aa9565b92915050565b600081519050919050565b600082825260208201905092915050565b60005b83811015610bef578082015181840152602081019050610bd4565b83811115610bfe576000848401525b50505050565b6000601f19601f8301169050919050565b6000610c2082610bb5565b610c2a8185610bc0565b9350610c3a818560208601610bd1565b610c4381610c04565b840191505092915050565b60006020820190508181036000830152610c688184610c15565b905092915050565b7f486173206e6f20726967687420746f20766f7465000000000000000000000000600082015250565b6000610ca6601483610bc0565b9150610cb182610c70565b602082019050919050565b60006020820190508181036000830152610cd581610c99565b9050919050565b7f416c726561647920766f7465642e000000000000000000000000000000000000600082015250565b6000610d12600e83610bc0565b9150610d1d82610cdc565b602082019050919050565b60006020820190508181036000830152610d4181610d05565b9050919050565b7f4e487b7100000000000000000000000000000000000000000000000000000000600052603260045260246000fd5b7f4e487b7100000000000000000000000000000000000000000000000000000000600052601160045260246000fd5b6000610db1826109d1565b9150610dbc836109d1565b9250827fffffffffffffffffffffffffffffffffffffffffffffffffffffffffffffffff03821115610df157610df0610d77565b5b828201905092915050565b7f596f7520616c726561647920766f7465642e0000000000000000000000000000600082015250565b6000610e32601283610bc0565b9150610e3d82610dfc565b602082019050919050565b60006020820190508181036000830152610e6181610e25565b9050919050565b7f53656c662d64656c65676174696f6e20697320646973616c6c6f7765642e0000600082015250565b6000610e9e601e83610bc0565b9150610ea982610e68565b602082019050919050565b60006020820190508181036000830152610ecd81610e91565b9050919050565b7f466f756e64206c6f6f7020696e2064656c65676174696f6e2e00000000000000600082015250565b6000610f0a601983610bc0565b9150610f1582610ed4565b602082019050919050565b60006020820190508181036000830152610f3981610efd565b9050919050565b7f4f6e6c79206368616972706572736f6e2063616e20676976652072696768742060008201527f746f20766f74652e000000000000000000000000000000000000000000000000602082015250565b6000610f9c602883610bc0565b9150610fa782610f40565b604082019050919050565b60006020820190508181036000830152610fcb81610f8f565b9050919050565b7f54686520766f74657220616c726561647920766f7465642e0000000000000000600082015250565b6000611008601883610bc0565b915061101382610fd2565b602082019050919050565b6000602082019050818103600083015261103781610ffb565b9050919050565b6000611049826109d1565b91507fffffffffffffffffffffffffffffffffffffffffffffffffffffffffffffffff820361107b5761107a610d77565b5b600182019050919050565b6000819050919050565b6110a161109c82610a90565b611086565b82525050565b60006110b38284611090565b6020820191508190509291505056fea26469706673582212208129b77a30a9bf650e3c530d7a2429d70834a830cab9372a69c40aeee131746364736f6c634300080f0033",
					"opcodes": "PUSH1 0x80 PUSH1 0x40 MSTORE PUSH1 0x40 MLOAD DUP1 PUSH1 0x60 ADD PUSH1 0x40 MSTORE DUP1 PUSH32 0x44726F7570616469204D75726D75000000000000000000000000000000000000 DUP2 MSTORE PUSH1 0x20 ADD PUSH32 0x5961736877616E742053696E6861000000000000000000000000000000000000 DUP2 MSTORE PUSH1 0x20 ADD PUSH32 0x4B6170696C2053696262616C0000000000000000000000000000000000000000 DUP2 MSTORE POP PUSH1 0x3 SWAP1 PUSH1 0x3 PUSH3 0x91 SWAP3 SWAP2 SWAP1 PUSH3 0x1E1 JUMP JUMPDEST POP CALLVALUE DUP1 ISZERO PUSH3 0x9F JUMPI PUSH1 0x0 DUP1 REVERT JUMPDEST POP CALLER PUSH1 0x0 DUP1 PUSH2 0x100 EXP DUP2 SLOAD DUP2 PUSH20 0xFFFFFFFFFFFFFFFFFFFFFFFFFFFFFFFFFFFFFFFF MUL NOT AND SWAP1 DUP4 PUSH20 0xFFFFFFFFFFFFFFFFFFFFFFFFFFFFFFFFFFFFFFFF AND MUL OR SWAP1 SSTORE POP PUSH1 0x1 DUP1 PUSH1 0x0 DUP1 PUSH1 0x0 SWAP1 SLOAD SWAP1 PUSH2 0x100 EXP SWAP1 DIV PUSH20 0xFFFFFFFFFFFFFFFFFFFFFFFFFFFFFFFFFFFFFFFF AND PUSH20 0xFFFFFFFFFFFFFFFFFFFFFFFFFFFFFFFFFFFFFFFF AND PUSH20 0xFFFFFFFFFFFFFFFFFFFFFFFFFFFFFFFFFFFFFFFF AND DUP2 MSTORE PUSH1 0x20 ADD SWAP1 DUP2 MSTORE PUSH1 0x20 ADD PUSH1 0x0 KECCAK256 PUSH1 0x0 ADD DUP2 SWAP1 SSTORE POP PUSH1 0x0 JUMPDEST PUSH1 0x3 DUP2 LT ISZERO PUSH3 0x1DA JUMPI PUSH1 0x2 PUSH1 0x40 MLOAD DUP1 PUSH1 0x40 ADD PUSH1 0x40 MSTORE DUP1 PUSH1 0x3 DUP5 PUSH1 0x3 DUP2 LT PUSH3 0x179 JUMPI PUSH3 0x178 PUSH3 0x245 JUMP JUMPDEST JUMPDEST ADD SLOAD DUP2 MSTORE PUSH1 0x20 ADD PUSH1 0x0 DUP2 MSTORE POP SWAP1 DUP1 PUSH1 0x1 DUP2 SLOAD ADD DUP1 DUP3 SSTORE DUP1 SWAP2 POP POP PUSH1 0x1 SWAP1 SUB SWAP1 PUSH1 0x0 MSTORE PUSH1 0x20 PUSH1 0x0 KECCAK256 SWAP1 PUSH1 0x2 MUL ADD PUSH1 0x0 SWAP1 SWAP2 SWAP1 SWAP2 SWAP1 SWAP2 POP PUSH1 0x0 DUP3 ADD MLOAD DUP2 PUSH1 0x0 ADD SSTORE PUSH1 0x20 DUP3 ADD MLOAD DUP2 PUSH1 0x1 ADD SSTORE POP POP DUP1 DUP1 PUSH3 0x1D1 SWAP1 PUSH3 0x2AD JUMP JUMPDEST SWAP2 POP POP PUSH3 0x14B JUMP JUMPDEST POP PUSH3 0x2FA JUMP JUMPDEST DUP3 PUSH1 0x3 DUP2 ADD SWAP3 DUP3 ISZERO PUSH3 0x213 JUMPI SWAP2 PUSH1 0x20 MUL DUP3 ADD JUMPDEST DUP3 DUP2 GT ISZERO PUSH3 0x212 JUMPI DUP3 MLOAD DUP3 SSTORE SWAP2 PUSH1 0x20 ADD SWAP2 SWAP1 PUSH1 0x1 ADD SWAP1 PUSH3 0x1F5 JUMP JUMPDEST JUMPDEST POP SWAP1 POP PUSH3 0x222 SWAP2 SWAP1 PUSH3 0x226 JUMP JUMPDEST POP SWAP1 JUMP JUMPDEST JUMPDEST DUP1 DUP3 GT ISZERO PUSH3 0x241 JUMPI PUSH1 0x0 DUP2 PUSH1 0x0 SWAP1 SSTORE POP PUSH1 0x1 ADD PUSH3 0x227 JUMP JUMPDEST POP SWAP1 JUMP JUMPDEST PUSH32 0x4E487B7100000000000000000000000000000000000000000000000000000000 PUSH1 0x0 MSTORE PUSH1 0x32 PUSH1 0x4 MSTORE PUSH1 0x24 PUSH1 0x0 REVERT JUMPDEST PUSH32 0x4E487B7100000000000000000000000000000000000000000000000000000000 PUSH1 0x0 MSTORE PUSH1 0x11 PUSH1 0x4 MSTORE PUSH1 0x24 PUSH1 0x0 REVERT JUMPDEST PUSH1 0x0 DUP2 SWAP1 POP SWAP2 SWAP1 POP JUMP JUMPDEST PUSH1 0x0 PUSH3 0x2BA DUP3 PUSH3 0x2A3 JUMP JUMPDEST SWAP2 POP PUSH32 0xFFFFFFFFFFFFFFFFFFFFFFFFFFFFFFFFFFFFFFFFFFFFFFFFFFFFFFFFFFFFFFFF DUP3 SUB PUSH3 0x2EF JUMPI PUSH3 0x2EE PUSH3 0x274 JUMP JUMPDEST JUMPDEST PUSH1 0x1 DUP3 ADD SWAP1 POP SWAP2 SWAP1 POP JUMP JUMPDEST PUSH2 0x10F8 DUP1 PUSH3 0x30A PUSH1 0x0 CODECOPY PUSH1 0x0 RETURN INVALID PUSH1 0x80 PUSH1 0x40 MSTORE CALLVALUE DUP1 ISZERO PUSH2 0x10 JUMPI PUSH1 0x0 DUP1 REVERT JUMPDEST POP PUSH1 0x4 CALLDATASIZE LT PUSH2 0x88 JUMPI PUSH1 0x0 CALLDATALOAD PUSH1 0xE0 SHR DUP1 PUSH4 0x9E7B8D61 GT PUSH2 0x5B JUMPI DUP1 PUSH4 0x9E7B8D61 EQ PUSH2 0x114 JUMPI DUP1 PUSH4 0xA3EC138D EQ PUSH2 0x130 JUMPI DUP1 PUSH4 0xD28178D7 EQ PUSH2 0x163 JUMPI DUP1 PUSH4 0xE2BA53F0 EQ PUSH2 0x181 JUMPI PUSH2 0x88 JUMP JUMPDEST DUP1 PUSH4 0x121B93F EQ PUSH2 0x8D JUMPI DUP1 PUSH4 0x2E4176CF EQ PUSH2 0xA9 JUMPI DUP1 PUSH4 0x3477EE2E EQ PUSH2 0xC7 JUMPI DUP1 PUSH4 0x5C19A95C EQ PUSH2 0xF8 JUMPI JUMPDEST PUSH1 0x0 DUP1 REVERT JUMPDEST PUSH2 0xA7 PUSH1 0x4 DUP1 CALLDATASIZE SUB DUP2 ADD SWAP1 PUSH2 0xA2 SWAP2 SWAP1 PUSH2 0xA07 JUMP JUMPDEST PUSH2 0x19F JUMP JUMPDEST STOP JUMPDEST PUSH2 0xB1 PUSH2 0x2E5 JUMP JUMPDEST PUSH1 0x40 MLOAD PUSH2 0xBE SWAP2 SWAP1 PUSH2 0xA75 JUMP JUMPDEST PUSH1 0x40 MLOAD DUP1 SWAP2 SUB SWAP1 RETURN JUMPDEST PUSH2 0xE1 PUSH1 0x4 DUP1 CALLDATASIZE SUB DUP2 ADD SWAP1 PUSH2 0xDC SWAP2 SWAP1 PUSH2 0xA07 JUMP JUMPDEST PUSH2 0x309 JUMP JUMPDEST PUSH1 0x40 MLOAD PUSH2 0xEF SWAP3 SWAP2 SWAP1 PUSH2 0xAB8 JUMP JUMPDEST PUSH1 0x40 MLOAD DUP1 SWAP2 SUB SWAP1 RETURN JUMPDEST PUSH2 0x112 PUSH1 0x4 DUP1 CALLDATASIZE SUB DUP2 ADD SWAP1 PUSH2 0x10D SWAP2 SWAP1 PUSH2 0xB0D JUMP JUMPDEST PUSH2 0x33D JUMP JUMPDEST STOP JUMPDEST PUSH2 0x12E PUSH1 0x4 DUP1 CALLDATASIZE SUB DUP2 ADD SWAP1 PUSH2 0x129 SWAP2 SWAP1 PUSH2 0xB0D JUMP JUMPDEST PUSH2 0x6D7 JUMP JUMPDEST STOP JUMPDEST PUSH2 0x14A PUSH1 0x4 DUP1 CALLDATASIZE SUB DUP2 ADD SWAP1 PUSH2 0x145 SWAP2 SWAP1 PUSH2 0xB0D JUMP JUMPDEST PUSH2 0x88E JUMP JUMPDEST PUSH1 0x40 MLOAD PUSH2 0x15A SWAP5 SWAP4 SWAP3 SWAP2 SWAP1 PUSH2 0xB55 JUMP JUMPDEST PUSH1 0x40 MLOAD DUP1 SWAP2 SUB SWAP1 RETURN JUMPDEST PUSH2 0x16B PUSH2 0x8EB JUMP JUMPDEST PUSH1 0x40 MLOAD PUSH2 0x178 SWAP2 SWAP1 PUSH2 0xB9A JUMP JUMPDEST PUSH1 0x40 MLOAD DUP1 SWAP2 SUB SWAP1 RETURN JUMPDEST PUSH2 0x189 PUSH2 0x973 JUMP JUMPDEST PUSH1 0x40 MLOAD PUSH2 0x196 SWAP2 SWAP1 PUSH2 0xC4E JUMP JUMPDEST PUSH1 0x40 MLOAD DUP1 SWAP2 SUB SWAP1 RETURN JUMPDEST PUSH1 0x0 PUSH1 0x1 PUSH1 0x0 CALLER PUSH20 0xFFFFFFFFFFFFFFFFFFFFFFFFFFFFFFFFFFFFFFFF AND PUSH20 0xFFFFFFFFFFFFFFFFFFFFFFFFFFFFFFFFFFFFFFFF AND DUP2 MSTORE PUSH1 0x20 ADD SWAP1 DUP2 MSTORE PUSH1 0x20 ADD PUSH1 0x0 KECCAK256 SWAP1 POP PUSH1 0x0 DUP2 PUSH1 0x0 ADD SLOAD SUB PUSH2 0x229 JUMPI PUSH1 0x40 MLOAD PUSH32 0x8C379A000000000000000000000000000000000000000000000000000000000 DUP2 MSTORE PUSH1 0x4 ADD PUSH2 0x220 SWAP1 PUSH2 0xCBC JUMP JUMPDEST PUSH1 0x40 MLOAD DUP1 SWAP2 SUB SWAP1 REVERT JUMPDEST DUP1 PUSH1 0x1 ADD PUSH1 0x0 SWAP1 SLOAD SWAP1 PUSH2 0x100 EXP SWAP1 DIV PUSH1 0xFF AND ISZERO PUSH2 0x27B JUMPI PUSH1 0x40 MLOAD PUSH32 0x8C379A000000000000000000000000000000000000000000000000000000000 DUP2 MSTORE PUSH1 0x4 ADD PUSH2 0x272 SWAP1 PUSH2 0xD28 JUMP JUMPDEST PUSH1 0x40 MLOAD DUP1 SWAP2 SUB SWAP1 REVERT JUMPDEST PUSH1 0x1 DUP2 PUSH1 0x1 ADD PUSH1 0x0 PUSH2 0x100 EXP DUP2 SLOAD DUP2 PUSH1 0xFF MUL NOT AND SWAP1 DUP4 ISZERO ISZERO MUL OR SWAP1 SSTORE POP DUP2 DUP2 PUSH1 0x2 ADD DUP2 SWAP1 SSTORE POP DUP1 PUSH1 0x0 ADD SLOAD PUSH1 0x2 DUP4 DUP2 SLOAD DUP2 LT PUSH2 0x2BA JUMPI PUSH2 0x2B9 PUSH2 0xD48 JUMP JUMPDEST JUMPDEST SWAP1 PUSH1 0x0 MSTORE PUSH1 0x20 PUSH1 0x0 KECCAK256 SWAP1 PUSH1 0x2 MUL ADD PUSH1 0x1 ADD PUSH1 0x0 DUP3 DUP3 SLOAD PUSH2 0x2DA SWAP2 SWAP1 PUSH2 0xDA6 JUMP JUMPDEST SWAP3 POP POP DUP2 SWAP1 SSTORE POP POP POP JUMP JUMPDEST PUSH1 0x0 DUP1 SLOAD SWAP1 PUSH2 0x100 EXP SWAP1 DIV PUSH20 0xFFFFFFFFFFFFFFFFFFFFFFFFFFFFFFFFFFFFFFFF AND DUP2 JUMP JUMPDEST PUSH1 0x2 DUP2 DUP2 SLOAD DUP2 LT PUSH2 0x319 JUMPI PUSH1 0x0 DUP1 REVERT JUMPDEST SWAP1 PUSH1 0x0 MSTORE PUSH1 0x20 PUSH1 0x0 KECCAK256 SWAP1 PUSH1 0x2 MUL ADD PUSH1 0x0 SWAP2 POP SWAP1 POP DUP1 PUSH1 0x0 ADD SLOAD SWAP1 DUP1 PUSH1 0x1 ADD SLOAD SWAP1 POP DUP3 JUMP JUMPDEST PUSH1 0x0 PUSH1 0x1 PUSH1 0x0 CALLER PUSH20 0xFFFFFFFFFFFFFFFFFFFFFFFFFFFFFFFFFFFFFFFF AND PUSH20 0xFFFFFFFFFFFFFFFFFFFFFFFFFFFFFFFFFFFFFFFF AND DUP2 MSTORE PUSH1 0x20 ADD SWAP1 DUP2 MSTORE PUSH1 0x20 ADD PUSH1 0x0 KECCAK256 SWAP1 POP DUP1 PUSH1 0x1 ADD PUSH1 0x0 SWAP1 SLOAD SWAP1 PUSH2 0x100 EXP SWAP1 DIV PUSH1 0xFF AND ISZERO PUSH2 0x3D2 JUMPI PUSH1 0x40 MLOAD PUSH32 0x8C379A000000000000000000000000000000000000000000000000000000000 DUP2 MSTORE PUSH1 0x4 ADD PUSH2 0x3C9 SWAP1 PUSH2 0xE48 JUMP JUMPDEST PUSH1 0x40 MLOAD DUP1 SWAP2 SUB SWAP1 REVERT JUMPDEST CALLER PUSH20 0xFFFFFFFFFFFFFFFFFFFFFFFFFFFFFFFFFFFFFFFF AND DUP3 PUSH20 0xFFFFFFFFFFFFFFFFFFFFFFFFFFFFFFFFFFFFFFFF AND SUB PUSH2 0x440 JUMPI PUSH1 0x40 MLOAD PUSH32 0x8C379A000000000000000000000000000000000000000000000000000000000 DUP2 MSTORE PUSH1 0x4 ADD PUSH2 0x437 SWAP1 PUSH2 0xEB4 JUMP JUMPDEST PUSH1 0x40 MLOAD DUP1 SWAP2 SUB SWAP1 REVERT JUMPDEST JUMPDEST PUSH1 0x0 PUSH20 0xFFFFFFFFFFFFFFFFFFFFFFFFFFFFFFFFFFFFFFFF AND PUSH1 0x1 PUSH1 0x0 DUP5 PUSH20 0xFFFFFFFFFFFFFFFFFFFFFFFFFFFFFFFFFFFFFFFF AND PUSH20 0xFFFFFFFFFFFFFFFFFFFFFFFFFFFFFFFFFFFFFFFF AND DUP2 MSTORE PUSH1 0x20 ADD SWAP1 DUP2 MSTORE PUSH1 0x20 ADD PUSH1 0x0 KECCAK256 PUSH1 0x1 ADD PUSH1 0x1 SWAP1 SLOAD SWAP1 PUSH2 0x100 EXP SWAP1 DIV PUSH20 0xFFFFFFFFFFFFFFFFFFFFFFFFFFFFFFFFFFFFFFFF AND PUSH20 0xFFFFFFFFFFFFFFFFFFFFFFFFFFFFFFFFFFFFFFFF AND EQ PUSH2 0x5AF JUMPI PUSH1 0x1 PUSH1 0x0 DUP4 PUSH20 0xFFFFFFFFFFFFFFFFFFFFFFFFFFFFFFFFFFFFFFFF AND PUSH20 0xFFFFFFFFFFFFFFFFFFFFFFFFFFFFFFFFFFFFFFFF AND DUP2 MSTORE PUSH1 0x20 ADD SWAP1 DUP2 MSTORE PUSH1 0x20 ADD PUSH1 0x0 KECCAK256 PUSH1 0x1 ADD PUSH1 0x1 SWAP1 SLOAD SWAP1 PUSH2 0x100 EXP SWAP1 DIV PUSH20 0xFFFFFFFFFFFFFFFFFFFFFFFFFFFFFFFFFFFFFFFF AND SWAP2 POP CALLER PUSH20 0xFFFFFFFFFFFFFFFFFFFFFFFFFFFFFFFFFFFFFFFF AND DUP3 PUSH20 0xFFFFFFFFFFFFFFFFFFFFFFFFFFFFFFFFFFFFFFFF AND SUB PUSH2 0x5AA JUMPI PUSH1 0x40 MLOAD PUSH32 0x8C379A000000000000000000000000000000000000000000000000000000000 DUP2 MSTORE PUSH1 0x4 ADD PUSH2 0x5A1 SWAP1 PUSH2 0xF20 JUMP JUMPDEST PUSH1 0x40 MLOAD DUP1 SWAP2 SUB SWAP1 REVERT JUMPDEST PUSH2 0x441 JUMP JUMPDEST PUSH1 0x1 DUP2 PUSH1 0x1 ADD PUSH1 0x0 PUSH2 0x100 EXP DUP2 SLOAD DUP2 PUSH1 0xFF MUL NOT AND SWAP1 DUP4 ISZERO ISZERO MUL OR SWAP1 SSTORE POP DUP2 DUP2 PUSH1 0x1 ADD PUSH1 0x1 PUSH2 0x100 EXP DUP2 SLOAD DUP2 PUSH20 0xFFFFFFFFFFFFFFFFFFFFFFFFFFFFFFFFFFFFFFFF MUL NOT AND SWAP1 DUP4 PUSH20 0xFFFFFFFFFFFFFFFFFFFFFFFFFFFFFFFFFFFFFFFF AND MUL OR SWAP1 SSTORE POP PUSH1 0x0 PUSH1 0x1 PUSH1 0x0 DUP5 PUSH20 0xFFFFFFFFFFFFFFFFFFFFFFFFFFFFFFFFFFFFFFFF AND PUSH20 0xFFFFFFFFFFFFFFFFFFFFFFFFFFFFFFFFFFFFFFFF AND DUP2 MSTORE PUSH1 0x20 ADD SWAP1 DUP2 MSTORE PUSH1 0x20 ADD PUSH1 0x0 KECCAK256 SWAP1 POP DUP1 PUSH1 0x1 ADD PUSH1 0x0 SWAP1 SLOAD SWAP1 PUSH2 0x100 EXP SWAP1 DIV PUSH1 0xFF AND ISZERO PUSH2 0x6B2 JUMPI DUP2 PUSH1 0x0 ADD SLOAD PUSH1 0x2 DUP3 PUSH1 0x2 ADD SLOAD DUP2 SLOAD DUP2 LT PUSH2 0x686 JUMPI PUSH2 0x685 PUSH2 0xD48 JUMP JUMPDEST JUMPDEST SWAP1 PUSH1 0x0 MSTORE PUSH1 0x20 PUSH1 0x0 KECCAK256 SWAP1 PUSH1 0x2 MUL ADD PUSH1 0x1 ADD PUSH1 0x0 DUP3 DUP3 SLOAD PUSH2 0x6A6 SWAP2 SWAP1 PUSH2 0xDA6 JUMP JUMPDEST SWAP3 POP POP DUP2 SWAP1 SSTORE POP PUSH2 0x6D2 JUMP JUMPDEST DUP2 PUSH1 0x0 ADD SLOAD DUP2 PUSH1 0x0 ADD PUSH1 0x0 DUP3 DUP3 SLOAD PUSH2 0x6CA SWAP2 SWAP1 PUSH2 0xDA6 JUMP JUMPDEST SWAP3 POP POP DUP2 SWAP1 SSTORE POP JUMPDEST POP POP POP JUMP JUMPDEST PUSH1 0x0 DUP1 SLOAD SWAP1 PUSH2 0x100 EXP SWAP1 DIV PUSH20 0xFFFFFFFFFFFFFFFFFFFFFFFFFFFFFFFFFFFFFFFF AND PUSH20 0xFFFFFFFFFFFFFFFFFFFFFFFFFFFFFFFFFFFFFFFF AND CALLER PUSH20 0xFFFFFFFFFFFFFFFFFFFFFFFFFFFFFFFFFFFFFFFF AND EQ PUSH2 0x765 JUMPI PUSH1 0x40 MLOAD PUSH32 0x8C379A000000000000000000000000000000000000000000000000000000000 DUP2 MSTORE PUSH1 0x4 ADD PUSH2 0x75C SWAP1 PUSH2 0xFB2 JUMP JUMPDEST PUSH1 0x40 MLOAD DUP1 SWAP2 SUB SWAP1 REVERT JUMPDEST PUSH1 0x1 PUSH1 0x0 DUP3 PUSH20 0xFFFFFFFFFFFFFFFFFFFFFFFFFFFFFFFFFFFFFFFF AND PUSH20 0xFFFFFFFFFFFFFFFFFFFFFFFFFFFFFFFFFFFFFFFF AND DUP2 MSTORE PUSH1 0x20 ADD SWAP1 DUP2 MSTORE PUSH1 0x20 ADD PUSH1 0x0 KECCAK256 PUSH1 0x1 ADD PUSH1 0x0 SWAP1 SLOAD SWAP1 PUSH2 0x100 EXP SWAP1 DIV PUSH1 0xFF AND ISZERO PUSH2 0x7F5 JUMPI PUSH1 0x40 MLOAD PUSH32 0x8C379A000000000000000000000000000000000000000000000000000000000 DUP2 MSTORE PUSH1 0x4 ADD PUSH2 0x7EC SWAP1 PUSH2 0x101E JUMP JUMPDEST PUSH1 0x40 MLOAD DUP1 SWAP2 SUB SWAP1 REVERT JUMPDEST PUSH1 0x0 PUSH1 0x1 PUSH1 0x0 DUP4 PUSH20 0xFFFFFFFFFFFFFFFFFFFFFFFFFFFFFFFFFFFFFFFF AND PUSH20 0xFFFFFFFFFFFFFFFFFFFFFFFFFFFFFFFFFFFFFFFF AND DUP2 MSTORE PUSH1 0x20 ADD SWAP1 DUP2 MSTORE PUSH1 0x20 ADD PUSH1 0x0 KECCAK256 PUSH1 0x0 ADD SLOAD EQ PUSH2 0x844 JUMPI PUSH1 0x0 DUP1 REVERT JUMPDEST PUSH1 0x1 DUP1 PUSH1 0x0 DUP4 PUSH20 0xFFFFFFFFFFFFFFFFFFFFFFFFFFFFFFFFFFFFFFFF AND PUSH20 0xFFFFFFFFFFFFFFFFFFFFFFFFFFFFFFFFFFFFFFFF AND DUP2 MSTORE PUSH1 0x20 ADD SWAP1 DUP2 MSTORE PUSH1 0x20 ADD PUSH1 0x0 KECCAK256 PUSH1 0x0 ADD DUP2 SWAP1 SSTORE POP POP JUMP JUMPDEST PUSH1 0x1 PUSH1 0x20 MSTORE DUP1 PUSH1 0x0 MSTORE PUSH1 0x40 PUSH1 0x0 KECCAK256 PUSH1 0x0 SWAP2 POP SWAP1 POP DUP1 PUSH1 0x0 ADD SLOAD SWAP1 DUP1 PUSH1 0x1 ADD PUSH1 0x0 SWAP1 SLOAD SWAP1 PUSH2 0x100 EXP SWAP1 DIV PUSH1 0xFF AND SWAP1 DUP1 PUSH1 0x1 ADD PUSH1 0x1 SWAP1 SLOAD SWAP1 PUSH2 0x100 EXP SWAP1 DIV PUSH20 0xFFFFFFFFFFFFFFFFFFFFFFFFFFFFFFFFFFFFFFFF AND SWAP1 DUP1 PUSH1 0x2 ADD SLOAD SWAP1 POP DUP5 JUMP JUMPDEST PUSH1 0x0 DUP1 PUSH1 0x0 SWAP1 POP PUSH1 0x0 JUMPDEST PUSH1 0x2 DUP1 SLOAD SWAP1 POP DUP2 LT ISZERO PUSH2 0x96E JUMPI DUP2 PUSH1 0x2 DUP3 DUP2 SLOAD DUP2 LT PUSH2 0x917 JUMPI PUSH2 0x916 PUSH2 0xD48 JUMP JUMPDEST JUMPDEST SWAP1 PUSH1 0x0 MSTORE PUSH1 0x20 PUSH1 0x0 KECCAK256 SWAP1 PUSH1 0x2 MUL ADD PUSH1 0x1 ADD SLOAD GT ISZERO PUSH2 0x95B JUMPI PUSH1 0x2 DUP2 DUP2 SLOAD DUP2 LT PUSH2 0x943 JUMPI PUSH2 0x942 PUSH2 0xD48 JUMP JUMPDEST JUMPDEST SWAP1 PUSH1 0x0 MSTORE PUSH1 0x20 PUSH1 0x0 KECCAK256 SWAP1 PUSH1 0x2 MUL ADD PUSH1 0x1 ADD SLOAD SWAP2 POP DUP1 SWAP3 POP JUMPDEST DUP1 DUP1 PUSH2 0x966 SWAP1 PUSH2 0x103E JUMP JUMPDEST SWAP2 POP POP PUSH2 0x8F5 JUMP JUMPDEST POP POP SWAP1 JUMP JUMPDEST PUSH1 0x60 PUSH1 0x0 PUSH1 0x2 PUSH2 0x981 PUSH2 0x8EB JUMP JUMPDEST DUP2 SLOAD DUP2 LT PUSH2 0x992 JUMPI PUSH2 0x991 PUSH2 0xD48 JUMP JUMPDEST JUMPDEST SWAP1 PUSH1 0x0 MSTORE PUSH1 0x20 PUSH1 0x0 KECCAK256 SWAP1 PUSH1 0x2 MUL ADD PUSH1 0x0 ADD SLOAD SWAP1 POP DUP1 PUSH1 0x40 MLOAD PUSH1 0x20 ADD PUSH2 0x9B7 SWAP2 SWAP1 PUSH2 0x10A7 JUMP JUMPDEST PUSH1 0x40 MLOAD PUSH1 0x20 DUP2 DUP4 SUB SUB DUP2 MSTORE SWAP1 PUSH1 0x40 MSTORE SWAP2 POP POP SWAP1 JUMP JUMPDEST PUSH1 0x0 DUP1 REVERT JUMPDEST PUSH1 0x0 DUP2 SWAP1 POP SWAP2 SWAP1 POP JUMP JUMPDEST PUSH2 0x9E4 DUP2 PUSH2 0x9D1 JUMP JUMPDEST DUP2 EQ PUSH2 0x9EF JUMPI PUSH1 0x0 DUP1 REVERT JUMPDEST POP JUMP JUMPDEST PUSH1 0x0 DUP2 CALLDATALOAD SWAP1 POP PUSH2 0xA01 DUP2 PUSH2 0x9DB JUMP JUMPDEST SWAP3 SWAP2 POP POP JUMP JUMPDEST PUSH1 0x0 PUSH1 0x20 DUP3 DUP5 SUB SLT ISZERO PUSH2 0xA1D JUMPI PUSH2 0xA1C PUSH2 0x9CC JUMP JUMPDEST JUMPDEST PUSH1 0x0 PUSH2 0xA2B DUP5 DUP3 DUP6 ADD PUSH2 0x9F2 JUMP JUMPDEST SWAP2 POP POP SWAP3 SWAP2 POP POP JUMP JUMPDEST PUSH1 0x0 PUSH20 0xFFFFFFFFFFFFFFFFFFFFFFFFFFFFFFFFFFFFFFFF DUP3 AND SWAP1 POP SWAP2 SWAP1 POP JUMP JUMPDEST PUSH1 0x0 PUSH2 0xA5F DUP3 PUSH2 0xA34 JUMP JUMPDEST SWAP1 POP SWAP2 SWAP1 POP JUMP JUMPDEST PUSH2 0xA6F DUP2 PUSH2 0xA54 JUMP JUMPDEST DUP3 MSTORE POP POP JUMP JUMPDEST PUSH1 0x0 PUSH1 0x20 DUP3 ADD SWAP1 POP PUSH2 0xA8A PUSH1 0x0 DUP4 ADD DUP5 PUSH2 0xA66 JUMP JUMPDEST SWAP3 SWAP2 POP POP JUMP JUMPDEST PUSH1 0x0 DUP2 SWAP1 POP SWAP2 SWAP1 POP JUMP JUMPDEST PUSH2 0xAA3 DUP2 PUSH2 0xA90 JUMP JUMPDEST DUP3 MSTORE POP POP JUMP JUMPDEST PUSH2 0xAB2 DUP2 PUSH2 0x9D1 JUMP JUMPDEST DUP3 MSTORE POP POP JUMP JUMPDEST PUSH1 0x0 PUSH1 0x40 DUP3 ADD SWAP1 POP PUSH2 0xACD PUSH1 0x0 DUP4 ADD DUP6 PUSH2 0xA9A JUMP JUMPDEST PUSH2 0xADA PUSH1 0x20 DUP4 ADD DUP5 PUSH2 0xAA9 JUMP JUMPDEST SWAP4 SWAP3 POP POP POP JUMP JUMPDEST PUSH2 0xAEA DUP2 PUSH2 0xA54 JUMP JUMPDEST DUP2 EQ PUSH2 0xAF5 JUMPI PUSH1 0x0 DUP1 REVERT JUMPDEST POP JUMP JUMPDEST PUSH1 0x0 DUP2 CALLDATALOAD SWAP1 POP PUSH2 0xB07 DUP2 PUSH2 0xAE1 JUMP JUMPDEST SWAP3 SWAP2 POP POP JUMP JUMPDEST PUSH1 0x0 PUSH1 0x20 DUP3 DUP5 SUB SLT ISZERO PUSH2 0xB23 JUMPI PUSH2 0xB22 PUSH2 0x9CC JUMP JUMPDEST JUMPDEST PUSH1 0x0 PUSH2 0xB31 DUP5 DUP3 DUP6 ADD PUSH2 0xAF8 JUMP JUMPDEST SWAP2 POP POP SWAP3 SWAP2 POP POP JUMP JUMPDEST PUSH1 0x0 DUP2 ISZERO ISZERO SWAP1 POP SWAP2 SWAP1 POP JUMP JUMPDEST PUSH2 0xB4F DUP2 PUSH2 0xB3A JUMP JUMPDEST DUP3 MSTORE POP POP JUMP JUMPDEST PUSH1 0x0 PUSH1 0x80 DUP3 ADD SWAP1 POP PUSH2 0xB6A PUSH1 0x0 DUP4 ADD DUP8 PUSH2 0xAA9 JUMP JUMPDEST PUSH2 0xB77 PUSH1 0x20 DUP4 ADD DUP7 PUSH2 0xB46 JUMP JUMPDEST PUSH2 0xB84 PUSH1 0x40 DUP4 ADD DUP6 PUSH2 0xA66 JUMP JUMPDEST PUSH2 0xB91 PUSH1 0x60 DUP4 ADD DUP5 PUSH2 0xAA9 JUMP JUMPDEST SWAP6 SWAP5 POP POP POP POP POP JUMP JUMPDEST PUSH1 0x0 PUSH1 0x20 DUP3 ADD SWAP1 POP PUSH2 0xBAF PUSH1 0x0 DUP4 ADD DUP5 PUSH2 0xAA9 JUMP JUMPDEST SWAP3 SWAP2 POP POP JUMP JUMPDEST PUSH1 0x0 DUP2 MLOAD SWAP1 POP SWAP2 SWAP1 POP JUMP JUMPDEST PUSH1 0x0 DUP3 DUP3 MSTORE PUSH1 0x20 DUP3 ADD SWAP1 POP SWAP3 SWAP2 POP POP JUMP JUMPDEST PUSH1 0x0 JUMPDEST DUP4 DUP2 LT ISZERO PUSH2 0xBEF JUMPI DUP1 DUP3 ADD MLOAD DUP2 DUP5 ADD MSTORE PUSH1 0x20 DUP2 ADD SWAP1 POP PUSH2 0xBD4 JUMP JUMPDEST DUP4 DUP2 GT ISZERO PUSH2 0xBFE JUMPI PUSH1 0x0 DUP5 DUP5 ADD MSTORE JUMPDEST POP POP POP POP JUMP JUMPDEST PUSH1 0x0 PUSH1 0x1F NOT PUSH1 0x1F DUP4 ADD AND SWAP1 POP SWAP2 SWAP1 POP JUMP JUMPDEST PUSH1 0x0 PUSH2 0xC20 DUP3 PUSH2 0xBB5 JUMP JUMPDEST PUSH2 0xC2A DUP2 DUP6 PUSH2 0xBC0 JUMP JUMPDEST SWAP4 POP PUSH2 0xC3A DUP2 DUP6 PUSH1 0x20 DUP7 ADD PUSH2 0xBD1 JUMP JUMPDEST PUSH2 0xC43 DUP2 PUSH2 0xC04 JUMP JUMPDEST DUP5 ADD SWAP2 POP POP SWAP3 SWAP2 POP POP JUMP JUMPDEST PUSH1 0x0 PUSH1 0x20 DUP3 ADD SWAP1 POP DUP2 DUP2 SUB PUSH1 0x0 DUP4 ADD MSTORE PUSH2 0xC68 DUP2 DUP5 PUSH2 0xC15 JUMP JUMPDEST SWAP1 POP SWAP3 SWAP2 POP POP JUMP JUMPDEST PUSH32 0x486173206E6F20726967687420746F20766F7465000000000000000000000000 PUSH1 0x0 DUP3 ADD MSTORE POP JUMP JUMPDEST PUSH1 0x0 PUSH2 0xCA6 PUSH1 0x14 DUP4 PUSH2 0xBC0 JUMP JUMPDEST SWAP2 POP PUSH2 0xCB1 DUP3 PUSH2 0xC70 JUMP JUMPDEST PUSH1 0x20 DUP3 ADD SWAP1 POP SWAP2 SWAP1 POP JUMP JUMPDEST PUSH1 0x0 PUSH1 0x20 DUP3 ADD SWAP1 POP DUP2 DUP2 SUB PUSH1 0x0 DUP4 ADD MSTORE PUSH2 0xCD5 DUP2 PUSH2 0xC99 JUMP JUMPDEST SWAP1 POP SWAP2 SWAP1 POP JUMP JUMPDEST PUSH32 0x416C726561647920766F7465642E000000000000000000000000000000000000 PUSH1 0x0 DUP3 ADD MSTORE POP JUMP JUMPDEST PUSH1 0x0 PUSH2 0xD12 PUSH1 0xE DUP4 PUSH2 0xBC0 JUMP JUMPDEST SWAP2 POP PUSH2 0xD1D DUP3 PUSH2 0xCDC JUMP JUMPDEST PUSH1 0x20 DUP3 ADD SWAP1 POP SWAP2 SWAP1 POP JUMP JUMPDEST PUSH1 0x0 PUSH1 0x20 DUP3 ADD SWAP1 POP DUP2 DUP2 SUB PUSH1 0x0 DUP4 ADD MSTORE PUSH2 0xD41 DUP2 PUSH2 0xD05 JUMP JUMPDEST SWAP1 POP SWAP2 SWAP1 POP JUMP JUMPDEST PUSH32 0x4E487B7100000000000000000000000000000000000000000000000000000000 PUSH1 0x0 MSTORE PUSH1 0x32 PUSH1 0x4 MSTORE PUSH1 0x24 PUSH1 0x0 REVERT JUMPDEST PUSH32 0x4E487B7100000000000000000000000000000000000000000000000000000000 PUSH1 0x0 MSTORE PUSH1 0x11 PUSH1 0x4 MSTORE PUSH1 0x24 PUSH1 0x0 REVERT JUMPDEST PUSH1 0x0 PUSH2 0xDB1 DUP3 PUSH2 0x9D1 JUMP JUMPDEST SWAP2 POP PUSH2 0xDBC DUP4 PUSH2 0x9D1 JUMP JUMPDEST SWAP3 POP DUP3 PUSH32 0xFFFFFFFFFFFFFFFFFFFFFFFFFFFFFFFFFFFFFFFFFFFFFFFFFFFFFFFFFFFFFFFF SUB DUP3 GT ISZERO PUSH2 0xDF1 JUMPI PUSH2 0xDF0 PUSH2 0xD77 JUMP JUMPDEST JUMPDEST DUP3 DUP3 ADD SWAP1 POP SWAP3 SWAP2 POP POP JUMP JUMPDEST PUSH32 0x596F7520616C726561647920766F7465642E0000000000000000000000000000 PUSH1 0x0 DUP3 ADD MSTORE POP JUMP JUMPDEST PUSH1 0x0 PUSH2 0xE32 PUSH1 0x12 DUP4 PUSH2 0xBC0 JUMP JUMPDEST SWAP2 POP PUSH2 0xE3D DUP3 PUSH2 0xDFC JUMP JUMPDEST PUSH1 0x20 DUP3 ADD SWAP1 POP SWAP2 SWAP1 POP JUMP JUMPDEST PUSH1 0x0 PUSH1 0x20 DUP3 ADD SWAP1 POP DUP2 DUP2 SUB PUSH1 0x0 DUP4 ADD MSTORE PUSH2 0xE61 DUP2 PUSH2 0xE25 JUMP JUMPDEST SWAP1 POP SWAP2 SWAP1 POP JUMP JUMPDEST PUSH32 0x53656C662D64656C65676174696F6E20697320646973616C6C6F7765642E0000 PUSH1 0x0 DUP3 ADD MSTORE POP JUMP JUMPDEST PUSH1 0x0 PUSH2 0xE9E PUSH1 0x1E DUP4 PUSH2 0xBC0 JUMP JUMPDEST SWAP2 POP PUSH2 0xEA9 DUP3 PUSH2 0xE68 JUMP JUMPDEST PUSH1 0x20 DUP3 ADD SWAP1 POP SWAP2 SWAP1 POP JUMP JUMPDEST PUSH1 0x0 PUSH1 0x20 DUP3 ADD SWAP1 POP DUP2 DUP2 SUB PUSH1 0x0 DUP4 ADD MSTORE PUSH2 0xECD DUP2 PUSH2 0xE91 JUMP JUMPDEST SWAP1 POP SWAP2 SWAP1 POP JUMP JUMPDEST PUSH32 0x466F756E64206C6F6F7020696E2064656C65676174696F6E2E00000000000000 PUSH1 0x0 DUP3 ADD MSTORE POP JUMP JUMPDEST PUSH1 0x0 PUSH2 0xF0A PUSH1 0x19 DUP4 PUSH2 0xBC0 JUMP JUMPDEST SWAP2 POP PUSH2 0xF15 DUP3 PUSH2 0xED4 JUMP JUMPDEST PUSH1 0x20 DUP3 ADD SWAP1 POP SWAP2 SWAP1 POP JUMP JUMPDEST PUSH1 0x0 PUSH1 0x20 DUP3 ADD SWAP1 POP DUP2 DUP2 SUB PUSH1 0x0 DUP4 ADD MSTORE PUSH2 0xF39 DUP2 PUSH2 0xEFD JUMP JUMPDEST SWAP1 POP SWAP2 SWAP1 POP JUMP JUMPDEST PUSH32 0x4F6E6C79206368616972706572736F6E2063616E206769766520726967687420 PUSH1 0x0 DUP3 ADD MSTORE PUSH32 0x746F20766F74652E000000000000000000000000000000000000000000000000 PUSH1 0x20 DUP3 ADD MSTORE POP JUMP JUMPDEST PUSH1 0x0 PUSH2 0xF9C PUSH1 0x28 DUP4 PUSH2 0xBC0 JUMP JUMPDEST SWAP2 POP PUSH2 0xFA7 DUP3 PUSH2 0xF40 JUMP JUMPDEST PUSH1 0x40 DUP3 ADD SWAP1 POP SWAP2 SWAP1 POP JUMP JUMPDEST PUSH1 0x0 PUSH1 0x20 DUP3 ADD SWAP1 POP DUP2 DUP2 SUB PUSH1 0x0 DUP4 ADD MSTORE PUSH2 0xFCB DUP2 PUSH2 0xF8F JUMP JUMPDEST SWAP1 POP SWAP2 SWAP1 POP JUMP JUMPDEST PUSH32 0x54686520766F74657220616C726561647920766F7465642E0000000000000000 PUSH1 0x0 DUP3 ADD MSTORE POP JUMP JUMPDEST PUSH1 0x0 PUSH2 0x1008 PUSH1 0x18 DUP4 PUSH2 0xBC0 JUMP JUMPDEST SWAP2 POP PUSH2 0x1013 DUP3 PUSH2 0xFD2 JUMP JUMPDEST PUSH1 0x20 DUP3 ADD SWAP1 POP SWAP2 SWAP1 POP JUMP JUMPDEST PUSH1 0x0 PUSH1 0x20 DUP3 ADD SWAP1 POP DUP2 DUP2 SUB PUSH1 0x0 DUP4 ADD MSTORE PUSH2 0x1037 DUP2 PUSH2 0xFFB JUMP JUMPDEST SWAP1 POP SWAP2 SWAP1 POP JUMP JUMPDEST PUSH1 0x0 PUSH2 0x1049 DUP3 PUSH2 0x9D1 JUMP JUMPDEST SWAP2 POP PUSH32 0xFFFFFFFFFFFFFFFFFFFFFFFFFFFFFFFFFFFFFFFFFFFFFFFFFFFFFFFFFFFFFFFF DUP3 SUB PUSH2 0x107B JUMPI PUSH2 0x107A PUSH2 0xD77 JUMP JUMPDEST JUMPDEST PUSH1 0x1 DUP3 ADD SWAP1 POP SWAP2 SWAP1 POP JUMP JUMPDEST PUSH1 0x0 DUP2 SWAP1 POP SWAP2 SWAP1 POP JUMP JUMPDEST PUSH2 0x10A1 PUSH2 0x109C DUP3 PUSH2 0xA90 JUMP JUMPDEST PUSH2 0x1086 JUMP JUMPDEST DUP3 MSTORE POP POP JUMP JUMPDEST PUSH1 0x0 PUSH2 0x10B3 DUP3 DUP5 PUSH2 0x1090 JUMP JUMPDEST PUSH1 0x20 DUP3 ADD SWAP2 POP DUP2 SWAP1 POP SWAP3 SWAP2 POP POP JUMP INVALID LOG2 PUSH5 0x6970667358 0x22 SLT KECCAK256 DUP2 0x29 0xB7 PUSH27 0x30A9BF650E3C530D7A2429D70834A830CAB9372A69C40AEEE13174 PUSH4 0x64736F6C PUSH4 0x4300080F STOP CALLER "
				},
				"gasEstimates": {
					"creation": {
						"codeDepositCost": "868800",
						"executionCost": "infinite",
						"totalCost": "infinite"
					},
					"external": {
						"candidates(uint256)": "infinite",
						"chairperson()": "2534",
						"delegate(address)": "infinite",
						"giveRightToVote(address)": "29303",
						"vote(uint256)": "infinite",
						"voters(address)": "infinite",
						"winnerName()": "infinite",
						"winningCandidate()": "infinite"
					}
				},
				"methodIdentifiers": {
					"candidates(uint256)": "3477ee2e",
					"chairperson()": "2e4176cf",
					"delegate(address)": "5c19a95c",
					"giveRightToVote(address)": "9e7b8d61",
					"vote(uint256)": "0121b93f",
					"voters(address)": "a3ec138d",
					"winnerName()": "e2ba53f0",
					"winningCandidate()": "d28178d7"
				}
			},
			"storageLayout": {
				"storage": [
					{
						"astId": 18,
						"contract": "projects/1_PresidentElection.sol:Ballot",
						"label": "chairperson",
						"offset": 0,
						"slot": "0",
						"type": "t_address"
					},
					{
						"astId": 23,
						"contract": "projects/1_PresidentElection.sol:Ballot",
						"label": "voters",
						"offset": 0,
						"slot": "1",
						"type": "t_mapping(t_address,t_struct(Voter)11_storage)"
					},
					{
						"astId": 27,
						"contract": "projects/1_PresidentElection.sol:Ballot",
						"label": "candidates",
						"offset": 0,
						"slot": "2",
						"type": "t_array(t_struct(Candidate)16_storage)dyn_storage"
					},
					{
						"astId": 44,
						"contract": "projects/1_PresidentElection.sol:Ballot",
						"label": "candidateNames",
						"offset": 0,
						"slot": "3",
						"type": "t_array(t_bytes32)3_storage"
					}
				],
				"types": {
					"t_address": {
						"encoding": "inplace",
						"label": "address",
						"numberOfBytes": "20"
					},
					"t_array(t_bytes32)3_storage": {
						"base": "t_bytes32",
						"encoding": "inplace",
						"label": "bytes32[3]",
						"numberOfBytes": "96"
					},
					"t_array(t_struct(Candidate)16_storage)dyn_storage": {
						"base": "t_struct(Candidate)16_storage",
						"encoding": "dynamic_array",
						"label": "struct Ballot.Candidate[]",
						"numberOfBytes": "32"
					},
					"t_bool": {
						"encoding": "inplace",
						"label": "bool",
						"numberOfBytes": "1"
					},
					"t_bytes32": {
						"encoding": "inplace",
						"label": "bytes32",
						"numberOfBytes": "32"
					},
					"t_mapping(t_address,t_struct(Voter)11_storage)": {
						"encoding": "mapping",
						"key": "t_address",
						"label": "mapping(address => struct Ballot.Voter)",
						"numberOfBytes": "32",
						"value": "t_struct(Voter)11_storage"
					},
					"t_struct(Candidate)16_storage": {
						"encoding": "inplace",
						"label": "struct Ballot.Candidate",
						"members": [
							{
								"astId": 13,
								"contract": "projects/1_PresidentElection.sol:Ballot",
								"label": "name",
								"offset": 0,
								"slot": "0",
								"type": "t_bytes32"
							},
							{
								"astId": 15,
								"contract": "projects/1_PresidentElection.sol:Ballot",
								"label": "voteCount",
								"offset": 0,
								"slot": "1",
								"type": "t_uint256"
							}
						],
						"numberOfBytes": "64"
					},
					"t_struct(Voter)11_storage": {
						"encoding": "inplace",
						"label": "struct Ballot.Voter",
						"members": [
							{
								"astId": 4,
								"contract": "projects/1_PresidentElection.sol:Ballot",
								"label": "weight",
								"offset": 0,
								"slot": "0",
								"type": "t_uint256"
							},
							{
								"astId": 6,
								"contract": "projects/1_PresidentElection.sol:Ballot",
								"label": "voted",
								"offset": 0,
								"slot": "1",
								"type": "t_bool"
							},
							{
								"astId": 8,
								"contract": "projects/1_PresidentElection.sol:Ballot",
								"label": "delegate",
								"offset": 1,
								"slot": "1",
								"type": "t_address"
							},
							{
								"astId": 10,
								"contract": "projects/1_PresidentElection.sol:Ballot",
								"label": "vote",
								"offset": 0,
								"slot": "2",
								"type": "t_uint256"
							}
						],
						"numberOfBytes": "96"
					},
					"t_uint256": {
						"encoding": "inplace",
						"label": "uint256",
						"numberOfBytes": "32"
					}
				}
			},
			"userdoc": {
				"kind": "user",
				"methods": {},
				"version": 1
			}
		}
	}
}