{
	"collegeDepartmentRating.sol": {
		"collegeRating": {
			"abi": [
				{
					"inputs": [],
					"payable": false,
					"stateMutability": "nonpayable",
					"type": "constructor"
				},
				{
					"anonymous": false,
					"inputs": [
						{
							"indexed": false,
							"internalType": "address",
							"name": "collegeAddress",
							"type": "address"
						},
						{
							"indexed": false,
							"internalType": "uint256",
							"name": "dId",
							"type": "uint256"
						},
						{
							"indexed": false,
							"internalType": "uint256",
							"name": "_rating",
							"type": "uint256"
						}
					],
					"name": "enterRating",
					"type": "event"
				},
				{
					"constant": true,
					"inputs": [
						{
							"internalType": "address",
							"name": "_collegeAddress",
							"type": "address"
						}
					],
					"name": "getCollageRating",
					"outputs": [
						{
							"internalType": "uint256",
							"name": "",
							"type": "uint256"
						},
						{
							"internalType": "uint256",
							"name": "",
							"type": "uint256"
						}
					],
					"payable": false,
					"stateMutability": "view",
					"type": "function"
				},
				{
					"constant": true,
					"inputs": [
						{
							"internalType": "address",
							"name": "_collegeAddress",
							"type": "address"
						},
						{
							"internalType": "uint256",
							"name": "_deptId",
							"type": "uint256"
						}
					],
					"name": "getDeptRating",
					"outputs": [
						{
							"internalType": "uint256",
							"name": "",
							"type": "uint256"
						}
					],
					"payable": false,
					"stateMutability": "view",
					"type": "function"
				},
				{
					"constant": false,
					"inputs": [
						{
							"internalType": "address",
							"name": "_collegeAddress",
							"type": "address"
						},
						{
							"internalType": "uint256",
							"name": "_deptId",
							"type": "uint256"
						},
						{
							"internalType": "uint256",
							"name": "_rating",
							"type": "uint256"
						}
					],
					"name": "setRating",
					"outputs": [],
					"payable": false,
					"stateMutability": "nonpayable",
					"type": "function"
				}
			],
			"devdoc": {
				"methods": {}
			},
			"evm": {
				"assembly": "    /* \"collegeDepartmentRating.sol\":25:1972  contract collegeRating{... */\n  mstore(0x40, 0x80)\n    /* \"collegeDepartmentRating.sol\":281:330  constructor() public{... */\n  callvalue\n    /* \"--CODEGEN--\":8:17   */\n  dup1\n    /* \"--CODEGEN--\":5:7   */\n  iszero\n  tag_1\n  jumpi\n    /* \"--CODEGEN--\":30:31   */\n  0x00\n    /* \"--CODEGEN--\":27:28   */\n  dup1\n    /* \"--CODEGEN--\":20:32   */\n  revert\n    /* \"--CODEGEN--\":5:7   */\ntag_1:\n    /* \"collegeDepartmentRating.sol\":281:330  constructor() public{... */\n  pop\n    /* \"collegeDepartmentRating.sol\":315:325  msg.sender */\n  caller\n    /* \"collegeDepartmentRating.sol\":308:312  cAdd */\n  0x00\n  dup1\n    /* \"collegeDepartmentRating.sol\":308:325  cAdd = msg.sender */\n  0x0100\n  exp\n  dup2\n  sload\n  dup2\n  0xffffffffffffffffffffffffffffffffffffffff\n  mul\n  not\n  and\n  swap1\n  dup4\n  0xffffffffffffffffffffffffffffffffffffffff\n  and\n  mul\n  or\n  swap1\n  sstore\n  pop\n    /* \"collegeDepartmentRating.sol\":25:1972  contract collegeRating{... */\n  dataSize(sub_0)\n  dup1\n  dataOffset(sub_0)\n  0x00\n  codecopy\n  0x00\n  return\nstop\n\nsub_0: assembly {\n        /* \"collegeDepartmentRating.sol\":25:1972  contract collegeRating{... */\n      mstore(0x40, 0x80)\n      callvalue\n        /* \"--CODEGEN--\":8:17   */\n      dup1\n        /* \"--CODEGEN--\":5:7   */\n      iszero\n      tag_1\n      jumpi\n        /* \"--CODEGEN--\":30:31   */\n      0x00\n        /* \"--CODEGEN--\":27:28   */\n      dup1\n        /* \"--CODEGEN--\":20:32   */\n      revert\n        /* \"--CODEGEN--\":5:7   */\n    tag_1:\n        /* \"collegeDepartmentRating.sol\":25:1972  contract collegeRating{... */\n      pop\n      jumpi(tag_2, lt(calldatasize, 0x04))\n      shr(0xe0, calldataload(0x00))\n      dup1\n      0x2936bdb3\n      eq\n      tag_3\n      jumpi\n      dup1\n      0x868c2b91\n      eq\n      tag_4\n      jumpi\n      dup1\n      0xd6a6bacf\n      eq\n      tag_5\n      jumpi\n    tag_2:\n      0x00\n      dup1\n      revert\n        /* \"collegeDepartmentRating.sol\":1382:1969  function getCollageRating(address _collegeAddress ) public view returns(uint , uint)... */\n    tag_3:\n      tag_6\n      0x04\n      dup1\n      calldatasize\n      sub\n        /* \"--CODEGEN--\":13:15   */\n      0x20\n        /* \"--CODEGEN--\":8:11   */\n      dup2\n        /* \"--CODEGEN--\":5:16   */\n      lt\n        /* \"--CODEGEN--\":2:4   */\n      iszero\n      tag_7\n      jumpi\n        /* \"--CODEGEN--\":29:30   */\n      0x00\n        /* \"--CODEGEN--\":26:27   */\n      dup1\n        /* \"--CODEGEN--\":19:31   */\n      revert\n        /* \"--CODEGEN--\":2:4   */\n    tag_7:\n        /* \"collegeDepartmentRating.sol\":1382:1969  function getCollageRating(address _collegeAddress ) public view returns(uint , uint)... */\n      dup2\n      add\n      swap1\n      dup1\n      dup1\n      calldataload\n      0xffffffffffffffffffffffffffffffffffffffff\n      and\n      swap1\n      0x20\n      add\n      swap1\n      swap3\n      swap2\n      swap1\n      pop\n      pop\n      pop\n      tag_8\n      jump\t// in\n    tag_6:\n      mload(0x40)\n      dup1\n      dup4\n      dup2\n      mstore\n      0x20\n      add\n      dup3\n      dup2\n      mstore\n      0x20\n      add\n      swap3\n      pop\n      pop\n      pop\n      mload(0x40)\n      dup1\n      swap2\n      sub\n      swap1\n      return\n        /* \"collegeDepartmentRating.sol\":895:1206  function setRating(address _collegeAddress, uint _deptId, uint _rating)... */\n    tag_4:\n      tag_9\n      0x04\n      dup1\n      calldatasize\n      sub\n        /* \"--CODEGEN--\":13:15   */\n      0x60\n        /* \"--CODEGEN--\":8:11   */\n      dup2\n        /* \"--CODEGEN--\":5:16   */\n      lt\n        /* \"--CODEGEN--\":2:4   */\n      iszero\n      tag_10\n      jumpi\n        /* \"--CODEGEN--\":29:30   */\n      0x00\n        /* \"--CODEGEN--\":26:27   */\n      dup1\n        /* \"--CODEGEN--\":19:31   */\n      revert\n        /* \"--CODEGEN--\":2:4   */\n    tag_10:\n        /* \"collegeDepartmentRating.sol\":895:1206  function setRating(address _collegeAddress, uint _deptId, uint _rating)... */\n      dup2\n      add\n      swap1\n      dup1\n      dup1\n      calldataload\n      0xffffffffffffffffffffffffffffffffffffffff\n      and\n      swap1\n      0x20\n      add\n      swap1\n      swap3\n      swap2\n      swap1\n      dup1\n      calldataload\n      swap1\n      0x20\n      add\n      swap1\n      swap3\n      swap2\n      swap1\n      dup1\n      calldataload\n      swap1\n      0x20\n      add\n      swap1\n      swap3\n      swap2\n      swap1\n      pop\n      pop\n      pop\n      tag_11\n      jump\t// in\n    tag_9:\n      stop\n        /* \"collegeDepartmentRating.sol\":1213:1375  function getDeptRating(address _collegeAddress, uint _deptId)... */\n    tag_5:\n      tag_12\n      0x04\n      dup1\n      calldatasize\n      sub\n        /* \"--CODEGEN--\":13:15   */\n      0x40\n        /* \"--CODEGEN--\":8:11   */\n      dup2\n        /* \"--CODEGEN--\":5:16   */\n      lt\n        /* \"--CODEGEN--\":2:4   */\n      iszero\n      tag_13\n      jumpi\n        /* \"--CODEGEN--\":29:30   */\n      0x00\n        /* \"--CODEGEN--\":26:27   */\n      dup1\n        /* \"--CODEGEN--\":19:31   */\n      revert\n        /* \"--CODEGEN--\":2:4   */\n    tag_13:\n        /* \"collegeDepartmentRating.sol\":1213:1375  function getDeptRating(address _collegeAddress, uint _deptId)... */\n      dup2\n      add\n      swap1\n      dup1\n      dup1\n      calldataload\n      0xffffffffffffffffffffffffffffffffffffffff\n      and\n      swap1\n      0x20\n      add\n      swap1\n      swap3\n      swap2\n      swap1\n      dup1\n      calldataload\n      swap1\n      0x20\n      add\n      swap1\n      swap3\n      swap2\n      swap1\n      pop\n      pop\n      pop\n      tag_14\n      jump\t// in\n    tag_12:\n      mload(0x40)\n      dup1\n      dup3\n      dup2\n      mstore\n      0x20\n      add\n      swap2\n      pop\n      pop\n      mload(0x40)\n      dup1\n      swap2\n      sub\n      swap1\n      return\n        /* \"collegeDepartmentRating.sol\":1382:1969  function getCollageRating(address _collegeAddress ) public view returns(uint , uint)... */\n    tag_8:\n        /* \"collegeDepartmentRating.sol\":1454:1458  uint */\n      0x00\n        /* \"collegeDepartmentRating.sol\":1461:1465  uint */\n      dup1\n        /* \"collegeDepartmentRating.sol\":1481:1492  uint length */\n      0x00\n        /* \"collegeDepartmentRating.sol\":1495:1505  uint  temp */\n      dup1\n        /* \"collegeDepartmentRating.sol\":1515:1530  uint collRating */\n      0x00\n        /* \"collegeDepartmentRating.sol\":1533:1534  0 */\n      dup1\n        /* \"collegeDepartmentRating.sol\":1515:1534  uint collRating = 0 */\n      swap1\n      pop\n        /* \"collegeDepartmentRating.sol\":1560:1573  collageRating */\n      0x01\n        /* \"collegeDepartmentRating.sol\":1560:1590  collageRating[_collegeAddress] */\n      0x00\n        /* \"collegeDepartmentRating.sol\":1574:1589  _collegeAddress */\n      dup8\n        /* \"collegeDepartmentRating.sol\":1560:1590  collageRating[_collegeAddress] */\n      0xffffffffffffffffffffffffffffffffffffffff\n      and\n      0xffffffffffffffffffffffffffffffffffffffff\n      and\n      dup2\n      mstore\n      0x20\n      add\n      swap1\n      dup2\n      mstore\n      0x20\n      add\n      0x00\n      keccak256\n        /* \"collegeDepartmentRating.sol\":1560:1597  collageRating[_collegeAddress].deptId */\n      0x00\n      add\n        /* \"collegeDepartmentRating.sol\":1560:1604  collageRating[_collegeAddress].deptId.length */\n      dup1\n      sload\n      swap1\n      pop\n        /* \"collegeDepartmentRating.sol\":1551:1604  length = collageRating[_collegeAddress].deptId.length */\n      swap3\n      pop\n        /* \"collegeDepartmentRating.sol\":1621:1627  uint i */\n      0x00\n        /* \"collegeDepartmentRating.sol\":1630:1631  0 */\n      dup1\n        /* \"collegeDepartmentRating.sol\":1621:1631  uint i = 0 */\n      swap1\n      pop\n        /* \"collegeDepartmentRating.sol\":1616:1820  for (uint i = 0 ; i < length ; i++){... */\n    tag_16:\n        /* \"collegeDepartmentRating.sol\":1638:1644  length */\n      dup4\n        /* \"collegeDepartmentRating.sol\":1634:1635  i */\n      dup2\n        /* \"collegeDepartmentRating.sol\":1634:1644  i < length */\n      lt\n        /* \"collegeDepartmentRating.sol\":1616:1820  for (uint i = 0 ; i < length ; i++){... */\n      iszero\n      tag_17\n      jumpi\n        /* \"collegeDepartmentRating.sol\":1673:1686  collageRating */\n      0x01\n        /* \"collegeDepartmentRating.sol\":1673:1703  collageRating[_collegeAddress] */\n      0x00\n        /* \"collegeDepartmentRating.sol\":1687:1702  _collegeAddress */\n      dup9\n        /* \"collegeDepartmentRating.sol\":1673:1703  collageRating[_collegeAddress] */\n      0xffffffffffffffffffffffffffffffffffffffff\n      and\n      0xffffffffffffffffffffffffffffffffffffffff\n      and\n      dup2\n      mstore\n      0x20\n      add\n      swap1\n      dup2\n      mstore\n      0x20\n      add\n      0x00\n      keccak256\n        /* \"collegeDepartmentRating.sol\":1673:1710  collageRating[_collegeAddress].deptId */\n      0x00\n      add\n        /* \"collegeDepartmentRating.sol\":1711:1712  i */\n      dup2\n        /* \"collegeDepartmentRating.sol\":1673:1713  collageRating[_collegeAddress].deptId[i] */\n      dup2\n      sload\n      dup2\n      lt\n      tag_19\n      jumpi\n      invalid\n    tag_19:\n      swap1\n      0x00\n      mstore\n      keccak256(0x00, 0x20)\n      add\n      sload\n        /* \"collegeDepartmentRating.sol\":1665:1713  temp =  collageRating[_collegeAddress].deptId[i] */\n      swap3\n      pop\n        /* \"collegeDepartmentRating.sol\":1786:1796  collRating */\n      dup2\n        /* \"collegeDepartmentRating.sol\":1740:1753  collageRating */\n      0x01\n        /* \"collegeDepartmentRating.sol\":1740:1770  collageRating[_collegeAddress] */\n      0x00\n        /* \"collegeDepartmentRating.sol\":1754:1769  _collegeAddress */\n      dup10\n        /* \"collegeDepartmentRating.sol\":1740:1770  collageRating[_collegeAddress] */\n      0xffffffffffffffffffffffffffffffffffffffff\n      and\n      0xffffffffffffffffffffffffffffffffffffffff\n      and\n      dup2\n      mstore\n      0x20\n      add\n      swap1\n      dup2\n      mstore\n      0x20\n      add\n      0x00\n      keccak256\n        /* \"collegeDepartmentRating.sol\":1740:1777  collageRating[_collegeAddress].rating */\n      0x01\n      add\n        /* \"collegeDepartmentRating.sol\":1740:1783  collageRating[_collegeAddress].rating[temp] */\n      0x00\n        /* \"collegeDepartmentRating.sol\":1778:1782  temp */\n      dup6\n        /* \"collegeDepartmentRating.sol\":1740:1783  collageRating[_collegeAddress].rating[temp] */\n      dup2\n      mstore\n      0x20\n      add\n      swap1\n      dup2\n      mstore\n      0x20\n      add\n      0x00\n      keccak256\n      sload\n        /* \"collegeDepartmentRating.sol\":1740:1796  collageRating[_collegeAddress].rating[temp] + collRating */\n      add\n        /* \"collegeDepartmentRating.sol\":1727:1796  collRating = collageRating[_collegeAddress].rating[temp] + collRating */\n      swap2\n      pop\n        /* \"collegeDepartmentRating.sol\":1647:1650  i++ */\n      dup1\n      dup1\n      0x01\n      add\n      swap2\n      pop\n      pop\n        /* \"collegeDepartmentRating.sol\":1616:1820  for (uint i = 0 ; i < length ; i++){... */\n      jump(tag_16)\n    tag_17:\n      pop\n        /* \"collegeDepartmentRating.sol\":1911:1917  length */\n      dup3\n        /* \"collegeDepartmentRating.sol\":1898:1908  collRating */\n      dup2\n        /* \"collegeDepartmentRating.sol\":1898:1917  collRating / length */\n      dup2\n      tag_21\n      jumpi\n      invalid\n    tag_21:\n      div\n        /* \"collegeDepartmentRating.sol\":1885:1917  collRating = collRating / length */\n      swap1\n      pop\n        /* \"collegeDepartmentRating.sol\":1938:1944  length */\n      dup3\n        /* \"collegeDepartmentRating.sol\":1947:1957  collRating */\n      dup2\n        /* \"collegeDepartmentRating.sol\":1927:1959  return   ( length , collRating ) */\n      swap5\n      pop\n      swap5\n      pop\n      pop\n      pop\n      pop\n        /* \"collegeDepartmentRating.sol\":1382:1969  function getCollageRating(address _collegeAddress ) public view returns(uint , uint)... */\n      swap2\n      pop\n      swap2\n      jump\t// out\n        /* \"collegeDepartmentRating.sol\":895:1206  function setRating(address _collegeAddress, uint _deptId, uint _rating)... */\n    tag_11:\n        /* \"collegeDepartmentRating.sol\":993:1008  _collegeAddress */\n      dup3\n        /* \"collegeDepartmentRating.sol\":732:742  msg.sender */\n      caller\n        /* \"collegeDepartmentRating.sol\":714:742  collegeAddress != msg.sender */\n      0xffffffffffffffffffffffffffffffffffffffff\n      and\n        /* \"collegeDepartmentRating.sol\":714:728  collegeAddress */\n      dup2\n        /* \"collegeDepartmentRating.sol\":714:742  collegeAddress != msg.sender */\n      0xffffffffffffffffffffffffffffffffffffffff\n      and\n      eq\n      iszero\n        /* \"collegeDepartmentRating.sol\":706:788  require(collegeAddress != msg.sender, \"Same College can't give rating to itself.\") */\n      tag_23\n      jumpi\n      mload(0x40)\n      0x08c379a000000000000000000000000000000000000000000000000000000000\n      dup2\n      mstore\n      0x04\n      add\n      dup1\n      dup1\n      0x20\n      add\n      dup3\n      dup2\n      sub\n      dup3\n      mstore\n      0x29\n      dup2\n      mstore\n      0x20\n      add\n      dup1\n      data_91147b02be505eafcfba0508d08ec0ac96c0f2c9821fe2bf6f36d6096e4f3ea2\n      0x29\n      swap2\n      codecopy\n      0x40\n      add\n      swap2\n      pop\n      pop\n      mload(0x40)\n      dup1\n      swap2\n      sub\n      swap1\n      revert\n    tag_23:\n        /* \"collegeDepartmentRating.sol\":1019:1032  collageRating */\n      0x01\n        /* \"collegeDepartmentRating.sol\":1019:1049  collageRating[_collegeAddress] */\n      0x00\n        /* \"collegeDepartmentRating.sol\":1033:1048  _collegeAddress */\n      dup6\n        /* \"collegeDepartmentRating.sol\":1019:1049  collageRating[_collegeAddress] */\n      0xffffffffffffffffffffffffffffffffffffffff\n      and\n      0xffffffffffffffffffffffffffffffffffffffff\n      and\n      dup2\n      mstore\n      0x20\n      add\n      swap1\n      dup2\n      mstore\n      0x20\n      add\n      0x00\n      keccak256\n        /* \"collegeDepartmentRating.sol\":1019:1056  collageRating[_collegeAddress].deptId */\n      0x00\n      add\n        /* \"collegeDepartmentRating.sol\":1062:1069  _deptId */\n      dup4\n        /* \"collegeDepartmentRating.sol\":1019:1070  collageRating[_collegeAddress].deptId.push(_deptId) */\n      swap1\n      dup1\n        /* \"--CODEGEN--\":39:40   */\n      0x01\n        /* \"--CODEGEN--\":33:36   */\n      dup2\n        /* \"--CODEGEN--\":27:37   */\n      sload\n        /* \"--CODEGEN--\":23:41   */\n      add\n        /* \"--CODEGEN--\":57:67   */\n      dup1\n        /* \"--CODEGEN--\":52:55   */\n      dup3\n        /* \"--CODEGEN--\":45:68   */\n      sstore\n        /* \"--CODEGEN--\":79:89   */\n      dup1\n        /* \"--CODEGEN--\":72:89   */\n      swap2\n      pop\n        /* \"--CODEGEN--\":0:93   */\n      pop\n        /* \"collegeDepartmentRating.sol\":1019:1070  collageRating[_collegeAddress].deptId.push(_deptId) */\n      swap1\n      0x01\n      dup3\n      sub\n      swap1\n      0x00\n      mstore\n      keccak256(0x00, 0x20)\n      add\n      0x00\n      swap1\n      swap2\n      swap3\n      swap1\n      swap2\n      swap1\n      swap2\n      pop\n      sstore\n      pop\n        /* \"collegeDepartmentRating.sol\":1128:1135  _rating */\n      dup2\n        /* \"collegeDepartmentRating.sol\":1079:1092  collageRating */\n      0x01\n        /* \"collegeDepartmentRating.sol\":1079:1109  collageRating[_collegeAddress] */\n      0x00\n        /* \"collegeDepartmentRating.sol\":1093:1108  _collegeAddress */\n      dup7\n        /* \"collegeDepartmentRating.sol\":1079:1109  collageRating[_collegeAddress] */\n      0xffffffffffffffffffffffffffffffffffffffff\n      and\n      0xffffffffffffffffffffffffffffffffffffffff\n      and\n      dup2\n      mstore\n      0x20\n      add\n      swap1\n      dup2\n      mstore\n      0x20\n      add\n      0x00\n      keccak256\n        /* \"collegeDepartmentRating.sol\":1079:1116  collageRating[_collegeAddress].rating */\n      0x01\n      add\n        /* \"collegeDepartmentRating.sol\":1079:1125  collageRating[_collegeAddress].rating[_deptId] */\n      0x00\n        /* \"collegeDepartmentRating.sol\":1117:1124  _deptId */\n      dup6\n        /* \"collegeDepartmentRating.sol\":1079:1125  collageRating[_collegeAddress].rating[_deptId] */\n      dup2\n      mstore\n      0x20\n      add\n      swap1\n      dup2\n      mstore\n      0x20\n      add\n      0x00\n      keccak256\n        /* \"collegeDepartmentRating.sol\":1079:1135  collageRating[_collegeAddress].rating[_deptId] = _rating */\n      dup2\n      swap1\n      sstore\n      pop\n        /* \"collegeDepartmentRating.sol\":1150:1197  enterRating(_collegeAddress, _deptId, _rating ) */\n      0xe479d3bf97f2a940e7c0466a960c725a7794d1243fb60cae056bedd68ae7f8a0\n        /* \"collegeDepartmentRating.sol\":1162:1177  _collegeAddress */\n      dup5\n        /* \"collegeDepartmentRating.sol\":1179:1186  _deptId */\n      dup5\n        /* \"collegeDepartmentRating.sol\":1188:1195  _rating */\n      dup5\n        /* \"collegeDepartmentRating.sol\":1150:1197  enterRating(_collegeAddress, _deptId, _rating ) */\n      mload(0x40)\n      dup1\n      dup5\n      0xffffffffffffffffffffffffffffffffffffffff\n      and\n      0xffffffffffffffffffffffffffffffffffffffff\n      and\n      dup2\n      mstore\n      0x20\n      add\n      dup4\n      dup2\n      mstore\n      0x20\n      add\n      dup3\n      dup2\n      mstore\n      0x20\n      add\n      swap4\n      pop\n      pop\n      pop\n      pop\n      mload(0x40)\n      dup1\n      swap2\n      sub\n      swap1\n      log1\n        /* \"collegeDepartmentRating.sol\":895:1206  function setRating(address _collegeAddress, uint _deptId, uint _rating)... */\n      pop\n      pop\n      pop\n      pop\n      jump\t// out\n        /* \"collegeDepartmentRating.sol\":1213:1375  function getDeptRating(address _collegeAddress, uint _deptId)... */\n    tag_14:\n        /* \"collegeDepartmentRating.sol\":1300:1304  uint */\n      0x00\n        /* \"collegeDepartmentRating.sol\":1319:1332  collageRating */\n      0x01\n        /* \"collegeDepartmentRating.sol\":1319:1349  collageRating[_collegeAddress] */\n      0x00\n        /* \"collegeDepartmentRating.sol\":1333:1348  _collegeAddress */\n      dup5\n        /* \"collegeDepartmentRating.sol\":1319:1349  collageRating[_collegeAddress] */\n      0xffffffffffffffffffffffffffffffffffffffff\n      and\n      0xffffffffffffffffffffffffffffffffffffffff\n      and\n      dup2\n      mstore\n      0x20\n      add\n      swap1\n      dup2\n      mstore\n      0x20\n      add\n      0x00\n      keccak256\n        /* \"collegeDepartmentRating.sol\":1319:1356  collageRating[_collegeAddress].rating */\n      0x01\n      add\n        /* \"collegeDepartmentRating.sol\":1319:1365  collageRating[_collegeAddress].rating[_deptId] */\n      0x00\n        /* \"collegeDepartmentRating.sol\":1357:1364  _deptId */\n      dup4\n        /* \"collegeDepartmentRating.sol\":1319:1365  collageRating[_collegeAddress].rating[_deptId] */\n      dup2\n      mstore\n      0x20\n      add\n      swap1\n      dup2\n      mstore\n      0x20\n      add\n      0x00\n      keccak256\n      sload\n        /* \"collegeDepartmentRating.sol\":1312:1365  return collageRating[_collegeAddress].rating[_deptId] */\n      swap1\n      pop\n        /* \"collegeDepartmentRating.sol\":1213:1375  function getDeptRating(address _collegeAddress, uint _deptId)... */\n      swap3\n      swap2\n      pop\n      pop\n      jump\t// out\n    stop\n    data_91147b02be505eafcfba0508d08ec0ac96c0f2c9821fe2bf6f36d6096e4f3ea2 53616d6520436f6c6c6567652063616e2774206769766520726174696e6720746f20697473656c662e\n\n    auxdata: 0xa265627a7a723158209996cb26cf4b295d04f792bb95529ede0db23aa6e5c374c3e7127cecb805147d64736f6c63430005110032\n}\n",
				"bytecode": {
					"linkReferences": {},
					"object": "608060405234801561001057600080fd5b50336000806101000a81548173ffffffffffffffffffffffffffffffffffffffff021916908373ffffffffffffffffffffffffffffffffffffffff160217905550610519806100606000396000f3fe608060405234801561001057600080fd5b50600436106100415760003560e01c80632936bdb314610046578063868c2b91146100a5578063d6a6bacf146100fd575b600080fd5b6100886004803603602081101561005c57600080fd5b81019080803573ffffffffffffffffffffffffffffffffffffffff16906020019092919050505061015f565b604051808381526020018281526020019250505060405180910390f35b6100fb600480360360608110156100bb57600080fd5b81019080803573ffffffffffffffffffffffffffffffffffffffff169060200190929190803590602001909291908035906020019092919050505061029a565b005b6101496004803603604081101561011357600080fd5b81019080803573ffffffffffffffffffffffffffffffffffffffff1690602001909291908035906020019092919050505061045d565b6040518082815260200191505060405180910390f35b6000806000806000809050600160008773ffffffffffffffffffffffffffffffffffffffff1673ffffffffffffffffffffffffffffffffffffffff16815260200190815260200160002060000180549050925060008090505b8381101561027f57600160008873ffffffffffffffffffffffffffffffffffffffff1673ffffffffffffffffffffffffffffffffffffffff168152602001908152602001600020600001818154811061020d57fe5b9060005260206000200154925081600160008973ffffffffffffffffffffffffffffffffffffffff1673ffffffffffffffffffffffffffffffffffffffff16815260200190815260200160002060010160008581526020019081526020016000205401915080806001019150506101b8565b5082818161028957fe5b049050828194509450505050915091565b823373ffffffffffffffffffffffffffffffffffffffff168173ffffffffffffffffffffffffffffffffffffffff161415610320576040517f08c379a00000000000000000000000000000000000000000000000000000000081526004018080602001828103825260298152602001806104bc6029913960400191505060405180910390fd5b600160008573ffffffffffffffffffffffffffffffffffffffff1673ffffffffffffffffffffffffffffffffffffffff16815260200190815260200160002060000183908060018154018082558091505090600182039060005260206000200160009091929091909150555081600160008673ffffffffffffffffffffffffffffffffffffffff1673ffffffffffffffffffffffffffffffffffffffff1681526020019081526020016000206001016000858152602001908152602001600020819055507fe479d3bf97f2a940e7c0466a960c725a7794d1243fb60cae056bedd68ae7f8a0848484604051808473ffffffffffffffffffffffffffffffffffffffff1673ffffffffffffffffffffffffffffffffffffffff168152602001838152602001828152602001935050505060405180910390a150505050565b6000600160008473ffffffffffffffffffffffffffffffffffffffff1673ffffffffffffffffffffffffffffffffffffffff16815260200190815260200160002060010160008381526020019081526020016000205490509291505056fe53616d6520436f6c6c6567652063616e2774206769766520726174696e6720746f20697473656c662ea265627a7a723158209996cb26cf4b295d04f792bb95529ede0db23aa6e5c374c3e7127cecb805147d64736f6c63430005110032",
					"opcodes": "PUSH1 0x80 PUSH1 0x40 MSTORE CALLVALUE DUP1 ISZERO PUSH2 0x10 JUMPI PUSH1 0x0 DUP1 REVERT JUMPDEST POP CALLER PUSH1 0x0 DUP1 PUSH2 0x100 EXP DUP2 SLOAD DUP2 PUSH20 0xFFFFFFFFFFFFFFFFFFFFFFFFFFFFFFFFFFFFFFFF MUL NOT AND SWAP1 DUP4 PUSH20 0xFFFFFFFFFFFFFFFFFFFFFFFFFFFFFFFFFFFFFFFF AND MUL OR SWAP1 SSTORE POP PUSH2 0x519 DUP1 PUSH2 0x60 PUSH1 0x0 CODECOPY PUSH1 0x0 RETURN INVALID PUSH1 0x80 PUSH1 0x40 MSTORE CALLVALUE DUP1 ISZERO PUSH2 0x10 JUMPI PUSH1 0x0 DUP1 REVERT JUMPDEST POP PUSH1 0x4 CALLDATASIZE LT PUSH2 0x41 JUMPI PUSH1 0x0 CALLDATALOAD PUSH1 0xE0 SHR DUP1 PUSH4 0x2936BDB3 EQ PUSH2 0x46 JUMPI DUP1 PUSH4 0x868C2B91 EQ PUSH2 0xA5 JUMPI DUP1 PUSH4 0xD6A6BACF EQ PUSH2 0xFD JUMPI JUMPDEST PUSH1 0x0 DUP1 REVERT JUMPDEST PUSH2 0x88 PUSH1 0x4 DUP1 CALLDATASIZE SUB PUSH1 0x20 DUP2 LT ISZERO PUSH2 0x5C JUMPI PUSH1 0x0 DUP1 REVERT JUMPDEST DUP2 ADD SWAP1 DUP1 DUP1 CALLDATALOAD PUSH20 0xFFFFFFFFFFFFFFFFFFFFFFFFFFFFFFFFFFFFFFFF AND SWAP1 PUSH1 0x20 ADD SWAP1 SWAP3 SWAP2 SWAP1 POP POP POP PUSH2 0x15F JUMP JUMPDEST PUSH1 0x40 MLOAD DUP1 DUP4 DUP2 MSTORE PUSH1 0x20 ADD DUP3 DUP2 MSTORE PUSH1 0x20 ADD SWAP3 POP POP POP PUSH1 0x40 MLOAD DUP1 SWAP2 SUB SWAP1 RETURN JUMPDEST PUSH2 0xFB PUSH1 0x4 DUP1 CALLDATASIZE SUB PUSH1 0x60 DUP2 LT ISZERO PUSH2 0xBB JUMPI PUSH1 0x0 DUP1 REVERT JUMPDEST DUP2 ADD SWAP1 DUP1 DUP1 CALLDATALOAD PUSH20 0xFFFFFFFFFFFFFFFFFFFFFFFFFFFFFFFFFFFFFFFF AND SWAP1 PUSH1 0x20 ADD SWAP1 SWAP3 SWAP2 SWAP1 DUP1 CALLDATALOAD SWAP1 PUSH1 0x20 ADD SWAP1 SWAP3 SWAP2 SWAP1 DUP1 CALLDATALOAD SWAP1 PUSH1 0x20 ADD SWAP1 SWAP3 SWAP2 SWAP1 POP POP POP PUSH2 0x29A JUMP JUMPDEST STOP JUMPDEST PUSH2 0x149 PUSH1 0x4 DUP1 CALLDATASIZE SUB PUSH1 0x40 DUP2 LT ISZERO PUSH2 0x113 JUMPI PUSH1 0x0 DUP1 REVERT JUMPDEST DUP2 ADD SWAP1 DUP1 DUP1 CALLDATALOAD PUSH20 0xFFFFFFFFFFFFFFFFFFFFFFFFFFFFFFFFFFFFFFFF AND SWAP1 PUSH1 0x20 ADD SWAP1 SWAP3 SWAP2 SWAP1 DUP1 CALLDATALOAD SWAP1 PUSH1 0x20 ADD SWAP1 SWAP3 SWAP2 SWAP1 POP POP POP PUSH2 0x45D JUMP JUMPDEST PUSH1 0x40 MLOAD DUP1 DUP3 DUP2 MSTORE PUSH1 0x20 ADD SWAP2 POP POP PUSH1 0x40 MLOAD DUP1 SWAP2 SUB SWAP1 RETURN JUMPDEST PUSH1 0x0 DUP1 PUSH1 0x0 DUP1 PUSH1 0x0 DUP1 SWAP1 POP PUSH1 0x1 PUSH1 0x0 DUP8 PUSH20 0xFFFFFFFFFFFFFFFFFFFFFFFFFFFFFFFFFFFFFFFF AND PUSH20 0xFFFFFFFFFFFFFFFFFFFFFFFFFFFFFFFFFFFFFFFF AND DUP2 MSTORE PUSH1 0x20 ADD SWAP1 DUP2 MSTORE PUSH1 0x20 ADD PUSH1 0x0 KECCAK256 PUSH1 0x0 ADD DUP1 SLOAD SWAP1 POP SWAP3 POP PUSH1 0x0 DUP1 SWAP1 POP JUMPDEST DUP4 DUP2 LT ISZERO PUSH2 0x27F JUMPI PUSH1 0x1 PUSH1 0x0 DUP9 PUSH20 0xFFFFFFFFFFFFFFFFFFFFFFFFFFFFFFFFFFFFFFFF AND PUSH20 0xFFFFFFFFFFFFFFFFFFFFFFFFFFFFFFFFFFFFFFFF AND DUP2 MSTORE PUSH1 0x20 ADD SWAP1 DUP2 MSTORE PUSH1 0x20 ADD PUSH1 0x0 KECCAK256 PUSH1 0x0 ADD DUP2 DUP2 SLOAD DUP2 LT PUSH2 0x20D JUMPI INVALID JUMPDEST SWAP1 PUSH1 0x0 MSTORE PUSH1 0x20 PUSH1 0x0 KECCAK256 ADD SLOAD SWAP3 POP DUP2 PUSH1 0x1 PUSH1 0x0 DUP10 PUSH20 0xFFFFFFFFFFFFFFFFFFFFFFFFFFFFFFFFFFFFFFFF AND PUSH20 0xFFFFFFFFFFFFFFFFFFFFFFFFFFFFFFFFFFFFFFFF AND DUP2 MSTORE PUSH1 0x20 ADD SWAP1 DUP2 MSTORE PUSH1 0x20 ADD PUSH1 0x0 KECCAK256 PUSH1 0x1 ADD PUSH1 0x0 DUP6 DUP2 MSTORE PUSH1 0x20 ADD SWAP1 DUP2 MSTORE PUSH1 0x20 ADD PUSH1 0x0 KECCAK256 SLOAD ADD SWAP2 POP DUP1 DUP1 PUSH1 0x1 ADD SWAP2 POP POP PUSH2 0x1B8 JUMP JUMPDEST POP DUP3 DUP2 DUP2 PUSH2 0x289 JUMPI INVALID JUMPDEST DIV SWAP1 POP DUP3 DUP2 SWAP5 POP SWAP5 POP POP POP POP SWAP2 POP SWAP2 JUMP JUMPDEST DUP3 CALLER PUSH20 0xFFFFFFFFFFFFFFFFFFFFFFFFFFFFFFFFFFFFFFFF AND DUP2 PUSH20 0xFFFFFFFFFFFFFFFFFFFFFFFFFFFFFFFFFFFFFFFF AND EQ ISZERO PUSH2 0x320 JUMPI PUSH1 0x40 MLOAD PUSH32 0x8C379A000000000000000000000000000000000000000000000000000000000 DUP2 MSTORE PUSH1 0x4 ADD DUP1 DUP1 PUSH1 0x20 ADD DUP3 DUP2 SUB DUP3 MSTORE PUSH1 0x29 DUP2 MSTORE PUSH1 0x20 ADD DUP1 PUSH2 0x4BC PUSH1 0x29 SWAP2 CODECOPY PUSH1 0x40 ADD SWAP2 POP POP PUSH1 0x40 MLOAD DUP1 SWAP2 SUB SWAP1 REVERT JUMPDEST PUSH1 0x1 PUSH1 0x0 DUP6 PUSH20 0xFFFFFFFFFFFFFFFFFFFFFFFFFFFFFFFFFFFFFFFF AND PUSH20 0xFFFFFFFFFFFFFFFFFFFFFFFFFFFFFFFFFFFFFFFF AND DUP2 MSTORE PUSH1 0x20 ADD SWAP1 DUP2 MSTORE PUSH1 0x20 ADD PUSH1 0x0 KECCAK256 PUSH1 0x0 ADD DUP4 SWAP1 DUP1 PUSH1 0x1 DUP2 SLOAD ADD DUP1 DUP3 SSTORE DUP1 SWAP2 POP POP SWAP1 PUSH1 0x1 DUP3 SUB SWAP1 PUSH1 0x0 MSTORE PUSH1 0x20 PUSH1 0x0 KECCAK256 ADD PUSH1 0x0 SWAP1 SWAP2 SWAP3 SWAP1 SWAP2 SWAP1 SWAP2 POP SSTORE POP DUP2 PUSH1 0x1 PUSH1 0x0 DUP7 PUSH20 0xFFFFFFFFFFFFFFFFFFFFFFFFFFFFFFFFFFFFFFFF AND PUSH20 0xFFFFFFFFFFFFFFFFFFFFFFFFFFFFFFFFFFFFFFFF AND DUP2 MSTORE PUSH1 0x20 ADD SWAP1 DUP2 MSTORE PUSH1 0x20 ADD PUSH1 0x0 KECCAK256 PUSH1 0x1 ADD PUSH1 0x0 DUP6 DUP2 MSTORE PUSH1 0x20 ADD SWAP1 DUP2 MSTORE PUSH1 0x20 ADD PUSH1 0x0 KECCAK256 DUP2 SWAP1 SSTORE POP PUSH32 0xE479D3BF97F2A940E7C0466A960C725A7794D1243FB60CAE056BEDD68AE7F8A0 DUP5 DUP5 DUP5 PUSH1 0x40 MLOAD DUP1 DUP5 PUSH20 0xFFFFFFFFFFFFFFFFFFFFFFFFFFFFFFFFFFFFFFFF AND PUSH20 0xFFFFFFFFFFFFFFFFFFFFFFFFFFFFFFFFFFFFFFFF AND DUP2 MSTORE PUSH1 0x20 ADD DUP4 DUP2 MSTORE PUSH1 0x20 ADD DUP3 DUP2 MSTORE PUSH1 0x20 ADD SWAP4 POP POP POP POP PUSH1 0x40 MLOAD DUP1 SWAP2 SUB SWAP1 LOG1 POP POP POP POP JUMP JUMPDEST PUSH1 0x0 PUSH1 0x1 PUSH1 0x0 DUP5 PUSH20 0xFFFFFFFFFFFFFFFFFFFFFFFFFFFFFFFFFFFFFFFF AND PUSH20 0xFFFFFFFFFFFFFFFFFFFFFFFFFFFFFFFFFFFFFFFF AND DUP2 MSTORE PUSH1 0x20 ADD SWAP1 DUP2 MSTORE PUSH1 0x20 ADD PUSH1 0x0 KECCAK256 PUSH1 0x1 ADD PUSH1 0x0 DUP4 DUP2 MSTORE PUSH1 0x20 ADD SWAP1 DUP2 MSTORE PUSH1 0x20 ADD PUSH1 0x0 KECCAK256 SLOAD SWAP1 POP SWAP3 SWAP2 POP POP JUMP INVALID MSTORE8 PUSH2 0x6D65 KECCAK256 NUMBER PUSH16 0x6C6C6567652063616E27742067697665 KECCAK256 PUSH19 0x6174696E6720746F20697473656C662EA26562 PUSH27 0x7A723158209996CB26CF4B295D04F792BB95529EDE0DB23AA6E5C3 PUSH21 0xC3E7127CECB805147D64736F6C6343000511003200 "
				},
				"gasEstimates": {
					"creation": {
						"codeDepositCost": "261000",
						"executionCost": "21166",
						"totalCost": "282166"
					},
					"external": {
						"getCollageRating(address)": "infinite",
						"getDeptRating(address,uint256)": "1331",
						"setRating(address,uint256,uint256)": "infinite"
					}
				},
				"methodIdentifiers": {
					"getCollageRating(address)": "2936bdb3",
					"getDeptRating(address,uint256)": "d6a6bacf",
					"setRating(address,uint256,uint256)": "868c2b91"
				}
			},
			"storageLayout": {
				"storage": [
					{
						"astId": 3,
						"contract": "collegeDepartmentRating.sol:collegeRating",
						"label": "cAdd",
						"offset": 0,
						"slot": "0",
						"type": "t_address"
					},
					{
						"astId": 17,
						"contract": "collegeDepartmentRating.sol:collegeRating",
						"label": "collageRating",
						"offset": 0,
						"slot": "1",
						"type": "t_mapping(t_address,t_struct(ratingStruct)13_storage)"
					}
				],
				"types": {
					"t_address": {
						"encoding": "inplace",
						"label": "address",
						"numberOfBytes": "20"
					},
					"t_array(t_uint256)dyn_storage": {
						"base": "t_uint256",
						"encoding": "dynamic_array",
						"label": "uint256[]",
						"numberOfBytes": "32"
					},
					"t_mapping(t_address,t_struct(ratingStruct)13_storage)": {
						"encoding": "mapping",
						"key": "t_address",
						"label": "mapping(address => struct collegeRating.ratingStruct)",
						"numberOfBytes": "32",
						"value": "t_struct(ratingStruct)13_storage"
					},
					"t_mapping(t_uint256,t_uint256)": {
						"encoding": "mapping",
						"key": "t_uint256",
						"label": "mapping(uint256 => uint256)",
						"numberOfBytes": "32",
						"value": "t_uint256"
					},
					"t_struct(ratingStruct)13_storage": {
						"encoding": "inplace",
						"label": "struct collegeRating.ratingStruct",
						"members": [
							{
								"astId": 6,
								"contract": "collegeDepartmentRating.sol:collegeRating",
								"label": "deptId",
								"offset": 0,
								"slot": "0",
								"type": "t_array(t_uint256)dyn_storage"
							},
							{
								"astId": 10,
								"contract": "collegeDepartmentRating.sol:collegeRating",
								"label": "rating",
								"offset": 0,
								"slot": "1",
								"type": "t_mapping(t_uint256,t_uint256)"
							},
							{
								"astId": 12,
								"contract": "collegeDepartmentRating.sol:collegeRating",
								"label": "avgRating",
								"offset": 0,
								"slot": "2",
								"type": "t_uint256"
							}
						],
						"numberOfBytes": "96"
					},
					"t_uint256": {
						"encoding": "inplace",
						"label": "uint256",
						"numberOfBytes": "32"
					}
				}
			},
			"userdoc": {
				"methods": {}
			}
		}
	}
}