{
	"structMap.sol": {
		"studentMarks": {
			"abi": [
				{
					"constant": true,
					"inputs": [
						{
							"internalType": "uint256",
							"name": "_studentId",
							"type": "uint256"
						}
					],
					"name": "getTotalMarks",
					"outputs": [
						{
							"internalType": "uint256",
							"name": "",
							"type": "uint256"
						}
					],
					"payable": false,
					"stateMutability": "view",
					"type": "function"
				},
				{
					"constant": true,
					"inputs": [
						{
							"internalType": "uint256",
							"name": "_studentId",
							"type": "uint256"
						},
						{
							"internalType": "uint256",
							"name": "_subjectId",
							"type": "uint256"
						}
					],
					"name": "setStudentMarks",
					"outputs": [
						{
							"internalType": "uint256",
							"name": "",
							"type": "uint256"
						}
					],
					"payable": false,
					"stateMutability": "view",
					"type": "function"
				},
				{
					"constant": false,
					"inputs": [
						{
							"internalType": "uint256",
							"name": "_studentId",
							"type": "uint256"
						},
						{
							"internalType": "uint256",
							"name": "_subjectId",
							"type": "uint256"
						},
						{
							"internalType": "uint256",
							"name": "_marks",
							"type": "uint256"
						}
					],
					"name": "setStudentMarks",
					"outputs": [],
					"payable": false,
					"stateMutability": "nonpayable",
					"type": "function"
				}
			],
			"devdoc": {
				"methods": {}
			},
			"evm": {
				"assembly": "    /* \"structMap.sol\":25:794  contract studentMarks{... */\n  mstore(0x40, 0x80)\n  callvalue\n    /* \"--CODEGEN--\":8:17   */\n  dup1\n    /* \"--CODEGEN--\":5:7   */\n  iszero\n  tag_1\n  jumpi\n    /* \"--CODEGEN--\":30:31   */\n  0x00\n    /* \"--CODEGEN--\":27:28   */\n  dup1\n    /* \"--CODEGEN--\":20:32   */\n  revert\n    /* \"--CODEGEN--\":5:7   */\ntag_1:\n    /* \"structMap.sol\":25:794  contract studentMarks{... */\n  pop\n  dataSize(sub_0)\n  dup1\n  dataOffset(sub_0)\n  0x00\n  codecopy\n  0x00\n  return\nstop\n\nsub_0: assembly {\n        /* \"structMap.sol\":25:794  contract studentMarks{... */\n      mstore(0x40, 0x80)\n      callvalue\n        /* \"--CODEGEN--\":8:17   */\n      dup1\n        /* \"--CODEGEN--\":5:7   */\n      iszero\n      tag_1\n      jumpi\n        /* \"--CODEGEN--\":30:31   */\n      0x00\n        /* \"--CODEGEN--\":27:28   */\n      dup1\n        /* \"--CODEGEN--\":20:32   */\n      revert\n        /* \"--CODEGEN--\":5:7   */\n    tag_1:\n        /* \"structMap.sol\":25:794  contract studentMarks{... */\n      pop\n      jumpi(tag_2, lt(calldatasize, 0x04))\n      shr(0xe0, calldataload(0x00))\n      dup1\n      0x07770422\n      eq\n      tag_3\n      jumpi\n      dup1\n      0x47c6da5a\n      eq\n      tag_4\n      jumpi\n      dup1\n      0x70f5cf49\n      eq\n      tag_5\n      jumpi\n    tag_2:\n      0x00\n      dup1\n      revert\n        /* \"structMap.sol\":540:709  function setStudentMarks(uint _studentId , uint _subjectId) public view returns(uint) {... */\n    tag_3:\n      tag_6\n      0x04\n      dup1\n      calldatasize\n      sub\n        /* \"--CODEGEN--\":13:15   */\n      0x40\n        /* \"--CODEGEN--\":8:11   */\n      dup2\n        /* \"--CODEGEN--\":5:16   */\n      lt\n        /* \"--CODEGEN--\":2:4   */\n      iszero\n      tag_7\n      jumpi\n        /* \"--CODEGEN--\":29:30   */\n      0x00\n        /* \"--CODEGEN--\":26:27   */\n      dup1\n        /* \"--CODEGEN--\":19:31   */\n      revert\n        /* \"--CODEGEN--\":2:4   */\n    tag_7:\n        /* \"structMap.sol\":540:709  function setStudentMarks(uint _studentId , uint _subjectId) public view returns(uint) {... */\n      dup2\n      add\n      swap1\n      dup1\n      dup1\n      calldataload\n      swap1\n      0x20\n      add\n      swap1\n      swap3\n      swap2\n      swap1\n      dup1\n      calldataload\n      swap1\n      0x20\n      add\n      swap1\n      swap3\n      swap2\n      swap1\n      pop\n      pop\n      pop\n      tag_8\n      jump\t// in\n    tag_6:\n      mload(0x40)\n      dup1\n      dup3\n      dup2\n      mstore\n      0x20\n      add\n      swap2\n      pop\n      pop\n      mload(0x40)\n      dup1\n      swap2\n      sub\n      swap1\n      return\n        /* \"structMap.sol\":271:497  function setStudentMarks(uint _studentId, uint _subjectId, uint _marks) public{... */\n    tag_4:\n      tag_9\n      0x04\n      dup1\n      calldatasize\n      sub\n        /* \"--CODEGEN--\":13:15   */\n      0x60\n        /* \"--CODEGEN--\":8:11   */\n      dup2\n        /* \"--CODEGEN--\":5:16   */\n      lt\n        /* \"--CODEGEN--\":2:4   */\n      iszero\n      tag_10\n      jumpi\n        /* \"--CODEGEN--\":29:30   */\n      0x00\n        /* \"--CODEGEN--\":26:27   */\n      dup1\n        /* \"--CODEGEN--\":19:31   */\n      revert\n        /* \"--CODEGEN--\":2:4   */\n    tag_10:\n        /* \"structMap.sol\":271:497  function setStudentMarks(uint _studentId, uint _subjectId, uint _marks) public{... */\n      dup2\n      add\n      swap1\n      dup1\n      dup1\n      calldataload\n      swap1\n      0x20\n      add\n      swap1\n      swap3\n      swap2\n      swap1\n      dup1\n      calldataload\n      swap1\n      0x20\n      add\n      swap1\n      swap3\n      swap2\n      swap1\n      dup1\n      calldataload\n      swap1\n      0x20\n      add\n      swap1\n      swap3\n      swap2\n      swap1\n      pop\n      pop\n      pop\n      tag_11\n      jump\t// in\n    tag_9:\n      stop\n        /* \"structMap.sol\":723:789  function getTotalMarks(uint _studentId)public view returns(uint){} */\n    tag_5:\n      tag_12\n      0x04\n      dup1\n      calldatasize\n      sub\n        /* \"--CODEGEN--\":13:15   */\n      0x20\n        /* \"--CODEGEN--\":8:11   */\n      dup2\n        /* \"--CODEGEN--\":5:16   */\n      lt\n        /* \"--CODEGEN--\":2:4   */\n      iszero\n      tag_13\n      jumpi\n        /* \"--CODEGEN--\":29:30   */\n      0x00\n        /* \"--CODEGEN--\":26:27   */\n      dup1\n        /* \"--CODEGEN--\":19:31   */\n      revert\n        /* \"--CODEGEN--\":2:4   */\n    tag_13:\n        /* \"structMap.sol\":723:789  function getTotalMarks(uint _studentId)public view returns(uint){} */\n      dup2\n      add\n      swap1\n      dup1\n      dup1\n      calldataload\n      swap1\n      0x20\n      add\n      swap1\n      swap3\n      swap2\n      swap1\n      pop\n      pop\n      pop\n      tag_14\n      jump\t// in\n    tag_12:\n      mload(0x40)\n      dup1\n      dup3\n      dup2\n      mstore\n      0x20\n      add\n      swap2\n      pop\n      pop\n      mload(0x40)\n      dup1\n      swap2\n      sub\n      swap1\n      return\n        /* \"structMap.sol\":540:709  function setStudentMarks(uint _studentId , uint _subjectId) public view returns(uint) {... */\n    tag_8:\n        /* \"structMap.sol\":620:624  uint */\n      0x00\n        /* \"structMap.sol\":647:660  studentReport */\n      dup1\n        /* \"structMap.sol\":647:672  studentReport[_studentId] */\n      0x00\n        /* \"structMap.sol\":661:671  _studentId */\n      dup5\n        /* \"structMap.sol\":647:672  studentReport[_studentId] */\n      dup2\n      mstore\n      0x20\n      add\n      swap1\n      dup2\n      mstore\n      0x20\n      add\n      0x00\n      keccak256\n        /* \"structMap.sol\":647:685  studentReport[_studentId].subjectMarks */\n      0x01\n      add\n        /* \"structMap.sol\":647:697  studentReport[_studentId].subjectMarks[_subjectId] */\n      0x00\n        /* \"structMap.sol\":686:696  _subjectId */\n      dup4\n        /* \"structMap.sol\":647:697  studentReport[_studentId].subjectMarks[_subjectId] */\n      dup2\n      mstore\n      0x20\n      add\n      swap1\n      dup2\n      mstore\n      0x20\n      add\n      0x00\n      keccak256\n      sload\n        /* \"structMap.sol\":640:697  return studentReport[_studentId].subjectMarks[_subjectId] */\n      swap1\n      pop\n        /* \"structMap.sol\":540:709  function setStudentMarks(uint _studentId , uint _subjectId) public view returns(uint) {... */\n      swap3\n      swap2\n      pop\n      pop\n      jump\t// out\n        /* \"structMap.sol\":271:497  function setStudentMarks(uint _studentId, uint _subjectId, uint _marks) public{... */\n    tag_11:\n        /* \"structMap.sol\":361:374  studentReport */\n      0x00\n        /* \"structMap.sol\":361:386  studentReport[_studentId] */\n      dup1\n        /* \"structMap.sol\":375:385  _studentId */\n      dup5\n        /* \"structMap.sol\":361:386  studentReport[_studentId] */\n      dup2\n      mstore\n      0x20\n      add\n      swap1\n      dup2\n      mstore\n      0x20\n      add\n      0x00\n      keccak256\n        /* \"structMap.sol\":361:398  studentReport[_studentId].subjectList */\n      0x00\n      add\n        /* \"structMap.sol\":404:414  _subjectId */\n      dup3\n        /* \"structMap.sol\":361:415  studentReport[_studentId].subjectList.push(_subjectId) */\n      swap1\n      dup1\n        /* \"--CODEGEN--\":39:40   */\n      0x01\n        /* \"--CODEGEN--\":33:36   */\n      dup2\n        /* \"--CODEGEN--\":27:37   */\n      sload\n        /* \"--CODEGEN--\":23:41   */\n      add\n        /* \"--CODEGEN--\":57:67   */\n      dup1\n        /* \"--CODEGEN--\":52:55   */\n      dup3\n        /* \"--CODEGEN--\":45:68   */\n      sstore\n        /* \"--CODEGEN--\":79:89   */\n      dup1\n        /* \"--CODEGEN--\":72:89   */\n      swap2\n      pop\n        /* \"--CODEGEN--\":0:93   */\n      pop\n        /* \"structMap.sol\":361:415  studentReport[_studentId].subjectList.push(_subjectId) */\n      swap1\n      0x01\n      dup3\n      sub\n      swap1\n      0x00\n      mstore\n      keccak256(0x00, 0x20)\n      add\n      0x00\n      swap1\n      swap2\n      swap3\n      swap1\n      swap2\n      swap1\n      swap2\n      pop\n      sstore\n      pop\n        /* \"structMap.sol\":480:486  _marks */\n      dup1\n        /* \"structMap.sol\":427:440  studentReport */\n      0x00\n        /* \"structMap.sol\":427:452  studentReport[_studentId] */\n      dup1\n        /* \"structMap.sol\":441:451  _studentId */\n      dup6\n        /* \"structMap.sol\":427:452  studentReport[_studentId] */\n      dup2\n      mstore\n      0x20\n      add\n      swap1\n      dup2\n      mstore\n      0x20\n      add\n      0x00\n      keccak256\n        /* \"structMap.sol\":427:465  studentReport[_studentId].subjectMarks */\n      0x01\n      add\n        /* \"structMap.sol\":427:477  studentReport[_studentId].subjectMarks[_subjectId] */\n      0x00\n        /* \"structMap.sol\":466:476  _subjectId */\n      dup5\n        /* \"structMap.sol\":427:477  studentReport[_studentId].subjectMarks[_subjectId] */\n      dup2\n      mstore\n      0x20\n      add\n      swap1\n      dup2\n      mstore\n      0x20\n      add\n      0x00\n      keccak256\n        /* \"structMap.sol\":427:486  studentReport[_studentId].subjectMarks[_subjectId] = _marks */\n      dup2\n      swap1\n      sstore\n      pop\n        /* \"structMap.sol\":271:497  function setStudentMarks(uint _studentId, uint _subjectId, uint _marks) public{... */\n      pop\n      pop\n      pop\n      jump\t// out\n        /* \"structMap.sol\":723:789  function getTotalMarks(uint _studentId)public view returns(uint){} */\n    tag_14:\n        /* \"structMap.sol\":782:786  uint */\n      0x00\n        /* \"structMap.sol\":723:789  function getTotalMarks(uint _studentId)public view returns(uint){} */\n      swap2\n      swap1\n      pop\n      jump\t// out\n\n    auxdata: 0xa265627a7a72315820ff9308ec098e317099cd61364b1d48a91796c630b022ef67cd144c3446731f1764736f6c63430005110032\n}\n",
				"bytecode": {
					"linkReferences": {},
					"object": "608060405234801561001057600080fd5b506101f2806100206000396000f3fe608060405234801561001057600080fd5b50600436106100415760003560e01c8063077704221461004657806347c6da5a1461009257806370f5cf49146100d4575b600080fd5b61007c6004803603604081101561005c57600080fd5b810190808035906020019092919080359060200190929190505050610116565b6040518082815260200191505060405180910390f35b6100d2600480360360608110156100a857600080fd5b81019080803590602001909291908035906020019092919080359060200190929190505050610147565b005b610100600480360360208110156100ea57600080fd5b81019080803590602001909291905050506101b6565b6040518082815260200191505060405180910390f35b6000806000848152602001908152602001600020600101600083815260200190815260200160002054905092915050565b60008084815260200190815260200160002060000182908060018154018082558091505090600182039060005260206000200160009091929091909150555080600080858152602001908152602001600020600101600084815260200190815260200160002081905550505050565b600091905056fea265627a7a72315820ff9308ec098e317099cd61364b1d48a91796c630b022ef67cd144c3446731f1764736f6c63430005110032",
					"opcodes": "PUSH1 0x80 PUSH1 0x40 MSTORE CALLVALUE DUP1 ISZERO PUSH2 0x10 JUMPI PUSH1 0x0 DUP1 REVERT JUMPDEST POP PUSH2 0x1F2 DUP1 PUSH2 0x20 PUSH1 0x0 CODECOPY PUSH1 0x0 RETURN INVALID PUSH1 0x80 PUSH1 0x40 MSTORE CALLVALUE DUP1 ISZERO PUSH2 0x10 JUMPI PUSH1 0x0 DUP1 REVERT JUMPDEST POP PUSH1 0x4 CALLDATASIZE LT PUSH2 0x41 JUMPI PUSH1 0x0 CALLDATALOAD PUSH1 0xE0 SHR DUP1 PUSH4 0x7770422 EQ PUSH2 0x46 JUMPI DUP1 PUSH4 0x47C6DA5A EQ PUSH2 0x92 JUMPI DUP1 PUSH4 0x70F5CF49 EQ PUSH2 0xD4 JUMPI JUMPDEST PUSH1 0x0 DUP1 REVERT JUMPDEST PUSH2 0x7C PUSH1 0x4 DUP1 CALLDATASIZE SUB PUSH1 0x40 DUP2 LT ISZERO PUSH2 0x5C JUMPI PUSH1 0x0 DUP1 REVERT JUMPDEST DUP2 ADD SWAP1 DUP1 DUP1 CALLDATALOAD SWAP1 PUSH1 0x20 ADD SWAP1 SWAP3 SWAP2 SWAP1 DUP1 CALLDATALOAD SWAP1 PUSH1 0x20 ADD SWAP1 SWAP3 SWAP2 SWAP1 POP POP POP PUSH2 0x116 JUMP JUMPDEST PUSH1 0x40 MLOAD DUP1 DUP3 DUP2 MSTORE PUSH1 0x20 ADD SWAP2 POP POP PUSH1 0x40 MLOAD DUP1 SWAP2 SUB SWAP1 RETURN JUMPDEST PUSH2 0xD2 PUSH1 0x4 DUP1 CALLDATASIZE SUB PUSH1 0x60 DUP2 LT ISZERO PUSH2 0xA8 JUMPI PUSH1 0x0 DUP1 REVERT JUMPDEST DUP2 ADD SWAP1 DUP1 DUP1 CALLDATALOAD SWAP1 PUSH1 0x20 ADD SWAP1 SWAP3 SWAP2 SWAP1 DUP1 CALLDATALOAD SWAP1 PUSH1 0x20 ADD SWAP1 SWAP3 SWAP2 SWAP1 DUP1 CALLDATALOAD SWAP1 PUSH1 0x20 ADD SWAP1 SWAP3 SWAP2 SWAP1 POP POP POP PUSH2 0x147 JUMP JUMPDEST STOP JUMPDEST PUSH2 0x100 PUSH1 0x4 DUP1 CALLDATASIZE SUB PUSH1 0x20 DUP2 LT ISZERO PUSH2 0xEA JUMPI PUSH1 0x0 DUP1 REVERT JUMPDEST DUP2 ADD SWAP1 DUP1 DUP1 CALLDATALOAD SWAP1 PUSH1 0x20 ADD SWAP1 SWAP3 SWAP2 SWAP1 POP POP POP PUSH2 0x1B6 JUMP JUMPDEST PUSH1 0x40 MLOAD DUP1 DUP3 DUP2 MSTORE PUSH1 0x20 ADD SWAP2 POP POP PUSH1 0x40 MLOAD DUP1 SWAP2 SUB SWAP1 RETURN JUMPDEST PUSH1 0x0 DUP1 PUSH1 0x0 DUP5 DUP2 MSTORE PUSH1 0x20 ADD SWAP1 DUP2 MSTORE PUSH1 0x20 ADD PUSH1 0x0 KECCAK256 PUSH1 0x1 ADD PUSH1 0x0 DUP4 DUP2 MSTORE PUSH1 0x20 ADD SWAP1 DUP2 MSTORE PUSH1 0x20 ADD PUSH1 0x0 KECCAK256 SLOAD SWAP1 POP SWAP3 SWAP2 POP POP JUMP JUMPDEST PUSH1 0x0 DUP1 DUP5 DUP2 MSTORE PUSH1 0x20 ADD SWAP1 DUP2 MSTORE PUSH1 0x20 ADD PUSH1 0x0 KECCAK256 PUSH1 0x0 ADD DUP3 SWAP1 DUP1 PUSH1 0x1 DUP2 SLOAD ADD DUP1 DUP3 SSTORE DUP1 SWAP2 POP POP SWAP1 PUSH1 0x1 DUP3 SUB SWAP1 PUSH1 0x0 MSTORE PUSH1 0x20 PUSH1 0x0 KECCAK256 ADD PUSH1 0x0 SWAP1 SWAP2 SWAP3 SWAP1 SWAP2 SWAP1 SWAP2 POP SSTORE POP DUP1 PUSH1 0x0 DUP1 DUP6 DUP2 MSTORE PUSH1 0x20 ADD SWAP1 DUP2 MSTORE PUSH1 0x20 ADD PUSH1 0x0 KECCAK256 PUSH1 0x1 ADD PUSH1 0x0 DUP5 DUP2 MSTORE PUSH1 0x20 ADD SWAP1 DUP2 MSTORE PUSH1 0x20 ADD PUSH1 0x0 KECCAK256 DUP2 SWAP1 SSTORE POP POP POP POP JUMP JUMPDEST PUSH1 0x0 SWAP2 SWAP1 POP JUMP INVALID LOG2 PUSH6 0x627A7A723158 KECCAK256 SELFDESTRUCT SWAP4 ADDMOD 0xEC MULMOD DUP15 BALANCE PUSH17 0x99CD61364B1D48A91796C630B022EF67CD EQ 0x4C CALLVALUE CHAINID PUSH20 0x1F1764736F6C6343000511003200000000000000 "
				},
				"gasEstimates": {
					"creation": {
						"codeDepositCost": "99600",
						"executionCost": "147",
						"totalCost": "99747"
					},
					"external": {
						"getTotalMarks(uint256)": "314",
						"setStudentMarks(uint256,uint256)": "1269",
						"setStudentMarks(uint256,uint256,uint256)": "61477"
					}
				},
				"methodIdentifiers": {
					"getTotalMarks(uint256)": "70f5cf49",
					"setStudentMarks(uint256,uint256)": "07770422",
					"setStudentMarks(uint256,uint256,uint256)": "47c6da5a"
				}
			},
			"storageLayout": {
				"storage": [
					{
						"astId": 13,
						"contract": "structMap.sol:studentMarks",
						"label": "studentReport",
						"offset": 0,
						"slot": "0",
						"type": "t_mapping(t_uint256,t_struct(studentMarksStructure)9_storage)"
					}
				],
				"types": {
					"t_array(t_uint256)dyn_storage": {
						"base": "t_uint256",
						"encoding": "dynamic_array",
						"label": "uint256[]",
						"numberOfBytes": "32"
					},
					"t_mapping(t_uint256,t_struct(studentMarksStructure)9_storage)": {
						"encoding": "mapping",
						"key": "t_uint256",
						"label": "mapping(uint256 => struct studentMarks.studentMarksStructure)",
						"numberOfBytes": "32",
						"value": "t_struct(studentMarksStructure)9_storage"
					},
					"t_mapping(t_uint256,t_uint256)": {
						"encoding": "mapping",
						"key": "t_uint256",
						"label": "mapping(uint256 => uint256)",
						"numberOfBytes": "32",
						"value": "t_uint256"
					},
					"t_struct(studentMarksStructure)9_storage": {
						"encoding": "inplace",
						"label": "struct studentMarks.studentMarksStructure",
						"members": [
							{
								"astId": 4,
								"contract": "structMap.sol:studentMarks",
								"label": "subjectList",
								"offset": 0,
								"slot": "0",
								"type": "t_array(t_uint256)dyn_storage"
							},
							{
								"astId": 8,
								"contract": "structMap.sol:studentMarks",
								"label": "subjectMarks",
								"offset": 0,
								"slot": "1",
								"type": "t_mapping(t_uint256,t_uint256)"
							}
						],
						"numberOfBytes": "64"
					},
					"t_uint256": {
						"encoding": "inplace",
						"label": "uint256",
						"numberOfBytes": "32"
					}
				}
			},
			"userdoc": {
				"methods": {}
			}
		}
	}
}