{
	"collegeDepartmentRating.sol": {
		"collegeRating": {
			"abi": [
				{
					"inputs": [],
					"payable": false,
					"stateMutability": "nonpayable",
					"type": "constructor"
				},
				{
					"anonymous": false,
					"inputs": [
						{
							"indexed": false,
							"internalType": "address",
							"name": "collegeAddress",
							"type": "address"
						},
						{
							"indexed": false,
							"internalType": "uint256",
							"name": "dId",
							"type": "uint256"
						},
						{
							"indexed": false,
							"internalType": "uint256",
							"name": "_rating",
							"type": "uint256"
						}
					],
					"name": "enterRating",
					"type": "event"
				},
				{
					"constant": true,
					"inputs": [
						{
							"internalType": "address",
							"name": "_collegeAddress",
							"type": "address"
						}
					],
					"name": "getCollageRating",
					"outputs": [
						{
							"internalType": "uint256",
							"name": "",
							"type": "uint256"
						},
						{
							"internalType": "uint256",
							"name": "",
							"type": "uint256"
						}
					],
					"payable": false,
					"stateMutability": "view",
					"type": "function"
				},
				{
					"constant": true,
					"inputs": [
						{
							"internalType": "address",
							"name": "_collegeAddress",
							"type": "address"
						},
						{
							"internalType": "uint256",
							"name": "_deptId",
							"type": "uint256"
						}
					],
					"name": "getDeptRating",
					"outputs": [
						{
							"internalType": "string",
							"name": "",
							"type": "string"
						},
						{
							"internalType": "uint256",
							"name": "",
							"type": "uint256"
						}
					],
					"payable": false,
					"stateMutability": "view",
					"type": "function"
				},
				{
					"constant": false,
					"inputs": [
						{
							"internalType": "address",
							"name": "_collegeAddress",
							"type": "address"
						},
						{
							"internalType": "uint256",
							"name": "_deptId",
							"type": "uint256"
						},
						{
							"internalType": "string",
							"name": "_dName",
							"type": "string"
						},
						{
							"internalType": "uint256",
							"name": "_rating",
							"type": "uint256"
						}
					],
					"name": "setRating",
					"outputs": [],
					"payable": false,
					"stateMutability": "nonpayable",
					"type": "function"
				}
			],
			"devdoc": {
				"methods": {}
			},
			"evm": {
				"assembly": "    /* \"collegeDepartmentRating.sol\":25:3021  contract collegeRating{... */\n  mstore(0x40, 0x80)\n    /* \"collegeDepartmentRating.sol\":332:381  constructor() public{... */\n  callvalue\n    /* \"--CODEGEN--\":8:17   */\n  dup1\n    /* \"--CODEGEN--\":5:7   */\n  iszero\n  tag_1\n  jumpi\n    /* \"--CODEGEN--\":30:31   */\n  0x00\n    /* \"--CODEGEN--\":27:28   */\n  dup1\n    /* \"--CODEGEN--\":20:32   */\n  revert\n    /* \"--CODEGEN--\":5:7   */\ntag_1:\n    /* \"collegeDepartmentRating.sol\":332:381  constructor() public{... */\n  pop\n    /* \"collegeDepartmentRating.sol\":366:376  msg.sender */\n  caller\n    /* \"collegeDepartmentRating.sol\":359:363  cAdd */\n  0x00\n  dup1\n    /* \"collegeDepartmentRating.sol\":359:376  cAdd = msg.sender */\n  0x0100\n  exp\n  dup2\n  sload\n  dup2\n  0xffffffffffffffffffffffffffffffffffffffff\n  mul\n  not\n  and\n  swap1\n  dup4\n  0xffffffffffffffffffffffffffffffffffffffff\n  and\n  mul\n  or\n  swap1\n  sstore\n  pop\n    /* \"collegeDepartmentRating.sol\":25:3021  contract collegeRating{... */\n  dataSize(sub_0)\n  dup1\n  dataOffset(sub_0)\n  0x00\n  codecopy\n  0x00\n  return\nstop\n\nsub_0: assembly {\n        /* \"collegeDepartmentRating.sol\":25:3021  contract collegeRating{... */\n      mstore(0x40, 0x80)\n      callvalue\n        /* \"--CODEGEN--\":8:17   */\n      dup1\n        /* \"--CODEGEN--\":5:7   */\n      iszero\n      tag_1\n      jumpi\n        /* \"--CODEGEN--\":30:31   */\n      0x00\n        /* \"--CODEGEN--\":27:28   */\n      dup1\n        /* \"--CODEGEN--\":20:32   */\n      revert\n        /* \"--CODEGEN--\":5:7   */\n    tag_1:\n        /* \"collegeDepartmentRating.sol\":25:3021  contract collegeRating{... */\n      pop\n      jumpi(tag_2, lt(calldatasize, 0x04))\n      shr(0xe0, calldataload(0x00))\n      dup1\n      0x24165140\n      eq\n      tag_3\n      jumpi\n      dup1\n      0x2936bdb3\n      eq\n      tag_4\n      jumpi\n      dup1\n      0xd6a6bacf\n      eq\n      tag_5\n      jumpi\n    tag_2:\n      0x00\n      dup1\n      revert\n        /* \"collegeDepartmentRating.sol\":1651:2149  function setRating(address _collegeAddress, uint _deptId , string memory _dName , uint _rating )... */\n    tag_3:\n      tag_6\n      0x04\n      dup1\n      calldatasize\n      sub\n        /* \"--CODEGEN--\":13:16   */\n      0x80\n        /* \"--CODEGEN--\":8:11   */\n      dup2\n        /* \"--CODEGEN--\":5:17   */\n      lt\n        /* \"--CODEGEN--\":2:4   */\n      iszero\n      tag_7\n      jumpi\n        /* \"--CODEGEN--\":30:31   */\n      0x00\n        /* \"--CODEGEN--\":27:28   */\n      dup1\n        /* \"--CODEGEN--\":20:32   */\n      revert\n        /* \"--CODEGEN--\":2:4   */\n    tag_7:\n        /* \"collegeDepartmentRating.sol\":1651:2149  function setRating(address _collegeAddress, uint _deptId , string memory _dName , uint _rating )... */\n      dup2\n      add\n      swap1\n      dup1\n      dup1\n      calldataload\n      0xffffffffffffffffffffffffffffffffffffffff\n      and\n      swap1\n      0x20\n      add\n      swap1\n      swap3\n      swap2\n      swap1\n      dup1\n      calldataload\n      swap1\n      0x20\n      add\n      swap1\n      swap3\n      swap2\n      swap1\n      dup1\n      calldataload\n      swap1\n      0x20\n      add\n      swap1\n        /* \"--CODEGEN--\":21:32   */\n      0x0100000000\n        /* \"--CODEGEN--\":8:19   */\n      dup2\n        /* \"--CODEGEN--\":5:33   */\n      gt\n        /* \"--CODEGEN--\":2:4   */\n      iszero\n      tag_8\n      jumpi\n        /* \"--CODEGEN--\":46:47   */\n      0x00\n        /* \"--CODEGEN--\":43:44   */\n      dup1\n        /* \"--CODEGEN--\":36:48   */\n      revert\n        /* \"--CODEGEN--\":2:4   */\n    tag_8:\n        /* \"collegeDepartmentRating.sol\":1651:2149  function setRating(address _collegeAddress, uint _deptId , string memory _dName , uint _rating )... */\n      dup3\n      add\n        /* \"--CODEGEN--\":35:44   */\n      dup4\n        /* \"--CODEGEN--\":28:32   */\n      0x20\n        /* \"--CODEGEN--\":12:26   */\n      dup3\n        /* \"--CODEGEN--\":8:33   */\n      add\n        /* \"--CODEGEN--\":5:45   */\n      gt\n        /* \"--CODEGEN--\":2:4   */\n      iszero\n      tag_9\n      jumpi\n        /* \"--CODEGEN--\":58:59   */\n      0x00\n        /* \"--CODEGEN--\":55:56   */\n      dup1\n        /* \"--CODEGEN--\":48:60   */\n      revert\n        /* \"--CODEGEN--\":2:4   */\n    tag_9:\n        /* \"collegeDepartmentRating.sol\":1651:2149  function setRating(address _collegeAddress, uint _deptId , string memory _dName , uint _rating )... */\n      dup1\n      calldataload\n      swap1\n      0x20\n      add\n      swap2\n        /* \"--CODEGEN--\":100:109   */\n      dup5\n        /* \"--CODEGEN--\":95:96   */\n      0x01\n        /* \"--CODEGEN--\":81:93   */\n      dup4\n        /* \"--CODEGEN--\":77:97   */\n      mul\n        /* \"--CODEGEN--\":67:75   */\n      dup5\n        /* \"--CODEGEN--\":63:98   */\n      add\n        /* \"--CODEGEN--\":60:110   */\n      gt\n        /* \"--CODEGEN--\":39:50   */\n      0x0100000000\n        /* \"--CODEGEN--\":25:37   */\n      dup4\n        /* \"--CODEGEN--\":22:51   */\n      gt\n        /* \"--CODEGEN--\":11:118   */\n      or\n        /* \"--CODEGEN--\":8:10   */\n      iszero\n      tag_10\n      jumpi\n        /* \"--CODEGEN--\":131:132   */\n      0x00\n        /* \"--CODEGEN--\":128:129   */\n      dup1\n        /* \"--CODEGEN--\":121:133   */\n      revert\n        /* \"--CODEGEN--\":8:10   */\n    tag_10:\n        /* \"collegeDepartmentRating.sol\":1651:2149  function setRating(address _collegeAddress, uint _deptId , string memory _dName , uint _rating )... */\n      swap2\n      swap1\n      dup1\n      dup1\n      0x1f\n      add\n      0x20\n      dup1\n      swap2\n      div\n      mul\n      0x20\n      add\n      mload(0x40)\n      swap1\n      dup2\n      add\n      0x40\n      mstore\n      dup1\n      swap4\n      swap3\n      swap2\n      swap1\n      dup2\n      dup2\n      mstore\n      0x20\n      add\n      dup4\n      dup4\n        /* \"--CODEGEN--\":30:33   */\n      dup1\n        /* \"--CODEGEN--\":22:28   */\n      dup3\n        /* \"--CODEGEN--\":14:20   */\n      dup5\n        /* \"--CODEGEN--\":1:34   */\n      calldatacopy\n        /* \"--CODEGEN--\":99:100   */\n      0x00\n        /* \"--CODEGEN--\":93:96   */\n      dup2\n        /* \"--CODEGEN--\":85:91   */\n      dup5\n        /* \"--CODEGEN--\":81:97   */\n      add\n        /* \"--CODEGEN--\":74:101   */\n      mstore\n        /* \"--CODEGEN--\":137:141   */\n      0x1f\n        /* \"--CODEGEN--\":133:142   */\n      not\n        /* \"--CODEGEN--\":126:130   */\n      0x1f\n        /* \"--CODEGEN--\":121:124   */\n      dup3\n        /* \"--CODEGEN--\":117:131   */\n      add\n        /* \"--CODEGEN--\":113:143   */\n      and\n        /* \"--CODEGEN--\":106:143   */\n      swap1\n      pop\n        /* \"--CODEGEN--\":169:172   */\n      dup1\n        /* \"--CODEGEN--\":161:167   */\n      dup4\n        /* \"--CODEGEN--\":157:173   */\n      add\n        /* \"--CODEGEN--\":147:173   */\n      swap3\n      pop\n        /* \"collegeDepartmentRating.sol\":1651:2149  function setRating(address _collegeAddress, uint _deptId , string memory _dName , uint _rating )... */\n      pop\n      pop\n      pop\n      pop\n      pop\n      pop\n      swap2\n      swap3\n      swap2\n      swap3\n      swap1\n      dup1\n      calldataload\n      swap1\n      0x20\n      add\n      swap1\n      swap3\n      swap2\n      swap1\n      pop\n      pop\n      pop\n      tag_11\n      jump\t// in\n    tag_6:\n      stop\n        /* \"collegeDepartmentRating.sol\":2449:3018  function getCollageRating(address _collegeAddress ) public view returns(uint , uint)... */\n    tag_4:\n      tag_12\n      0x04\n      dup1\n      calldatasize\n      sub\n        /* \"--CODEGEN--\":13:15   */\n      0x20\n        /* \"--CODEGEN--\":8:11   */\n      dup2\n        /* \"--CODEGEN--\":5:16   */\n      lt\n        /* \"--CODEGEN--\":2:4   */\n      iszero\n      tag_13\n      jumpi\n        /* \"--CODEGEN--\":29:30   */\n      0x00\n        /* \"--CODEGEN--\":26:27   */\n      dup1\n        /* \"--CODEGEN--\":19:31   */\n      revert\n        /* \"--CODEGEN--\":2:4   */\n    tag_13:\n        /* \"collegeDepartmentRating.sol\":2449:3018  function getCollageRating(address _collegeAddress ) public view returns(uint , uint)... */\n      dup2\n      add\n      swap1\n      dup1\n      dup1\n      calldataload\n      0xffffffffffffffffffffffffffffffffffffffff\n      and\n      swap1\n      0x20\n      add\n      swap1\n      swap3\n      swap2\n      swap1\n      pop\n      pop\n      pop\n      tag_14\n      jump\t// in\n    tag_12:\n      mload(0x40)\n      dup1\n      dup4\n      dup2\n      mstore\n      0x20\n      add\n      dup3\n      dup2\n      mstore\n      0x20\n      add\n      swap3\n      pop\n      pop\n      pop\n      mload(0x40)\n      dup1\n      swap2\n      sub\n      swap1\n      return\n        /* \"collegeDepartmentRating.sol\":2156:2442  function getDeptRating(address _collegeAddress, uint _deptId )... */\n    tag_5:\n      tag_15\n      0x04\n      dup1\n      calldatasize\n      sub\n        /* \"--CODEGEN--\":13:15   */\n      0x40\n        /* \"--CODEGEN--\":8:11   */\n      dup2\n        /* \"--CODEGEN--\":5:16   */\n      lt\n        /* \"--CODEGEN--\":2:4   */\n      iszero\n      tag_16\n      jumpi\n        /* \"--CODEGEN--\":29:30   */\n      0x00\n        /* \"--CODEGEN--\":26:27   */\n      dup1\n        /* \"--CODEGEN--\":19:31   */\n      revert\n        /* \"--CODEGEN--\":2:4   */\n    tag_16:\n        /* \"collegeDepartmentRating.sol\":2156:2442  function getDeptRating(address _collegeAddress, uint _deptId )... */\n      dup2\n      add\n      swap1\n      dup1\n      dup1\n      calldataload\n      0xffffffffffffffffffffffffffffffffffffffff\n      and\n      swap1\n      0x20\n      add\n      swap1\n      swap3\n      swap2\n      swap1\n      dup1\n      calldataload\n      swap1\n      0x20\n      add\n      swap1\n      swap3\n      swap2\n      swap1\n      pop\n      pop\n      pop\n      tag_17\n      jump\t// in\n    tag_15:\n      mload(0x40)\n      dup1\n      dup1\n      0x20\n      add\n      dup4\n      dup2\n      mstore\n      0x20\n      add\n      dup3\n      dup2\n      sub\n      dup3\n      mstore\n      dup5\n      dup2\n      dup2\n      mload\n      dup2\n      mstore\n      0x20\n      add\n      swap2\n      pop\n      dup1\n      mload\n      swap1\n      0x20\n      add\n      swap1\n      dup1\n      dup4\n      dup4\n        /* \"--CODEGEN--\":23:24   */\n      0x00\n        /* \"--CODEGEN--\":8:108   */\n    tag_18:\n        /* \"--CODEGEN--\":33:36   */\n      dup4\n        /* \"--CODEGEN--\":30:31   */\n      dup2\n        /* \"--CODEGEN--\":27:37   */\n      lt\n        /* \"--CODEGEN--\":8:108   */\n      iszero\n      tag_20\n      jumpi\n        /* \"--CODEGEN--\":99:100   */\n      dup1\n        /* \"--CODEGEN--\":94:97   */\n      dup3\n        /* \"--CODEGEN--\":90:101   */\n      add\n        /* \"--CODEGEN--\":84:102   */\n      mload\n        /* \"--CODEGEN--\":80:81   */\n      dup2\n        /* \"--CODEGEN--\":75:78   */\n      dup5\n        /* \"--CODEGEN--\":71:82   */\n      add\n        /* \"--CODEGEN--\":64:103   */\n      mstore\n        /* \"--CODEGEN--\":52:54   */\n      0x20\n        /* \"--CODEGEN--\":49:50   */\n      dup2\n        /* \"--CODEGEN--\":45:55   */\n      add\n        /* \"--CODEGEN--\":40:55   */\n      swap1\n      pop\n        /* \"--CODEGEN--\":8:108   */\n      jump(tag_18)\n    tag_20:\n        /* \"--CODEGEN--\":12:26   */\n      pop\n        /* \"collegeDepartmentRating.sol\":2156:2442  function getDeptRating(address _collegeAddress, uint _deptId )... */\n      pop\n      pop\n      pop\n      swap1\n      pop\n      swap1\n      dup2\n      add\n      swap1\n      0x1f\n      and\n      dup1\n      iszero\n      tag_21\n      jumpi\n      dup1\n      dup3\n      sub\n      dup1\n      mload\n      0x01\n      dup4\n      0x20\n      sub\n      0x0100\n      exp\n      sub\n      not\n      and\n      dup2\n      mstore\n      0x20\n      add\n      swap2\n      pop\n    tag_21:\n      pop\n      swap4\n      pop\n      pop\n      pop\n      pop\n      mload(0x40)\n      dup1\n      swap2\n      sub\n      swap1\n      return\n        /* \"collegeDepartmentRating.sol\":1651:2149  function setRating(address _collegeAddress, uint _deptId , string memory _dName , uint _rating )... */\n    tag_11:\n        /* \"collegeDepartmentRating.sol\":1774:1789  _collegeAddress */\n      dup4\n        /* \"collegeDepartmentRating.sol\":783:793  msg.sender */\n      caller\n        /* \"collegeDepartmentRating.sol\":765:793  collegeAddress != msg.sender */\n      0xffffffffffffffffffffffffffffffffffffffff\n      and\n        /* \"collegeDepartmentRating.sol\":765:779  collegeAddress */\n      dup2\n        /* \"collegeDepartmentRating.sol\":765:793  collegeAddress != msg.sender */\n      0xffffffffffffffffffffffffffffffffffffffff\n      and\n      eq\n      iszero\n        /* \"collegeDepartmentRating.sol\":757:839  require(collegeAddress != msg.sender, \"Same College can't give rating to itself.\") */\n      tag_23\n      jumpi\n      mload(0x40)\n      0x08c379a000000000000000000000000000000000000000000000000000000000\n      dup2\n      mstore\n      0x04\n      add\n      dup1\n      dup1\n      0x20\n      add\n      dup3\n      dup2\n      sub\n      dup3\n      mstore\n      0x29\n      dup2\n      mstore\n      0x20\n      add\n      dup1\n      data_91147b02be505eafcfba0508d08ec0ac96c0f2c9821fe2bf6f36d6096e4f3ea2\n      0x29\n      swap2\n      codecopy\n      0x40\n      add\n      swap2\n      pop\n      pop\n      mload(0x40)\n      dup1\n      swap2\n      sub\n      swap1\n      revert\n    tag_23:\n        /* \"collegeDepartmentRating.sol\":1806:1813  _deptId */\n      dup4\n        /* \"collegeDepartmentRating.sol\":1007:1008  0 */\n      0x00\n        /* \"collegeDepartmentRating.sol\":1000:1003  mId */\n      dup2\n        /* \"collegeDepartmentRating.sol\":1000:1008  mId != 0 */\n      eq\n      iszero\n        /* \"collegeDepartmentRating.sol\":1000:1020  mId != 0 && mId <= 3 */\n      dup1\n      iszero\n      tag_25\n      jumpi\n      pop\n        /* \"collegeDepartmentRating.sol\":1019:1020  3 */\n      0x03\n        /* \"collegeDepartmentRating.sol\":1012:1015  mId */\n      dup2\n        /* \"collegeDepartmentRating.sol\":1012:1020  mId <= 3 */\n      gt\n      iszero\n        /* \"collegeDepartmentRating.sol\":1000:1020  mId != 0 && mId <= 3 */\n    tag_25:\n        /* \"collegeDepartmentRating.sol\":990:1064  require( (mId != 0 && mId <= 3) , \"College ID should be  between 1 to 3.\") */\n      tag_26\n      jumpi\n      mload(0x40)\n      0x08c379a000000000000000000000000000000000000000000000000000000000\n      dup2\n      mstore\n      0x04\n      add\n      dup1\n      dup1\n      0x20\n      add\n      dup3\n      dup2\n      sub\n      dup3\n      mstore\n      0x25\n      dup2\n      mstore\n      0x20\n      add\n      dup1\n      data_5037ad7fe73815dd8cd6e22299d6ca934824b747524f2c6dbfd64b5621cdb4ef\n      0x25\n      swap2\n      codecopy\n      0x40\n      add\n      swap2\n      pop\n      pop\n      mload(0x40)\n      dup1\n      swap2\n      sub\n      swap1\n      revert\n    tag_26:\n        /* \"collegeDepartmentRating.sol\":1834:1841  _rating */\n      dup3\n        /* \"collegeDepartmentRating.sol\":1152:1153  0 */\n      0x00\n        /* \"collegeDepartmentRating.sol\":1143:1149  rating */\n      dup2\n        /* \"collegeDepartmentRating.sol\":1143:1153  rating > 0 */\n      gt\n        /* \"collegeDepartmentRating.sol\":1143:1169  rating > 0 && rating <= 10 */\n      dup1\n      iszero\n      tag_28\n      jumpi\n      pop\n        /* \"collegeDepartmentRating.sol\":1167:1169  10 */\n      0x0a\n        /* \"collegeDepartmentRating.sol\":1157:1163  rating */\n      dup2\n        /* \"collegeDepartmentRating.sol\":1157:1169  rating <= 10 */\n      gt\n      iszero\n        /* \"collegeDepartmentRating.sol\":1143:1169  rating > 0 && rating <= 10 */\n    tag_28:\n        /* \"collegeDepartmentRating.sol\":1133:1211  require( (rating > 0 && rating <= 10) , \"Please give rating between 1 to 10.\") */\n      tag_29\n      jumpi\n      mload(0x40)\n      0x08c379a000000000000000000000000000000000000000000000000000000000\n      dup2\n      mstore\n      0x04\n      add\n      dup1\n      dup1\n      0x20\n      add\n      dup3\n      dup2\n      sub\n      dup3\n      mstore\n      0x23\n      dup2\n      mstore\n      0x20\n      add\n      dup1\n      data_ddd6ca5b24162d061299692e9065b229b29875bdb9b655eb8649cc58c5051c11\n      0x23\n      swap2\n      codecopy\n      0x40\n      add\n      swap2\n      pop\n      pop\n      mload(0x40)\n      dup1\n      swap2\n      sub\n      swap1\n      revert\n    tag_29:\n        /* \"collegeDepartmentRating.sol\":1903:1910  cRating */\n      0x02\n        /* \"collegeDepartmentRating.sol\":1903:1927  cRating[_collegeAddress] */\n      0x00\n        /* \"collegeDepartmentRating.sol\":1911:1926  _collegeAddress */\n      dup9\n        /* \"collegeDepartmentRating.sol\":1903:1927  cRating[_collegeAddress] */\n      0xffffffffffffffffffffffffffffffffffffffff\n      and\n      0xffffffffffffffffffffffffffffffffffffffff\n      and\n      dup2\n      mstore\n      0x20\n      add\n      swap1\n      dup2\n      mstore\n      0x20\n      add\n      0x00\n      keccak256\n        /* \"collegeDepartmentRating.sol\":1903:1934  cRating[_collegeAddress].deptId */\n      0x00\n      add\n        /* \"collegeDepartmentRating.sol\":1940:1947  _deptId */\n      dup7\n        /* \"collegeDepartmentRating.sol\":1903:1948  cRating[_collegeAddress].deptId.push(_deptId) */\n      swap1\n      dup1\n        /* \"--CODEGEN--\":39:40   */\n      0x01\n        /* \"--CODEGEN--\":33:36   */\n      dup2\n        /* \"--CODEGEN--\":27:37   */\n      sload\n        /* \"--CODEGEN--\":23:41   */\n      add\n        /* \"--CODEGEN--\":57:67   */\n      dup1\n        /* \"--CODEGEN--\":52:55   */\n      dup3\n        /* \"--CODEGEN--\":45:68   */\n      sstore\n        /* \"--CODEGEN--\":79:89   */\n      dup1\n        /* \"--CODEGEN--\":72:89   */\n      swap2\n      pop\n        /* \"--CODEGEN--\":0:93   */\n      pop\n        /* \"collegeDepartmentRating.sol\":1903:1948  cRating[_collegeAddress].deptId.push(_deptId) */\n      swap1\n      0x01\n      dup3\n      sub\n      swap1\n      0x00\n      mstore\n      keccak256(0x00, 0x20)\n      add\n      0x00\n      swap1\n      swap2\n      swap3\n      swap1\n      swap2\n      swap1\n      swap2\n      pop\n      sstore\n      pop\n        /* \"collegeDepartmentRating.sol\":2000:2007  _rating */\n      dup4\n        /* \"collegeDepartmentRating.sol\":1957:1964  cRating */\n      0x02\n        /* \"collegeDepartmentRating.sol\":1957:1981  cRating[_collegeAddress] */\n      0x00\n        /* \"collegeDepartmentRating.sol\":1965:1980  _collegeAddress */\n      dup10\n        /* \"collegeDepartmentRating.sol\":1957:1981  cRating[_collegeAddress] */\n      0xffffffffffffffffffffffffffffffffffffffff\n      and\n      0xffffffffffffffffffffffffffffffffffffffff\n      and\n      dup2\n      mstore\n      0x20\n      add\n      swap1\n      dup2\n      mstore\n      0x20\n      add\n      0x00\n      keccak256\n        /* \"collegeDepartmentRating.sol\":1957:1988  cRating[_collegeAddress].rating */\n      0x01\n      add\n        /* \"collegeDepartmentRating.sol\":1957:1997  cRating[_collegeAddress].rating[_deptId] */\n      0x00\n        /* \"collegeDepartmentRating.sol\":1989:1996  _deptId */\n      dup9\n        /* \"collegeDepartmentRating.sol\":1957:1997  cRating[_collegeAddress].rating[_deptId] */\n      dup2\n      mstore\n      0x20\n      add\n      swap1\n      dup2\n      mstore\n      0x20\n      add\n      0x00\n      keccak256\n        /* \"collegeDepartmentRating.sol\":1957:2007  cRating[_collegeAddress].rating[_deptId] = _rating */\n      dup2\n      swap1\n      sstore\n      pop\n        /* \"collegeDepartmentRating.sol\":2058:2064  _dName */\n      dup5\n        /* \"collegeDepartmentRating.sol\":2016:2023  cRating */\n      0x02\n        /* \"collegeDepartmentRating.sol\":2016:2040  cRating[_collegeAddress] */\n      0x00\n        /* \"collegeDepartmentRating.sol\":2024:2039  _collegeAddress */\n      dup10\n        /* \"collegeDepartmentRating.sol\":2016:2040  cRating[_collegeAddress] */\n      0xffffffffffffffffffffffffffffffffffffffff\n      and\n      0xffffffffffffffffffffffffffffffffffffffff\n      and\n      dup2\n      mstore\n      0x20\n      add\n      swap1\n      dup2\n      mstore\n      0x20\n      add\n      0x00\n      keccak256\n        /* \"collegeDepartmentRating.sol\":2016:2046  cRating[_collegeAddress].dName */\n      0x02\n      add\n        /* \"collegeDepartmentRating.sol\":2016:2055  cRating[_collegeAddress].dName[_deptId] */\n      0x00\n        /* \"collegeDepartmentRating.sol\":2047:2054  _deptId */\n      dup9\n        /* \"collegeDepartmentRating.sol\":2016:2055  cRating[_collegeAddress].dName[_deptId] */\n      dup2\n      mstore\n      0x20\n      add\n      swap1\n      dup2\n      mstore\n      0x20\n      add\n      0x00\n      keccak256\n        /* \"collegeDepartmentRating.sol\":2016:2064  cRating[_collegeAddress].dName[_deptId] = _dName */\n      swap1\n      dup1\n      mload\n      swap1\n      0x20\n      add\n      swap1\n      tag_32\n      swap3\n      swap2\n      swap1\n      tag_33\n      jump\t// in\n    tag_32:\n      pop\n        /* \"collegeDepartmentRating.sol\":2085:2132  enterRating(_collegeAddress, _deptId, _rating ) */\n      0xe479d3bf97f2a940e7c0466a960c725a7794d1243fb60cae056bedd68ae7f8a0\n        /* \"collegeDepartmentRating.sol\":2097:2112  _collegeAddress */\n      dup8\n        /* \"collegeDepartmentRating.sol\":2114:2121  _deptId */\n      dup8\n        /* \"collegeDepartmentRating.sol\":2123:2130  _rating */\n      dup7\n        /* \"collegeDepartmentRating.sol\":2085:2132  enterRating(_collegeAddress, _deptId, _rating ) */\n      mload(0x40)\n      dup1\n      dup5\n      0xffffffffffffffffffffffffffffffffffffffff\n      and\n      0xffffffffffffffffffffffffffffffffffffffff\n      and\n      dup2\n      mstore\n      0x20\n      add\n      dup4\n      dup2\n      mstore\n      0x20\n      add\n      dup3\n      dup2\n      mstore\n      0x20\n      add\n      swap4\n      pop\n      pop\n      pop\n      pop\n      mload(0x40)\n      dup1\n      swap2\n      sub\n      swap1\n      log1\n        /* \"collegeDepartmentRating.sol\":1073:1074  _ */\n      pop\n        /* \"collegeDepartmentRating.sol\":848:849  _ */\n      pop\n        /* \"collegeDepartmentRating.sol\":1651:2149  function setRating(address _collegeAddress, uint _deptId , string memory _dName , uint _rating )... */\n      pop\n      pop\n      pop\n      pop\n      pop\n      jump\t// out\n        /* \"collegeDepartmentRating.sol\":2449:3018  function getCollageRating(address _collegeAddress ) public view returns(uint , uint)... */\n    tag_14:\n        /* \"collegeDepartmentRating.sol\":2521:2525  uint */\n      0x00\n        /* \"collegeDepartmentRating.sol\":2528:2532  uint */\n      dup1\n        /* \"collegeDepartmentRating.sol\":2548:2559  uint length */\n      0x00\n        /* \"collegeDepartmentRating.sol\":2562:2572  uint  temp */\n      dup1\n        /* \"collegeDepartmentRating.sol\":2582:2597  uint collRating */\n      0x00\n        /* \"collegeDepartmentRating.sol\":2600:2601  0 */\n      dup1\n        /* \"collegeDepartmentRating.sol\":2582:2601  uint collRating = 0 */\n      swap1\n      pop\n        /* \"collegeDepartmentRating.sol\":2627:2634  cRating */\n      0x02\n        /* \"collegeDepartmentRating.sol\":2627:2651  cRating[_collegeAddress] */\n      0x00\n        /* \"collegeDepartmentRating.sol\":2635:2650  _collegeAddress */\n      dup8\n        /* \"collegeDepartmentRating.sol\":2627:2651  cRating[_collegeAddress] */\n      0xffffffffffffffffffffffffffffffffffffffff\n      and\n      0xffffffffffffffffffffffffffffffffffffffff\n      and\n      dup2\n      mstore\n      0x20\n      add\n      swap1\n      dup2\n      mstore\n      0x20\n      add\n      0x00\n      keccak256\n        /* \"collegeDepartmentRating.sol\":2627:2658  cRating[_collegeAddress].deptId */\n      0x00\n      add\n        /* \"collegeDepartmentRating.sol\":2627:2665  cRating[_collegeAddress].deptId.length */\n      dup1\n      sload\n      swap1\n      pop\n        /* \"collegeDepartmentRating.sol\":2618:2665  length = cRating[_collegeAddress].deptId.length */\n      swap3\n      pop\n        /* \"collegeDepartmentRating.sol\":2682:2688  uint i */\n      0x00\n        /* \"collegeDepartmentRating.sol\":2691:2692  0 */\n      dup1\n        /* \"collegeDepartmentRating.sol\":2682:2692  uint i = 0 */\n      swap1\n      pop\n        /* \"collegeDepartmentRating.sol\":2677:2869  for (uint i = 0 ; i < length ; i++){... */\n    tag_35:\n        /* \"collegeDepartmentRating.sol\":2699:2705  length */\n      dup4\n        /* \"collegeDepartmentRating.sol\":2695:2696  i */\n      dup2\n        /* \"collegeDepartmentRating.sol\":2695:2705  i < length */\n      lt\n        /* \"collegeDepartmentRating.sol\":2677:2869  for (uint i = 0 ; i < length ; i++){... */\n      iszero\n      tag_36\n      jumpi\n        /* \"collegeDepartmentRating.sol\":2734:2741  cRating */\n      0x02\n        /* \"collegeDepartmentRating.sol\":2734:2758  cRating[_collegeAddress] */\n      0x00\n        /* \"collegeDepartmentRating.sol\":2742:2757  _collegeAddress */\n      dup9\n        /* \"collegeDepartmentRating.sol\":2734:2758  cRating[_collegeAddress] */\n      0xffffffffffffffffffffffffffffffffffffffff\n      and\n      0xffffffffffffffffffffffffffffffffffffffff\n      and\n      dup2\n      mstore\n      0x20\n      add\n      swap1\n      dup2\n      mstore\n      0x20\n      add\n      0x00\n      keccak256\n        /* \"collegeDepartmentRating.sol\":2734:2765  cRating[_collegeAddress].deptId */\n      0x00\n      add\n        /* \"collegeDepartmentRating.sol\":2766:2767  i */\n      dup2\n        /* \"collegeDepartmentRating.sol\":2734:2768  cRating[_collegeAddress].deptId[i] */\n      dup2\n      sload\n      dup2\n      lt\n      tag_38\n      jumpi\n      invalid\n    tag_38:\n      swap1\n      0x00\n      mstore\n      keccak256(0x00, 0x20)\n      add\n      sload\n        /* \"collegeDepartmentRating.sol\":2726:2768  temp =  cRating[_collegeAddress].deptId[i] */\n      swap3\n      pop\n        /* \"collegeDepartmentRating.sol\":2835:2845  collRating */\n      dup2\n        /* \"collegeDepartmentRating.sol\":2795:2802  cRating */\n      0x02\n        /* \"collegeDepartmentRating.sol\":2795:2819  cRating[_collegeAddress] */\n      0x00\n        /* \"collegeDepartmentRating.sol\":2803:2818  _collegeAddress */\n      dup10\n        /* \"collegeDepartmentRating.sol\":2795:2819  cRating[_collegeAddress] */\n      0xffffffffffffffffffffffffffffffffffffffff\n      and\n      0xffffffffffffffffffffffffffffffffffffffff\n      and\n      dup2\n      mstore\n      0x20\n      add\n      swap1\n      dup2\n      mstore\n      0x20\n      add\n      0x00\n      keccak256\n        /* \"collegeDepartmentRating.sol\":2795:2826  cRating[_collegeAddress].rating */\n      0x01\n      add\n        /* \"collegeDepartmentRating.sol\":2795:2832  cRating[_collegeAddress].rating[temp] */\n      0x00\n        /* \"collegeDepartmentRating.sol\":2827:2831  temp */\n      dup6\n        /* \"collegeDepartmentRating.sol\":2795:2832  cRating[_collegeAddress].rating[temp] */\n      dup2\n      mstore\n      0x20\n      add\n      swap1\n      dup2\n      mstore\n      0x20\n      add\n      0x00\n      keccak256\n      sload\n        /* \"collegeDepartmentRating.sol\":2795:2845  cRating[_collegeAddress].rating[temp] + collRating */\n      add\n        /* \"collegeDepartmentRating.sol\":2782:2845  collRating = cRating[_collegeAddress].rating[temp] + collRating */\n      swap2\n      pop\n        /* \"collegeDepartmentRating.sol\":2708:2711  i++ */\n      dup1\n      dup1\n      0x01\n      add\n      swap2\n      pop\n      pop\n        /* \"collegeDepartmentRating.sol\":2677:2869  for (uint i = 0 ; i < length ; i++){... */\n      jump(tag_35)\n    tag_36:\n      pop\n        /* \"collegeDepartmentRating.sol\":2960:2966  length */\n      dup3\n        /* \"collegeDepartmentRating.sol\":2947:2957  collRating */\n      dup2\n        /* \"collegeDepartmentRating.sol\":2947:2966  collRating / length */\n      dup2\n      tag_40\n      jumpi\n      invalid\n    tag_40:\n      div\n        /* \"collegeDepartmentRating.sol\":2934:2966  collRating = collRating / length */\n      swap1\n      pop\n        /* \"collegeDepartmentRating.sol\":2987:2993  length */\n      dup3\n        /* \"collegeDepartmentRating.sol\":2996:3006  collRating */\n      dup2\n        /* \"collegeDepartmentRating.sol\":2976:3008  return   ( length , collRating ) */\n      swap5\n      pop\n      swap5\n      pop\n      pop\n      pop\n      pop\n        /* \"collegeDepartmentRating.sol\":2449:3018  function getCollageRating(address _collegeAddress ) public view returns(uint , uint)... */\n      swap2\n      pop\n      swap2\n      jump\t// out\n        /* \"collegeDepartmentRating.sol\":2156:2442  function getDeptRating(address _collegeAddress, uint _deptId )... */\n    tag_17:\n        /* \"collegeDepartmentRating.sol\":2265:2278  string memory */\n      0x60\n        /* \"collegeDepartmentRating.sol\":2280:2284  uint */\n      0x00\n        /* \"collegeDepartmentRating.sol\":2241:2248  _deptId */\n      dup3\n        /* \"collegeDepartmentRating.sol\":1007:1008  0 */\n      0x00\n        /* \"collegeDepartmentRating.sol\":1000:1003  mId */\n      dup2\n        /* \"collegeDepartmentRating.sol\":1000:1008  mId != 0 */\n      eq\n      iszero\n        /* \"collegeDepartmentRating.sol\":1000:1020  mId != 0 && mId <= 3 */\n      dup1\n      iszero\n      tag_42\n      jumpi\n      pop\n        /* \"collegeDepartmentRating.sol\":1019:1020  3 */\n      0x03\n        /* \"collegeDepartmentRating.sol\":1012:1015  mId */\n      dup2\n        /* \"collegeDepartmentRating.sol\":1012:1020  mId <= 3 */\n      gt\n      iszero\n        /* \"collegeDepartmentRating.sol\":1000:1020  mId != 0 && mId <= 3 */\n    tag_42:\n        /* \"collegeDepartmentRating.sol\":990:1064  require( (mId != 0 && mId <= 3) , \"College ID should be  between 1 to 3.\") */\n      tag_43\n      jumpi\n      mload(0x40)\n      0x08c379a000000000000000000000000000000000000000000000000000000000\n      dup2\n      mstore\n      0x04\n      add\n      dup1\n      dup1\n      0x20\n      add\n      dup3\n      dup2\n      sub\n      dup3\n      mstore\n      0x25\n      dup2\n      mstore\n      0x20\n      add\n      dup1\n      data_5037ad7fe73815dd8cd6e22299d6ca934824b747524f2c6dbfd64b5621cdb4ef\n      0x25\n      swap2\n      codecopy\n      0x40\n      add\n      swap2\n      pop\n      pop\n      mload(0x40)\n      dup1\n      swap2\n      sub\n      swap1\n      revert\n    tag_43:\n        /* \"collegeDepartmentRating.sol\":2323:2330  cRating */\n      0x02\n        /* \"collegeDepartmentRating.sol\":2323:2347  cRating[_collegeAddress] */\n      0x00\n        /* \"collegeDepartmentRating.sol\":2331:2346  _collegeAddress */\n      dup7\n        /* \"collegeDepartmentRating.sol\":2323:2347  cRating[_collegeAddress] */\n      0xffffffffffffffffffffffffffffffffffffffff\n      and\n      0xffffffffffffffffffffffffffffffffffffffff\n      and\n      dup2\n      mstore\n      0x20\n      add\n      swap1\n      dup2\n      mstore\n      0x20\n      add\n      0x00\n      keccak256\n        /* \"collegeDepartmentRating.sol\":2323:2353  cRating[_collegeAddress].dName */\n      0x02\n      add\n        /* \"collegeDepartmentRating.sol\":2323:2362  cRating[_collegeAddress].dName[_deptId] */\n      0x00\n        /* \"collegeDepartmentRating.sol\":2354:2361  _deptId */\n      dup6\n        /* \"collegeDepartmentRating.sol\":2323:2362  cRating[_collegeAddress].dName[_deptId] */\n      dup2\n      mstore\n      0x20\n      add\n      swap1\n      dup2\n      mstore\n      0x20\n      add\n      0x00\n      keccak256\n        /* \"collegeDepartmentRating.sol\":2379:2386  cRating */\n      0x02\n        /* \"collegeDepartmentRating.sol\":2379:2403  cRating[_collegeAddress] */\n      0x00\n        /* \"collegeDepartmentRating.sol\":2387:2402  _collegeAddress */\n      dup8\n        /* \"collegeDepartmentRating.sol\":2379:2403  cRating[_collegeAddress] */\n      0xffffffffffffffffffffffffffffffffffffffff\n      and\n      0xffffffffffffffffffffffffffffffffffffffff\n      and\n      dup2\n      mstore\n      0x20\n      add\n      swap1\n      dup2\n      mstore\n      0x20\n      add\n      0x00\n      keccak256\n        /* \"collegeDepartmentRating.sol\":2379:2410  cRating[_collegeAddress].rating */\n      0x01\n      add\n        /* \"collegeDepartmentRating.sol\":2379:2419  cRating[_collegeAddress].rating[_deptId] */\n      0x00\n        /* \"collegeDepartmentRating.sol\":2411:2418  _deptId */\n      dup7\n        /* \"collegeDepartmentRating.sol\":2379:2419  cRating[_collegeAddress].rating[_deptId] */\n      dup2\n      mstore\n      0x20\n      add\n      swap1\n      dup2\n      mstore\n      0x20\n      add\n      0x00\n      keccak256\n      sload\n        /* \"collegeDepartmentRating.sol\":2299:2434  return ( ... */\n      dup2\n      dup1\n      sload\n      0x01\n      dup2\n      0x01\n      and\n      iszero\n      0x0100\n      mul\n      sub\n      and\n      0x02\n      swap1\n      div\n      dup1\n      0x1f\n      add\n      0x20\n      dup1\n      swap2\n      div\n      mul\n      0x20\n      add\n      mload(0x40)\n      swap1\n      dup2\n      add\n      0x40\n      mstore\n      dup1\n      swap3\n      swap2\n      swap1\n      dup2\n      dup2\n      mstore\n      0x20\n      add\n      dup3\n      dup1\n      sload\n      0x01\n      dup2\n      0x01\n      and\n      iszero\n      0x0100\n      mul\n      sub\n      and\n      0x02\n      swap1\n      div\n      dup1\n      iszero\n      tag_45\n      jumpi\n      dup1\n      0x1f\n      lt\n      tag_46\n      jumpi\n      0x0100\n      dup1\n      dup4\n      sload\n      div\n      mul\n      dup4\n      mstore\n      swap2\n      0x20\n      add\n      swap2\n      jump(tag_45)\n    tag_46:\n      dup3\n      add\n      swap2\n      swap1\n      0x00\n      mstore\n      keccak256(0x00, 0x20)\n      swap1\n    tag_47:\n      dup2\n      sload\n      dup2\n      mstore\n      swap1\n      0x01\n      add\n      swap1\n      0x20\n      add\n      dup1\n      dup4\n      gt\n      tag_47\n      jumpi\n      dup3\n      swap1\n      sub\n      0x1f\n      and\n      dup3\n      add\n      swap2\n    tag_45:\n      pop\n      pop\n      pop\n      pop\n      pop\n      swap2\n      pop\n      swap3\n      pop\n      swap3\n      pop\n        /* \"collegeDepartmentRating.sol\":2156:2442  function getDeptRating(address _collegeAddress, uint _deptId )... */\n      pop\n      swap3\n      pop\n      swap3\n      swap1\n      pop\n      jump\t// out\n        /* \"collegeDepartmentRating.sol\":25:3021  contract collegeRating{... */\n    tag_33:\n      dup3\n      dup1\n      sload\n      0x01\n      dup2\n      0x01\n      and\n      iszero\n      0x0100\n      mul\n      sub\n      and\n      0x02\n      swap1\n      div\n      swap1\n      0x00\n      mstore\n      keccak256(0x00, 0x20)\n      swap1\n      0x1f\n      add\n      0x20\n      swap1\n      div\n      dup2\n      add\n      swap3\n      dup3\n      0x1f\n      lt\n      tag_49\n      jumpi\n      dup1\n      mload\n      not(0xff)\n      and\n      dup4\n      dup1\n      add\n      or\n      dup6\n      sstore\n      jump(tag_48)\n    tag_49:\n      dup3\n      dup1\n      add\n      0x01\n      add\n      dup6\n      sstore\n      dup3\n      iszero\n      tag_48\n      jumpi\n      swap2\n      dup3\n      add\n    tag_50:\n      dup3\n      dup2\n      gt\n      iszero\n      tag_51\n      jumpi\n      dup3\n      mload\n      dup3\n      sstore\n      swap2\n      0x20\n      add\n      swap2\n      swap1\n      0x01\n      add\n      swap1\n      jump(tag_50)\n    tag_51:\n    tag_48:\n      pop\n      swap1\n      pop\n      tag_52\n      swap2\n      swap1\n      tag_53\n      jump\t// in\n    tag_52:\n      pop\n      swap1\n      jump\t// out\n    tag_53:\n      tag_54\n      swap2\n      swap1\n    tag_55:\n      dup1\n      dup3\n      gt\n      iszero\n      tag_56\n      jumpi\n      0x00\n      dup2\n      0x00\n      swap1\n      sstore\n      pop\n      0x01\n      add\n      jump(tag_55)\n    tag_56:\n      pop\n      swap1\n      jump\n    tag_54:\n      swap1\n      jump\t// out\n    stop\n    data_5037ad7fe73815dd8cd6e22299d6ca934824b747524f2c6dbfd64b5621cdb4ef 436f6c6c6567652049442073686f756c6420626520206265747765656e203120746f20332e\n    data_91147b02be505eafcfba0508d08ec0ac96c0f2c9821fe2bf6f36d6096e4f3ea2 53616d6520436f6c6c6567652063616e2774206769766520726174696e6720746f20697473656c662e\n    data_ddd6ca5b24162d061299692e9065b229b29875bdb9b655eb8649cc58c5051c11 506c65617365206769766520726174696e67206265747765656e203120746f2031302e\n\n    auxdata: 0xa265627a7a72315820a5da0b11e638335f9ea05d79394d7d5775185665dfc0aaf87e82ce57ef93c9c064736f6c63430005110032\n}\n",
				"bytecode": {
					"linkReferences": {},
					"object": "608060405234801561001057600080fd5b50336000806101000a81548173ffffffffffffffffffffffffffffffffffffffff021916908373ffffffffffffffffffffffffffffffffffffffff1602179055506109a0806100606000396000f3fe608060405234801561001057600080fd5b50600436106100415760003560e01c806324165140146100465780632936bdb314610135578063d6a6bacf14610194575b600080fd5b6101336004803603608081101561005c57600080fd5b81019080803573ffffffffffffffffffffffffffffffffffffffff16906020019092919080359060200190929190803590602001906401000000008111156100a357600080fd5b8201836020820111156100b557600080fd5b803590602001918460018302840111640100000000831117156100d757600080fd5b91908080601f016020809104026020016040519081016040528093929190818152602001838380828437600081840152601f19601f82011690508083019250505050505050919291929080359060200190929190505050610262565b005b6101776004803603602081101561014b57600080fd5b81019080803573ffffffffffffffffffffffffffffffffffffffff16906020019092919050505061055f565b604051808381526020018281526020019250505060405180910390f35b6101e0600480360360408110156101aa57600080fd5b81019080803573ffffffffffffffffffffffffffffffffffffffff1690602001909291908035906020019092919050505061069a565b6040518080602001838152602001828103825284818151815260200191508051906020019080838360005b8381101561022657808201518184015260208101905061020b565b50505050905090810190601f1680156102535780820380516001836020036101000a031916815260200191505b50935050505060405180910390f35b833373ffffffffffffffffffffffffffffffffffffffff168173ffffffffffffffffffffffffffffffffffffffff1614156102e8576040517f08c379a00000000000000000000000000000000000000000000000000000000081526004018080602001828103825260298152602001806109206029913960400191505060405180910390fd5b83600081141580156102fb575060038111155b610350576040517f08c379a00000000000000000000000000000000000000000000000000000000081526004018080602001828103825260258152602001806108fb6025913960400191505060405180910390fd5b826000811180156103625750600a8111155b6103b7576040517f08c379a00000000000000000000000000000000000000000000000000000000081526004018080602001828103825260238152602001806109496023913960400191505060405180910390fd5b600260008873ffffffffffffffffffffffffffffffffffffffff1673ffffffffffffffffffffffffffffffffffffffff16815260200190815260200160002060000186908060018154018082558091505090600182039060005260206000200160009091929091909150555083600260008973ffffffffffffffffffffffffffffffffffffffff1673ffffffffffffffffffffffffffffffffffffffff16815260200190815260200160002060010160008881526020019081526020016000208190555084600260008973ffffffffffffffffffffffffffffffffffffffff1673ffffffffffffffffffffffffffffffffffffffff168152602001908152602001600020600201600088815260200190815260200160002090805190602001906104e2929190610855565b507fe479d3bf97f2a940e7c0466a960c725a7794d1243fb60cae056bedd68ae7f8a0878786604051808473ffffffffffffffffffffffffffffffffffffffff1673ffffffffffffffffffffffffffffffffffffffff168152602001838152602001828152602001935050505060405180910390a150505050505050565b6000806000806000809050600260008773ffffffffffffffffffffffffffffffffffffffff1673ffffffffffffffffffffffffffffffffffffffff16815260200190815260200160002060000180549050925060008090505b8381101561067f57600260008873ffffffffffffffffffffffffffffffffffffffff1673ffffffffffffffffffffffffffffffffffffffff168152602001908152602001600020600001818154811061060d57fe5b9060005260206000200154925081600260008973ffffffffffffffffffffffffffffffffffffffff1673ffffffffffffffffffffffffffffffffffffffff16815260200190815260200160002060010160008581526020019081526020016000205401915080806001019150506105b8565b5082818161068957fe5b049050828194509450505050915091565b6060600082600081141580156106b1575060038111155b610706576040517f08c379a00000000000000000000000000000000000000000000000000000000081526004018080602001828103825260258152602001806108fb6025913960400191505060405180910390fd5b600260008673ffffffffffffffffffffffffffffffffffffffff1673ffffffffffffffffffffffffffffffffffffffff1681526020019081526020016000206002016000858152602001908152602001600020600260008773ffffffffffffffffffffffffffffffffffffffff1673ffffffffffffffffffffffffffffffffffffffff168152602001908152602001600020600101600086815260200190815260200160002054818054600181600116156101000203166002900480601f0160208091040260200160405190810160405280929190818152602001828054600181600116156101000203166002900480156108425780601f1061081757610100808354040283529160200191610842565b820191906000526020600020905b81548152906001019060200180831161082557829003601f168201915b5050505050915092509250509250929050565b828054600181600116156101000203166002900490600052602060002090601f016020900481019282601f1061089657805160ff19168380011785556108c4565b828001600101855582156108c4579182015b828111156108c35782518255916020019190600101906108a8565b5b5090506108d191906108d5565b5090565b6108f791905b808211156108f35760008160009055506001016108db565b5090565b9056fe436f6c6c6567652049442073686f756c6420626520206265747765656e203120746f20332e53616d6520436f6c6c6567652063616e2774206769766520726174696e6720746f20697473656c662e506c65617365206769766520726174696e67206265747765656e203120746f2031302ea265627a7a72315820a5da0b11e638335f9ea05d79394d7d5775185665dfc0aaf87e82ce57ef93c9c064736f6c63430005110032",
					"opcodes": "PUSH1 0x80 PUSH1 0x40 MSTORE CALLVALUE DUP1 ISZERO PUSH2 0x10 JUMPI PUSH1 0x0 DUP1 REVERT JUMPDEST POP CALLER PUSH1 0x0 DUP1 PUSH2 0x100 EXP DUP2 SLOAD DUP2 PUSH20 0xFFFFFFFFFFFFFFFFFFFFFFFFFFFFFFFFFFFFFFFF MUL NOT AND SWAP1 DUP4 PUSH20 0xFFFFFFFFFFFFFFFFFFFFFFFFFFFFFFFFFFFFFFFF AND MUL OR SWAP1 SSTORE POP PUSH2 0x9A0 DUP1 PUSH2 0x60 PUSH1 0x0 CODECOPY PUSH1 0x0 RETURN INVALID PUSH1 0x80 PUSH1 0x40 MSTORE CALLVALUE DUP1 ISZERO PUSH2 0x10 JUMPI PUSH1 0x0 DUP1 REVERT JUMPDEST POP PUSH1 0x4 CALLDATASIZE LT PUSH2 0x41 JUMPI PUSH1 0x0 CALLDATALOAD PUSH1 0xE0 SHR DUP1 PUSH4 0x24165140 EQ PUSH2 0x46 JUMPI DUP1 PUSH4 0x2936BDB3 EQ PUSH2 0x135 JUMPI DUP1 PUSH4 0xD6A6BACF EQ PUSH2 0x194 JUMPI JUMPDEST PUSH1 0x0 DUP1 REVERT JUMPDEST PUSH2 0x133 PUSH1 0x4 DUP1 CALLDATASIZE SUB PUSH1 0x80 DUP2 LT ISZERO PUSH2 0x5C JUMPI PUSH1 0x0 DUP1 REVERT JUMPDEST DUP2 ADD SWAP1 DUP1 DUP1 CALLDATALOAD PUSH20 0xFFFFFFFFFFFFFFFFFFFFFFFFFFFFFFFFFFFFFFFF AND SWAP1 PUSH1 0x20 ADD SWAP1 SWAP3 SWAP2 SWAP1 DUP1 CALLDATALOAD SWAP1 PUSH1 0x20 ADD SWAP1 SWAP3 SWAP2 SWAP1 DUP1 CALLDATALOAD SWAP1 PUSH1 0x20 ADD SWAP1 PUSH5 0x100000000 DUP2 GT ISZERO PUSH2 0xA3 JUMPI PUSH1 0x0 DUP1 REVERT JUMPDEST DUP3 ADD DUP4 PUSH1 0x20 DUP3 ADD GT ISZERO PUSH2 0xB5 JUMPI PUSH1 0x0 DUP1 REVERT JUMPDEST DUP1 CALLDATALOAD SWAP1 PUSH1 0x20 ADD SWAP2 DUP5 PUSH1 0x1 DUP4 MUL DUP5 ADD GT PUSH5 0x100000000 DUP4 GT OR ISZERO PUSH2 0xD7 JUMPI PUSH1 0x0 DUP1 REVERT JUMPDEST SWAP2 SWAP1 DUP1 DUP1 PUSH1 0x1F ADD PUSH1 0x20 DUP1 SWAP2 DIV MUL PUSH1 0x20 ADD PUSH1 0x40 MLOAD SWAP1 DUP2 ADD PUSH1 0x40 MSTORE DUP1 SWAP4 SWAP3 SWAP2 SWAP1 DUP2 DUP2 MSTORE PUSH1 0x20 ADD DUP4 DUP4 DUP1 DUP3 DUP5 CALLDATACOPY PUSH1 0x0 DUP2 DUP5 ADD MSTORE PUSH1 0x1F NOT PUSH1 0x1F DUP3 ADD AND SWAP1 POP DUP1 DUP4 ADD SWAP3 POP POP POP POP POP POP POP SWAP2 SWAP3 SWAP2 SWAP3 SWAP1 DUP1 CALLDATALOAD SWAP1 PUSH1 0x20 ADD SWAP1 SWAP3 SWAP2 SWAP1 POP POP POP PUSH2 0x262 JUMP JUMPDEST STOP JUMPDEST PUSH2 0x177 PUSH1 0x4 DUP1 CALLDATASIZE SUB PUSH1 0x20 DUP2 LT ISZERO PUSH2 0x14B JUMPI PUSH1 0x0 DUP1 REVERT JUMPDEST DUP2 ADD SWAP1 DUP1 DUP1 CALLDATALOAD PUSH20 0xFFFFFFFFFFFFFFFFFFFFFFFFFFFFFFFFFFFFFFFF AND SWAP1 PUSH1 0x20 ADD SWAP1 SWAP3 SWAP2 SWAP1 POP POP POP PUSH2 0x55F JUMP JUMPDEST PUSH1 0x40 MLOAD DUP1 DUP4 DUP2 MSTORE PUSH1 0x20 ADD DUP3 DUP2 MSTORE PUSH1 0x20 ADD SWAP3 POP POP POP PUSH1 0x40 MLOAD DUP1 SWAP2 SUB SWAP1 RETURN JUMPDEST PUSH2 0x1E0 PUSH1 0x4 DUP1 CALLDATASIZE SUB PUSH1 0x40 DUP2 LT ISZERO PUSH2 0x1AA JUMPI PUSH1 0x0 DUP1 REVERT JUMPDEST DUP2 ADD SWAP1 DUP1 DUP1 CALLDATALOAD PUSH20 0xFFFFFFFFFFFFFFFFFFFFFFFFFFFFFFFFFFFFFFFF AND SWAP1 PUSH1 0x20 ADD SWAP1 SWAP3 SWAP2 SWAP1 DUP1 CALLDATALOAD SWAP1 PUSH1 0x20 ADD SWAP1 SWAP3 SWAP2 SWAP1 POP POP POP PUSH2 0x69A JUMP JUMPDEST PUSH1 0x40 MLOAD DUP1 DUP1 PUSH1 0x20 ADD DUP4 DUP2 MSTORE PUSH1 0x20 ADD DUP3 DUP2 SUB DUP3 MSTORE DUP5 DUP2 DUP2 MLOAD DUP2 MSTORE PUSH1 0x20 ADD SWAP2 POP DUP1 MLOAD SWAP1 PUSH1 0x20 ADD SWAP1 DUP1 DUP4 DUP4 PUSH1 0x0 JUMPDEST DUP4 DUP2 LT ISZERO PUSH2 0x226 JUMPI DUP1 DUP3 ADD MLOAD DUP2 DUP5 ADD MSTORE PUSH1 0x20 DUP2 ADD SWAP1 POP PUSH2 0x20B JUMP JUMPDEST POP POP POP POP SWAP1 POP SWAP1 DUP2 ADD SWAP1 PUSH1 0x1F AND DUP1 ISZERO PUSH2 0x253 JUMPI DUP1 DUP3 SUB DUP1 MLOAD PUSH1 0x1 DUP4 PUSH1 0x20 SUB PUSH2 0x100 EXP SUB NOT AND DUP2 MSTORE PUSH1 0x20 ADD SWAP2 POP JUMPDEST POP SWAP4 POP POP POP POP PUSH1 0x40 MLOAD DUP1 SWAP2 SUB SWAP1 RETURN JUMPDEST DUP4 CALLER PUSH20 0xFFFFFFFFFFFFFFFFFFFFFFFFFFFFFFFFFFFFFFFF AND DUP2 PUSH20 0xFFFFFFFFFFFFFFFFFFFFFFFFFFFFFFFFFFFFFFFF AND EQ ISZERO PUSH2 0x2E8 JUMPI PUSH1 0x40 MLOAD PUSH32 0x8C379A000000000000000000000000000000000000000000000000000000000 DUP2 MSTORE PUSH1 0x4 ADD DUP1 DUP1 PUSH1 0x20 ADD DUP3 DUP2 SUB DUP3 MSTORE PUSH1 0x29 DUP2 MSTORE PUSH1 0x20 ADD DUP1 PUSH2 0x920 PUSH1 0x29 SWAP2 CODECOPY PUSH1 0x40 ADD SWAP2 POP POP PUSH1 0x40 MLOAD DUP1 SWAP2 SUB SWAP1 REVERT JUMPDEST DUP4 PUSH1 0x0 DUP2 EQ ISZERO DUP1 ISZERO PUSH2 0x2FB JUMPI POP PUSH1 0x3 DUP2 GT ISZERO JUMPDEST PUSH2 0x350 JUMPI PUSH1 0x40 MLOAD PUSH32 0x8C379A000000000000000000000000000000000000000000000000000000000 DUP2 MSTORE PUSH1 0x4 ADD DUP1 DUP1 PUSH1 0x20 ADD DUP3 DUP2 SUB DUP3 MSTORE PUSH1 0x25 DUP2 MSTORE PUSH1 0x20 ADD DUP1 PUSH2 0x8FB PUSH1 0x25 SWAP2 CODECOPY PUSH1 0x40 ADD SWAP2 POP POP PUSH1 0x40 MLOAD DUP1 SWAP2 SUB SWAP1 REVERT JUMPDEST DUP3 PUSH1 0x0 DUP2 GT DUP1 ISZERO PUSH2 0x362 JUMPI POP PUSH1 0xA DUP2 GT ISZERO JUMPDEST PUSH2 0x3B7 JUMPI PUSH1 0x40 MLOAD PUSH32 0x8C379A000000000000000000000000000000000000000000000000000000000 DUP2 MSTORE PUSH1 0x4 ADD DUP1 DUP1 PUSH1 0x20 ADD DUP3 DUP2 SUB DUP3 MSTORE PUSH1 0x23 DUP2 MSTORE PUSH1 0x20 ADD DUP1 PUSH2 0x949 PUSH1 0x23 SWAP2 CODECOPY PUSH1 0x40 ADD SWAP2 POP POP PUSH1 0x40 MLOAD DUP1 SWAP2 SUB SWAP1 REVERT JUMPDEST PUSH1 0x2 PUSH1 0x0 DUP9 PUSH20 0xFFFFFFFFFFFFFFFFFFFFFFFFFFFFFFFFFFFFFFFF AND PUSH20 0xFFFFFFFFFFFFFFFFFFFFFFFFFFFFFFFFFFFFFFFF AND DUP2 MSTORE PUSH1 0x20 ADD SWAP1 DUP2 MSTORE PUSH1 0x20 ADD PUSH1 0x0 KECCAK256 PUSH1 0x0 ADD DUP7 SWAP1 DUP1 PUSH1 0x1 DUP2 SLOAD ADD DUP1 DUP3 SSTORE DUP1 SWAP2 POP POP SWAP1 PUSH1 0x1 DUP3 SUB SWAP1 PUSH1 0x0 MSTORE PUSH1 0x20 PUSH1 0x0 KECCAK256 ADD PUSH1 0x0 SWAP1 SWAP2 SWAP3 SWAP1 SWAP2 SWAP1 SWAP2 POP SSTORE POP DUP4 PUSH1 0x2 PUSH1 0x0 DUP10 PUSH20 0xFFFFFFFFFFFFFFFFFFFFFFFFFFFFFFFFFFFFFFFF AND PUSH20 0xFFFFFFFFFFFFFFFFFFFFFFFFFFFFFFFFFFFFFFFF AND DUP2 MSTORE PUSH1 0x20 ADD SWAP1 DUP2 MSTORE PUSH1 0x20 ADD PUSH1 0x0 KECCAK256 PUSH1 0x1 ADD PUSH1 0x0 DUP9 DUP2 MSTORE PUSH1 0x20 ADD SWAP1 DUP2 MSTORE PUSH1 0x20 ADD PUSH1 0x0 KECCAK256 DUP2 SWAP1 SSTORE POP DUP5 PUSH1 0x2 PUSH1 0x0 DUP10 PUSH20 0xFFFFFFFFFFFFFFFFFFFFFFFFFFFFFFFFFFFFFFFF AND PUSH20 0xFFFFFFFFFFFFFFFFFFFFFFFFFFFFFFFFFFFFFFFF AND DUP2 MSTORE PUSH1 0x20 ADD SWAP1 DUP2 MSTORE PUSH1 0x20 ADD PUSH1 0x0 KECCAK256 PUSH1 0x2 ADD PUSH1 0x0 DUP9 DUP2 MSTORE PUSH1 0x20 ADD SWAP1 DUP2 MSTORE PUSH1 0x20 ADD PUSH1 0x0 KECCAK256 SWAP1 DUP1 MLOAD SWAP1 PUSH1 0x20 ADD SWAP1 PUSH2 0x4E2 SWAP3 SWAP2 SWAP1 PUSH2 0x855 JUMP JUMPDEST POP PUSH32 0xE479D3BF97F2A940E7C0466A960C725A7794D1243FB60CAE056BEDD68AE7F8A0 DUP8 DUP8 DUP7 PUSH1 0x40 MLOAD DUP1 DUP5 PUSH20 0xFFFFFFFFFFFFFFFFFFFFFFFFFFFFFFFFFFFFFFFF AND PUSH20 0xFFFFFFFFFFFFFFFFFFFFFFFFFFFFFFFFFFFFFFFF AND DUP2 MSTORE PUSH1 0x20 ADD DUP4 DUP2 MSTORE PUSH1 0x20 ADD DUP3 DUP2 MSTORE PUSH1 0x20 ADD SWAP4 POP POP POP POP PUSH1 0x40 MLOAD DUP1 SWAP2 SUB SWAP1 LOG1 POP POP POP POP POP POP POP JUMP JUMPDEST PUSH1 0x0 DUP1 PUSH1 0x0 DUP1 PUSH1 0x0 DUP1 SWAP1 POP PUSH1 0x2 PUSH1 0x0 DUP8 PUSH20 0xFFFFFFFFFFFFFFFFFFFFFFFFFFFFFFFFFFFFFFFF AND PUSH20 0xFFFFFFFFFFFFFFFFFFFFFFFFFFFFFFFFFFFFFFFF AND DUP2 MSTORE PUSH1 0x20 ADD SWAP1 DUP2 MSTORE PUSH1 0x20 ADD PUSH1 0x0 KECCAK256 PUSH1 0x0 ADD DUP1 SLOAD SWAP1 POP SWAP3 POP PUSH1 0x0 DUP1 SWAP1 POP JUMPDEST DUP4 DUP2 LT ISZERO PUSH2 0x67F JUMPI PUSH1 0x2 PUSH1 0x0 DUP9 PUSH20 0xFFFFFFFFFFFFFFFFFFFFFFFFFFFFFFFFFFFFFFFF AND PUSH20 0xFFFFFFFFFFFFFFFFFFFFFFFFFFFFFFFFFFFFFFFF AND DUP2 MSTORE PUSH1 0x20 ADD SWAP1 DUP2 MSTORE PUSH1 0x20 ADD PUSH1 0x0 KECCAK256 PUSH1 0x0 ADD DUP2 DUP2 SLOAD DUP2 LT PUSH2 0x60D JUMPI INVALID JUMPDEST SWAP1 PUSH1 0x0 MSTORE PUSH1 0x20 PUSH1 0x0 KECCAK256 ADD SLOAD SWAP3 POP DUP2 PUSH1 0x2 PUSH1 0x0 DUP10 PUSH20 0xFFFFFFFFFFFFFFFFFFFFFFFFFFFFFFFFFFFFFFFF AND PUSH20 0xFFFFFFFFFFFFFFFFFFFFFFFFFFFFFFFFFFFFFFFF AND DUP2 MSTORE PUSH1 0x20 ADD SWAP1 DUP2 MSTORE PUSH1 0x20 ADD PUSH1 0x0 KECCAK256 PUSH1 0x1 ADD PUSH1 0x0 DUP6 DUP2 MSTORE PUSH1 0x20 ADD SWAP1 DUP2 MSTORE PUSH1 0x20 ADD PUSH1 0x0 KECCAK256 SLOAD ADD SWAP2 POP DUP1 DUP1 PUSH1 0x1 ADD SWAP2 POP POP PUSH2 0x5B8 JUMP JUMPDEST POP DUP3 DUP2 DUP2 PUSH2 0x689 JUMPI INVALID JUMPDEST DIV SWAP1 POP DUP3 DUP2 SWAP5 POP SWAP5 POP POP POP POP SWAP2 POP SWAP2 JUMP JUMPDEST PUSH1 0x60 PUSH1 0x0 DUP3 PUSH1 0x0 DUP2 EQ ISZERO DUP1 ISZERO PUSH2 0x6B1 JUMPI POP PUSH1 0x3 DUP2 GT ISZERO JUMPDEST PUSH2 0x706 JUMPI PUSH1 0x40 MLOAD PUSH32 0x8C379A000000000000000000000000000000000000000000000000000000000 DUP2 MSTORE PUSH1 0x4 ADD DUP1 DUP1 PUSH1 0x20 ADD DUP3 DUP2 SUB DUP3 MSTORE PUSH1 0x25 DUP2 MSTORE PUSH1 0x20 ADD DUP1 PUSH2 0x8FB PUSH1 0x25 SWAP2 CODECOPY PUSH1 0x40 ADD SWAP2 POP POP PUSH1 0x40 MLOAD DUP1 SWAP2 SUB SWAP1 REVERT JUMPDEST PUSH1 0x2 PUSH1 0x0 DUP7 PUSH20 0xFFFFFFFFFFFFFFFFFFFFFFFFFFFFFFFFFFFFFFFF AND PUSH20 0xFFFFFFFFFFFFFFFFFFFFFFFFFFFFFFFFFFFFFFFF AND DUP2 MSTORE PUSH1 0x20 ADD SWAP1 DUP2 MSTORE PUSH1 0x20 ADD PUSH1 0x0 KECCAK256 PUSH1 0x2 ADD PUSH1 0x0 DUP6 DUP2 MSTORE PUSH1 0x20 ADD SWAP1 DUP2 MSTORE PUSH1 0x20 ADD PUSH1 0x0 KECCAK256 PUSH1 0x2 PUSH1 0x0 DUP8 PUSH20 0xFFFFFFFFFFFFFFFFFFFFFFFFFFFFFFFFFFFFFFFF AND PUSH20 0xFFFFFFFFFFFFFFFFFFFFFFFFFFFFFFFFFFFFFFFF AND DUP2 MSTORE PUSH1 0x20 ADD SWAP1 DUP2 MSTORE PUSH1 0x20 ADD PUSH1 0x0 KECCAK256 PUSH1 0x1 ADD PUSH1 0x0 DUP7 DUP2 MSTORE PUSH1 0x20 ADD SWAP1 DUP2 MSTORE PUSH1 0x20 ADD PUSH1 0x0 KECCAK256 SLOAD DUP2 DUP1 SLOAD PUSH1 0x1 DUP2 PUSH1 0x1 AND ISZERO PUSH2 0x100 MUL SUB AND PUSH1 0x2 SWAP1 DIV DUP1 PUSH1 0x1F ADD PUSH1 0x20 DUP1 SWAP2 DIV MUL PUSH1 0x20 ADD PUSH1 0x40 MLOAD SWAP1 DUP2 ADD PUSH1 0x40 MSTORE DUP1 SWAP3 SWAP2 SWAP1 DUP2 DUP2 MSTORE PUSH1 0x20 ADD DUP3 DUP1 SLOAD PUSH1 0x1 DUP2 PUSH1 0x1 AND ISZERO PUSH2 0x100 MUL SUB AND PUSH1 0x2 SWAP1 DIV DUP1 ISZERO PUSH2 0x842 JUMPI DUP1 PUSH1 0x1F LT PUSH2 0x817 JUMPI PUSH2 0x100 DUP1 DUP4 SLOAD DIV MUL DUP4 MSTORE SWAP2 PUSH1 0x20 ADD SWAP2 PUSH2 0x842 JUMP JUMPDEST DUP3 ADD SWAP2 SWAP1 PUSH1 0x0 MSTORE PUSH1 0x20 PUSH1 0x0 KECCAK256 SWAP1 JUMPDEST DUP2 SLOAD DUP2 MSTORE SWAP1 PUSH1 0x1 ADD SWAP1 PUSH1 0x20 ADD DUP1 DUP4 GT PUSH2 0x825 JUMPI DUP3 SWAP1 SUB PUSH1 0x1F AND DUP3 ADD SWAP2 JUMPDEST POP POP POP POP POP SWAP2 POP SWAP3 POP SWAP3 POP POP SWAP3 POP SWAP3 SWAP1 POP JUMP JUMPDEST DUP3 DUP1 SLOAD PUSH1 0x1 DUP2 PUSH1 0x1 AND ISZERO PUSH2 0x100 MUL SUB AND PUSH1 0x2 SWAP1 DIV SWAP1 PUSH1 0x0 MSTORE PUSH1 0x20 PUSH1 0x0 KECCAK256 SWAP1 PUSH1 0x1F ADD PUSH1 0x20 SWAP1 DIV DUP2 ADD SWAP3 DUP3 PUSH1 0x1F LT PUSH2 0x896 JUMPI DUP1 MLOAD PUSH1 0xFF NOT AND DUP4 DUP1 ADD OR DUP6 SSTORE PUSH2 0x8C4 JUMP JUMPDEST DUP3 DUP1 ADD PUSH1 0x1 ADD DUP6 SSTORE DUP3 ISZERO PUSH2 0x8C4 JUMPI SWAP2 DUP3 ADD JUMPDEST DUP3 DUP2 GT ISZERO PUSH2 0x8C3 JUMPI DUP3 MLOAD DUP3 SSTORE SWAP2 PUSH1 0x20 ADD SWAP2 SWAP1 PUSH1 0x1 ADD SWAP1 PUSH2 0x8A8 JUMP JUMPDEST JUMPDEST POP SWAP1 POP PUSH2 0x8D1 SWAP2 SWAP1 PUSH2 0x8D5 JUMP JUMPDEST POP SWAP1 JUMP JUMPDEST PUSH2 0x8F7 SWAP2 SWAP1 JUMPDEST DUP1 DUP3 GT ISZERO PUSH2 0x8F3 JUMPI PUSH1 0x0 DUP2 PUSH1 0x0 SWAP1 SSTORE POP PUSH1 0x1 ADD PUSH2 0x8DB JUMP JUMPDEST POP SWAP1 JUMP JUMPDEST SWAP1 JUMP INVALID NUMBER PUSH16 0x6C6C6567652049442073686F756C6420 PUSH3 0x652020 PUSH3 0x657477 PUSH6 0x656E20312074 PUSH16 0x20332E53616D6520436F6C6C65676520 PUSH4 0x616E2774 KECCAK256 PUSH8 0x6976652072617469 PUSH15 0x6720746F20697473656C662E506C65 PUSH2 0x7365 KECCAK256 PUSH8 0x6976652072617469 PUSH15 0x67206265747765656E203120746F20 BALANCE ADDRESS 0x2E LOG2 PUSH6 0x627A7A723158 KECCAK256 0xA5 0xDA SIGNEXTEND GT 0xE6 CODESIZE CALLER 0x5F SWAP15 LOG0 0x5D PUSH26 0x394D7D5775185665DFC0AAF87E82CE57EF93C9C064736F6C6343 STOP SDIV GT STOP ORIGIN "
				},
				"gasEstimates": {
					"creation": {
						"codeDepositCost": "492800",
						"executionCost": "21390",
						"totalCost": "514190"
					},
					"external": {
						"getCollageRating(address)": "infinite",
						"getDeptRating(address,uint256)": "infinite",
						"setRating(address,uint256,string,uint256)": "infinite"
					}
				},
				"methodIdentifiers": {
					"getCollageRating(address)": "2936bdb3",
					"getDeptRating(address,uint256)": "d6a6bacf",
					"setRating(address,uint256,string,uint256)": "24165140"
				}
			},
			"storageLayout": {
				"storage": [
					{
						"astId": 3,
						"contract": "collegeDepartmentRating.sol:collegeRating",
						"label": "cAdd",
						"offset": 0,
						"slot": "0",
						"type": "t_address"
					},
					{
						"astId": 5,
						"contract": "collegeDepartmentRating.sol:collegeRating",
						"label": "dName",
						"offset": 0,
						"slot": "1",
						"type": "t_string_storage"
					},
					{
						"astId": 23,
						"contract": "collegeDepartmentRating.sol:collegeRating",
						"label": "cRating",
						"offset": 0,
						"slot": "2",
						"type": "t_mapping(t_address,t_struct(ratingStruct)19_storage)"
					}
				],
				"types": {
					"t_address": {
						"encoding": "inplace",
						"label": "address",
						"numberOfBytes": "20"
					},
					"t_array(t_uint256)dyn_storage": {
						"base": "t_uint256",
						"encoding": "dynamic_array",
						"label": "uint256[]",
						"numberOfBytes": "32"
					},
					"t_mapping(t_address,t_struct(ratingStruct)19_storage)": {
						"encoding": "mapping",
						"key": "t_address",
						"label": "mapping(address => struct collegeRating.ratingStruct)",
						"numberOfBytes": "32",
						"value": "t_struct(ratingStruct)19_storage"
					},
					"t_mapping(t_uint256,t_string_storage)": {
						"encoding": "mapping",
						"key": "t_uint256",
						"label": "mapping(uint256 => string)",
						"numberOfBytes": "32",
						"value": "t_string_storage"
					},
					"t_mapping(t_uint256,t_uint256)": {
						"encoding": "mapping",
						"key": "t_uint256",
						"label": "mapping(uint256 => uint256)",
						"numberOfBytes": "32",
						"value": "t_uint256"
					},
					"t_string_storage": {
						"encoding": "bytes",
						"label": "string",
						"numberOfBytes": "32"
					},
					"t_struct(ratingStruct)19_storage": {
						"encoding": "inplace",
						"label": "struct collegeRating.ratingStruct",
						"members": [
							{
								"astId": 8,
								"contract": "collegeDepartmentRating.sol:collegeRating",
								"label": "deptId",
								"offset": 0,
								"slot": "0",
								"type": "t_array(t_uint256)dyn_storage"
							},
							{
								"astId": 12,
								"contract": "collegeDepartmentRating.sol:collegeRating",
								"label": "rating",
								"offset": 0,
								"slot": "1",
								"type": "t_mapping(t_uint256,t_uint256)"
							},
							{
								"astId": 16,
								"contract": "collegeDepartmentRating.sol:collegeRating",
								"label": "dName",
								"offset": 0,
								"slot": "2",
								"type": "t_mapping(t_uint256,t_string_storage)"
							},
							{
								"astId": 18,
								"contract": "collegeDepartmentRating.sol:collegeRating",
								"label": "avgRating",
								"offset": 0,
								"slot": "3",
								"type": "t_uint256"
							}
						],
						"numberOfBytes": "128"
					},
					"t_uint256": {
						"encoding": "inplace",
						"label": "uint256",
						"numberOfBytes": "32"
					}
				}
			},
			"userdoc": {
				"methods": {}
			}
		}
	}
}