{
	"structMap.sol": {
		"studentMarks": {
			"abi": [
				{
					"anonymous": false,
					"inputs": [
						{
							"indexed": false,
							"internalType": "uint256",
							"name": "studentId",
							"type": "uint256"
						},
						{
							"indexed": false,
							"internalType": "uint256",
							"name": "subjectId",
							"type": "uint256"
						},
						{
							"indexed": false,
							"internalType": "uint256",
							"name": "_marks",
							"type": "uint256"
						}
					],
					"name": "eAddStudentSubjectMark",
					"type": "event"
				},
				{
					"anonymous": false,
					"inputs": [
						{
							"indexed": false,
							"internalType": "uint256",
							"name": "studentId",
							"type": "uint256"
						},
						{
							"indexed": false,
							"internalType": "uint256",
							"name": "_tmarks",
							"type": "uint256"
						}
					],
					"name": "etMark",
					"type": "event"
				},
				{
					"constant": true,
					"inputs": [
						{
							"internalType": "uint256",
							"name": "_studentId",
							"type": "uint256"
						},
						{
							"internalType": "uint256",
							"name": "_subjectId",
							"type": "uint256"
						}
					],
					"name": "getStudentMarks",
					"outputs": [
						{
							"internalType": "uint256",
							"name": "",
							"type": "uint256"
						}
					],
					"payable": false,
					"stateMutability": "view",
					"type": "function"
				},
				{
					"constant": false,
					"inputs": [
						{
							"internalType": "uint256",
							"name": "_studentId",
							"type": "uint256"
						}
					],
					"name": "getTotalMarks",
					"outputs": [
						{
							"internalType": "uint256",
							"name": "",
							"type": "uint256"
						}
					],
					"payable": false,
					"stateMutability": "nonpayable",
					"type": "function"
				},
				{
					"constant": false,
					"inputs": [
						{
							"internalType": "uint256",
							"name": "_studentId",
							"type": "uint256"
						},
						{
							"internalType": "uint256",
							"name": "_subjectId",
							"type": "uint256"
						},
						{
							"internalType": "uint256",
							"name": "_marks",
							"type": "uint256"
						}
					],
					"name": "setStudentMarks",
					"outputs": [],
					"payable": false,
					"stateMutability": "nonpayable",
					"type": "function"
				}
			],
			"devdoc": {
				"methods": {}
			},
			"evm": {
				"assembly": "    /* \"structMap.sol\":25:1429  contract studentMarks{... */\n  mstore(0x40, 0x80)\n  callvalue\n    /* \"--CODEGEN--\":8:17   */\n  dup1\n    /* \"--CODEGEN--\":5:7   */\n  iszero\n  tag_1\n  jumpi\n    /* \"--CODEGEN--\":30:31   */\n  0x00\n    /* \"--CODEGEN--\":27:28   */\n  dup1\n    /* \"--CODEGEN--\":20:32   */\n  revert\n    /* \"--CODEGEN--\":5:7   */\ntag_1:\n    /* \"structMap.sol\":25:1429  contract studentMarks{... */\n  pop\n  dataSize(sub_0)\n  dup1\n  dataOffset(sub_0)\n  0x00\n  codecopy\n  0x00\n  return\nstop\n\nsub_0: assembly {\n        /* \"structMap.sol\":25:1429  contract studentMarks{... */\n      mstore(0x40, 0x80)\n      callvalue\n        /* \"--CODEGEN--\":8:17   */\n      dup1\n        /* \"--CODEGEN--\":5:7   */\n      iszero\n      tag_1\n      jumpi\n        /* \"--CODEGEN--\":30:31   */\n      0x00\n        /* \"--CODEGEN--\":27:28   */\n      dup1\n        /* \"--CODEGEN--\":20:32   */\n      revert\n        /* \"--CODEGEN--\":5:7   */\n    tag_1:\n        /* \"structMap.sol\":25:1429  contract studentMarks{... */\n      pop\n      jumpi(tag_2, lt(calldatasize, 0x04))\n      shr(0xe0, calldataload(0x00))\n      dup1\n      0x47c6da5a\n      eq\n      tag_3\n      jumpi\n      dup1\n      0x70f5cf49\n      eq\n      tag_4\n      jumpi\n      dup1\n      0xf093db8b\n      eq\n      tag_5\n      jumpi\n    tag_2:\n      0x00\n      dup1\n      revert\n        /* \"structMap.sol\":431:730  function setStudentMarks(uint _studentId, uint _subjectId, uint _marks) public{... */\n    tag_3:\n      tag_6\n      0x04\n      dup1\n      calldatasize\n      sub\n        /* \"--CODEGEN--\":13:15   */\n      0x60\n        /* \"--CODEGEN--\":8:11   */\n      dup2\n        /* \"--CODEGEN--\":5:16   */\n      lt\n        /* \"--CODEGEN--\":2:4   */\n      iszero\n      tag_7\n      jumpi\n        /* \"--CODEGEN--\":29:30   */\n      0x00\n        /* \"--CODEGEN--\":26:27   */\n      dup1\n        /* \"--CODEGEN--\":19:31   */\n      revert\n        /* \"--CODEGEN--\":2:4   */\n    tag_7:\n        /* \"structMap.sol\":431:730  function setStudentMarks(uint _studentId, uint _subjectId, uint _marks) public{... */\n      dup2\n      add\n      swap1\n      dup1\n      dup1\n      calldataload\n      swap1\n      0x20\n      add\n      swap1\n      swap3\n      swap2\n      swap1\n      dup1\n      calldataload\n      swap1\n      0x20\n      add\n      swap1\n      swap3\n      swap2\n      swap1\n      dup1\n      calldataload\n      swap1\n      0x20\n      add\n      swap1\n      swap3\n      swap2\n      swap1\n      pop\n      pop\n      pop\n      tag_8\n      jump\t// in\n    tag_6:\n      stop\n        /* \"structMap.sol\":956:1424  function getTotalMarks(uint _studentId)public  returns(uint){... */\n    tag_4:\n      tag_9\n      0x04\n      dup1\n      calldatasize\n      sub\n        /* \"--CODEGEN--\":13:15   */\n      0x20\n        /* \"--CODEGEN--\":8:11   */\n      dup2\n        /* \"--CODEGEN--\":5:16   */\n      lt\n        /* \"--CODEGEN--\":2:4   */\n      iszero\n      tag_10\n      jumpi\n        /* \"--CODEGEN--\":29:30   */\n      0x00\n        /* \"--CODEGEN--\":26:27   */\n      dup1\n        /* \"--CODEGEN--\":19:31   */\n      revert\n        /* \"--CODEGEN--\":2:4   */\n    tag_10:\n        /* \"structMap.sol\":956:1424  function getTotalMarks(uint _studentId)public  returns(uint){... */\n      dup2\n      add\n      swap1\n      dup1\n      dup1\n      calldataload\n      swap1\n      0x20\n      add\n      swap1\n      swap3\n      swap2\n      swap1\n      pop\n      pop\n      pop\n      tag_11\n      jump\t// in\n    tag_9:\n      mload(0x40)\n      dup1\n      dup3\n      dup2\n      mstore\n      0x20\n      add\n      swap2\n      pop\n      pop\n      mload(0x40)\n      dup1\n      swap2\n      sub\n      swap1\n      return\n        /* \"structMap.sol\":773:942  function getStudentMarks(uint _studentId , uint _subjectId) public view returns(uint) {... */\n    tag_5:\n      tag_12\n      0x04\n      dup1\n      calldatasize\n      sub\n        /* \"--CODEGEN--\":13:15   */\n      0x40\n        /* \"--CODEGEN--\":8:11   */\n      dup2\n        /* \"--CODEGEN--\":5:16   */\n      lt\n        /* \"--CODEGEN--\":2:4   */\n      iszero\n      tag_13\n      jumpi\n        /* \"--CODEGEN--\":29:30   */\n      0x00\n        /* \"--CODEGEN--\":26:27   */\n      dup1\n        /* \"--CODEGEN--\":19:31   */\n      revert\n        /* \"--CODEGEN--\":2:4   */\n    tag_13:\n        /* \"structMap.sol\":773:942  function getStudentMarks(uint _studentId , uint _subjectId) public view returns(uint) {... */\n      dup2\n      add\n      swap1\n      dup1\n      dup1\n      calldataload\n      swap1\n      0x20\n      add\n      swap1\n      swap3\n      swap2\n      swap1\n      dup1\n      calldataload\n      swap1\n      0x20\n      add\n      swap1\n      swap3\n      swap2\n      swap1\n      pop\n      pop\n      pop\n      tag_14\n      jump\t// in\n    tag_12:\n      mload(0x40)\n      dup1\n      dup3\n      dup2\n      mstore\n      0x20\n      add\n      swap2\n      pop\n      pop\n      mload(0x40)\n      dup1\n      swap2\n      sub\n      swap1\n      return\n        /* \"structMap.sol\":431:730  function setStudentMarks(uint _studentId, uint _subjectId, uint _marks) public{... */\n    tag_8:\n        /* \"structMap.sol\":521:534  studentReport */\n      0x00\n        /* \"structMap.sol\":521:546  studentReport[_studentId] */\n      dup1\n        /* \"structMap.sol\":535:545  _studentId */\n      dup5\n        /* \"structMap.sol\":521:546  studentReport[_studentId] */\n      dup2\n      mstore\n      0x20\n      add\n      swap1\n      dup2\n      mstore\n      0x20\n      add\n      0x00\n      keccak256\n        /* \"structMap.sol\":521:558  studentReport[_studentId].subjectList */\n      0x00\n      add\n        /* \"structMap.sol\":564:574  _subjectId */\n      dup3\n        /* \"structMap.sol\":521:575  studentReport[_studentId].subjectList.push(_subjectId) */\n      swap1\n      dup1\n        /* \"--CODEGEN--\":39:40   */\n      0x01\n        /* \"--CODEGEN--\":33:36   */\n      dup2\n        /* \"--CODEGEN--\":27:37   */\n      sload\n        /* \"--CODEGEN--\":23:41   */\n      add\n        /* \"--CODEGEN--\":57:67   */\n      dup1\n        /* \"--CODEGEN--\":52:55   */\n      dup3\n        /* \"--CODEGEN--\":45:68   */\n      sstore\n        /* \"--CODEGEN--\":79:89   */\n      dup1\n        /* \"--CODEGEN--\":72:89   */\n      swap2\n      pop\n        /* \"--CODEGEN--\":0:93   */\n      pop\n        /* \"structMap.sol\":521:575  studentReport[_studentId].subjectList.push(_subjectId) */\n      swap1\n      0x01\n      dup3\n      sub\n      swap1\n      0x00\n      mstore\n      keccak256(0x00, 0x20)\n      add\n      0x00\n      swap1\n      swap2\n      swap3\n      swap1\n      swap2\n      swap1\n      swap2\n      pop\n      sstore\n      pop\n        /* \"structMap.sol\":640:646  _marks */\n      dup1\n        /* \"structMap.sol\":587:600  studentReport */\n      0x00\n        /* \"structMap.sol\":587:612  studentReport[_studentId] */\n      dup1\n        /* \"structMap.sol\":601:611  _studentId */\n      dup6\n        /* \"structMap.sol\":587:612  studentReport[_studentId] */\n      dup2\n      mstore\n      0x20\n      add\n      swap1\n      dup2\n      mstore\n      0x20\n      add\n      0x00\n      keccak256\n        /* \"structMap.sol\":587:625  studentReport[_studentId].subjectMarks */\n      0x01\n      add\n        /* \"structMap.sol\":587:637  studentReport[_studentId].subjectMarks[_subjectId] */\n      0x00\n        /* \"structMap.sol\":626:636  _subjectId */\n      dup5\n        /* \"structMap.sol\":587:637  studentReport[_studentId].subjectMarks[_subjectId] */\n      dup2\n      mstore\n      0x20\n      add\n      swap1\n      dup2\n      mstore\n      0x20\n      add\n      0x00\n      keccak256\n        /* \"structMap.sol\":587:646  studentReport[_studentId].subjectMarks[_subjectId] = _marks */\n      dup2\n      swap1\n      sstore\n      pop\n        /* \"structMap.sol\":664:718  eAddStudentSubjectMark(_studentId, _subjectId, _marks) */\n      0x8c407f483a885ab7f1806826f49659705f64f0b06ba2b52fb4d17011c2df03c2\n        /* \"structMap.sol\":687:697  _studentId */\n      dup4\n        /* \"structMap.sol\":699:709  _subjectId */\n      dup4\n        /* \"structMap.sol\":711:717  _marks */\n      dup4\n        /* \"structMap.sol\":664:718  eAddStudentSubjectMark(_studentId, _subjectId, _marks) */\n      mload(0x40)\n      dup1\n      dup5\n      dup2\n      mstore\n      0x20\n      add\n      dup4\n      dup2\n      mstore\n      0x20\n      add\n      dup3\n      dup2\n      mstore\n      0x20\n      add\n      swap4\n      pop\n      pop\n      pop\n      pop\n      mload(0x40)\n      dup1\n      swap2\n      sub\n      swap1\n      log1\n        /* \"structMap.sol\":431:730  function setStudentMarks(uint _studentId, uint _subjectId, uint _marks) public{... */\n      pop\n      pop\n      pop\n      jump\t// out\n        /* \"structMap.sol\":956:1424  function getTotalMarks(uint _studentId)public  returns(uint){... */\n    tag_11:\n        /* \"structMap.sol\":1011:1015  uint */\n      0x00\n        /* \"structMap.sol\":1028:1039  uint length */\n      dup1\n        /* \"structMap.sol\":1042:1055  studentReport */\n      0x00\n        /* \"structMap.sol\":1042:1067  studentReport[_studentId] */\n      dup1\n        /* \"structMap.sol\":1056:1066  _studentId */\n      dup5\n        /* \"structMap.sol\":1042:1067  studentReport[_studentId] */\n      dup2\n      mstore\n      0x20\n      add\n      swap1\n      dup2\n      mstore\n      0x20\n      add\n      0x00\n      keccak256\n        /* \"structMap.sol\":1042:1079  studentReport[_studentId].subjectList */\n      0x00\n      add\n        /* \"structMap.sol\":1042:1086  studentReport[_studentId].subjectList.length */\n      dup1\n      sload\n      swap1\n      pop\n        /* \"structMap.sol\":1028:1086  uint length = studentReport[_studentId].subjectList.length */\n      swap1\n      pop\n        /* \"structMap.sol\":1098:1113  uint totalMarks */\n      0x00\n        /* \"structMap.sol\":1116:1117  0 */\n      dup1\n        /* \"structMap.sol\":1098:1117  uint totalMarks = 0 */\n      swap1\n      pop\n        /* \"structMap.sol\":1140:1146  uint i */\n      0x00\n        /* \"structMap.sol\":1149:1150  0 */\n      dup1\n        /* \"structMap.sol\":1140:1150  uint i = 0 */\n      swap1\n      pop\n        /* \"structMap.sol\":1136:1321  for(uint i = 0 ; i < length ; i++ ){... */\n    tag_18:\n        /* \"structMap.sol\":1157:1163  length */\n      dup3\n        /* \"structMap.sol\":1153:1154  i */\n      dup2\n        /* \"structMap.sol\":1153:1163  i < length */\n      lt\n        /* \"structMap.sol\":1136:1321  for(uint i = 0 ; i < length ; i++ ){... */\n      iszero\n      tag_19\n      jumpi\n        /* \"structMap.sol\":1298:1308  totalMarks */\n      dup2\n        /* \"structMap.sol\":1200:1213  studentReport */\n      0x00\n        /* \"structMap.sol\":1200:1225  studentReport[_studentId] */\n      dup1\n        /* \"structMap.sol\":1214:1224  _studentId */\n      dup8\n        /* \"structMap.sol\":1200:1225  studentReport[_studentId] */\n      dup2\n      mstore\n      0x20\n      add\n      swap1\n      dup2\n      mstore\n      0x20\n      add\n      0x00\n      keccak256\n        /* \"structMap.sol\":1200:1238  studentReport[_studentId].subjectMarks */\n      0x01\n      add\n        /* \"structMap.sol\":1200:1280  studentReport[_studentId].subjectMarks[studentReport[_studentId].subjectList[i]] */\n      0x00\n        /* \"structMap.sol\":1239:1252  studentReport */\n      dup1\n        /* \"structMap.sol\":1239:1264  studentReport[_studentId] */\n      0x00\n        /* \"structMap.sol\":1253:1263  _studentId */\n      dup10\n        /* \"structMap.sol\":1239:1264  studentReport[_studentId] */\n      dup2\n      mstore\n      0x20\n      add\n      swap1\n      dup2\n      mstore\n      0x20\n      add\n      0x00\n      keccak256\n        /* \"structMap.sol\":1239:1276  studentReport[_studentId].subjectList */\n      0x00\n      add\n        /* \"structMap.sol\":1277:1278  i */\n      dup5\n        /* \"structMap.sol\":1239:1279  studentReport[_studentId].subjectList[i] */\n      dup2\n      sload\n      dup2\n      lt\n      tag_21\n      jumpi\n      invalid\n    tag_21:\n      swap1\n      0x00\n      mstore\n      keccak256(0x00, 0x20)\n      add\n      sload\n        /* \"structMap.sol\":1200:1280  studentReport[_studentId].subjectMarks[studentReport[_studentId].subjectList[i]] */\n      dup2\n      mstore\n      0x20\n      add\n      swap1\n      dup2\n      mstore\n      0x20\n      add\n      0x00\n      keccak256\n      sload\n        /* \"structMap.sol\":1200:1308  studentReport[_studentId].subjectMarks[studentReport[_studentId].subjectList[i]] ... */\n      add\n        /* \"structMap.sol\":1187:1308  totalMarks = studentReport[_studentId].subjectMarks[studentReport[_studentId].subjectList[i]] ... */\n      swap2\n      pop\n        /* \"structMap.sol\":1166:1169  i++ */\n      dup1\n      dup1\n      0x01\n      add\n      swap2\n      pop\n      pop\n        /* \"structMap.sol\":1136:1321  for(uint i = 0 ; i < length ; i++ ){... */\n      jump(tag_18)\n    tag_19:\n      pop\n        /* \"structMap.sol\":1339:1371  etMark( _studentId,  totalMarks) */\n      0x7479482c97762b51dd07d150c408e0294b1ea875419ac8635399b0c449662470\n        /* \"structMap.sol\":1347:1357  _studentId */\n      dup5\n        /* \"structMap.sol\":1360:1370  totalMarks */\n      dup3\n        /* \"structMap.sol\":1339:1371  etMark( _studentId,  totalMarks) */\n      mload(0x40)\n      dup1\n      dup4\n      dup2\n      mstore\n      0x20\n      add\n      dup3\n      dup2\n      mstore\n      0x20\n      add\n      swap3\n      pop\n      pop\n      pop\n      mload(0x40)\n      dup1\n      swap2\n      sub\n      swap1\n      log1\n        /* \"structMap.sol\":1393:1403  totalMarks */\n      dup1\n        /* \"structMap.sol\":1386:1403  return totalMarks */\n      swap3\n      pop\n      pop\n      pop\n        /* \"structMap.sol\":956:1424  function getTotalMarks(uint _studentId)public  returns(uint){... */\n      swap2\n      swap1\n      pop\n      jump\t// out\n        /* \"structMap.sol\":773:942  function getStudentMarks(uint _studentId , uint _subjectId) public view returns(uint) {... */\n    tag_14:\n        /* \"structMap.sol\":853:857  uint */\n      0x00\n        /* \"structMap.sol\":880:893  studentReport */\n      dup1\n        /* \"structMap.sol\":880:905  studentReport[_studentId] */\n      0x00\n        /* \"structMap.sol\":894:904  _studentId */\n      dup5\n        /* \"structMap.sol\":880:905  studentReport[_studentId] */\n      dup2\n      mstore\n      0x20\n      add\n      swap1\n      dup2\n      mstore\n      0x20\n      add\n      0x00\n      keccak256\n        /* \"structMap.sol\":880:918  studentReport[_studentId].subjectMarks */\n      0x01\n      add\n        /* \"structMap.sol\":880:930  studentReport[_studentId].subjectMarks[_subjectId] */\n      0x00\n        /* \"structMap.sol\":919:929  _subjectId */\n      dup4\n        /* \"structMap.sol\":880:930  studentReport[_studentId].subjectMarks[_subjectId] */\n      dup2\n      mstore\n      0x20\n      add\n      swap1\n      dup2\n      mstore\n      0x20\n      add\n      0x00\n      keccak256\n      sload\n        /* \"structMap.sol\":873:930  return studentReport[_studentId].subjectMarks[_subjectId] */\n      swap1\n      pop\n        /* \"structMap.sol\":773:942  function getStudentMarks(uint _studentId , uint _subjectId) public view returns(uint) {... */\n      swap3\n      swap2\n      pop\n      pop\n      jump\t// out\n\n    auxdata: 0xa265627a7a72315820acaf8f53ae145aeb21681b62f975aa718d0b2dd271ba2233fb663ee0c10a48b964736f6c63430005110032\n}\n",
				"bytecode": {
					"linkReferences": {},
					"object": "608060405234801561001057600080fd5b5061030f806100206000396000f3fe608060405234801561001057600080fd5b50600436106100415760003560e01c806347c6da5a1461004657806370f5cf4914610088578063f093db8b146100ca575b600080fd5b6100866004803603606081101561005c57600080fd5b81019080803590602001909291908035906020019092919080359060200190929190505050610116565b005b6100b46004803603602081101561009e57600080fd5b81019080803590602001909291905050506101cc565b6040518082815260200191505060405180910390f35b610100600480360360408110156100e057600080fd5b8101908080359060200190929190803590602001909291905050506102a9565b6040518082815260200191505060405180910390f35b600080848152602001908152602001600020600001829080600181540180825580915050906001820390600052602060002001600090919290919091505550806000808581526020019081526020016000206001016000848152602001908152602001600020819055507f8c407f483a885ab7f1806826f49659705f64f0b06ba2b52fb4d17011c2df03c283838360405180848152602001838152602001828152602001935050505060405180910390a1505050565b600080600080848152602001908152602001600020600001805490509050600080905060008090505b8281101561025f57816000808781526020019081526020016000206001016000806000898152602001908152602001600020600001848154811061023557fe5b906000526020600020015481526020019081526020016000205401915080806001019150506101f5565b507f7479482c97762b51dd07d150c408e0294b1ea875419ac8635399b0c4496624708482604051808381526020018281526020019250505060405180910390a18092505050919050565b600080600084815260200190815260200160002060010160008381526020019081526020016000205490509291505056fea265627a7a72315820acaf8f53ae145aeb21681b62f975aa718d0b2dd271ba2233fb663ee0c10a48b964736f6c63430005110032",
					"opcodes": "PUSH1 0x80 PUSH1 0x40 MSTORE CALLVALUE DUP1 ISZERO PUSH2 0x10 JUMPI PUSH1 0x0 DUP1 REVERT JUMPDEST POP PUSH2 0x30F DUP1 PUSH2 0x20 PUSH1 0x0 CODECOPY PUSH1 0x0 RETURN INVALID PUSH1 0x80 PUSH1 0x40 MSTORE CALLVALUE DUP1 ISZERO PUSH2 0x10 JUMPI PUSH1 0x0 DUP1 REVERT JUMPDEST POP PUSH1 0x4 CALLDATASIZE LT PUSH2 0x41 JUMPI PUSH1 0x0 CALLDATALOAD PUSH1 0xE0 SHR DUP1 PUSH4 0x47C6DA5A EQ PUSH2 0x46 JUMPI DUP1 PUSH4 0x70F5CF49 EQ PUSH2 0x88 JUMPI DUP1 PUSH4 0xF093DB8B EQ PUSH2 0xCA JUMPI JUMPDEST PUSH1 0x0 DUP1 REVERT JUMPDEST PUSH2 0x86 PUSH1 0x4 DUP1 CALLDATASIZE SUB PUSH1 0x60 DUP2 LT ISZERO PUSH2 0x5C JUMPI PUSH1 0x0 DUP1 REVERT JUMPDEST DUP2 ADD SWAP1 DUP1 DUP1 CALLDATALOAD SWAP1 PUSH1 0x20 ADD SWAP1 SWAP3 SWAP2 SWAP1 DUP1 CALLDATALOAD SWAP1 PUSH1 0x20 ADD SWAP1 SWAP3 SWAP2 SWAP1 DUP1 CALLDATALOAD SWAP1 PUSH1 0x20 ADD SWAP1 SWAP3 SWAP2 SWAP1 POP POP POP PUSH2 0x116 JUMP JUMPDEST STOP JUMPDEST PUSH2 0xB4 PUSH1 0x4 DUP1 CALLDATASIZE SUB PUSH1 0x20 DUP2 LT ISZERO PUSH2 0x9E JUMPI PUSH1 0x0 DUP1 REVERT JUMPDEST DUP2 ADD SWAP1 DUP1 DUP1 CALLDATALOAD SWAP1 PUSH1 0x20 ADD SWAP1 SWAP3 SWAP2 SWAP1 POP POP POP PUSH2 0x1CC JUMP JUMPDEST PUSH1 0x40 MLOAD DUP1 DUP3 DUP2 MSTORE PUSH1 0x20 ADD SWAP2 POP POP PUSH1 0x40 MLOAD DUP1 SWAP2 SUB SWAP1 RETURN JUMPDEST PUSH2 0x100 PUSH1 0x4 DUP1 CALLDATASIZE SUB PUSH1 0x40 DUP2 LT ISZERO PUSH2 0xE0 JUMPI PUSH1 0x0 DUP1 REVERT JUMPDEST DUP2 ADD SWAP1 DUP1 DUP1 CALLDATALOAD SWAP1 PUSH1 0x20 ADD SWAP1 SWAP3 SWAP2 SWAP1 DUP1 CALLDATALOAD SWAP1 PUSH1 0x20 ADD SWAP1 SWAP3 SWAP2 SWAP1 POP POP POP PUSH2 0x2A9 JUMP JUMPDEST PUSH1 0x40 MLOAD DUP1 DUP3 DUP2 MSTORE PUSH1 0x20 ADD SWAP2 POP POP PUSH1 0x40 MLOAD DUP1 SWAP2 SUB SWAP1 RETURN JUMPDEST PUSH1 0x0 DUP1 DUP5 DUP2 MSTORE PUSH1 0x20 ADD SWAP1 DUP2 MSTORE PUSH1 0x20 ADD PUSH1 0x0 KECCAK256 PUSH1 0x0 ADD DUP3 SWAP1 DUP1 PUSH1 0x1 DUP2 SLOAD ADD DUP1 DUP3 SSTORE DUP1 SWAP2 POP POP SWAP1 PUSH1 0x1 DUP3 SUB SWAP1 PUSH1 0x0 MSTORE PUSH1 0x20 PUSH1 0x0 KECCAK256 ADD PUSH1 0x0 SWAP1 SWAP2 SWAP3 SWAP1 SWAP2 SWAP1 SWAP2 POP SSTORE POP DUP1 PUSH1 0x0 DUP1 DUP6 DUP2 MSTORE PUSH1 0x20 ADD SWAP1 DUP2 MSTORE PUSH1 0x20 ADD PUSH1 0x0 KECCAK256 PUSH1 0x1 ADD PUSH1 0x0 DUP5 DUP2 MSTORE PUSH1 0x20 ADD SWAP1 DUP2 MSTORE PUSH1 0x20 ADD PUSH1 0x0 KECCAK256 DUP2 SWAP1 SSTORE POP PUSH32 0x8C407F483A885AB7F1806826F49659705F64F0B06BA2B52FB4D17011C2DF03C2 DUP4 DUP4 DUP4 PUSH1 0x40 MLOAD DUP1 DUP5 DUP2 MSTORE PUSH1 0x20 ADD DUP4 DUP2 MSTORE PUSH1 0x20 ADD DUP3 DUP2 MSTORE PUSH1 0x20 ADD SWAP4 POP POP POP POP PUSH1 0x40 MLOAD DUP1 SWAP2 SUB SWAP1 LOG1 POP POP POP JUMP JUMPDEST PUSH1 0x0 DUP1 PUSH1 0x0 DUP1 DUP5 DUP2 MSTORE PUSH1 0x20 ADD SWAP1 DUP2 MSTORE PUSH1 0x20 ADD PUSH1 0x0 KECCAK256 PUSH1 0x0 ADD DUP1 SLOAD SWAP1 POP SWAP1 POP PUSH1 0x0 DUP1 SWAP1 POP PUSH1 0x0 DUP1 SWAP1 POP JUMPDEST DUP3 DUP2 LT ISZERO PUSH2 0x25F JUMPI DUP2 PUSH1 0x0 DUP1 DUP8 DUP2 MSTORE PUSH1 0x20 ADD SWAP1 DUP2 MSTORE PUSH1 0x20 ADD PUSH1 0x0 KECCAK256 PUSH1 0x1 ADD PUSH1 0x0 DUP1 PUSH1 0x0 DUP10 DUP2 MSTORE PUSH1 0x20 ADD SWAP1 DUP2 MSTORE PUSH1 0x20 ADD PUSH1 0x0 KECCAK256 PUSH1 0x0 ADD DUP5 DUP2 SLOAD DUP2 LT PUSH2 0x235 JUMPI INVALID JUMPDEST SWAP1 PUSH1 0x0 MSTORE PUSH1 0x20 PUSH1 0x0 KECCAK256 ADD SLOAD DUP2 MSTORE PUSH1 0x20 ADD SWAP1 DUP2 MSTORE PUSH1 0x20 ADD PUSH1 0x0 KECCAK256 SLOAD ADD SWAP2 POP DUP1 DUP1 PUSH1 0x1 ADD SWAP2 POP POP PUSH2 0x1F5 JUMP JUMPDEST POP PUSH32 0x7479482C97762B51DD07D150C408E0294B1EA875419AC8635399B0C449662470 DUP5 DUP3 PUSH1 0x40 MLOAD DUP1 DUP4 DUP2 MSTORE PUSH1 0x20 ADD DUP3 DUP2 MSTORE PUSH1 0x20 ADD SWAP3 POP POP POP PUSH1 0x40 MLOAD DUP1 SWAP2 SUB SWAP1 LOG1 DUP1 SWAP3 POP POP POP SWAP2 SWAP1 POP JUMP JUMPDEST PUSH1 0x0 DUP1 PUSH1 0x0 DUP5 DUP2 MSTORE PUSH1 0x20 ADD SWAP1 DUP2 MSTORE PUSH1 0x20 ADD PUSH1 0x0 KECCAK256 PUSH1 0x1 ADD PUSH1 0x0 DUP4 DUP2 MSTORE PUSH1 0x20 ADD SWAP1 DUP2 MSTORE PUSH1 0x20 ADD PUSH1 0x0 KECCAK256 SLOAD SWAP1 POP SWAP3 SWAP2 POP POP JUMP INVALID LOG2 PUSH6 0x627A7A723158 KECCAK256 0xAC 0xAF DUP16 MSTORE8 0xAE EQ GAS 0xEB 0x21 PUSH9 0x1B62F975AA718D0B2D 0xD2 PUSH18 0xBA2233FB663EE0C10A48B964736F6C634300 SDIV GT STOP ORIGIN "
				},
				"gasEstimates": {
					"creation": {
						"codeDepositCost": "156600",
						"executionCost": "202",
						"totalCost": "156802"
					},
					"external": {
						"getStudentMarks(uint256,uint256)": "1313",
						"getTotalMarks(uint256)": "infinite",
						"setStudentMarks(uint256,uint256,uint256)": "63080"
					}
				},
				"methodIdentifiers": {
					"getStudentMarks(uint256,uint256)": "f093db8b",
					"getTotalMarks(uint256)": "70f5cf49",
					"setStudentMarks(uint256,uint256,uint256)": "47c6da5a"
				}
			},
			"storageLayout": {
				"storage": [
					{
						"astId": 13,
						"contract": "structMap.sol:studentMarks",
						"label": "studentReport",
						"offset": 0,
						"slot": "0",
						"type": "t_mapping(t_uint256,t_struct(studentMarksStructure)9_storage)"
					}
				],
				"types": {
					"t_array(t_uint256)dyn_storage": {
						"base": "t_uint256",
						"encoding": "dynamic_array",
						"label": "uint256[]",
						"numberOfBytes": "32"
					},
					"t_mapping(t_uint256,t_struct(studentMarksStructure)9_storage)": {
						"encoding": "mapping",
						"key": "t_uint256",
						"label": "mapping(uint256 => struct studentMarks.studentMarksStructure)",
						"numberOfBytes": "32",
						"value": "t_struct(studentMarksStructure)9_storage"
					},
					"t_mapping(t_uint256,t_uint256)": {
						"encoding": "mapping",
						"key": "t_uint256",
						"label": "mapping(uint256 => uint256)",
						"numberOfBytes": "32",
						"value": "t_uint256"
					},
					"t_struct(studentMarksStructure)9_storage": {
						"encoding": "inplace",
						"label": "struct studentMarks.studentMarksStructure",
						"members": [
							{
								"astId": 4,
								"contract": "structMap.sol:studentMarks",
								"label": "subjectList",
								"offset": 0,
								"slot": "0",
								"type": "t_array(t_uint256)dyn_storage"
							},
							{
								"astId": 8,
								"contract": "structMap.sol:studentMarks",
								"label": "subjectMarks",
								"offset": 0,
								"slot": "1",
								"type": "t_mapping(t_uint256,t_uint256)"
							}
						],
						"numberOfBytes": "64"
					},
					"t_uint256": {
						"encoding": "inplace",
						"label": "uint256",
						"numberOfBytes": "32"
					}
				}
			},
			"userdoc": {
				"methods": {}
			}
		}
	}
}