{
	"collegeDepartmentRating.sol": {
		"collegeRating": {
			"abi": [
				{
					"anonymous": false,
					"inputs": [
						{
							"indexed": false,
							"internalType": "address",
							"name": "ca",
							"type": "address"
						},
						{
							"indexed": false,
							"internalType": "uint256",
							"name": "dId",
							"type": "uint256"
						},
						{
							"indexed": false,
							"internalType": "uint256",
							"name": "_rating",
							"type": "uint256"
						}
					],
					"name": "enterRating",
					"type": "event"
				},
				{
					"constant": true,
					"inputs": [
						{
							"internalType": "address",
							"name": "_collegeId",
							"type": "address"
						},
						{
							"internalType": "uint256",
							"name": "_deptId",
							"type": "uint256"
						}
					],
					"name": "getRating",
					"outputs": [
						{
							"internalType": "uint256",
							"name": "",
							"type": "uint256"
						}
					],
					"payable": false,
					"stateMutability": "view",
					"type": "function"
				},
				{
					"constant": false,
					"inputs": [
						{
							"internalType": "address",
							"name": "_collegeId",
							"type": "address"
						},
						{
							"internalType": "uint256",
							"name": "_deptId",
							"type": "uint256"
						},
						{
							"internalType": "uint256",
							"name": "_rating",
							"type": "uint256"
						}
					],
					"name": "setRating",
					"outputs": [],
					"payable": false,
					"stateMutability": "nonpayable",
					"type": "function"
				}
			],
			"devdoc": {
				"methods": {}
			},
			"evm": {
				"assembly": "    /* \"collegeDepartmentRating.sol\":25:746  contract collegeRating{... */\n  mstore(0x40, 0x80)\n  callvalue\n    /* \"--CODEGEN--\":8:17   */\n  dup1\n    /* \"--CODEGEN--\":5:7   */\n  iszero\n  tag_1\n  jumpi\n    /* \"--CODEGEN--\":30:31   */\n  0x00\n    /* \"--CODEGEN--\":27:28   */\n  dup1\n    /* \"--CODEGEN--\":20:32   */\n  revert\n    /* \"--CODEGEN--\":5:7   */\ntag_1:\n    /* \"collegeDepartmentRating.sol\":25:746  contract collegeRating{... */\n  pop\n  dataSize(sub_0)\n  dup1\n  dataOffset(sub_0)\n  0x00\n  codecopy\n  0x00\n  return\nstop\n\nsub_0: assembly {\n        /* \"collegeDepartmentRating.sol\":25:746  contract collegeRating{... */\n      mstore(0x40, 0x80)\n      callvalue\n        /* \"--CODEGEN--\":8:17   */\n      dup1\n        /* \"--CODEGEN--\":5:7   */\n      iszero\n      tag_1\n      jumpi\n        /* \"--CODEGEN--\":30:31   */\n      0x00\n        /* \"--CODEGEN--\":27:28   */\n      dup1\n        /* \"--CODEGEN--\":20:32   */\n      revert\n        /* \"--CODEGEN--\":5:7   */\n    tag_1:\n        /* \"collegeDepartmentRating.sol\":25:746  contract collegeRating{... */\n      pop\n      jumpi(tag_2, lt(calldatasize, 0x04))\n      shr(0xe0, calldataload(0x00))\n      dup1\n      0x3dbeacbf\n      eq\n      tag_3\n      jumpi\n      dup1\n      0x868c2b91\n      eq\n      tag_4\n      jumpi\n    tag_2:\n      0x00\n      dup1\n      revert\n        /* \"collegeDepartmentRating.sol\":595:743  function getRating(address _collegeId, uint _deptId)... */\n    tag_3:\n      tag_5\n      0x04\n      dup1\n      calldatasize\n      sub\n        /* \"--CODEGEN--\":13:15   */\n      0x40\n        /* \"--CODEGEN--\":8:11   */\n      dup2\n        /* \"--CODEGEN--\":5:16   */\n      lt\n        /* \"--CODEGEN--\":2:4   */\n      iszero\n      tag_6\n      jumpi\n        /* \"--CODEGEN--\":29:30   */\n      0x00\n        /* \"--CODEGEN--\":26:27   */\n      dup1\n        /* \"--CODEGEN--\":19:31   */\n      revert\n        /* \"--CODEGEN--\":2:4   */\n    tag_6:\n        /* \"collegeDepartmentRating.sol\":595:743  function getRating(address _collegeId, uint _deptId)... */\n      dup2\n      add\n      swap1\n      dup1\n      dup1\n      calldataload\n      0xffffffffffffffffffffffffffffffffffffffff\n      and\n      swap1\n      0x20\n      add\n      swap1\n      swap3\n      swap2\n      swap1\n      dup1\n      calldataload\n      swap1\n      0x20\n      add\n      swap1\n      swap3\n      swap2\n      swap1\n      pop\n      pop\n      pop\n      tag_7\n      jump\t// in\n    tag_5:\n      mload(0x40)\n      dup1\n      dup3\n      dup2\n      mstore\n      0x20\n      add\n      swap2\n      pop\n      pop\n      mload(0x40)\n      dup1\n      swap2\n      sub\n      swap1\n      return\n        /* \"collegeDepartmentRating.sol\":327:588  function setRating(address _collegeId, uint _deptId, uint _rating)... */\n    tag_4:\n      tag_8\n      0x04\n      dup1\n      calldatasize\n      sub\n        /* \"--CODEGEN--\":13:15   */\n      0x60\n        /* \"--CODEGEN--\":8:11   */\n      dup2\n        /* \"--CODEGEN--\":5:16   */\n      lt\n        /* \"--CODEGEN--\":2:4   */\n      iszero\n      tag_9\n      jumpi\n        /* \"--CODEGEN--\":29:30   */\n      0x00\n        /* \"--CODEGEN--\":26:27   */\n      dup1\n        /* \"--CODEGEN--\":19:31   */\n      revert\n        /* \"--CODEGEN--\":2:4   */\n    tag_9:\n        /* \"collegeDepartmentRating.sol\":327:588  function setRating(address _collegeId, uint _deptId, uint _rating)... */\n      dup2\n      add\n      swap1\n      dup1\n      dup1\n      calldataload\n      0xffffffffffffffffffffffffffffffffffffffff\n      and\n      swap1\n      0x20\n      add\n      swap1\n      swap3\n      swap2\n      swap1\n      dup1\n      calldataload\n      swap1\n      0x20\n      add\n      swap1\n      swap3\n      swap2\n      swap1\n      dup1\n      calldataload\n      swap1\n      0x20\n      add\n      swap1\n      swap3\n      swap2\n      swap1\n      pop\n      pop\n      pop\n      tag_10\n      jump\t// in\n    tag_8:\n      stop\n        /* \"collegeDepartmentRating.sol\":595:743  function getRating(address _collegeId, uint _deptId)... */\n    tag_7:\n        /* \"collegeDepartmentRating.sol\":673:677  uint */\n      0x00\n        /* \"collegeDepartmentRating.sol\":692:705  collageRating */\n      dup1\n        /* \"collegeDepartmentRating.sol\":692:717  collageRating[_collegeId] */\n      0x00\n        /* \"collegeDepartmentRating.sol\":706:716  _collegeId */\n      dup5\n        /* \"collegeDepartmentRating.sol\":692:717  collageRating[_collegeId] */\n      0xffffffffffffffffffffffffffffffffffffffff\n      and\n      0xffffffffffffffffffffffffffffffffffffffff\n      and\n      dup2\n      mstore\n      0x20\n      add\n      swap1\n      dup2\n      mstore\n      0x20\n      add\n      0x00\n      keccak256\n        /* \"collegeDepartmentRating.sol\":692:724  collageRating[_collegeId].rating */\n      0x01\n      add\n        /* \"collegeDepartmentRating.sol\":692:733  collageRating[_collegeId].rating[_deptId] */\n      0x00\n        /* \"collegeDepartmentRating.sol\":725:732  _deptId */\n      dup4\n        /* \"collegeDepartmentRating.sol\":692:733  collageRating[_collegeId].rating[_deptId] */\n      dup2\n      mstore\n      0x20\n      add\n      swap1\n      dup2\n      mstore\n      0x20\n      add\n      0x00\n      keccak256\n      sload\n        /* \"collegeDepartmentRating.sol\":685:733  return collageRating[_collegeId].rating[_deptId] */\n      swap1\n      pop\n        /* \"collegeDepartmentRating.sol\":595:743  function getRating(address _collegeId, uint _deptId)... */\n      swap3\n      swap2\n      pop\n      pop\n      jump\t// out\n        /* \"collegeDepartmentRating.sol\":327:588  function setRating(address _collegeId, uint _deptId, uint _rating)... */\n    tag_10:\n        /* \"collegeDepartmentRating.sol\":416:429  collageRating */\n      0x00\n        /* \"collegeDepartmentRating.sol\":416:441  collageRating[_collegeId] */\n      dup1\n        /* \"collegeDepartmentRating.sol\":430:440  _collegeId */\n      dup5\n        /* \"collegeDepartmentRating.sol\":416:441  collageRating[_collegeId] */\n      0xffffffffffffffffffffffffffffffffffffffff\n      and\n      0xffffffffffffffffffffffffffffffffffffffff\n      and\n      dup2\n      mstore\n      0x20\n      add\n      swap1\n      dup2\n      mstore\n      0x20\n      add\n      0x00\n      keccak256\n        /* \"collegeDepartmentRating.sol\":416:448  collageRating[_collegeId].deptId */\n      0x00\n      add\n        /* \"collegeDepartmentRating.sol\":454:461  _deptId */\n      dup3\n        /* \"collegeDepartmentRating.sol\":416:462  collageRating[_collegeId].deptId.push(_deptId) */\n      swap1\n      dup1\n        /* \"--CODEGEN--\":39:40   */\n      0x01\n        /* \"--CODEGEN--\":33:36   */\n      dup2\n        /* \"--CODEGEN--\":27:37   */\n      sload\n        /* \"--CODEGEN--\":23:41   */\n      add\n        /* \"--CODEGEN--\":57:67   */\n      dup1\n        /* \"--CODEGEN--\":52:55   */\n      dup3\n        /* \"--CODEGEN--\":45:68   */\n      sstore\n        /* \"--CODEGEN--\":79:89   */\n      dup1\n        /* \"--CODEGEN--\":72:89   */\n      swap2\n      pop\n        /* \"--CODEGEN--\":0:93   */\n      pop\n        /* \"collegeDepartmentRating.sol\":416:462  collageRating[_collegeId].deptId.push(_deptId) */\n      swap1\n      0x01\n      dup3\n      sub\n      swap1\n      0x00\n      mstore\n      keccak256(0x00, 0x20)\n      add\n      0x00\n      swap1\n      swap2\n      swap3\n      swap1\n      swap2\n      swap1\n      swap2\n      pop\n      sstore\n      pop\n        /* \"collegeDepartmentRating.sol\":515:522  _rating */\n      dup1\n        /* \"collegeDepartmentRating.sol\":471:484  collageRating */\n      0x00\n        /* \"collegeDepartmentRating.sol\":471:496  collageRating[_collegeId] */\n      dup1\n        /* \"collegeDepartmentRating.sol\":485:495  _collegeId */\n      dup6\n        /* \"collegeDepartmentRating.sol\":471:496  collageRating[_collegeId] */\n      0xffffffffffffffffffffffffffffffffffffffff\n      and\n      0xffffffffffffffffffffffffffffffffffffffff\n      and\n      dup2\n      mstore\n      0x20\n      add\n      swap1\n      dup2\n      mstore\n      0x20\n      add\n      0x00\n      keccak256\n        /* \"collegeDepartmentRating.sol\":471:503  collageRating[_collegeId].rating */\n      0x01\n      add\n        /* \"collegeDepartmentRating.sol\":471:512  collageRating[_collegeId].rating[_deptId] */\n      0x00\n        /* \"collegeDepartmentRating.sol\":504:511  _deptId */\n      dup5\n        /* \"collegeDepartmentRating.sol\":471:512  collageRating[_collegeId].rating[_deptId] */\n      dup2\n      mstore\n      0x20\n      add\n      swap1\n      dup2\n      mstore\n      0x20\n      add\n      0x00\n      keccak256\n        /* \"collegeDepartmentRating.sol\":471:522  collageRating[_collegeId].rating[_deptId] = _rating */\n      dup2\n      swap1\n      sstore\n      pop\n        /* \"collegeDepartmentRating.sol\":537:579  enterRating(_collegeId, _deptId, _rating ) */\n      0xe479d3bf97f2a940e7c0466a960c725a7794d1243fb60cae056bedd68ae7f8a0\n        /* \"collegeDepartmentRating.sol\":549:559  _collegeId */\n      dup4\n        /* \"collegeDepartmentRating.sol\":561:568  _deptId */\n      dup4\n        /* \"collegeDepartmentRating.sol\":570:577  _rating */\n      dup4\n        /* \"collegeDepartmentRating.sol\":537:579  enterRating(_collegeId, _deptId, _rating ) */\n      mload(0x40)\n      dup1\n      dup5\n      0xffffffffffffffffffffffffffffffffffffffff\n      and\n      0xffffffffffffffffffffffffffffffffffffffff\n      and\n      dup2\n      mstore\n      0x20\n      add\n      dup4\n      dup2\n      mstore\n      0x20\n      add\n      dup3\n      dup2\n      mstore\n      0x20\n      add\n      swap4\n      pop\n      pop\n      pop\n      pop\n      mload(0x40)\n      dup1\n      swap2\n      sub\n      swap1\n      log1\n        /* \"collegeDepartmentRating.sol\":327:588  function setRating(address _collegeId, uint _deptId, uint _rating)... */\n      pop\n      pop\n      pop\n      jump\t// out\n\n    auxdata: 0xa265627a7a72315820d97d03d86e99d18f2928846bf65925c456e6f4852d486ecb98b69668c03ee11264736f6c63430005110032\n}\n",
				"bytecode": {
					"linkReferences": {},
					"object": "608060405234801561001057600080fd5b506102c1806100206000396000f3fe608060405234801561001057600080fd5b50600436106100365760003560e01c80633dbeacbf1461003b578063868c2b911461009d575b600080fd5b6100876004803603604081101561005157600080fd5b81019080803573ffffffffffffffffffffffffffffffffffffffff169060200190929190803590602001909291905050506100f5565b6040518082815260200191505060405180910390f35b6100f3600480360360608110156100b357600080fd5b81019080803573ffffffffffffffffffffffffffffffffffffffff1690602001909291908035906020019092919080359060200190929190505050610152565b005b60008060008473ffffffffffffffffffffffffffffffffffffffff1673ffffffffffffffffffffffffffffffffffffffff168152602001908152602001600020600101600083815260200190815260200160002054905092915050565b6000808473ffffffffffffffffffffffffffffffffffffffff1673ffffffffffffffffffffffffffffffffffffffff168152602001908152602001600020600001829080600181540180825580915050906001820390600052602060002001600090919290919091505550806000808573ffffffffffffffffffffffffffffffffffffffff1673ffffffffffffffffffffffffffffffffffffffff1681526020019081526020016000206001016000848152602001908152602001600020819055507fe479d3bf97f2a940e7c0466a960c725a7794d1243fb60cae056bedd68ae7f8a0838383604051808473ffffffffffffffffffffffffffffffffffffffff1673ffffffffffffffffffffffffffffffffffffffff168152602001838152602001828152602001935050505060405180910390a150505056fea265627a7a72315820d97d03d86e99d18f2928846bf65925c456e6f4852d486ecb98b69668c03ee11264736f6c63430005110032",
					"opcodes": "PUSH1 0x80 PUSH1 0x40 MSTORE CALLVALUE DUP1 ISZERO PUSH2 0x10 JUMPI PUSH1 0x0 DUP1 REVERT JUMPDEST POP PUSH2 0x2C1 DUP1 PUSH2 0x20 PUSH1 0x0 CODECOPY PUSH1 0x0 RETURN INVALID PUSH1 0x80 PUSH1 0x40 MSTORE CALLVALUE DUP1 ISZERO PUSH2 0x10 JUMPI PUSH1 0x0 DUP1 REVERT JUMPDEST POP PUSH1 0x4 CALLDATASIZE LT PUSH2 0x36 JUMPI PUSH1 0x0 CALLDATALOAD PUSH1 0xE0 SHR DUP1 PUSH4 0x3DBEACBF EQ PUSH2 0x3B JUMPI DUP1 PUSH4 0x868C2B91 EQ PUSH2 0x9D JUMPI JUMPDEST PUSH1 0x0 DUP1 REVERT JUMPDEST PUSH2 0x87 PUSH1 0x4 DUP1 CALLDATASIZE SUB PUSH1 0x40 DUP2 LT ISZERO PUSH2 0x51 JUMPI PUSH1 0x0 DUP1 REVERT JUMPDEST DUP2 ADD SWAP1 DUP1 DUP1 CALLDATALOAD PUSH20 0xFFFFFFFFFFFFFFFFFFFFFFFFFFFFFFFFFFFFFFFF AND SWAP1 PUSH1 0x20 ADD SWAP1 SWAP3 SWAP2 SWAP1 DUP1 CALLDATALOAD SWAP1 PUSH1 0x20 ADD SWAP1 SWAP3 SWAP2 SWAP1 POP POP POP PUSH2 0xF5 JUMP JUMPDEST PUSH1 0x40 MLOAD DUP1 DUP3 DUP2 MSTORE PUSH1 0x20 ADD SWAP2 POP POP PUSH1 0x40 MLOAD DUP1 SWAP2 SUB SWAP1 RETURN JUMPDEST PUSH2 0xF3 PUSH1 0x4 DUP1 CALLDATASIZE SUB PUSH1 0x60 DUP2 LT ISZERO PUSH2 0xB3 JUMPI PUSH1 0x0 DUP1 REVERT JUMPDEST DUP2 ADD SWAP1 DUP1 DUP1 CALLDATALOAD PUSH20 0xFFFFFFFFFFFFFFFFFFFFFFFFFFFFFFFFFFFFFFFF AND SWAP1 PUSH1 0x20 ADD SWAP1 SWAP3 SWAP2 SWAP1 DUP1 CALLDATALOAD SWAP1 PUSH1 0x20 ADD SWAP1 SWAP3 SWAP2 SWAP1 DUP1 CALLDATALOAD SWAP1 PUSH1 0x20 ADD SWAP1 SWAP3 SWAP2 SWAP1 POP POP POP PUSH2 0x152 JUMP JUMPDEST STOP JUMPDEST PUSH1 0x0 DUP1 PUSH1 0x0 DUP5 PUSH20 0xFFFFFFFFFFFFFFFFFFFFFFFFFFFFFFFFFFFFFFFF AND PUSH20 0xFFFFFFFFFFFFFFFFFFFFFFFFFFFFFFFFFFFFFFFF AND DUP2 MSTORE PUSH1 0x20 ADD SWAP1 DUP2 MSTORE PUSH1 0x20 ADD PUSH1 0x0 KECCAK256 PUSH1 0x1 ADD PUSH1 0x0 DUP4 DUP2 MSTORE PUSH1 0x20 ADD SWAP1 DUP2 MSTORE PUSH1 0x20 ADD PUSH1 0x0 KECCAK256 SLOAD SWAP1 POP SWAP3 SWAP2 POP POP JUMP JUMPDEST PUSH1 0x0 DUP1 DUP5 PUSH20 0xFFFFFFFFFFFFFFFFFFFFFFFFFFFFFFFFFFFFFFFF AND PUSH20 0xFFFFFFFFFFFFFFFFFFFFFFFFFFFFFFFFFFFFFFFF AND DUP2 MSTORE PUSH1 0x20 ADD SWAP1 DUP2 MSTORE PUSH1 0x20 ADD PUSH1 0x0 KECCAK256 PUSH1 0x0 ADD DUP3 SWAP1 DUP1 PUSH1 0x1 DUP2 SLOAD ADD DUP1 DUP3 SSTORE DUP1 SWAP2 POP POP SWAP1 PUSH1 0x1 DUP3 SUB SWAP1 PUSH1 0x0 MSTORE PUSH1 0x20 PUSH1 0x0 KECCAK256 ADD PUSH1 0x0 SWAP1 SWAP2 SWAP3 SWAP1 SWAP2 SWAP1 SWAP2 POP SSTORE POP DUP1 PUSH1 0x0 DUP1 DUP6 PUSH20 0xFFFFFFFFFFFFFFFFFFFFFFFFFFFFFFFFFFFFFFFF AND PUSH20 0xFFFFFFFFFFFFFFFFFFFFFFFFFFFFFFFFFFFFFFFF AND DUP2 MSTORE PUSH1 0x20 ADD SWAP1 DUP2 MSTORE PUSH1 0x20 ADD PUSH1 0x0 KECCAK256 PUSH1 0x1 ADD PUSH1 0x0 DUP5 DUP2 MSTORE PUSH1 0x20 ADD SWAP1 DUP2 MSTORE PUSH1 0x20 ADD PUSH1 0x0 KECCAK256 DUP2 SWAP1 SSTORE POP PUSH32 0xE479D3BF97F2A940E7C0466A960C725A7794D1243FB60CAE056BEDD68AE7F8A0 DUP4 DUP4 DUP4 PUSH1 0x40 MLOAD DUP1 DUP5 PUSH20 0xFFFFFFFFFFFFFFFFFFFFFFFFFFFFFFFFFFFFFFFF AND PUSH20 0xFFFFFFFFFFFFFFFFFFFFFFFFFFFFFFFFFFFFFFFF AND DUP2 MSTORE PUSH1 0x20 ADD DUP4 DUP2 MSTORE PUSH1 0x20 ADD DUP3 DUP2 MSTORE PUSH1 0x20 ADD SWAP4 POP POP POP POP PUSH1 0x40 MLOAD DUP1 SWAP2 SUB SWAP1 LOG1 POP POP POP JUMP INVALID LOG2 PUSH6 0x627A7A723158 KECCAK256 0xD9 PUSH30 0x3D86E99D18F2928846BF65925C456E6F4852D486ECB98B69668C03EE112 PUSH5 0x736F6C6343 STOP SDIV GT STOP ORIGIN "
				},
				"gasEstimates": {
					"creation": {
						"codeDepositCost": "141000",
						"executionCost": "190",
						"totalCost": "141190"
					},
					"external": {
						"getRating(address,uint256)": "1287",
						"setRating(address,uint256,uint256)": "63144"
					}
				},
				"methodIdentifiers": {
					"getRating(address,uint256)": "3dbeacbf",
					"setRating(address,uint256,uint256)": "868c2b91"
				}
			},
			"storageLayout": {
				"storage": [
					{
						"astId": 15,
						"contract": "collegeDepartmentRating.sol:collegeRating",
						"label": "collageRating",
						"offset": 0,
						"slot": "0",
						"type": "t_mapping(t_address,t_struct(ratingStruct)11_storage)"
					}
				],
				"types": {
					"t_address": {
						"encoding": "inplace",
						"label": "address",
						"numberOfBytes": "20"
					},
					"t_array(t_uint256)dyn_storage": {
						"base": "t_uint256",
						"encoding": "dynamic_array",
						"label": "uint256[]",
						"numberOfBytes": "32"
					},
					"t_mapping(t_address,t_struct(ratingStruct)11_storage)": {
						"encoding": "mapping",
						"key": "t_address",
						"label": "mapping(address => struct collegeRating.ratingStruct)",
						"numberOfBytes": "32",
						"value": "t_struct(ratingStruct)11_storage"
					},
					"t_mapping(t_uint256,t_uint256)": {
						"encoding": "mapping",
						"key": "t_uint256",
						"label": "mapping(uint256 => uint256)",
						"numberOfBytes": "32",
						"value": "t_uint256"
					},
					"t_struct(ratingStruct)11_storage": {
						"encoding": "inplace",
						"label": "struct collegeRating.ratingStruct",
						"members": [
							{
								"astId": 4,
								"contract": "collegeDepartmentRating.sol:collegeRating",
								"label": "deptId",
								"offset": 0,
								"slot": "0",
								"type": "t_array(t_uint256)dyn_storage"
							},
							{
								"astId": 8,
								"contract": "collegeDepartmentRating.sol:collegeRating",
								"label": "rating",
								"offset": 0,
								"slot": "1",
								"type": "t_mapping(t_uint256,t_uint256)"
							},
							{
								"astId": 10,
								"contract": "collegeDepartmentRating.sol:collegeRating",
								"label": "avgRating",
								"offset": 0,
								"slot": "2",
								"type": "t_uint256"
							}
						],
						"numberOfBytes": "96"
					},
					"t_uint256": {
						"encoding": "inplace",
						"label": "uint256",
						"numberOfBytes": "32"
					}
				}
			},
			"userdoc": {
				"methods": {}
			}
		}
	}
}