{
	"collegeDepartmentRating.sol": {
		"collegeRating": {
			"abi": [
				{
					"inputs": [],
					"payable": false,
					"stateMutability": "nonpayable",
					"type": "constructor"
				},
				{
					"anonymous": false,
					"inputs": [
						{
							"indexed": false,
							"internalType": "address",
							"name": "collegeAddress",
							"type": "address"
						},
						{
							"indexed": false,
							"internalType": "uint256",
							"name": "dId",
							"type": "uint256"
						},
						{
							"indexed": false,
							"internalType": "uint256",
							"name": "_rating",
							"type": "uint256"
						}
					],
					"name": "enterRating",
					"type": "event"
				},
				{
					"constant": true,
					"inputs": [
						{
							"internalType": "address",
							"name": "_collegeAddress",
							"type": "address"
						}
					],
					"name": "getCollageRating",
					"outputs": [
						{
							"internalType": "uint256",
							"name": "",
							"type": "uint256"
						},
						{
							"internalType": "uint256",
							"name": "",
							"type": "uint256"
						}
					],
					"payable": false,
					"stateMutability": "view",
					"type": "function"
				},
				{
					"constant": true,
					"inputs": [
						{
							"internalType": "address",
							"name": "_collegeAddress",
							"type": "address"
						},
						{
							"internalType": "uint256",
							"name": "_deptId",
							"type": "uint256"
						}
					],
					"name": "getDeptRating",
					"outputs": [
						{
							"internalType": "string",
							"name": "",
							"type": "string"
						},
						{
							"internalType": "uint256",
							"name": "",
							"type": "uint256"
						}
					],
					"payable": false,
					"stateMutability": "view",
					"type": "function"
				},
				{
					"constant": false,
					"inputs": [
						{
							"internalType": "address",
							"name": "_collegeAddress",
							"type": "address"
						},
						{
							"internalType": "uint256",
							"name": "_deptId",
							"type": "uint256"
						},
						{
							"internalType": "uint256",
							"name": "_rating",
							"type": "uint256"
						},
						{
							"internalType": "string",
							"name": "_dName",
							"type": "string"
						}
					],
					"name": "setRating",
					"outputs": [],
					"payable": false,
					"stateMutability": "nonpayable",
					"type": "function"
				}
			],
			"devdoc": {
				"methods": {}
			},
			"evm": {
				"assembly": "    /* \"collegeDepartmentRating.sol\":25:2352  contract collegeRating{... */\n  mstore(0x40, 0x80)\n    /* \"collegeDepartmentRating.sol\":316:365  constructor() public{... */\n  callvalue\n    /* \"--CODEGEN--\":8:17   */\n  dup1\n    /* \"--CODEGEN--\":5:7   */\n  iszero\n  tag_1\n  jumpi\n    /* \"--CODEGEN--\":30:31   */\n  0x00\n    /* \"--CODEGEN--\":27:28   */\n  dup1\n    /* \"--CODEGEN--\":20:32   */\n  revert\n    /* \"--CODEGEN--\":5:7   */\ntag_1:\n    /* \"collegeDepartmentRating.sol\":316:365  constructor() public{... */\n  pop\n    /* \"collegeDepartmentRating.sol\":350:360  msg.sender */\n  caller\n    /* \"collegeDepartmentRating.sol\":343:347  cAdd */\n  0x00\n  dup1\n    /* \"collegeDepartmentRating.sol\":343:360  cAdd = msg.sender */\n  0x0100\n  exp\n  dup2\n  sload\n  dup2\n  0xffffffffffffffffffffffffffffffffffffffff\n  mul\n  not\n  and\n  swap1\n  dup4\n  0xffffffffffffffffffffffffffffffffffffffff\n  and\n  mul\n  or\n  swap1\n  sstore\n  pop\n    /* \"collegeDepartmentRating.sol\":25:2352  contract collegeRating{... */\n  dataSize(sub_0)\n  dup1\n  dataOffset(sub_0)\n  0x00\n  codecopy\n  0x00\n  return\nstop\n\nsub_0: assembly {\n        /* \"collegeDepartmentRating.sol\":25:2352  contract collegeRating{... */\n      mstore(0x40, 0x80)\n      callvalue\n        /* \"--CODEGEN--\":8:17   */\n      dup1\n        /* \"--CODEGEN--\":5:7   */\n      iszero\n      tag_1\n      jumpi\n        /* \"--CODEGEN--\":30:31   */\n      0x00\n        /* \"--CODEGEN--\":27:28   */\n      dup1\n        /* \"--CODEGEN--\":20:32   */\n      revert\n        /* \"--CODEGEN--\":5:7   */\n    tag_1:\n        /* \"collegeDepartmentRating.sol\":25:2352  contract collegeRating{... */\n      pop\n      jumpi(tag_2, lt(calldatasize, 0x04))\n      shr(0xe0, calldataload(0x00))\n      dup1\n      0x2936bdb3\n      eq\n      tag_3\n      jumpi\n      dup1\n      0x7d24fe71\n      eq\n      tag_4\n      jumpi\n      dup1\n      0xd6a6bacf\n      eq\n      tag_5\n      jumpi\n    tag_2:\n      0x00\n      dup1\n      revert\n        /* \"collegeDepartmentRating.sol\":1780:2349  function getCollageRating(address _collegeAddress ) public view returns(uint , uint)... */\n    tag_3:\n      tag_6\n      0x04\n      dup1\n      calldatasize\n      sub\n        /* \"--CODEGEN--\":13:15   */\n      0x20\n        /* \"--CODEGEN--\":8:11   */\n      dup2\n        /* \"--CODEGEN--\":5:16   */\n      lt\n        /* \"--CODEGEN--\":2:4   */\n      iszero\n      tag_7\n      jumpi\n        /* \"--CODEGEN--\":29:30   */\n      0x00\n        /* \"--CODEGEN--\":26:27   */\n      dup1\n        /* \"--CODEGEN--\":19:31   */\n      revert\n        /* \"--CODEGEN--\":2:4   */\n    tag_7:\n        /* \"collegeDepartmentRating.sol\":1780:2349  function getCollageRating(address _collegeAddress ) public view returns(uint , uint)... */\n      dup2\n      add\n      swap1\n      dup1\n      dup1\n      calldataload\n      0xffffffffffffffffffffffffffffffffffffffff\n      and\n      swap1\n      0x20\n      add\n      swap1\n      swap3\n      swap2\n      swap1\n      pop\n      pop\n      pop\n      tag_8\n      jump\t// in\n    tag_6:\n      mload(0x40)\n      dup1\n      dup4\n      dup2\n      mstore\n      0x20\n      add\n      dup3\n      dup2\n      mstore\n      0x20\n      add\n      swap3\n      pop\n      pop\n      pop\n      mload(0x40)\n      dup1\n      swap2\n      sub\n      swap1\n      return\n        /* \"collegeDepartmentRating.sol\":1068:1480  function setRating(address _collegeAddress, uint _deptId, uint _rating , string memory _dName )... */\n    tag_4:\n      tag_9\n      0x04\n      dup1\n      calldatasize\n      sub\n        /* \"--CODEGEN--\":13:16   */\n      0x80\n        /* \"--CODEGEN--\":8:11   */\n      dup2\n        /* \"--CODEGEN--\":5:17   */\n      lt\n        /* \"--CODEGEN--\":2:4   */\n      iszero\n      tag_10\n      jumpi\n        /* \"--CODEGEN--\":30:31   */\n      0x00\n        /* \"--CODEGEN--\":27:28   */\n      dup1\n        /* \"--CODEGEN--\":20:32   */\n      revert\n        /* \"--CODEGEN--\":2:4   */\n    tag_10:\n        /* \"collegeDepartmentRating.sol\":1068:1480  function setRating(address _collegeAddress, uint _deptId, uint _rating , string memory _dName )... */\n      dup2\n      add\n      swap1\n      dup1\n      dup1\n      calldataload\n      0xffffffffffffffffffffffffffffffffffffffff\n      and\n      swap1\n      0x20\n      add\n      swap1\n      swap3\n      swap2\n      swap1\n      dup1\n      calldataload\n      swap1\n      0x20\n      add\n      swap1\n      swap3\n      swap2\n      swap1\n      dup1\n      calldataload\n      swap1\n      0x20\n      add\n      swap1\n      swap3\n      swap2\n      swap1\n      dup1\n      calldataload\n      swap1\n      0x20\n      add\n      swap1\n        /* \"--CODEGEN--\":21:32   */\n      0x0100000000\n        /* \"--CODEGEN--\":8:19   */\n      dup2\n        /* \"--CODEGEN--\":5:33   */\n      gt\n        /* \"--CODEGEN--\":2:4   */\n      iszero\n      tag_11\n      jumpi\n        /* \"--CODEGEN--\":46:47   */\n      0x00\n        /* \"--CODEGEN--\":43:44   */\n      dup1\n        /* \"--CODEGEN--\":36:48   */\n      revert\n        /* \"--CODEGEN--\":2:4   */\n    tag_11:\n        /* \"collegeDepartmentRating.sol\":1068:1480  function setRating(address _collegeAddress, uint _deptId, uint _rating , string memory _dName )... */\n      dup3\n      add\n        /* \"--CODEGEN--\":35:44   */\n      dup4\n        /* \"--CODEGEN--\":28:32   */\n      0x20\n        /* \"--CODEGEN--\":12:26   */\n      dup3\n        /* \"--CODEGEN--\":8:33   */\n      add\n        /* \"--CODEGEN--\":5:45   */\n      gt\n        /* \"--CODEGEN--\":2:4   */\n      iszero\n      tag_12\n      jumpi\n        /* \"--CODEGEN--\":58:59   */\n      0x00\n        /* \"--CODEGEN--\":55:56   */\n      dup1\n        /* \"--CODEGEN--\":48:60   */\n      revert\n        /* \"--CODEGEN--\":2:4   */\n    tag_12:\n        /* \"collegeDepartmentRating.sol\":1068:1480  function setRating(address _collegeAddress, uint _deptId, uint _rating , string memory _dName )... */\n      dup1\n      calldataload\n      swap1\n      0x20\n      add\n      swap2\n        /* \"--CODEGEN--\":100:109   */\n      dup5\n        /* \"--CODEGEN--\":95:96   */\n      0x01\n        /* \"--CODEGEN--\":81:93   */\n      dup4\n        /* \"--CODEGEN--\":77:97   */\n      mul\n        /* \"--CODEGEN--\":67:75   */\n      dup5\n        /* \"--CODEGEN--\":63:98   */\n      add\n        /* \"--CODEGEN--\":60:110   */\n      gt\n        /* \"--CODEGEN--\":39:50   */\n      0x0100000000\n        /* \"--CODEGEN--\":25:37   */\n      dup4\n        /* \"--CODEGEN--\":22:51   */\n      gt\n        /* \"--CODEGEN--\":11:118   */\n      or\n        /* \"--CODEGEN--\":8:10   */\n      iszero\n      tag_13\n      jumpi\n        /* \"--CODEGEN--\":131:132   */\n      0x00\n        /* \"--CODEGEN--\":128:129   */\n      dup1\n        /* \"--CODEGEN--\":121:133   */\n      revert\n        /* \"--CODEGEN--\":8:10   */\n    tag_13:\n        /* \"collegeDepartmentRating.sol\":1068:1480  function setRating(address _collegeAddress, uint _deptId, uint _rating , string memory _dName )... */\n      swap2\n      swap1\n      dup1\n      dup1\n      0x1f\n      add\n      0x20\n      dup1\n      swap2\n      div\n      mul\n      0x20\n      add\n      mload(0x40)\n      swap1\n      dup2\n      add\n      0x40\n      mstore\n      dup1\n      swap4\n      swap3\n      swap2\n      swap1\n      dup2\n      dup2\n      mstore\n      0x20\n      add\n      dup4\n      dup4\n        /* \"--CODEGEN--\":30:33   */\n      dup1\n        /* \"--CODEGEN--\":22:28   */\n      dup3\n        /* \"--CODEGEN--\":14:20   */\n      dup5\n        /* \"--CODEGEN--\":1:34   */\n      calldatacopy\n        /* \"--CODEGEN--\":99:100   */\n      0x00\n        /* \"--CODEGEN--\":93:96   */\n      dup2\n        /* \"--CODEGEN--\":85:91   */\n      dup5\n        /* \"--CODEGEN--\":81:97   */\n      add\n        /* \"--CODEGEN--\":74:101   */\n      mstore\n        /* \"--CODEGEN--\":137:141   */\n      0x1f\n        /* \"--CODEGEN--\":133:142   */\n      not\n        /* \"--CODEGEN--\":126:130   */\n      0x1f\n        /* \"--CODEGEN--\":121:124   */\n      dup3\n        /* \"--CODEGEN--\":117:131   */\n      add\n        /* \"--CODEGEN--\":113:143   */\n      and\n        /* \"--CODEGEN--\":106:143   */\n      swap1\n      pop\n        /* \"--CODEGEN--\":169:172   */\n      dup1\n        /* \"--CODEGEN--\":161:167   */\n      dup4\n        /* \"--CODEGEN--\":157:173   */\n      add\n        /* \"--CODEGEN--\":147:173   */\n      swap3\n      pop\n        /* \"collegeDepartmentRating.sol\":1068:1480  function setRating(address _collegeAddress, uint _deptId, uint _rating , string memory _dName )... */\n      pop\n      pop\n      pop\n      pop\n      pop\n      pop\n      swap2\n      swap3\n      swap2\n      swap3\n      swap1\n      pop\n      pop\n      pop\n      tag_14\n      jump\t// in\n    tag_9:\n      stop\n        /* \"collegeDepartmentRating.sol\":1487:1773  function getDeptRating(address _collegeAddress, uint _deptId )... */\n    tag_5:\n      tag_15\n      0x04\n      dup1\n      calldatasize\n      sub\n        /* \"--CODEGEN--\":13:15   */\n      0x40\n        /* \"--CODEGEN--\":8:11   */\n      dup2\n        /* \"--CODEGEN--\":5:16   */\n      lt\n        /* \"--CODEGEN--\":2:4   */\n      iszero\n      tag_16\n      jumpi\n        /* \"--CODEGEN--\":29:30   */\n      0x00\n        /* \"--CODEGEN--\":26:27   */\n      dup1\n        /* \"--CODEGEN--\":19:31   */\n      revert\n        /* \"--CODEGEN--\":2:4   */\n    tag_16:\n        /* \"collegeDepartmentRating.sol\":1487:1773  function getDeptRating(address _collegeAddress, uint _deptId )... */\n      dup2\n      add\n      swap1\n      dup1\n      dup1\n      calldataload\n      0xffffffffffffffffffffffffffffffffffffffff\n      and\n      swap1\n      0x20\n      add\n      swap1\n      swap3\n      swap2\n      swap1\n      dup1\n      calldataload\n      swap1\n      0x20\n      add\n      swap1\n      swap3\n      swap2\n      swap1\n      pop\n      pop\n      pop\n      tag_17\n      jump\t// in\n    tag_15:\n      mload(0x40)\n      dup1\n      dup1\n      0x20\n      add\n      dup4\n      dup2\n      mstore\n      0x20\n      add\n      dup3\n      dup2\n      sub\n      dup3\n      mstore\n      dup5\n      dup2\n      dup2\n      mload\n      dup2\n      mstore\n      0x20\n      add\n      swap2\n      pop\n      dup1\n      mload\n      swap1\n      0x20\n      add\n      swap1\n      dup1\n      dup4\n      dup4\n        /* \"--CODEGEN--\":23:24   */\n      0x00\n        /* \"--CODEGEN--\":8:108   */\n    tag_18:\n        /* \"--CODEGEN--\":33:36   */\n      dup4\n        /* \"--CODEGEN--\":30:31   */\n      dup2\n        /* \"--CODEGEN--\":27:37   */\n      lt\n        /* \"--CODEGEN--\":8:108   */\n      iszero\n      tag_20\n      jumpi\n        /* \"--CODEGEN--\":99:100   */\n      dup1\n        /* \"--CODEGEN--\":94:97   */\n      dup3\n        /* \"--CODEGEN--\":90:101   */\n      add\n        /* \"--CODEGEN--\":84:102   */\n      mload\n        /* \"--CODEGEN--\":80:81   */\n      dup2\n        /* \"--CODEGEN--\":75:78   */\n      dup5\n        /* \"--CODEGEN--\":71:82   */\n      add\n        /* \"--CODEGEN--\":64:103   */\n      mstore\n        /* \"--CODEGEN--\":52:54   */\n      0x20\n        /* \"--CODEGEN--\":49:50   */\n      dup2\n        /* \"--CODEGEN--\":45:55   */\n      add\n        /* \"--CODEGEN--\":40:55   */\n      swap1\n      pop\n        /* \"--CODEGEN--\":8:108   */\n      jump(tag_18)\n    tag_20:\n        /* \"--CODEGEN--\":12:26   */\n      pop\n        /* \"collegeDepartmentRating.sol\":1487:1773  function getDeptRating(address _collegeAddress, uint _deptId )... */\n      pop\n      pop\n      pop\n      swap1\n      pop\n      swap1\n      dup2\n      add\n      swap1\n      0x1f\n      and\n      dup1\n      iszero\n      tag_21\n      jumpi\n      dup1\n      dup3\n      sub\n      dup1\n      mload\n      0x01\n      dup4\n      0x20\n      sub\n      0x0100\n      exp\n      sub\n      not\n      and\n      dup2\n      mstore\n      0x20\n      add\n      swap2\n      pop\n    tag_21:\n      pop\n      swap4\n      pop\n      pop\n      pop\n      pop\n      mload(0x40)\n      dup1\n      swap2\n      sub\n      swap1\n      return\n        /* \"collegeDepartmentRating.sol\":1780:2349  function getCollageRating(address _collegeAddress ) public view returns(uint , uint)... */\n    tag_8:\n        /* \"collegeDepartmentRating.sol\":1852:1856  uint */\n      0x00\n        /* \"collegeDepartmentRating.sol\":1859:1863  uint */\n      dup1\n        /* \"collegeDepartmentRating.sol\":1879:1890  uint length */\n      0x00\n        /* \"collegeDepartmentRating.sol\":1893:1903  uint  temp */\n      dup1\n        /* \"collegeDepartmentRating.sol\":1913:1928  uint collRating */\n      0x00\n        /* \"collegeDepartmentRating.sol\":1931:1932  0 */\n      dup1\n        /* \"collegeDepartmentRating.sol\":1913:1932  uint collRating = 0 */\n      swap1\n      pop\n        /* \"collegeDepartmentRating.sol\":1958:1965  cRating */\n      0x01\n        /* \"collegeDepartmentRating.sol\":1958:1982  cRating[_collegeAddress] */\n      0x00\n        /* \"collegeDepartmentRating.sol\":1966:1981  _collegeAddress */\n      dup8\n        /* \"collegeDepartmentRating.sol\":1958:1982  cRating[_collegeAddress] */\n      0xffffffffffffffffffffffffffffffffffffffff\n      and\n      0xffffffffffffffffffffffffffffffffffffffff\n      and\n      dup2\n      mstore\n      0x20\n      add\n      swap1\n      dup2\n      mstore\n      0x20\n      add\n      0x00\n      keccak256\n        /* \"collegeDepartmentRating.sol\":1958:1989  cRating[_collegeAddress].deptId */\n      0x00\n      add\n        /* \"collegeDepartmentRating.sol\":1958:1996  cRating[_collegeAddress].deptId.length */\n      dup1\n      sload\n      swap1\n      pop\n        /* \"collegeDepartmentRating.sol\":1949:1996  length = cRating[_collegeAddress].deptId.length */\n      swap3\n      pop\n        /* \"collegeDepartmentRating.sol\":2013:2019  uint i */\n      0x00\n        /* \"collegeDepartmentRating.sol\":2022:2023  0 */\n      dup1\n        /* \"collegeDepartmentRating.sol\":2013:2023  uint i = 0 */\n      swap1\n      pop\n        /* \"collegeDepartmentRating.sol\":2008:2200  for (uint i = 0 ; i < length ; i++){... */\n    tag_23:\n        /* \"collegeDepartmentRating.sol\":2030:2036  length */\n      dup4\n        /* \"collegeDepartmentRating.sol\":2026:2027  i */\n      dup2\n        /* \"collegeDepartmentRating.sol\":2026:2036  i < length */\n      lt\n        /* \"collegeDepartmentRating.sol\":2008:2200  for (uint i = 0 ; i < length ; i++){... */\n      iszero\n      tag_24\n      jumpi\n        /* \"collegeDepartmentRating.sol\":2065:2072  cRating */\n      0x01\n        /* \"collegeDepartmentRating.sol\":2065:2089  cRating[_collegeAddress] */\n      0x00\n        /* \"collegeDepartmentRating.sol\":2073:2088  _collegeAddress */\n      dup9\n        /* \"collegeDepartmentRating.sol\":2065:2089  cRating[_collegeAddress] */\n      0xffffffffffffffffffffffffffffffffffffffff\n      and\n      0xffffffffffffffffffffffffffffffffffffffff\n      and\n      dup2\n      mstore\n      0x20\n      add\n      swap1\n      dup2\n      mstore\n      0x20\n      add\n      0x00\n      keccak256\n        /* \"collegeDepartmentRating.sol\":2065:2096  cRating[_collegeAddress].deptId */\n      0x00\n      add\n        /* \"collegeDepartmentRating.sol\":2097:2098  i */\n      dup2\n        /* \"collegeDepartmentRating.sol\":2065:2099  cRating[_collegeAddress].deptId[i] */\n      dup2\n      sload\n      dup2\n      lt\n      tag_26\n      jumpi\n      invalid\n    tag_26:\n      swap1\n      0x00\n      mstore\n      keccak256(0x00, 0x20)\n      add\n      sload\n        /* \"collegeDepartmentRating.sol\":2057:2099  temp =  cRating[_collegeAddress].deptId[i] */\n      swap3\n      pop\n        /* \"collegeDepartmentRating.sol\":2166:2176  collRating */\n      dup2\n        /* \"collegeDepartmentRating.sol\":2126:2133  cRating */\n      0x01\n        /* \"collegeDepartmentRating.sol\":2126:2150  cRating[_collegeAddress] */\n      0x00\n        /* \"collegeDepartmentRating.sol\":2134:2149  _collegeAddress */\n      dup10\n        /* \"collegeDepartmentRating.sol\":2126:2150  cRating[_collegeAddress] */\n      0xffffffffffffffffffffffffffffffffffffffff\n      and\n      0xffffffffffffffffffffffffffffffffffffffff\n      and\n      dup2\n      mstore\n      0x20\n      add\n      swap1\n      dup2\n      mstore\n      0x20\n      add\n      0x00\n      keccak256\n        /* \"collegeDepartmentRating.sol\":2126:2157  cRating[_collegeAddress].rating */\n      0x01\n      add\n        /* \"collegeDepartmentRating.sol\":2126:2163  cRating[_collegeAddress].rating[temp] */\n      0x00\n        /* \"collegeDepartmentRating.sol\":2158:2162  temp */\n      dup6\n        /* \"collegeDepartmentRating.sol\":2126:2163  cRating[_collegeAddress].rating[temp] */\n      dup2\n      mstore\n      0x20\n      add\n      swap1\n      dup2\n      mstore\n      0x20\n      add\n      0x00\n      keccak256\n      sload\n        /* \"collegeDepartmentRating.sol\":2126:2176  cRating[_collegeAddress].rating[temp] + collRating */\n      add\n        /* \"collegeDepartmentRating.sol\":2113:2176  collRating = cRating[_collegeAddress].rating[temp] + collRating */\n      swap2\n      pop\n        /* \"collegeDepartmentRating.sol\":2039:2042  i++ */\n      dup1\n      dup1\n      0x01\n      add\n      swap2\n      pop\n      pop\n        /* \"collegeDepartmentRating.sol\":2008:2200  for (uint i = 0 ; i < length ; i++){... */\n      jump(tag_23)\n    tag_24:\n      pop\n        /* \"collegeDepartmentRating.sol\":2291:2297  length */\n      dup3\n        /* \"collegeDepartmentRating.sol\":2278:2288  collRating */\n      dup2\n        /* \"collegeDepartmentRating.sol\":2278:2297  collRating / length */\n      dup2\n      tag_28\n      jumpi\n      invalid\n    tag_28:\n      div\n        /* \"collegeDepartmentRating.sol\":2265:2297  collRating = collRating / length */\n      swap1\n      pop\n        /* \"collegeDepartmentRating.sol\":2318:2324  length */\n      dup3\n        /* \"collegeDepartmentRating.sol\":2327:2337  collRating */\n      dup2\n        /* \"collegeDepartmentRating.sol\":2307:2339  return   ( length , collRating ) */\n      swap5\n      pop\n      swap5\n      pop\n      pop\n      pop\n      pop\n        /* \"collegeDepartmentRating.sol\":1780:2349  function getCollageRating(address _collegeAddress ) public view returns(uint , uint)... */\n      swap2\n      pop\n      swap2\n      jump\t// out\n        /* \"collegeDepartmentRating.sol\":1068:1480  function setRating(address _collegeAddress, uint _deptId, uint _rating , string memory _dName )... */\n    tag_14:\n        /* \"collegeDepartmentRating.sol\":1190:1205  _collegeAddress */\n      dup4\n        /* \"collegeDepartmentRating.sol\":767:777  msg.sender */\n      caller\n        /* \"collegeDepartmentRating.sol\":749:777  collegeAddress != msg.sender */\n      0xffffffffffffffffffffffffffffffffffffffff\n      and\n        /* \"collegeDepartmentRating.sol\":749:763  collegeAddress */\n      dup2\n        /* \"collegeDepartmentRating.sol\":749:777  collegeAddress != msg.sender */\n      0xffffffffffffffffffffffffffffffffffffffff\n      and\n      eq\n      iszero\n        /* \"collegeDepartmentRating.sol\":741:823  require(collegeAddress != msg.sender, \"Same College can't give rating to itself.\") */\n      tag_30\n      jumpi\n      mload(0x40)\n      0x08c379a000000000000000000000000000000000000000000000000000000000\n      dup2\n      mstore\n      0x04\n      add\n      dup1\n      dup1\n      0x20\n      add\n      dup3\n      dup2\n      sub\n      dup3\n      mstore\n      0x29\n      dup2\n      mstore\n      0x20\n      add\n      dup1\n      data_91147b02be505eafcfba0508d08ec0ac96c0f2c9821fe2bf6f36d6096e4f3ea2\n      0x29\n      swap2\n      codecopy\n      0x40\n      add\n      swap2\n      pop\n      pop\n      mload(0x40)\n      dup1\n      swap2\n      sub\n      swap1\n      revert\n    tag_30:\n        /* \"collegeDepartmentRating.sol\":1216:1223  _deptId */\n      dup4\n        /* \"collegeDepartmentRating.sol\":991:992  0 */\n      0x00\n        /* \"collegeDepartmentRating.sol\":984:987  mId */\n      dup2\n        /* \"collegeDepartmentRating.sol\":984:992  mId != 0 */\n      eq\n      iszero\n        /* \"collegeDepartmentRating.sol\":984:1004  mId != 0 && mId <= 3 */\n      dup1\n      iszero\n      tag_32\n      jumpi\n      pop\n        /* \"collegeDepartmentRating.sol\":1003:1004  3 */\n      0x03\n        /* \"collegeDepartmentRating.sol\":996:999  mId */\n      dup2\n        /* \"collegeDepartmentRating.sol\":996:1004  mId <= 3 */\n      gt\n      iszero\n        /* \"collegeDepartmentRating.sol\":984:1004  mId != 0 && mId <= 3 */\n    tag_32:\n        /* \"collegeDepartmentRating.sol\":974:1048  require( (mId != 0 && mId <= 3) , \"College ID should be  between 1 to 3.\") */\n      tag_33\n      jumpi\n      mload(0x40)\n      0x08c379a000000000000000000000000000000000000000000000000000000000\n      dup2\n      mstore\n      0x04\n      add\n      dup1\n      dup1\n      0x20\n      add\n      dup3\n      dup2\n      sub\n      dup3\n      mstore\n      0x25\n      dup2\n      mstore\n      0x20\n      add\n      dup1\n      data_5037ad7fe73815dd8cd6e22299d6ca934824b747524f2c6dbfd64b5621cdb4ef\n      0x25\n      swap2\n      codecopy\n      0x40\n      add\n      swap2\n      pop\n      pop\n      mload(0x40)\n      dup1\n      swap2\n      sub\n      swap1\n      revert\n    tag_33:\n        /* \"collegeDepartmentRating.sol\":1234:1241  cRating */\n      0x01\n        /* \"collegeDepartmentRating.sol\":1234:1258  cRating[_collegeAddress] */\n      0x00\n        /* \"collegeDepartmentRating.sol\":1242:1257  _collegeAddress */\n      dup8\n        /* \"collegeDepartmentRating.sol\":1234:1258  cRating[_collegeAddress] */\n      0xffffffffffffffffffffffffffffffffffffffff\n      and\n      0xffffffffffffffffffffffffffffffffffffffff\n      and\n      dup2\n      mstore\n      0x20\n      add\n      swap1\n      dup2\n      mstore\n      0x20\n      add\n      0x00\n      keccak256\n        /* \"collegeDepartmentRating.sol\":1234:1265  cRating[_collegeAddress].deptId */\n      0x00\n      add\n        /* \"collegeDepartmentRating.sol\":1271:1278  _deptId */\n      dup6\n        /* \"collegeDepartmentRating.sol\":1234:1279  cRating[_collegeAddress].deptId.push(_deptId) */\n      swap1\n      dup1\n        /* \"--CODEGEN--\":39:40   */\n      0x01\n        /* \"--CODEGEN--\":33:36   */\n      dup2\n        /* \"--CODEGEN--\":27:37   */\n      sload\n        /* \"--CODEGEN--\":23:41   */\n      add\n        /* \"--CODEGEN--\":57:67   */\n      dup1\n        /* \"--CODEGEN--\":52:55   */\n      dup3\n        /* \"--CODEGEN--\":45:68   */\n      sstore\n        /* \"--CODEGEN--\":79:89   */\n      dup1\n        /* \"--CODEGEN--\":72:89   */\n      swap2\n      pop\n        /* \"--CODEGEN--\":0:93   */\n      pop\n        /* \"collegeDepartmentRating.sol\":1234:1279  cRating[_collegeAddress].deptId.push(_deptId) */\n      swap1\n      0x01\n      dup3\n      sub\n      swap1\n      0x00\n      mstore\n      keccak256(0x00, 0x20)\n      add\n      0x00\n      swap1\n      swap2\n      swap3\n      swap1\n      swap2\n      swap1\n      swap2\n      pop\n      sstore\n      pop\n        /* \"collegeDepartmentRating.sol\":1331:1338  _rating */\n      dup4\n        /* \"collegeDepartmentRating.sol\":1288:1295  cRating */\n      0x01\n        /* \"collegeDepartmentRating.sol\":1288:1312  cRating[_collegeAddress] */\n      0x00\n        /* \"collegeDepartmentRating.sol\":1296:1311  _collegeAddress */\n      dup9\n        /* \"collegeDepartmentRating.sol\":1288:1312  cRating[_collegeAddress] */\n      0xffffffffffffffffffffffffffffffffffffffff\n      and\n      0xffffffffffffffffffffffffffffffffffffffff\n      and\n      dup2\n      mstore\n      0x20\n      add\n      swap1\n      dup2\n      mstore\n      0x20\n      add\n      0x00\n      keccak256\n        /* \"collegeDepartmentRating.sol\":1288:1319  cRating[_collegeAddress].rating */\n      0x01\n      add\n        /* \"collegeDepartmentRating.sol\":1288:1328  cRating[_collegeAddress].rating[_deptId] */\n      0x00\n        /* \"collegeDepartmentRating.sol\":1320:1327  _deptId */\n      dup8\n        /* \"collegeDepartmentRating.sol\":1288:1328  cRating[_collegeAddress].rating[_deptId] */\n      dup2\n      mstore\n      0x20\n      add\n      swap1\n      dup2\n      mstore\n      0x20\n      add\n      0x00\n      keccak256\n        /* \"collegeDepartmentRating.sol\":1288:1338  cRating[_collegeAddress].rating[_deptId] = _rating */\n      dup2\n      swap1\n      sstore\n      pop\n        /* \"collegeDepartmentRating.sol\":1389:1395  _dName */\n      dup3\n        /* \"collegeDepartmentRating.sol\":1347:1354  cRating */\n      0x01\n        /* \"collegeDepartmentRating.sol\":1347:1371  cRating[_collegeAddress] */\n      0x00\n        /* \"collegeDepartmentRating.sol\":1355:1370  _collegeAddress */\n      dup9\n        /* \"collegeDepartmentRating.sol\":1347:1371  cRating[_collegeAddress] */\n      0xffffffffffffffffffffffffffffffffffffffff\n      and\n      0xffffffffffffffffffffffffffffffffffffffff\n      and\n      dup2\n      mstore\n      0x20\n      add\n      swap1\n      dup2\n      mstore\n      0x20\n      add\n      0x00\n      keccak256\n        /* \"collegeDepartmentRating.sol\":1347:1377  cRating[_collegeAddress].dName */\n      0x02\n      add\n        /* \"collegeDepartmentRating.sol\":1347:1386  cRating[_collegeAddress].dName[_deptId] */\n      0x00\n        /* \"collegeDepartmentRating.sol\":1378:1385  _deptId */\n      dup8\n        /* \"collegeDepartmentRating.sol\":1347:1386  cRating[_collegeAddress].dName[_deptId] */\n      dup2\n      mstore\n      0x20\n      add\n      swap1\n      dup2\n      mstore\n      0x20\n      add\n      0x00\n      keccak256\n        /* \"collegeDepartmentRating.sol\":1347:1395  cRating[_collegeAddress].dName[_deptId] = _dName */\n      swap1\n      dup1\n      mload\n      swap1\n      0x20\n      add\n      swap1\n      tag_36\n      swap3\n      swap2\n      swap1\n      tag_37\n      jump\t// in\n    tag_36:\n      pop\n        /* \"collegeDepartmentRating.sol\":1416:1463  enterRating(_collegeAddress, _deptId, _rating ) */\n      0xe479d3bf97f2a940e7c0466a960c725a7794d1243fb60cae056bedd68ae7f8a0\n        /* \"collegeDepartmentRating.sol\":1428:1443  _collegeAddress */\n      dup7\n        /* \"collegeDepartmentRating.sol\":1445:1452  _deptId */\n      dup7\n        /* \"collegeDepartmentRating.sol\":1454:1461  _rating */\n      dup7\n        /* \"collegeDepartmentRating.sol\":1416:1463  enterRating(_collegeAddress, _deptId, _rating ) */\n      mload(0x40)\n      dup1\n      dup5\n      0xffffffffffffffffffffffffffffffffffffffff\n      and\n      0xffffffffffffffffffffffffffffffffffffffff\n      and\n      dup2\n      mstore\n      0x20\n      add\n      dup4\n      dup2\n      mstore\n      0x20\n      add\n      dup3\n      dup2\n      mstore\n      0x20\n      add\n      swap4\n      pop\n      pop\n      pop\n      pop\n      mload(0x40)\n      dup1\n      swap2\n      sub\n      swap1\n      log1\n        /* \"collegeDepartmentRating.sol\":832:833  _ */\n      pop\n        /* \"collegeDepartmentRating.sol\":1068:1480  function setRating(address _collegeAddress, uint _deptId, uint _rating , string memory _dName )... */\n      pop\n      pop\n      pop\n      pop\n      pop\n      jump\t// out\n        /* \"collegeDepartmentRating.sol\":1487:1773  function getDeptRating(address _collegeAddress, uint _deptId )... */\n    tag_17:\n        /* \"collegeDepartmentRating.sol\":1596:1609  string memory */\n      0x60\n        /* \"collegeDepartmentRating.sol\":1611:1615  uint */\n      0x00\n        /* \"collegeDepartmentRating.sol\":1572:1579  _deptId */\n      dup3\n        /* \"collegeDepartmentRating.sol\":991:992  0 */\n      0x00\n        /* \"collegeDepartmentRating.sol\":984:987  mId */\n      dup2\n        /* \"collegeDepartmentRating.sol\":984:992  mId != 0 */\n      eq\n      iszero\n        /* \"collegeDepartmentRating.sol\":984:1004  mId != 0 && mId <= 3 */\n      dup1\n      iszero\n      tag_39\n      jumpi\n      pop\n        /* \"collegeDepartmentRating.sol\":1003:1004  3 */\n      0x03\n        /* \"collegeDepartmentRating.sol\":996:999  mId */\n      dup2\n        /* \"collegeDepartmentRating.sol\":996:1004  mId <= 3 */\n      gt\n      iszero\n        /* \"collegeDepartmentRating.sol\":984:1004  mId != 0 && mId <= 3 */\n    tag_39:\n        /* \"collegeDepartmentRating.sol\":974:1048  require( (mId != 0 && mId <= 3) , \"College ID should be  between 1 to 3.\") */\n      tag_40\n      jumpi\n      mload(0x40)\n      0x08c379a000000000000000000000000000000000000000000000000000000000\n      dup2\n      mstore\n      0x04\n      add\n      dup1\n      dup1\n      0x20\n      add\n      dup3\n      dup2\n      sub\n      dup3\n      mstore\n      0x25\n      dup2\n      mstore\n      0x20\n      add\n      dup1\n      data_5037ad7fe73815dd8cd6e22299d6ca934824b747524f2c6dbfd64b5621cdb4ef\n      0x25\n      swap2\n      codecopy\n      0x40\n      add\n      swap2\n      pop\n      pop\n      mload(0x40)\n      dup1\n      swap2\n      sub\n      swap1\n      revert\n    tag_40:\n        /* \"collegeDepartmentRating.sol\":1654:1661  cRating */\n      0x01\n        /* \"collegeDepartmentRating.sol\":1654:1678  cRating[_collegeAddress] */\n      0x00\n        /* \"collegeDepartmentRating.sol\":1662:1677  _collegeAddress */\n      dup7\n        /* \"collegeDepartmentRating.sol\":1654:1678  cRating[_collegeAddress] */\n      0xffffffffffffffffffffffffffffffffffffffff\n      and\n      0xffffffffffffffffffffffffffffffffffffffff\n      and\n      dup2\n      mstore\n      0x20\n      add\n      swap1\n      dup2\n      mstore\n      0x20\n      add\n      0x00\n      keccak256\n        /* \"collegeDepartmentRating.sol\":1654:1684  cRating[_collegeAddress].dName */\n      0x02\n      add\n        /* \"collegeDepartmentRating.sol\":1654:1693  cRating[_collegeAddress].dName[_deptId] */\n      0x00\n        /* \"collegeDepartmentRating.sol\":1685:1692  _deptId */\n      dup6\n        /* \"collegeDepartmentRating.sol\":1654:1693  cRating[_collegeAddress].dName[_deptId] */\n      dup2\n      mstore\n      0x20\n      add\n      swap1\n      dup2\n      mstore\n      0x20\n      add\n      0x00\n      keccak256\n        /* \"collegeDepartmentRating.sol\":1710:1717  cRating */\n      0x01\n        /* \"collegeDepartmentRating.sol\":1710:1734  cRating[_collegeAddress] */\n      0x00\n        /* \"collegeDepartmentRating.sol\":1718:1733  _collegeAddress */\n      dup8\n        /* \"collegeDepartmentRating.sol\":1710:1734  cRating[_collegeAddress] */\n      0xffffffffffffffffffffffffffffffffffffffff\n      and\n      0xffffffffffffffffffffffffffffffffffffffff\n      and\n      dup2\n      mstore\n      0x20\n      add\n      swap1\n      dup2\n      mstore\n      0x20\n      add\n      0x00\n      keccak256\n        /* \"collegeDepartmentRating.sol\":1710:1741  cRating[_collegeAddress].rating */\n      0x01\n      add\n        /* \"collegeDepartmentRating.sol\":1710:1750  cRating[_collegeAddress].rating[_deptId] */\n      0x00\n        /* \"collegeDepartmentRating.sol\":1742:1749  _deptId */\n      dup7\n        /* \"collegeDepartmentRating.sol\":1710:1750  cRating[_collegeAddress].rating[_deptId] */\n      dup2\n      mstore\n      0x20\n      add\n      swap1\n      dup2\n      mstore\n      0x20\n      add\n      0x00\n      keccak256\n      sload\n        /* \"collegeDepartmentRating.sol\":1630:1765  return ( ... */\n      dup2\n      dup1\n      sload\n      0x01\n      dup2\n      0x01\n      and\n      iszero\n      0x0100\n      mul\n      sub\n      and\n      0x02\n      swap1\n      div\n      dup1\n      0x1f\n      add\n      0x20\n      dup1\n      swap2\n      div\n      mul\n      0x20\n      add\n      mload(0x40)\n      swap1\n      dup2\n      add\n      0x40\n      mstore\n      dup1\n      swap3\n      swap2\n      swap1\n      dup2\n      dup2\n      mstore\n      0x20\n      add\n      dup3\n      dup1\n      sload\n      0x01\n      dup2\n      0x01\n      and\n      iszero\n      0x0100\n      mul\n      sub\n      and\n      0x02\n      swap1\n      div\n      dup1\n      iszero\n      tag_42\n      jumpi\n      dup1\n      0x1f\n      lt\n      tag_43\n      jumpi\n      0x0100\n      dup1\n      dup4\n      sload\n      div\n      mul\n      dup4\n      mstore\n      swap2\n      0x20\n      add\n      swap2\n      jump(tag_42)\n    tag_43:\n      dup3\n      add\n      swap2\n      swap1\n      0x00\n      mstore\n      keccak256(0x00, 0x20)\n      swap1\n    tag_44:\n      dup2\n      sload\n      dup2\n      mstore\n      swap1\n      0x01\n      add\n      swap1\n      0x20\n      add\n      dup1\n      dup4\n      gt\n      tag_44\n      jumpi\n      dup3\n      swap1\n      sub\n      0x1f\n      and\n      dup3\n      add\n      swap2\n    tag_42:\n      pop\n      pop\n      pop\n      pop\n      pop\n      swap2\n      pop\n      swap3\n      pop\n      swap3\n      pop\n        /* \"collegeDepartmentRating.sol\":1487:1773  function getDeptRating(address _collegeAddress, uint _deptId )... */\n      pop\n      swap3\n      pop\n      swap3\n      swap1\n      pop\n      jump\t// out\n        /* \"collegeDepartmentRating.sol\":25:2352  contract collegeRating{... */\n    tag_37:\n      dup3\n      dup1\n      sload\n      0x01\n      dup2\n      0x01\n      and\n      iszero\n      0x0100\n      mul\n      sub\n      and\n      0x02\n      swap1\n      div\n      swap1\n      0x00\n      mstore\n      keccak256(0x00, 0x20)\n      swap1\n      0x1f\n      add\n      0x20\n      swap1\n      div\n      dup2\n      add\n      swap3\n      dup3\n      0x1f\n      lt\n      tag_46\n      jumpi\n      dup1\n      mload\n      not(0xff)\n      and\n      dup4\n      dup1\n      add\n      or\n      dup6\n      sstore\n      jump(tag_45)\n    tag_46:\n      dup3\n      dup1\n      add\n      0x01\n      add\n      dup6\n      sstore\n      dup3\n      iszero\n      tag_45\n      jumpi\n      swap2\n      dup3\n      add\n    tag_47:\n      dup3\n      dup2\n      gt\n      iszero\n      tag_48\n      jumpi\n      dup3\n      mload\n      dup3\n      sstore\n      swap2\n      0x20\n      add\n      swap2\n      swap1\n      0x01\n      add\n      swap1\n      jump(tag_47)\n    tag_48:\n    tag_45:\n      pop\n      swap1\n      pop\n      tag_49\n      swap2\n      swap1\n      tag_50\n      jump\t// in\n    tag_49:\n      pop\n      swap1\n      jump\t// out\n    tag_50:\n      tag_51\n      swap2\n      swap1\n    tag_52:\n      dup1\n      dup3\n      gt\n      iszero\n      tag_53\n      jumpi\n      0x00\n      dup2\n      0x00\n      swap1\n      sstore\n      pop\n      0x01\n      add\n      jump(tag_52)\n    tag_53:\n      pop\n      swap1\n      jump\n    tag_51:\n      swap1\n      jump\t// out\n    stop\n    data_5037ad7fe73815dd8cd6e22299d6ca934824b747524f2c6dbfd64b5621cdb4ef 436f6c6c6567652049442073686f756c6420626520206265747765656e203120746f20332e\n    data_91147b02be505eafcfba0508d08ec0ac96c0f2c9821fe2bf6f36d6096e4f3ea2 53616d6520436f6c6c6567652063616e2774206769766520726174696e6720746f20697473656c662e\n\n    auxdata: 0xa265627a7a72315820e64b138819e3ba29c82f51b066fa7f8157545bb01699b2d68f4a4a45084c298864736f6c63430005110032\n}\n",
				"bytecode": {
					"linkReferences": {},
					"object": "608060405234801561001057600080fd5b50336000806101000a81548173ffffffffffffffffffffffffffffffffffffffff021916908373ffffffffffffffffffffffffffffffffffffffff160217905550610915806100606000396000f3fe608060405234801561001057600080fd5b50600436106100415760003560e01c80632936bdb3146100465780637d24fe71146100a5578063d6a6bacf14610194575b600080fd5b6100886004803603602081101561005c57600080fd5b81019080803573ffffffffffffffffffffffffffffffffffffffff169060200190929190505050610262565b604051808381526020018281526020019250505060405180910390f35b610192600480360360808110156100bb57600080fd5b81019080803573ffffffffffffffffffffffffffffffffffffffff16906020019092919080359060200190929190803590602001909291908035906020019064010000000081111561010c57600080fd5b82018360208201111561011e57600080fd5b8035906020019184600183028401116401000000008311171561014057600080fd5b91908080601f016020809104026020016040519081016040528093929190818152602001838380828437600081840152601f19601f82011690508083019250505050505050919291929050505061039d565b005b6101e0600480360360408110156101aa57600080fd5b81019080803573ffffffffffffffffffffffffffffffffffffffff16906020019092919080359060200190929190505050610632565b6040518080602001838152602001828103825284818151815260200191508051906020019080838360005b8381101561022657808201518184015260208101905061020b565b50505050905090810190601f1680156102535780820380516001836020036101000a031916815260200191505b50935050505060405180910390f35b6000806000806000809050600160008773ffffffffffffffffffffffffffffffffffffffff1673ffffffffffffffffffffffffffffffffffffffff16815260200190815260200160002060000180549050925060008090505b8381101561038257600160008873ffffffffffffffffffffffffffffffffffffffff1673ffffffffffffffffffffffffffffffffffffffff168152602001908152602001600020600001818154811061031057fe5b9060005260206000200154925081600160008973ffffffffffffffffffffffffffffffffffffffff1673ffffffffffffffffffffffffffffffffffffffff16815260200190815260200160002060010160008581526020019081526020016000205401915080806001019150506102bb565b5082818161038c57fe5b049050828194509450505050915091565b833373ffffffffffffffffffffffffffffffffffffffff168173ffffffffffffffffffffffffffffffffffffffff161415610423576040517f08c379a00000000000000000000000000000000000000000000000000000000081526004018080602001828103825260298152602001806108b86029913960400191505060405180910390fd5b8360008114158015610436575060038111155b61048b576040517f08c379a00000000000000000000000000000000000000000000000000000000081526004018080602001828103825260258152602001806108936025913960400191505060405180910390fd5b600160008773ffffffffffffffffffffffffffffffffffffffff1673ffffffffffffffffffffffffffffffffffffffff16815260200190815260200160002060000185908060018154018082558091505090600182039060005260206000200160009091929091909150555083600160008873ffffffffffffffffffffffffffffffffffffffff1673ffffffffffffffffffffffffffffffffffffffff16815260200190815260200160002060010160008781526020019081526020016000208190555082600160008873ffffffffffffffffffffffffffffffffffffffff1673ffffffffffffffffffffffffffffffffffffffff168152602001908152602001600020600201600087815260200190815260200160002090805190602001906105b69291906107ed565b507fe479d3bf97f2a940e7c0466a960c725a7794d1243fb60cae056bedd68ae7f8a0868686604051808473ffffffffffffffffffffffffffffffffffffffff1673ffffffffffffffffffffffffffffffffffffffff168152602001838152602001828152602001935050505060405180910390a1505050505050565b606060008260008114158015610649575060038111155b61069e576040517f08c379a00000000000000000000000000000000000000000000000000000000081526004018080602001828103825260258152602001806108936025913960400191505060405180910390fd5b600160008673ffffffffffffffffffffffffffffffffffffffff1673ffffffffffffffffffffffffffffffffffffffff1681526020019081526020016000206002016000858152602001908152602001600020600160008773ffffffffffffffffffffffffffffffffffffffff1673ffffffffffffffffffffffffffffffffffffffff168152602001908152602001600020600101600086815260200190815260200160002054818054600181600116156101000203166002900480601f0160208091040260200160405190810160405280929190818152602001828054600181600116156101000203166002900480156107da5780601f106107af576101008083540402835291602001916107da565b820191906000526020600020905b8154815290600101906020018083116107bd57829003601f168201915b5050505050915092509250509250929050565b828054600181600116156101000203166002900490600052602060002090601f016020900481019282601f1061082e57805160ff191683800117855561085c565b8280016001018555821561085c579182015b8281111561085b578251825591602001919060010190610840565b5b509050610869919061086d565b5090565b61088f91905b8082111561088b576000816000905550600101610873565b5090565b9056fe436f6c6c6567652049442073686f756c6420626520206265747765656e203120746f20332e53616d6520436f6c6c6567652063616e2774206769766520726174696e6720746f20697473656c662ea265627a7a72315820e64b138819e3ba29c82f51b066fa7f8157545bb01699b2d68f4a4a45084c298864736f6c63430005110032",
					"opcodes": "PUSH1 0x80 PUSH1 0x40 MSTORE CALLVALUE DUP1 ISZERO PUSH2 0x10 JUMPI PUSH1 0x0 DUP1 REVERT JUMPDEST POP CALLER PUSH1 0x0 DUP1 PUSH2 0x100 EXP DUP2 SLOAD DUP2 PUSH20 0xFFFFFFFFFFFFFFFFFFFFFFFFFFFFFFFFFFFFFFFF MUL NOT AND SWAP1 DUP4 PUSH20 0xFFFFFFFFFFFFFFFFFFFFFFFFFFFFFFFFFFFFFFFF AND MUL OR SWAP1 SSTORE POP PUSH2 0x915 DUP1 PUSH2 0x60 PUSH1 0x0 CODECOPY PUSH1 0x0 RETURN INVALID PUSH1 0x80 PUSH1 0x40 MSTORE CALLVALUE DUP1 ISZERO PUSH2 0x10 JUMPI PUSH1 0x0 DUP1 REVERT JUMPDEST POP PUSH1 0x4 CALLDATASIZE LT PUSH2 0x41 JUMPI PUSH1 0x0 CALLDATALOAD PUSH1 0xE0 SHR DUP1 PUSH4 0x2936BDB3 EQ PUSH2 0x46 JUMPI DUP1 PUSH4 0x7D24FE71 EQ PUSH2 0xA5 JUMPI DUP1 PUSH4 0xD6A6BACF EQ PUSH2 0x194 JUMPI JUMPDEST PUSH1 0x0 DUP1 REVERT JUMPDEST PUSH2 0x88 PUSH1 0x4 DUP1 CALLDATASIZE SUB PUSH1 0x20 DUP2 LT ISZERO PUSH2 0x5C JUMPI PUSH1 0x0 DUP1 REVERT JUMPDEST DUP2 ADD SWAP1 DUP1 DUP1 CALLDATALOAD PUSH20 0xFFFFFFFFFFFFFFFFFFFFFFFFFFFFFFFFFFFFFFFF AND SWAP1 PUSH1 0x20 ADD SWAP1 SWAP3 SWAP2 SWAP1 POP POP POP PUSH2 0x262 JUMP JUMPDEST PUSH1 0x40 MLOAD DUP1 DUP4 DUP2 MSTORE PUSH1 0x20 ADD DUP3 DUP2 MSTORE PUSH1 0x20 ADD SWAP3 POP POP POP PUSH1 0x40 MLOAD DUP1 SWAP2 SUB SWAP1 RETURN JUMPDEST PUSH2 0x192 PUSH1 0x4 DUP1 CALLDATASIZE SUB PUSH1 0x80 DUP2 LT ISZERO PUSH2 0xBB JUMPI PUSH1 0x0 DUP1 REVERT JUMPDEST DUP2 ADD SWAP1 DUP1 DUP1 CALLDATALOAD PUSH20 0xFFFFFFFFFFFFFFFFFFFFFFFFFFFFFFFFFFFFFFFF AND SWAP1 PUSH1 0x20 ADD SWAP1 SWAP3 SWAP2 SWAP1 DUP1 CALLDATALOAD SWAP1 PUSH1 0x20 ADD SWAP1 SWAP3 SWAP2 SWAP1 DUP1 CALLDATALOAD SWAP1 PUSH1 0x20 ADD SWAP1 SWAP3 SWAP2 SWAP1 DUP1 CALLDATALOAD SWAP1 PUSH1 0x20 ADD SWAP1 PUSH5 0x100000000 DUP2 GT ISZERO PUSH2 0x10C JUMPI PUSH1 0x0 DUP1 REVERT JUMPDEST DUP3 ADD DUP4 PUSH1 0x20 DUP3 ADD GT ISZERO PUSH2 0x11E JUMPI PUSH1 0x0 DUP1 REVERT JUMPDEST DUP1 CALLDATALOAD SWAP1 PUSH1 0x20 ADD SWAP2 DUP5 PUSH1 0x1 DUP4 MUL DUP5 ADD GT PUSH5 0x100000000 DUP4 GT OR ISZERO PUSH2 0x140 JUMPI PUSH1 0x0 DUP1 REVERT JUMPDEST SWAP2 SWAP1 DUP1 DUP1 PUSH1 0x1F ADD PUSH1 0x20 DUP1 SWAP2 DIV MUL PUSH1 0x20 ADD PUSH1 0x40 MLOAD SWAP1 DUP2 ADD PUSH1 0x40 MSTORE DUP1 SWAP4 SWAP3 SWAP2 SWAP1 DUP2 DUP2 MSTORE PUSH1 0x20 ADD DUP4 DUP4 DUP1 DUP3 DUP5 CALLDATACOPY PUSH1 0x0 DUP2 DUP5 ADD MSTORE PUSH1 0x1F NOT PUSH1 0x1F DUP3 ADD AND SWAP1 POP DUP1 DUP4 ADD SWAP3 POP POP POP POP POP POP POP SWAP2 SWAP3 SWAP2 SWAP3 SWAP1 POP POP POP PUSH2 0x39D JUMP JUMPDEST STOP JUMPDEST PUSH2 0x1E0 PUSH1 0x4 DUP1 CALLDATASIZE SUB PUSH1 0x40 DUP2 LT ISZERO PUSH2 0x1AA JUMPI PUSH1 0x0 DUP1 REVERT JUMPDEST DUP2 ADD SWAP1 DUP1 DUP1 CALLDATALOAD PUSH20 0xFFFFFFFFFFFFFFFFFFFFFFFFFFFFFFFFFFFFFFFF AND SWAP1 PUSH1 0x20 ADD SWAP1 SWAP3 SWAP2 SWAP1 DUP1 CALLDATALOAD SWAP1 PUSH1 0x20 ADD SWAP1 SWAP3 SWAP2 SWAP1 POP POP POP PUSH2 0x632 JUMP JUMPDEST PUSH1 0x40 MLOAD DUP1 DUP1 PUSH1 0x20 ADD DUP4 DUP2 MSTORE PUSH1 0x20 ADD DUP3 DUP2 SUB DUP3 MSTORE DUP5 DUP2 DUP2 MLOAD DUP2 MSTORE PUSH1 0x20 ADD SWAP2 POP DUP1 MLOAD SWAP1 PUSH1 0x20 ADD SWAP1 DUP1 DUP4 DUP4 PUSH1 0x0 JUMPDEST DUP4 DUP2 LT ISZERO PUSH2 0x226 JUMPI DUP1 DUP3 ADD MLOAD DUP2 DUP5 ADD MSTORE PUSH1 0x20 DUP2 ADD SWAP1 POP PUSH2 0x20B JUMP JUMPDEST POP POP POP POP SWAP1 POP SWAP1 DUP2 ADD SWAP1 PUSH1 0x1F AND DUP1 ISZERO PUSH2 0x253 JUMPI DUP1 DUP3 SUB DUP1 MLOAD PUSH1 0x1 DUP4 PUSH1 0x20 SUB PUSH2 0x100 EXP SUB NOT AND DUP2 MSTORE PUSH1 0x20 ADD SWAP2 POP JUMPDEST POP SWAP4 POP POP POP POP PUSH1 0x40 MLOAD DUP1 SWAP2 SUB SWAP1 RETURN JUMPDEST PUSH1 0x0 DUP1 PUSH1 0x0 DUP1 PUSH1 0x0 DUP1 SWAP1 POP PUSH1 0x1 PUSH1 0x0 DUP8 PUSH20 0xFFFFFFFFFFFFFFFFFFFFFFFFFFFFFFFFFFFFFFFF AND PUSH20 0xFFFFFFFFFFFFFFFFFFFFFFFFFFFFFFFFFFFFFFFF AND DUP2 MSTORE PUSH1 0x20 ADD SWAP1 DUP2 MSTORE PUSH1 0x20 ADD PUSH1 0x0 KECCAK256 PUSH1 0x0 ADD DUP1 SLOAD SWAP1 POP SWAP3 POP PUSH1 0x0 DUP1 SWAP1 POP JUMPDEST DUP4 DUP2 LT ISZERO PUSH2 0x382 JUMPI PUSH1 0x1 PUSH1 0x0 DUP9 PUSH20 0xFFFFFFFFFFFFFFFFFFFFFFFFFFFFFFFFFFFFFFFF AND PUSH20 0xFFFFFFFFFFFFFFFFFFFFFFFFFFFFFFFFFFFFFFFF AND DUP2 MSTORE PUSH1 0x20 ADD SWAP1 DUP2 MSTORE PUSH1 0x20 ADD PUSH1 0x0 KECCAK256 PUSH1 0x0 ADD DUP2 DUP2 SLOAD DUP2 LT PUSH2 0x310 JUMPI INVALID JUMPDEST SWAP1 PUSH1 0x0 MSTORE PUSH1 0x20 PUSH1 0x0 KECCAK256 ADD SLOAD SWAP3 POP DUP2 PUSH1 0x1 PUSH1 0x0 DUP10 PUSH20 0xFFFFFFFFFFFFFFFFFFFFFFFFFFFFFFFFFFFFFFFF AND PUSH20 0xFFFFFFFFFFFFFFFFFFFFFFFFFFFFFFFFFFFFFFFF AND DUP2 MSTORE PUSH1 0x20 ADD SWAP1 DUP2 MSTORE PUSH1 0x20 ADD PUSH1 0x0 KECCAK256 PUSH1 0x1 ADD PUSH1 0x0 DUP6 DUP2 MSTORE PUSH1 0x20 ADD SWAP1 DUP2 MSTORE PUSH1 0x20 ADD PUSH1 0x0 KECCAK256 SLOAD ADD SWAP2 POP DUP1 DUP1 PUSH1 0x1 ADD SWAP2 POP POP PUSH2 0x2BB JUMP JUMPDEST POP DUP3 DUP2 DUP2 PUSH2 0x38C JUMPI INVALID JUMPDEST DIV SWAP1 POP DUP3 DUP2 SWAP5 POP SWAP5 POP POP POP POP SWAP2 POP SWAP2 JUMP JUMPDEST DUP4 CALLER PUSH20 0xFFFFFFFFFFFFFFFFFFFFFFFFFFFFFFFFFFFFFFFF AND DUP2 PUSH20 0xFFFFFFFFFFFFFFFFFFFFFFFFFFFFFFFFFFFFFFFF AND EQ ISZERO PUSH2 0x423 JUMPI PUSH1 0x40 MLOAD PUSH32 0x8C379A000000000000000000000000000000000000000000000000000000000 DUP2 MSTORE PUSH1 0x4 ADD DUP1 DUP1 PUSH1 0x20 ADD DUP3 DUP2 SUB DUP3 MSTORE PUSH1 0x29 DUP2 MSTORE PUSH1 0x20 ADD DUP1 PUSH2 0x8B8 PUSH1 0x29 SWAP2 CODECOPY PUSH1 0x40 ADD SWAP2 POP POP PUSH1 0x40 MLOAD DUP1 SWAP2 SUB SWAP1 REVERT JUMPDEST DUP4 PUSH1 0x0 DUP2 EQ ISZERO DUP1 ISZERO PUSH2 0x436 JUMPI POP PUSH1 0x3 DUP2 GT ISZERO JUMPDEST PUSH2 0x48B JUMPI PUSH1 0x40 MLOAD PUSH32 0x8C379A000000000000000000000000000000000000000000000000000000000 DUP2 MSTORE PUSH1 0x4 ADD DUP1 DUP1 PUSH1 0x20 ADD DUP3 DUP2 SUB DUP3 MSTORE PUSH1 0x25 DUP2 MSTORE PUSH1 0x20 ADD DUP1 PUSH2 0x893 PUSH1 0x25 SWAP2 CODECOPY PUSH1 0x40 ADD SWAP2 POP POP PUSH1 0x40 MLOAD DUP1 SWAP2 SUB SWAP1 REVERT JUMPDEST PUSH1 0x1 PUSH1 0x0 DUP8 PUSH20 0xFFFFFFFFFFFFFFFFFFFFFFFFFFFFFFFFFFFFFFFF AND PUSH20 0xFFFFFFFFFFFFFFFFFFFFFFFFFFFFFFFFFFFFFFFF AND DUP2 MSTORE PUSH1 0x20 ADD SWAP1 DUP2 MSTORE PUSH1 0x20 ADD PUSH1 0x0 KECCAK256 PUSH1 0x0 ADD DUP6 SWAP1 DUP1 PUSH1 0x1 DUP2 SLOAD ADD DUP1 DUP3 SSTORE DUP1 SWAP2 POP POP SWAP1 PUSH1 0x1 DUP3 SUB SWAP1 PUSH1 0x0 MSTORE PUSH1 0x20 PUSH1 0x0 KECCAK256 ADD PUSH1 0x0 SWAP1 SWAP2 SWAP3 SWAP1 SWAP2 SWAP1 SWAP2 POP SSTORE POP DUP4 PUSH1 0x1 PUSH1 0x0 DUP9 PUSH20 0xFFFFFFFFFFFFFFFFFFFFFFFFFFFFFFFFFFFFFFFF AND PUSH20 0xFFFFFFFFFFFFFFFFFFFFFFFFFFFFFFFFFFFFFFFF AND DUP2 MSTORE PUSH1 0x20 ADD SWAP1 DUP2 MSTORE PUSH1 0x20 ADD PUSH1 0x0 KECCAK256 PUSH1 0x1 ADD PUSH1 0x0 DUP8 DUP2 MSTORE PUSH1 0x20 ADD SWAP1 DUP2 MSTORE PUSH1 0x20 ADD PUSH1 0x0 KECCAK256 DUP2 SWAP1 SSTORE POP DUP3 PUSH1 0x1 PUSH1 0x0 DUP9 PUSH20 0xFFFFFFFFFFFFFFFFFFFFFFFFFFFFFFFFFFFFFFFF AND PUSH20 0xFFFFFFFFFFFFFFFFFFFFFFFFFFFFFFFFFFFFFFFF AND DUP2 MSTORE PUSH1 0x20 ADD SWAP1 DUP2 MSTORE PUSH1 0x20 ADD PUSH1 0x0 KECCAK256 PUSH1 0x2 ADD PUSH1 0x0 DUP8 DUP2 MSTORE PUSH1 0x20 ADD SWAP1 DUP2 MSTORE PUSH1 0x20 ADD PUSH1 0x0 KECCAK256 SWAP1 DUP1 MLOAD SWAP1 PUSH1 0x20 ADD SWAP1 PUSH2 0x5B6 SWAP3 SWAP2 SWAP1 PUSH2 0x7ED JUMP JUMPDEST POP PUSH32 0xE479D3BF97F2A940E7C0466A960C725A7794D1243FB60CAE056BEDD68AE7F8A0 DUP7 DUP7 DUP7 PUSH1 0x40 MLOAD DUP1 DUP5 PUSH20 0xFFFFFFFFFFFFFFFFFFFFFFFFFFFFFFFFFFFFFFFF AND PUSH20 0xFFFFFFFFFFFFFFFFFFFFFFFFFFFFFFFFFFFFFFFF AND DUP2 MSTORE PUSH1 0x20 ADD DUP4 DUP2 MSTORE PUSH1 0x20 ADD DUP3 DUP2 MSTORE PUSH1 0x20 ADD SWAP4 POP POP POP POP PUSH1 0x40 MLOAD DUP1 SWAP2 SUB SWAP1 LOG1 POP POP POP POP POP POP JUMP JUMPDEST PUSH1 0x60 PUSH1 0x0 DUP3 PUSH1 0x0 DUP2 EQ ISZERO DUP1 ISZERO PUSH2 0x649 JUMPI POP PUSH1 0x3 DUP2 GT ISZERO JUMPDEST PUSH2 0x69E JUMPI PUSH1 0x40 MLOAD PUSH32 0x8C379A000000000000000000000000000000000000000000000000000000000 DUP2 MSTORE PUSH1 0x4 ADD DUP1 DUP1 PUSH1 0x20 ADD DUP3 DUP2 SUB DUP3 MSTORE PUSH1 0x25 DUP2 MSTORE PUSH1 0x20 ADD DUP1 PUSH2 0x893 PUSH1 0x25 SWAP2 CODECOPY PUSH1 0x40 ADD SWAP2 POP POP PUSH1 0x40 MLOAD DUP1 SWAP2 SUB SWAP1 REVERT JUMPDEST PUSH1 0x1 PUSH1 0x0 DUP7 PUSH20 0xFFFFFFFFFFFFFFFFFFFFFFFFFFFFFFFFFFFFFFFF AND PUSH20 0xFFFFFFFFFFFFFFFFFFFFFFFFFFFFFFFFFFFFFFFF AND DUP2 MSTORE PUSH1 0x20 ADD SWAP1 DUP2 MSTORE PUSH1 0x20 ADD PUSH1 0x0 KECCAK256 PUSH1 0x2 ADD PUSH1 0x0 DUP6 DUP2 MSTORE PUSH1 0x20 ADD SWAP1 DUP2 MSTORE PUSH1 0x20 ADD PUSH1 0x0 KECCAK256 PUSH1 0x1 PUSH1 0x0 DUP8 PUSH20 0xFFFFFFFFFFFFFFFFFFFFFFFFFFFFFFFFFFFFFFFF AND PUSH20 0xFFFFFFFFFFFFFFFFFFFFFFFFFFFFFFFFFFFFFFFF AND DUP2 MSTORE PUSH1 0x20 ADD SWAP1 DUP2 MSTORE PUSH1 0x20 ADD PUSH1 0x0 KECCAK256 PUSH1 0x1 ADD PUSH1 0x0 DUP7 DUP2 MSTORE PUSH1 0x20 ADD SWAP1 DUP2 MSTORE PUSH1 0x20 ADD PUSH1 0x0 KECCAK256 SLOAD DUP2 DUP1 SLOAD PUSH1 0x1 DUP2 PUSH1 0x1 AND ISZERO PUSH2 0x100 MUL SUB AND PUSH1 0x2 SWAP1 DIV DUP1 PUSH1 0x1F ADD PUSH1 0x20 DUP1 SWAP2 DIV MUL PUSH1 0x20 ADD PUSH1 0x40 MLOAD SWAP1 DUP2 ADD PUSH1 0x40 MSTORE DUP1 SWAP3 SWAP2 SWAP1 DUP2 DUP2 MSTORE PUSH1 0x20 ADD DUP3 DUP1 SLOAD PUSH1 0x1 DUP2 PUSH1 0x1 AND ISZERO PUSH2 0x100 MUL SUB AND PUSH1 0x2 SWAP1 DIV DUP1 ISZERO PUSH2 0x7DA JUMPI DUP1 PUSH1 0x1F LT PUSH2 0x7AF JUMPI PUSH2 0x100 DUP1 DUP4 SLOAD DIV MUL DUP4 MSTORE SWAP2 PUSH1 0x20 ADD SWAP2 PUSH2 0x7DA JUMP JUMPDEST DUP3 ADD SWAP2 SWAP1 PUSH1 0x0 MSTORE PUSH1 0x20 PUSH1 0x0 KECCAK256 SWAP1 JUMPDEST DUP2 SLOAD DUP2 MSTORE SWAP1 PUSH1 0x1 ADD SWAP1 PUSH1 0x20 ADD DUP1 DUP4 GT PUSH2 0x7BD JUMPI DUP3 SWAP1 SUB PUSH1 0x1F AND DUP3 ADD SWAP2 JUMPDEST POP POP POP POP POP SWAP2 POP SWAP3 POP SWAP3 POP POP SWAP3 POP SWAP3 SWAP1 POP JUMP JUMPDEST DUP3 DUP1 SLOAD PUSH1 0x1 DUP2 PUSH1 0x1 AND ISZERO PUSH2 0x100 MUL SUB AND PUSH1 0x2 SWAP1 DIV SWAP1 PUSH1 0x0 MSTORE PUSH1 0x20 PUSH1 0x0 KECCAK256 SWAP1 PUSH1 0x1F ADD PUSH1 0x20 SWAP1 DIV DUP2 ADD SWAP3 DUP3 PUSH1 0x1F LT PUSH2 0x82E JUMPI DUP1 MLOAD PUSH1 0xFF NOT AND DUP4 DUP1 ADD OR DUP6 SSTORE PUSH2 0x85C JUMP JUMPDEST DUP3 DUP1 ADD PUSH1 0x1 ADD DUP6 SSTORE DUP3 ISZERO PUSH2 0x85C JUMPI SWAP2 DUP3 ADD JUMPDEST DUP3 DUP2 GT ISZERO PUSH2 0x85B JUMPI DUP3 MLOAD DUP3 SSTORE SWAP2 PUSH1 0x20 ADD SWAP2 SWAP1 PUSH1 0x1 ADD SWAP1 PUSH2 0x840 JUMP JUMPDEST JUMPDEST POP SWAP1 POP PUSH2 0x869 SWAP2 SWAP1 PUSH2 0x86D JUMP JUMPDEST POP SWAP1 JUMP JUMPDEST PUSH2 0x88F SWAP2 SWAP1 JUMPDEST DUP1 DUP3 GT ISZERO PUSH2 0x88B JUMPI PUSH1 0x0 DUP2 PUSH1 0x0 SWAP1 SSTORE POP PUSH1 0x1 ADD PUSH2 0x873 JUMP JUMPDEST POP SWAP1 JUMP JUMPDEST SWAP1 JUMP INVALID NUMBER PUSH16 0x6C6C6567652049442073686F756C6420 PUSH3 0x652020 PUSH3 0x657477 PUSH6 0x656E20312074 PUSH16 0x20332E53616D6520436F6C6C65676520 PUSH4 0x616E2774 KECCAK256 PUSH8 0x6976652072617469 PUSH15 0x6720746F20697473656C662EA26562 PUSH27 0x7A72315820E64B138819E3BA29C82F51B066FA7F8157545BB01699 0xB2 0xD6 DUP16 0x4A 0x4A GASLIMIT ADDMOD 0x4C 0x29 DUP9 PUSH5 0x736F6C6343 STOP SDIV GT STOP ORIGIN "
				},
				"gasEstimates": {
					"creation": {
						"codeDepositCost": "465000",
						"executionCost": "21365",
						"totalCost": "486365"
					},
					"external": {
						"getCollageRating(address)": "infinite",
						"getDeptRating(address,uint256)": "infinite",
						"setRating(address,uint256,uint256,string)": "infinite"
					}
				},
				"methodIdentifiers": {
					"getCollageRating(address)": "2936bdb3",
					"getDeptRating(address,uint256)": "d6a6bacf",
					"setRating(address,uint256,uint256,string)": "7d24fe71"
				}
			},
			"storageLayout": {
				"storage": [
					{
						"astId": 3,
						"contract": "collegeDepartmentRating.sol:collegeRating",
						"label": "cAdd",
						"offset": 0,
						"slot": "0",
						"type": "t_address"
					},
					{
						"astId": 21,
						"contract": "collegeDepartmentRating.sol:collegeRating",
						"label": "cRating",
						"offset": 0,
						"slot": "1",
						"type": "t_mapping(t_address,t_struct(ratingStruct)17_storage)"
					}
				],
				"types": {
					"t_address": {
						"encoding": "inplace",
						"label": "address",
						"numberOfBytes": "20"
					},
					"t_array(t_uint256)dyn_storage": {
						"base": "t_uint256",
						"encoding": "dynamic_array",
						"label": "uint256[]",
						"numberOfBytes": "32"
					},
					"t_mapping(t_address,t_struct(ratingStruct)17_storage)": {
						"encoding": "mapping",
						"key": "t_address",
						"label": "mapping(address => struct collegeRating.ratingStruct)",
						"numberOfBytes": "32",
						"value": "t_struct(ratingStruct)17_storage"
					},
					"t_mapping(t_uint256,t_string_storage)": {
						"encoding": "mapping",
						"key": "t_uint256",
						"label": "mapping(uint256 => string)",
						"numberOfBytes": "32",
						"value": "t_string_storage"
					},
					"t_mapping(t_uint256,t_uint256)": {
						"encoding": "mapping",
						"key": "t_uint256",
						"label": "mapping(uint256 => uint256)",
						"numberOfBytes": "32",
						"value": "t_uint256"
					},
					"t_string_storage": {
						"encoding": "bytes",
						"label": "string",
						"numberOfBytes": "32"
					},
					"t_struct(ratingStruct)17_storage": {
						"encoding": "inplace",
						"label": "struct collegeRating.ratingStruct",
						"members": [
							{
								"astId": 6,
								"contract": "collegeDepartmentRating.sol:collegeRating",
								"label": "deptId",
								"offset": 0,
								"slot": "0",
								"type": "t_array(t_uint256)dyn_storage"
							},
							{
								"astId": 10,
								"contract": "collegeDepartmentRating.sol:collegeRating",
								"label": "rating",
								"offset": 0,
								"slot": "1",
								"type": "t_mapping(t_uint256,t_uint256)"
							},
							{
								"astId": 14,
								"contract": "collegeDepartmentRating.sol:collegeRating",
								"label": "dName",
								"offset": 0,
								"slot": "2",
								"type": "t_mapping(t_uint256,t_string_storage)"
							},
							{
								"astId": 16,
								"contract": "collegeDepartmentRating.sol:collegeRating",
								"label": "avgRating",
								"offset": 0,
								"slot": "3",
								"type": "t_uint256"
							}
						],
						"numberOfBytes": "128"
					},
					"t_uint256": {
						"encoding": "inplace",
						"label": "uint256",
						"numberOfBytes": "32"
					}
				}
			},
			"userdoc": {
				"methods": {}
			}
		}
	}
}