{
	"structMap.sol": {
		"studentMarks": {
			"abi": [
				{
					"inputs": [],
					"payable": false,
					"stateMutability": "nonpayable",
					"type": "constructor"
				},
				{
					"anonymous": false,
					"inputs": [
						{
							"indexed": false,
							"internalType": "address",
							"name": "studentId",
							"type": "address"
						},
						{
							"indexed": false,
							"internalType": "uint256",
							"name": "subjectId",
							"type": "uint256"
						},
						{
							"indexed": false,
							"internalType": "uint256",
							"name": "_marks",
							"type": "uint256"
						}
					],
					"name": "eAddStudentSubjectMark",
					"type": "event"
				},
				{
					"anonymous": false,
					"inputs": [
						{
							"indexed": false,
							"internalType": "address",
							"name": "studentId",
							"type": "address"
						},
						{
							"indexed": false,
							"internalType": "uint256",
							"name": "_tmarks",
							"type": "uint256"
						}
					],
					"name": "etMark",
					"type": "event"
				},
				{
					"constant": false,
					"inputs": [
						{
							"internalType": "address",
							"name": "_studentId",
							"type": "address"
						}
					],
					"name": "addGrade",
					"outputs": [
						{
							"internalType": "bool",
							"name": "",
							"type": "bool"
						}
					],
					"payable": false,
					"stateMutability": "nonpayable",
					"type": "function"
				},
				{
					"constant": true,
					"inputs": [
						{
							"internalType": "address",
							"name": "_studentId",
							"type": "address"
						},
						{
							"internalType": "uint256",
							"name": "_subjectId",
							"type": "uint256"
						}
					],
					"name": "getStudentMarks",
					"outputs": [
						{
							"internalType": "uint256",
							"name": "",
							"type": "uint256"
						}
					],
					"payable": false,
					"stateMutability": "view",
					"type": "function"
				},
				{
					"constant": false,
					"inputs": [
						{
							"internalType": "address",
							"name": "_studentId",
							"type": "address"
						}
					],
					"name": "getTotalMarks",
					"outputs": [
						{
							"internalType": "uint256",
							"name": "",
							"type": "uint256"
						}
					],
					"payable": false,
					"stateMutability": "nonpayable",
					"type": "function"
				},
				{
					"constant": false,
					"inputs": [
						{
							"internalType": "address",
							"name": "_studentId",
							"type": "address"
						},
						{
							"internalType": "uint256",
							"name": "_subjectId",
							"type": "uint256"
						},
						{
							"internalType": "uint256",
							"name": "_marks",
							"type": "uint256"
						}
					],
					"name": "setStudentMarks",
					"outputs": [],
					"payable": false,
					"stateMutability": "nonpayable",
					"type": "function"
				}
			],
			"devdoc": {
				"methods": {}
			},
			"evm": {
				"assembly": "    /* \"structMap.sol\":25:2331  contract studentMarks{... */\n  mstore(0x40, 0x80)\n    /* \"structMap.sol\":843:898  constructor() public {... */\n  callvalue\n    /* \"--CODEGEN--\":8:17   */\n  dup1\n    /* \"--CODEGEN--\":5:7   */\n  iszero\n  tag_1\n  jumpi\n    /* \"--CODEGEN--\":30:31   */\n  0x00\n    /* \"--CODEGEN--\":27:28   */\n  dup1\n    /* \"--CODEGEN--\":20:32   */\n  revert\n    /* \"--CODEGEN--\":5:7   */\ntag_1:\n    /* \"structMap.sol\":843:898  constructor() public {... */\n  pop\n    /* \"structMap.sol\":881:891  msg.sender */\n  caller\n    /* \"structMap.sol\":874:878  pAdd */\n  0x00\n  dup1\n    /* \"structMap.sol\":874:891  pAdd = msg.sender */\n  0x0100\n  exp\n  dup2\n  sload\n  dup2\n  0xffffffffffffffffffffffffffffffffffffffff\n  mul\n  not\n  and\n  swap1\n  dup4\n  0xffffffffffffffffffffffffffffffffffffffff\n  and\n  mul\n  or\n  swap1\n  sstore\n  pop\n    /* \"structMap.sol\":25:2331  contract studentMarks{... */\n  dataSize(sub_0)\n  dup1\n  dataOffset(sub_0)\n  0x00\n  codecopy\n  0x00\n  return\nstop\n\nsub_0: assembly {\n        /* \"structMap.sol\":25:2331  contract studentMarks{... */\n      mstore(0x40, 0x80)\n      callvalue\n        /* \"--CODEGEN--\":8:17   */\n      dup1\n        /* \"--CODEGEN--\":5:7   */\n      iszero\n      tag_1\n      jumpi\n        /* \"--CODEGEN--\":30:31   */\n      0x00\n        /* \"--CODEGEN--\":27:28   */\n      dup1\n        /* \"--CODEGEN--\":20:32   */\n      revert\n        /* \"--CODEGEN--\":5:7   */\n    tag_1:\n        /* \"structMap.sol\":25:2331  contract studentMarks{... */\n      pop\n      jumpi(tag_2, lt(calldatasize, 0x04))\n      shr(0xe0, calldataload(0x00))\n      dup1\n      0x4e74cf69\n      eq\n      tag_3\n      jumpi\n      dup1\n      0xcc75d5cc\n      eq\n      tag_4\n      jumpi\n      dup1\n      0xdc343bb3\n      eq\n      tag_5\n      jumpi\n      dup1\n      0xde8939c0\n      eq\n      tag_6\n      jumpi\n    tag_2:\n      0x00\n      dup1\n      revert\n        /* \"structMap.sol\":1481:1971  function getTotalMarks(address _studentId)public mCheckStudent(_studentId) returns(uint){... */\n    tag_3:\n      tag_7\n      0x04\n      dup1\n      calldatasize\n      sub\n        /* \"--CODEGEN--\":13:15   */\n      0x20\n        /* \"--CODEGEN--\":8:11   */\n      dup2\n        /* \"--CODEGEN--\":5:16   */\n      lt\n        /* \"--CODEGEN--\":2:4   */\n      iszero\n      tag_8\n      jumpi\n        /* \"--CODEGEN--\":29:30   */\n      0x00\n        /* \"--CODEGEN--\":26:27   */\n      dup1\n        /* \"--CODEGEN--\":19:31   */\n      revert\n        /* \"--CODEGEN--\":2:4   */\n    tag_8:\n        /* \"structMap.sol\":1481:1971  function getTotalMarks(address _studentId)public mCheckStudent(_studentId) returns(uint){... */\n      dup2\n      add\n      swap1\n      dup1\n      dup1\n      calldataload\n      0xffffffffffffffffffffffffffffffffffffffff\n      and\n      swap1\n      0x20\n      add\n      swap1\n      swap3\n      swap2\n      swap1\n      pop\n      pop\n      pop\n      tag_9\n      jump\t// in\n    tag_7:\n      mload(0x40)\n      dup1\n      dup3\n      dup2\n      mstore\n      0x20\n      add\n      swap2\n      pop\n      pop\n      mload(0x40)\n      dup1\n      swap2\n      sub\n      swap1\n      return\n        /* \"structMap.sol\":1979:2326  function addGrade (address _studentId) public mIsPrinciple returns(bool){... */\n    tag_4:\n      tag_10\n      0x04\n      dup1\n      calldatasize\n      sub\n        /* \"--CODEGEN--\":13:15   */\n      0x20\n        /* \"--CODEGEN--\":8:11   */\n      dup2\n        /* \"--CODEGEN--\":5:16   */\n      lt\n        /* \"--CODEGEN--\":2:4   */\n      iszero\n      tag_11\n      jumpi\n        /* \"--CODEGEN--\":29:30   */\n      0x00\n        /* \"--CODEGEN--\":26:27   */\n      dup1\n        /* \"--CODEGEN--\":19:31   */\n      revert\n        /* \"--CODEGEN--\":2:4   */\n    tag_11:\n        /* \"structMap.sol\":1979:2326  function addGrade (address _studentId) public mIsPrinciple returns(bool){... */\n      dup2\n      add\n      swap1\n      dup1\n      dup1\n      calldataload\n      0xffffffffffffffffffffffffffffffffffffffff\n      and\n      swap1\n      0x20\n      add\n      swap1\n      swap3\n      swap2\n      swap1\n      pop\n      pop\n      pop\n      tag_12\n      jump\t// in\n    tag_10:\n      mload(0x40)\n      dup1\n      dup3\n      iszero\n      iszero\n      iszero\n      iszero\n      dup2\n      mstore\n      0x20\n      add\n      swap2\n      pop\n      pop\n      mload(0x40)\n      dup1\n      swap2\n      sub\n      swap1\n      return\n        /* \"structMap.sol\":1295:1467  function getStudentMarks(address _studentId , uint _subjectId) public view returns(uint) {... */\n    tag_5:\n      tag_13\n      0x04\n      dup1\n      calldatasize\n      sub\n        /* \"--CODEGEN--\":13:15   */\n      0x40\n        /* \"--CODEGEN--\":8:11   */\n      dup2\n        /* \"--CODEGEN--\":5:16   */\n      lt\n        /* \"--CODEGEN--\":2:4   */\n      iszero\n      tag_14\n      jumpi\n        /* \"--CODEGEN--\":29:30   */\n      0x00\n        /* \"--CODEGEN--\":26:27   */\n      dup1\n        /* \"--CODEGEN--\":19:31   */\n      revert\n        /* \"--CODEGEN--\":2:4   */\n    tag_14:\n        /* \"structMap.sol\":1295:1467  function getStudentMarks(address _studentId , uint _subjectId) public view returns(uint) {... */\n      dup2\n      add\n      swap1\n      dup1\n      dup1\n      calldataload\n      0xffffffffffffffffffffffffffffffffffffffff\n      and\n      swap1\n      0x20\n      add\n      swap1\n      swap3\n      swap2\n      swap1\n      dup1\n      calldataload\n      swap1\n      0x20\n      add\n      swap1\n      swap3\n      swap2\n      swap1\n      pop\n      pop\n      pop\n      tag_15\n      jump\t// in\n    tag_13:\n      mload(0x40)\n      dup1\n      dup3\n      dup2\n      mstore\n      0x20\n      add\n      swap2\n      pop\n      pop\n      mload(0x40)\n      dup1\n      swap2\n      sub\n      swap1\n      return\n        /* \"structMap.sol\":950:1252  function setStudentMarks(address _studentId, uint _subjectId, uint _marks) public{... */\n    tag_6:\n      tag_16\n      0x04\n      dup1\n      calldatasize\n      sub\n        /* \"--CODEGEN--\":13:15   */\n      0x60\n        /* \"--CODEGEN--\":8:11   */\n      dup2\n        /* \"--CODEGEN--\":5:16   */\n      lt\n        /* \"--CODEGEN--\":2:4   */\n      iszero\n      tag_17\n      jumpi\n        /* \"--CODEGEN--\":29:30   */\n      0x00\n        /* \"--CODEGEN--\":26:27   */\n      dup1\n        /* \"--CODEGEN--\":19:31   */\n      revert\n        /* \"--CODEGEN--\":2:4   */\n    tag_17:\n        /* \"structMap.sol\":950:1252  function setStudentMarks(address _studentId, uint _subjectId, uint _marks) public{... */\n      dup2\n      add\n      swap1\n      dup1\n      dup1\n      calldataload\n      0xffffffffffffffffffffffffffffffffffffffff\n      and\n      swap1\n      0x20\n      add\n      swap1\n      swap3\n      swap2\n      swap1\n      dup1\n      calldataload\n      swap1\n      0x20\n      add\n      swap1\n      swap3\n      swap2\n      swap1\n      dup1\n      calldataload\n      swap1\n      0x20\n      add\n      swap1\n      swap3\n      swap2\n      swap1\n      pop\n      pop\n      pop\n      tag_18\n      jump\t// in\n    tag_16:\n      stop\n        /* \"structMap.sol\":1481:1971  function getTotalMarks(address _studentId)public mCheckStudent(_studentId) returns(uint){... */\n    tag_9:\n        /* \"structMap.sol\":1564:1568  uint */\n      0x00\n        /* \"structMap.sol\":1544:1554  _studentId */\n      dup2\n        /* \"structMap.sol\":601:611  msg.sender */\n      caller\n        /* \"structMap.sol\":593:611  pAdd == msg.sender */\n      0xffffffffffffffffffffffffffffffffffffffff\n      and\n        /* \"structMap.sol\":593:597  pAdd */\n      0x00\n      dup1\n      swap1\n      sload\n      swap1\n      0x0100\n      exp\n      swap1\n      div\n      0xffffffffffffffffffffffffffffffffffffffff\n      and\n        /* \"structMap.sol\":593:611  pAdd == msg.sender */\n      0xffffffffffffffffffffffffffffffffffffffff\n      and\n      eq\n        /* \"structMap.sol\":593:638  pAdd == msg.sender || studentId == msg.sender */\n      dup1\n      tag_20\n      jumpi\n      pop\n        /* \"structMap.sol\":628:638  msg.sender */\n      caller\n        /* \"structMap.sol\":615:638  studentId == msg.sender */\n      0xffffffffffffffffffffffffffffffffffffffff\n      and\n        /* \"structMap.sol\":615:624  studentId */\n      dup2\n        /* \"structMap.sol\":615:638  studentId == msg.sender */\n      0xffffffffffffffffffffffffffffffffffffffff\n      and\n      eq\n        /* \"structMap.sol\":593:638  pAdd == msg.sender || studentId == msg.sender */\n    tag_20:\n        /* \"structMap.sol\":585:666  require(pAdd == msg.sender || studentId == msg.sender, \"You are not authorised.\") */\n      tag_21\n      jumpi\n      mload(0x40)\n      0x08c379a000000000000000000000000000000000000000000000000000000000\n      dup2\n      mstore\n      0x04\n      add\n      dup1\n      dup1\n      0x20\n      add\n      dup3\n      dup2\n      sub\n      dup3\n      mstore\n      0x17\n      dup2\n      mstore\n      0x20\n      add\n      dup1\n      0x596f7520617265206e6f7420617574686f72697365642e000000000000000000\n      dup2\n      mstore\n      pop\n      0x20\n      add\n      swap2\n      pop\n      pop\n      mload(0x40)\n      dup1\n      swap2\n      sub\n      swap1\n      revert\n    tag_21:\n        /* \"structMap.sol\":1581:1592  uint length */\n      0x00\n        /* \"structMap.sol\":1595:1608  studentReport */\n      0x01\n        /* \"structMap.sol\":1595:1620  studentReport[_studentId] */\n      0x00\n        /* \"structMap.sol\":1609:1619  _studentId */\n      dup6\n        /* \"structMap.sol\":1595:1620  studentReport[_studentId] */\n      0xffffffffffffffffffffffffffffffffffffffff\n      and\n      0xffffffffffffffffffffffffffffffffffffffff\n      and\n      dup2\n      mstore\n      0x20\n      add\n      swap1\n      dup2\n      mstore\n      0x20\n      add\n      0x00\n      keccak256\n        /* \"structMap.sol\":1595:1632  studentReport[_studentId].subjectList */\n      0x00\n      add\n        /* \"structMap.sol\":1595:1639  studentReport[_studentId].subjectList.length */\n      dup1\n      sload\n      swap1\n      pop\n        /* \"structMap.sol\":1581:1639  uint length = studentReport[_studentId].subjectList.length */\n      swap1\n      pop\n        /* \"structMap.sol\":1651:1666  uint totalMarks */\n      0x00\n        /* \"structMap.sol\":1669:1670  0 */\n      dup1\n        /* \"structMap.sol\":1651:1670  uint totalMarks = 0 */\n      swap1\n      pop\n        /* \"structMap.sol\":1693:1699  uint i */\n      0x00\n        /* \"structMap.sol\":1702:1703  0 */\n      dup1\n        /* \"structMap.sol\":1693:1703  uint i = 0 */\n      swap1\n      pop\n        /* \"structMap.sol\":1689:1874  for(uint i = 0 ; i < length ; i++ ){... */\n    tag_23:\n        /* \"structMap.sol\":1710:1716  length */\n      dup3\n        /* \"structMap.sol\":1706:1707  i */\n      dup2\n        /* \"structMap.sol\":1706:1716  i < length */\n      lt\n        /* \"structMap.sol\":1689:1874  for(uint i = 0 ; i < length ; i++ ){... */\n      iszero\n      tag_24\n      jumpi\n        /* \"structMap.sol\":1851:1861  totalMarks */\n      dup2\n        /* \"structMap.sol\":1753:1766  studentReport */\n      0x01\n        /* \"structMap.sol\":1753:1778  studentReport[_studentId] */\n      0x00\n        /* \"structMap.sol\":1767:1777  _studentId */\n      dup9\n        /* \"structMap.sol\":1753:1778  studentReport[_studentId] */\n      0xffffffffffffffffffffffffffffffffffffffff\n      and\n      0xffffffffffffffffffffffffffffffffffffffff\n      and\n      dup2\n      mstore\n      0x20\n      add\n      swap1\n      dup2\n      mstore\n      0x20\n      add\n      0x00\n      keccak256\n        /* \"structMap.sol\":1753:1791  studentReport[_studentId].subjectMarks */\n      0x01\n      add\n        /* \"structMap.sol\":1753:1833  studentReport[_studentId].subjectMarks[studentReport[_studentId].subjectList[i]] */\n      0x00\n        /* \"structMap.sol\":1792:1805  studentReport */\n      0x01\n        /* \"structMap.sol\":1792:1817  studentReport[_studentId] */\n      0x00\n        /* \"structMap.sol\":1806:1816  _studentId */\n      dup11\n        /* \"structMap.sol\":1792:1817  studentReport[_studentId] */\n      0xffffffffffffffffffffffffffffffffffffffff\n      and\n      0xffffffffffffffffffffffffffffffffffffffff\n      and\n      dup2\n      mstore\n      0x20\n      add\n      swap1\n      dup2\n      mstore\n      0x20\n      add\n      0x00\n      keccak256\n        /* \"structMap.sol\":1792:1829  studentReport[_studentId].subjectList */\n      0x00\n      add\n        /* \"structMap.sol\":1830:1831  i */\n      dup5\n        /* \"structMap.sol\":1792:1832  studentReport[_studentId].subjectList[i] */\n      dup2\n      sload\n      dup2\n      lt\n      tag_26\n      jumpi\n      invalid\n    tag_26:\n      swap1\n      0x00\n      mstore\n      keccak256(0x00, 0x20)\n      add\n      sload\n        /* \"structMap.sol\":1753:1833  studentReport[_studentId].subjectMarks[studentReport[_studentId].subjectList[i]] */\n      dup2\n      mstore\n      0x20\n      add\n      swap1\n      dup2\n      mstore\n      0x20\n      add\n      0x00\n      keccak256\n      sload\n        /* \"structMap.sol\":1753:1861  studentReport[_studentId].subjectMarks[studentReport[_studentId].subjectList[i]] ... */\n      add\n        /* \"structMap.sol\":1740:1861  totalMarks = studentReport[_studentId].subjectMarks[studentReport[_studentId].subjectList[i]] ... */\n      swap2\n      pop\n        /* \"structMap.sol\":1719:1722  i++ */\n      dup1\n      dup1\n      0x01\n      add\n      swap2\n      pop\n      pop\n        /* \"structMap.sol\":1689:1874  for(uint i = 0 ; i < length ; i++ ){... */\n      jump(tag_23)\n    tag_24:\n      pop\n        /* \"structMap.sol\":1892:1924  etMark( _studentId,  totalMarks) */\n      0x81dce5cad007d30dd466d1efc0f74da2ae5d7be4a7a4e237971fc4f96878d12f\n        /* \"structMap.sol\":1900:1910  _studentId */\n      dup6\n        /* \"structMap.sol\":1913:1923  totalMarks */\n      dup3\n        /* \"structMap.sol\":1892:1924  etMark( _studentId,  totalMarks) */\n      mload(0x40)\n      dup1\n      dup4\n      0xffffffffffffffffffffffffffffffffffffffff\n      and\n      0xffffffffffffffffffffffffffffffffffffffff\n      and\n      dup2\n      mstore\n      0x20\n      add\n      dup3\n      dup2\n      mstore\n      0x20\n      add\n      swap3\n      pop\n      pop\n      pop\n      mload(0x40)\n      dup1\n      swap2\n      sub\n      swap1\n      log1\n        /* \"structMap.sol\":1946:1956  totalMarks */\n      dup1\n        /* \"structMap.sol\":1939:1956  return totalMarks */\n      swap4\n      pop\n      pop\n      pop\n        /* \"structMap.sol\":1481:1971  function getTotalMarks(address _studentId)public mCheckStudent(_studentId) returns(uint){... */\n      pop\n      swap2\n      swap1\n      pop\n      jump\t// out\n        /* \"structMap.sol\":1979:2326  function addGrade (address _studentId) public mIsPrinciple returns(bool){... */\n    tag_12:\n        /* \"structMap.sol\":2046:2050  bool */\n      0x00\n        /* \"structMap.sol\":745:749  pAdd */\n      dup1\n      0x00\n      swap1\n      sload\n      swap1\n      0x0100\n      exp\n      swap1\n      div\n      0xffffffffffffffffffffffffffffffffffffffff\n      and\n        /* \"structMap.sol\":731:749  msg.sender == pAdd */\n      0xffffffffffffffffffffffffffffffffffffffff\n      and\n        /* \"structMap.sol\":731:741  msg.sender */\n      caller\n        /* \"structMap.sol\":731:749  msg.sender == pAdd */\n      0xffffffffffffffffffffffffffffffffffffffff\n      and\n      eq\n        /* \"structMap.sol\":723:796  require(msg.sender == pAdd, \"Your role is not recognised as a principle\") */\n      tag_29\n      jumpi\n      mload(0x40)\n      0x08c379a000000000000000000000000000000000000000000000000000000000\n      dup2\n      mstore\n      0x04\n      add\n      dup1\n      dup1\n      0x20\n      add\n      dup3\n      dup2\n      sub\n      dup3\n      mstore\n      0x2a\n      dup2\n      mstore\n      0x20\n      add\n      dup1\n      data_9907a4871c8634f11a697202521975af601124996104b4812a246812fd60a208\n      0x2a\n      swap2\n      codecopy\n      0x40\n      add\n      swap2\n      pop\n      pop\n      mload(0x40)\n      dup1\n      swap2\n      sub\n      swap1\n      revert\n    tag_29:\n        /* \"structMap.sol\":2063:2078  uint totalMarks */\n      0x00\n        /* \"structMap.sol\":2081:2106  getTotalMarks(_studentId) */\n      tag_31\n        /* \"structMap.sol\":2095:2105  _studentId */\n      dup4\n        /* \"structMap.sol\":2081:2094  getTotalMarks */\n      tag_9\n        /* \"structMap.sol\":2081:2106  getTotalMarks(_studentId) */\n      jump\t// in\n    tag_31:\n        /* \"structMap.sol\":2063:2106  uint totalMarks = getTotalMarks(_studentId) */\n      swap1\n      pop\n        /* \"structMap.sol\":2194:2197  120 */\n      0x78\n        /* \"structMap.sol\":2180:2190  totalMarks */\n      dup2\n        /* \"structMap.sol\":2180:2197  totalMarks >= 120 */\n      lt\n        /* \"structMap.sol\":2177:2266  if(totalMarks >= 120){... */\n      tag_32\n      jumpi\n        /* \"structMap.sol\":2248:2252  true */\n      0x01\n        /* \"structMap.sol\":2214:2227  studentReport */\n      dup1\n        /* \"structMap.sol\":2214:2239  studentReport[_studentId] */\n      0x00\n        /* \"structMap.sol\":2228:2238  _studentId */\n      dup6\n        /* \"structMap.sol\":2214:2239  studentReport[_studentId] */\n      0xffffffffffffffffffffffffffffffffffffffff\n      and\n      0xffffffffffffffffffffffffffffffffffffffff\n      and\n      dup2\n      mstore\n      0x20\n      add\n      swap1\n      dup2\n      mstore\n      0x20\n      add\n      0x00\n      keccak256\n        /* \"structMap.sol\":2214:2245  studentReport[_studentId].grade */\n      0x02\n      add\n      0x00\n        /* \"structMap.sol\":2214:2252  studentReport[_studentId].grade = true */\n      0x0100\n      exp\n      dup2\n      sload\n      dup2\n      0xff\n      mul\n      not\n      and\n      swap1\n      dup4\n      iszero\n      iszero\n      mul\n      or\n      swap1\n      sstore\n      pop\n        /* \"structMap.sol\":2177:2266  if(totalMarks >= 120){... */\n    tag_32:\n        /* \"structMap.sol\":2284:2297  studentReport */\n      0x01\n        /* \"structMap.sol\":2284:2309  studentReport[_studentId] */\n      0x00\n        /* \"structMap.sol\":2298:2308  _studentId */\n      dup5\n        /* \"structMap.sol\":2284:2309  studentReport[_studentId] */\n      0xffffffffffffffffffffffffffffffffffffffff\n      and\n      0xffffffffffffffffffffffffffffffffffffffff\n      and\n      dup2\n      mstore\n      0x20\n      add\n      swap1\n      dup2\n      mstore\n      0x20\n      add\n      0x00\n      keccak256\n        /* \"structMap.sol\":2284:2315  studentReport[_studentId].grade */\n      0x02\n      add\n      0x00\n      swap1\n      sload\n      swap1\n      0x0100\n      exp\n      swap1\n      div\n      0xff\n      and\n        /* \"structMap.sol\":2277:2315  return studentReport[_studentId].grade */\n      swap2\n      pop\n      pop\n        /* \"structMap.sol\":1979:2326  function addGrade (address _studentId) public mIsPrinciple returns(bool){... */\n      swap2\n      swap1\n      pop\n      jump\t// out\n        /* \"structMap.sol\":1295:1467  function getStudentMarks(address _studentId , uint _subjectId) public view returns(uint) {... */\n    tag_15:\n        /* \"structMap.sol\":1378:1382  uint */\n      0x00\n        /* \"structMap.sol\":1405:1418  studentReport */\n      0x01\n        /* \"structMap.sol\":1405:1430  studentReport[_studentId] */\n      0x00\n        /* \"structMap.sol\":1419:1429  _studentId */\n      dup5\n        /* \"structMap.sol\":1405:1430  studentReport[_studentId] */\n      0xffffffffffffffffffffffffffffffffffffffff\n      and\n      0xffffffffffffffffffffffffffffffffffffffff\n      and\n      dup2\n      mstore\n      0x20\n      add\n      swap1\n      dup2\n      mstore\n      0x20\n      add\n      0x00\n      keccak256\n        /* \"structMap.sol\":1405:1443  studentReport[_studentId].subjectMarks */\n      0x01\n      add\n        /* \"structMap.sol\":1405:1455  studentReport[_studentId].subjectMarks[_subjectId] */\n      0x00\n        /* \"structMap.sol\":1444:1454  _subjectId */\n      dup4\n        /* \"structMap.sol\":1405:1455  studentReport[_studentId].subjectMarks[_subjectId] */\n      dup2\n      mstore\n      0x20\n      add\n      swap1\n      dup2\n      mstore\n      0x20\n      add\n      0x00\n      keccak256\n      sload\n        /* \"structMap.sol\":1398:1455  return studentReport[_studentId].subjectMarks[_subjectId] */\n      swap1\n      pop\n        /* \"structMap.sol\":1295:1467  function getStudentMarks(address _studentId , uint _subjectId) public view returns(uint) {... */\n      swap3\n      swap2\n      pop\n      pop\n      jump\t// out\n        /* \"structMap.sol\":950:1252  function setStudentMarks(address _studentId, uint _subjectId, uint _marks) public{... */\n    tag_18:\n        /* \"structMap.sol\":1043:1056  studentReport */\n      0x01\n        /* \"structMap.sol\":1043:1068  studentReport[_studentId] */\n      0x00\n        /* \"structMap.sol\":1057:1067  _studentId */\n      dup5\n        /* \"structMap.sol\":1043:1068  studentReport[_studentId] */\n      0xffffffffffffffffffffffffffffffffffffffff\n      and\n      0xffffffffffffffffffffffffffffffffffffffff\n      and\n      dup2\n      mstore\n      0x20\n      add\n      swap1\n      dup2\n      mstore\n      0x20\n      add\n      0x00\n      keccak256\n        /* \"structMap.sol\":1043:1080  studentReport[_studentId].subjectList */\n      0x00\n      add\n        /* \"structMap.sol\":1086:1096  _subjectId */\n      dup3\n        /* \"structMap.sol\":1043:1097  studentReport[_studentId].subjectList.push(_subjectId) */\n      swap1\n      dup1\n        /* \"--CODEGEN--\":39:40   */\n      0x01\n        /* \"--CODEGEN--\":33:36   */\n      dup2\n        /* \"--CODEGEN--\":27:37   */\n      sload\n        /* \"--CODEGEN--\":23:41   */\n      add\n        /* \"--CODEGEN--\":57:67   */\n      dup1\n        /* \"--CODEGEN--\":52:55   */\n      dup3\n        /* \"--CODEGEN--\":45:68   */\n      sstore\n        /* \"--CODEGEN--\":79:89   */\n      dup1\n        /* \"--CODEGEN--\":72:89   */\n      swap2\n      pop\n        /* \"--CODEGEN--\":0:93   */\n      pop\n        /* \"structMap.sol\":1043:1097  studentReport[_studentId].subjectList.push(_subjectId) */\n      swap1\n      0x01\n      dup3\n      sub\n      swap1\n      0x00\n      mstore\n      keccak256(0x00, 0x20)\n      add\n      0x00\n      swap1\n      swap2\n      swap3\n      swap1\n      swap2\n      swap1\n      swap2\n      pop\n      sstore\n      pop\n        /* \"structMap.sol\":1162:1168  _marks */\n      dup1\n        /* \"structMap.sol\":1109:1122  studentReport */\n      0x01\n        /* \"structMap.sol\":1109:1134  studentReport[_studentId] */\n      0x00\n        /* \"structMap.sol\":1123:1133  _studentId */\n      dup6\n        /* \"structMap.sol\":1109:1134  studentReport[_studentId] */\n      0xffffffffffffffffffffffffffffffffffffffff\n      and\n      0xffffffffffffffffffffffffffffffffffffffff\n      and\n      dup2\n      mstore\n      0x20\n      add\n      swap1\n      dup2\n      mstore\n      0x20\n      add\n      0x00\n      keccak256\n        /* \"structMap.sol\":1109:1147  studentReport[_studentId].subjectMarks */\n      0x01\n      add\n        /* \"structMap.sol\":1109:1159  studentReport[_studentId].subjectMarks[_subjectId] */\n      0x00\n        /* \"structMap.sol\":1148:1158  _subjectId */\n      dup5\n        /* \"structMap.sol\":1109:1159  studentReport[_studentId].subjectMarks[_subjectId] */\n      dup2\n      mstore\n      0x20\n      add\n      swap1\n      dup2\n      mstore\n      0x20\n      add\n      0x00\n      keccak256\n        /* \"structMap.sol\":1109:1168  studentReport[_studentId].subjectMarks[_subjectId] = _marks */\n      dup2\n      swap1\n      sstore\n      pop\n        /* \"structMap.sol\":1186:1240  eAddStudentSubjectMark(_studentId, _subjectId, _marks) */\n      0x6fafa77dba68917db1dfe31bf75081dfe9663078428ba0b51b547c90208744c6\n        /* \"structMap.sol\":1209:1219  _studentId */\n      dup4\n        /* \"structMap.sol\":1221:1231  _subjectId */\n      dup4\n        /* \"structMap.sol\":1233:1239  _marks */\n      dup4\n        /* \"structMap.sol\":1186:1240  eAddStudentSubjectMark(_studentId, _subjectId, _marks) */\n      mload(0x40)\n      dup1\n      dup5\n      0xffffffffffffffffffffffffffffffffffffffff\n      and\n      0xffffffffffffffffffffffffffffffffffffffff\n      and\n      dup2\n      mstore\n      0x20\n      add\n      dup4\n      dup2\n      mstore\n      0x20\n      add\n      dup3\n      dup2\n      mstore\n      0x20\n      add\n      swap4\n      pop\n      pop\n      pop\n      pop\n      mload(0x40)\n      dup1\n      swap2\n      sub\n      swap1\n      log1\n        /* \"structMap.sol\":950:1252  function setStudentMarks(address _studentId, uint _subjectId, uint _marks) public{... */\n      pop\n      pop\n      pop\n      jump\t// out\n    stop\n    data_9907a4871c8634f11a697202521975af601124996104b4812a246812fd60a208 596f757220726f6c65206973206e6f74207265636f676e697365642061732061207072696e6369706c65\n\n    auxdata: 0xa265627a7a72315820271976169bced494095048893027f4d631c533c398c6248f802ec228fa073d6264736f6c63430005110032\n}\n",
				"bytecode": {
					"linkReferences": {},
					"object": "608060405234801561001057600080fd5b50336000806101000a81548173ffffffffffffffffffffffffffffffffffffffff021916908373ffffffffffffffffffffffffffffffffffffffff1602179055506107b2806100606000396000f3fe608060405234801561001057600080fd5b506004361061004c5760003560e01c80634e74cf6914610051578063cc75d5cc146100a9578063dc343bb314610105578063de8939c014610167575b600080fd5b6100936004803603602081101561006757600080fd5b81019080803573ffffffffffffffffffffffffffffffffffffffff1690602001909291905050506101bf565b6040518082815260200191505060405180910390f35b6100eb600480360360208110156100bf57600080fd5b81019080803573ffffffffffffffffffffffffffffffffffffffff16906020019092919050505061044a565b604051808215151515815260200191505060405180910390f35b6101516004803603604081101561011b57600080fd5b81019080803573ffffffffffffffffffffffffffffffffffffffff169060200190929190803590602001909291905050506105b9565b6040518082815260200191505060405180910390f35b6101bd6004803603606081101561017d57600080fd5b81019080803573ffffffffffffffffffffffffffffffffffffffff1690602001909291908035906020019092919080359060200190929190505050610617565b005b6000813373ffffffffffffffffffffffffffffffffffffffff166000809054906101000a900473ffffffffffffffffffffffffffffffffffffffff1673ffffffffffffffffffffffffffffffffffffffff16148061024857503373ffffffffffffffffffffffffffffffffffffffff168173ffffffffffffffffffffffffffffffffffffffff16145b6102ba576040517f08c379a00000000000000000000000000000000000000000000000000000000081526004018080602001828103825260178152602001807f596f7520617265206e6f7420617574686f72697365642e00000000000000000081525060200191505060405180910390fd5b6000600160008573ffffffffffffffffffffffffffffffffffffffff1673ffffffffffffffffffffffffffffffffffffffff168152602001908152602001600020600001805490509050600080905060008090505b828110156103d35781600160008873ffffffffffffffffffffffffffffffffffffffff1673ffffffffffffffffffffffffffffffffffffffff1681526020019081526020016000206001016000600160008a73ffffffffffffffffffffffffffffffffffffffff1673ffffffffffffffffffffffffffffffffffffffff16815260200190815260200160002060000184815481106103a957fe5b9060005260206000200154815260200190815260200160002054019150808060010191505061030f565b507f81dce5cad007d30dd466d1efc0f74da2ae5d7be4a7a4e237971fc4f96878d12f8582604051808373ffffffffffffffffffffffffffffffffffffffff1673ffffffffffffffffffffffffffffffffffffffff1681526020018281526020019250505060405180910390a1809350505050919050565b60008060009054906101000a900473ffffffffffffffffffffffffffffffffffffffff1673ffffffffffffffffffffffffffffffffffffffff163373ffffffffffffffffffffffffffffffffffffffff16146104f1576040517f08c379a000000000000000000000000000000000000000000000000000000000815260040180806020018281038252602a815260200180610754602a913960400191505060405180910390fd5b60006104fc836101bf565b9050607881106105615760018060008573ffffffffffffffffffffffffffffffffffffffff1673ffffffffffffffffffffffffffffffffffffffff16815260200190815260200160002060020160006101000a81548160ff0219169083151502179055505b600160008473ffffffffffffffffffffffffffffffffffffffff1673ffffffffffffffffffffffffffffffffffffffff16815260200190815260200160002060020160009054906101000a900460ff16915050919050565b6000600160008473ffffffffffffffffffffffffffffffffffffffff1673ffffffffffffffffffffffffffffffffffffffff168152602001908152602001600020600101600083815260200190815260200160002054905092915050565b600160008473ffffffffffffffffffffffffffffffffffffffff1673ffffffffffffffffffffffffffffffffffffffff16815260200190815260200160002060000182908060018154018082558091505090600182039060005260206000200160009091929091909150555080600160008573ffffffffffffffffffffffffffffffffffffffff1673ffffffffffffffffffffffffffffffffffffffff1681526020019081526020016000206001016000848152602001908152602001600020819055507f6fafa77dba68917db1dfe31bf75081dfe9663078428ba0b51b547c90208744c6838383604051808473ffffffffffffffffffffffffffffffffffffffff1673ffffffffffffffffffffffffffffffffffffffff168152602001838152602001828152602001935050505060405180910390a150505056fe596f757220726f6c65206973206e6f74207265636f676e697365642061732061207072696e6369706c65a265627a7a72315820271976169bced494095048893027f4d631c533c398c6248f802ec228fa073d6264736f6c63430005110032",
					"opcodes": "PUSH1 0x80 PUSH1 0x40 MSTORE CALLVALUE DUP1 ISZERO PUSH2 0x10 JUMPI PUSH1 0x0 DUP1 REVERT JUMPDEST POP CALLER PUSH1 0x0 DUP1 PUSH2 0x100 EXP DUP2 SLOAD DUP2 PUSH20 0xFFFFFFFFFFFFFFFFFFFFFFFFFFFFFFFFFFFFFFFF MUL NOT AND SWAP1 DUP4 PUSH20 0xFFFFFFFFFFFFFFFFFFFFFFFFFFFFFFFFFFFFFFFF AND MUL OR SWAP1 SSTORE POP PUSH2 0x7B2 DUP1 PUSH2 0x60 PUSH1 0x0 CODECOPY PUSH1 0x0 RETURN INVALID PUSH1 0x80 PUSH1 0x40 MSTORE CALLVALUE DUP1 ISZERO PUSH2 0x10 JUMPI PUSH1 0x0 DUP1 REVERT JUMPDEST POP PUSH1 0x4 CALLDATASIZE LT PUSH2 0x4C JUMPI PUSH1 0x0 CALLDATALOAD PUSH1 0xE0 SHR DUP1 PUSH4 0x4E74CF69 EQ PUSH2 0x51 JUMPI DUP1 PUSH4 0xCC75D5CC EQ PUSH2 0xA9 JUMPI DUP1 PUSH4 0xDC343BB3 EQ PUSH2 0x105 JUMPI DUP1 PUSH4 0xDE8939C0 EQ PUSH2 0x167 JUMPI JUMPDEST PUSH1 0x0 DUP1 REVERT JUMPDEST PUSH2 0x93 PUSH1 0x4 DUP1 CALLDATASIZE SUB PUSH1 0x20 DUP2 LT ISZERO PUSH2 0x67 JUMPI PUSH1 0x0 DUP1 REVERT JUMPDEST DUP2 ADD SWAP1 DUP1 DUP1 CALLDATALOAD PUSH20 0xFFFFFFFFFFFFFFFFFFFFFFFFFFFFFFFFFFFFFFFF AND SWAP1 PUSH1 0x20 ADD SWAP1 SWAP3 SWAP2 SWAP1 POP POP POP PUSH2 0x1BF JUMP JUMPDEST PUSH1 0x40 MLOAD DUP1 DUP3 DUP2 MSTORE PUSH1 0x20 ADD SWAP2 POP POP PUSH1 0x40 MLOAD DUP1 SWAP2 SUB SWAP1 RETURN JUMPDEST PUSH2 0xEB PUSH1 0x4 DUP1 CALLDATASIZE SUB PUSH1 0x20 DUP2 LT ISZERO PUSH2 0xBF JUMPI PUSH1 0x0 DUP1 REVERT JUMPDEST DUP2 ADD SWAP1 DUP1 DUP1 CALLDATALOAD PUSH20 0xFFFFFFFFFFFFFFFFFFFFFFFFFFFFFFFFFFFFFFFF AND SWAP1 PUSH1 0x20 ADD SWAP1 SWAP3 SWAP2 SWAP1 POP POP POP PUSH2 0x44A JUMP JUMPDEST PUSH1 0x40 MLOAD DUP1 DUP3 ISZERO ISZERO ISZERO ISZERO DUP2 MSTORE PUSH1 0x20 ADD SWAP2 POP POP PUSH1 0x40 MLOAD DUP1 SWAP2 SUB SWAP1 RETURN JUMPDEST PUSH2 0x151 PUSH1 0x4 DUP1 CALLDATASIZE SUB PUSH1 0x40 DUP2 LT ISZERO PUSH2 0x11B JUMPI PUSH1 0x0 DUP1 REVERT JUMPDEST DUP2 ADD SWAP1 DUP1 DUP1 CALLDATALOAD PUSH20 0xFFFFFFFFFFFFFFFFFFFFFFFFFFFFFFFFFFFFFFFF AND SWAP1 PUSH1 0x20 ADD SWAP1 SWAP3 SWAP2 SWAP1 DUP1 CALLDATALOAD SWAP1 PUSH1 0x20 ADD SWAP1 SWAP3 SWAP2 SWAP1 POP POP POP PUSH2 0x5B9 JUMP JUMPDEST PUSH1 0x40 MLOAD DUP1 DUP3 DUP2 MSTORE PUSH1 0x20 ADD SWAP2 POP POP PUSH1 0x40 MLOAD DUP1 SWAP2 SUB SWAP1 RETURN JUMPDEST PUSH2 0x1BD PUSH1 0x4 DUP1 CALLDATASIZE SUB PUSH1 0x60 DUP2 LT ISZERO PUSH2 0x17D JUMPI PUSH1 0x0 DUP1 REVERT JUMPDEST DUP2 ADD SWAP1 DUP1 DUP1 CALLDATALOAD PUSH20 0xFFFFFFFFFFFFFFFFFFFFFFFFFFFFFFFFFFFFFFFF AND SWAP1 PUSH1 0x20 ADD SWAP1 SWAP3 SWAP2 SWAP1 DUP1 CALLDATALOAD SWAP1 PUSH1 0x20 ADD SWAP1 SWAP3 SWAP2 SWAP1 DUP1 CALLDATALOAD SWAP1 PUSH1 0x20 ADD SWAP1 SWAP3 SWAP2 SWAP1 POP POP POP PUSH2 0x617 JUMP JUMPDEST STOP JUMPDEST PUSH1 0x0 DUP2 CALLER PUSH20 0xFFFFFFFFFFFFFFFFFFFFFFFFFFFFFFFFFFFFFFFF AND PUSH1 0x0 DUP1 SWAP1 SLOAD SWAP1 PUSH2 0x100 EXP SWAP1 DIV PUSH20 0xFFFFFFFFFFFFFFFFFFFFFFFFFFFFFFFFFFFFFFFF AND PUSH20 0xFFFFFFFFFFFFFFFFFFFFFFFFFFFFFFFFFFFFFFFF AND EQ DUP1 PUSH2 0x248 JUMPI POP CALLER PUSH20 0xFFFFFFFFFFFFFFFFFFFFFFFFFFFFFFFFFFFFFFFF AND DUP2 PUSH20 0xFFFFFFFFFFFFFFFFFFFFFFFFFFFFFFFFFFFFFFFF AND EQ JUMPDEST PUSH2 0x2BA JUMPI PUSH1 0x40 MLOAD PUSH32 0x8C379A000000000000000000000000000000000000000000000000000000000 DUP2 MSTORE PUSH1 0x4 ADD DUP1 DUP1 PUSH1 0x20 ADD DUP3 DUP2 SUB DUP3 MSTORE PUSH1 0x17 DUP2 MSTORE PUSH1 0x20 ADD DUP1 PUSH32 0x596F7520617265206E6F7420617574686F72697365642E000000000000000000 DUP2 MSTORE POP PUSH1 0x20 ADD SWAP2 POP POP PUSH1 0x40 MLOAD DUP1 SWAP2 SUB SWAP1 REVERT JUMPDEST PUSH1 0x0 PUSH1 0x1 PUSH1 0x0 DUP6 PUSH20 0xFFFFFFFFFFFFFFFFFFFFFFFFFFFFFFFFFFFFFFFF AND PUSH20 0xFFFFFFFFFFFFFFFFFFFFFFFFFFFFFFFFFFFFFFFF AND DUP2 MSTORE PUSH1 0x20 ADD SWAP1 DUP2 MSTORE PUSH1 0x20 ADD PUSH1 0x0 KECCAK256 PUSH1 0x0 ADD DUP1 SLOAD SWAP1 POP SWAP1 POP PUSH1 0x0 DUP1 SWAP1 POP PUSH1 0x0 DUP1 SWAP1 POP JUMPDEST DUP3 DUP2 LT ISZERO PUSH2 0x3D3 JUMPI DUP2 PUSH1 0x1 PUSH1 0x0 DUP9 PUSH20 0xFFFFFFFFFFFFFFFFFFFFFFFFFFFFFFFFFFFFFFFF AND PUSH20 0xFFFFFFFFFFFFFFFFFFFFFFFFFFFFFFFFFFFFFFFF AND DUP2 MSTORE PUSH1 0x20 ADD SWAP1 DUP2 MSTORE PUSH1 0x20 ADD PUSH1 0x0 KECCAK256 PUSH1 0x1 ADD PUSH1 0x0 PUSH1 0x1 PUSH1 0x0 DUP11 PUSH20 0xFFFFFFFFFFFFFFFFFFFFFFFFFFFFFFFFFFFFFFFF AND PUSH20 0xFFFFFFFFFFFFFFFFFFFFFFFFFFFFFFFFFFFFFFFF AND DUP2 MSTORE PUSH1 0x20 ADD SWAP1 DUP2 MSTORE PUSH1 0x20 ADD PUSH1 0x0 KECCAK256 PUSH1 0x0 ADD DUP5 DUP2 SLOAD DUP2 LT PUSH2 0x3A9 JUMPI INVALID JUMPDEST SWAP1 PUSH1 0x0 MSTORE PUSH1 0x20 PUSH1 0x0 KECCAK256 ADD SLOAD DUP2 MSTORE PUSH1 0x20 ADD SWAP1 DUP2 MSTORE PUSH1 0x20 ADD PUSH1 0x0 KECCAK256 SLOAD ADD SWAP2 POP DUP1 DUP1 PUSH1 0x1 ADD SWAP2 POP POP PUSH2 0x30F JUMP JUMPDEST POP PUSH32 0x81DCE5CAD007D30DD466D1EFC0F74DA2AE5D7BE4A7A4E237971FC4F96878D12F DUP6 DUP3 PUSH1 0x40 MLOAD DUP1 DUP4 PUSH20 0xFFFFFFFFFFFFFFFFFFFFFFFFFFFFFFFFFFFFFFFF AND PUSH20 0xFFFFFFFFFFFFFFFFFFFFFFFFFFFFFFFFFFFFFFFF AND DUP2 MSTORE PUSH1 0x20 ADD DUP3 DUP2 MSTORE PUSH1 0x20 ADD SWAP3 POP POP POP PUSH1 0x40 MLOAD DUP1 SWAP2 SUB SWAP1 LOG1 DUP1 SWAP4 POP POP POP POP SWAP2 SWAP1 POP JUMP JUMPDEST PUSH1 0x0 DUP1 PUSH1 0x0 SWAP1 SLOAD SWAP1 PUSH2 0x100 EXP SWAP1 DIV PUSH20 0xFFFFFFFFFFFFFFFFFFFFFFFFFFFFFFFFFFFFFFFF AND PUSH20 0xFFFFFFFFFFFFFFFFFFFFFFFFFFFFFFFFFFFFFFFF AND CALLER PUSH20 0xFFFFFFFFFFFFFFFFFFFFFFFFFFFFFFFFFFFFFFFF AND EQ PUSH2 0x4F1 JUMPI PUSH1 0x40 MLOAD PUSH32 0x8C379A000000000000000000000000000000000000000000000000000000000 DUP2 MSTORE PUSH1 0x4 ADD DUP1 DUP1 PUSH1 0x20 ADD DUP3 DUP2 SUB DUP3 MSTORE PUSH1 0x2A DUP2 MSTORE PUSH1 0x20 ADD DUP1 PUSH2 0x754 PUSH1 0x2A SWAP2 CODECOPY PUSH1 0x40 ADD SWAP2 POP POP PUSH1 0x40 MLOAD DUP1 SWAP2 SUB SWAP1 REVERT JUMPDEST PUSH1 0x0 PUSH2 0x4FC DUP4 PUSH2 0x1BF JUMP JUMPDEST SWAP1 POP PUSH1 0x78 DUP2 LT PUSH2 0x561 JUMPI PUSH1 0x1 DUP1 PUSH1 0x0 DUP6 PUSH20 0xFFFFFFFFFFFFFFFFFFFFFFFFFFFFFFFFFFFFFFFF AND PUSH20 0xFFFFFFFFFFFFFFFFFFFFFFFFFFFFFFFFFFFFFFFF AND DUP2 MSTORE PUSH1 0x20 ADD SWAP1 DUP2 MSTORE PUSH1 0x20 ADD PUSH1 0x0 KECCAK256 PUSH1 0x2 ADD PUSH1 0x0 PUSH2 0x100 EXP DUP2 SLOAD DUP2 PUSH1 0xFF MUL NOT AND SWAP1 DUP4 ISZERO ISZERO MUL OR SWAP1 SSTORE POP JUMPDEST PUSH1 0x1 PUSH1 0x0 DUP5 PUSH20 0xFFFFFFFFFFFFFFFFFFFFFFFFFFFFFFFFFFFFFFFF AND PUSH20 0xFFFFFFFFFFFFFFFFFFFFFFFFFFFFFFFFFFFFFFFF AND DUP2 MSTORE PUSH1 0x20 ADD SWAP1 DUP2 MSTORE PUSH1 0x20 ADD PUSH1 0x0 KECCAK256 PUSH1 0x2 ADD PUSH1 0x0 SWAP1 SLOAD SWAP1 PUSH2 0x100 EXP SWAP1 DIV PUSH1 0xFF AND SWAP2 POP POP SWAP2 SWAP1 POP JUMP JUMPDEST PUSH1 0x0 PUSH1 0x1 PUSH1 0x0 DUP5 PUSH20 0xFFFFFFFFFFFFFFFFFFFFFFFFFFFFFFFFFFFFFFFF AND PUSH20 0xFFFFFFFFFFFFFFFFFFFFFFFFFFFFFFFFFFFFFFFF AND DUP2 MSTORE PUSH1 0x20 ADD SWAP1 DUP2 MSTORE PUSH1 0x20 ADD PUSH1 0x0 KECCAK256 PUSH1 0x1 ADD PUSH1 0x0 DUP4 DUP2 MSTORE PUSH1 0x20 ADD SWAP1 DUP2 MSTORE PUSH1 0x20 ADD PUSH1 0x0 KECCAK256 SLOAD SWAP1 POP SWAP3 SWAP2 POP POP JUMP JUMPDEST PUSH1 0x1 PUSH1 0x0 DUP5 PUSH20 0xFFFFFFFFFFFFFFFFFFFFFFFFFFFFFFFFFFFFFFFF AND PUSH20 0xFFFFFFFFFFFFFFFFFFFFFFFFFFFFFFFFFFFFFFFF AND DUP2 MSTORE PUSH1 0x20 ADD SWAP1 DUP2 MSTORE PUSH1 0x20 ADD PUSH1 0x0 KECCAK256 PUSH1 0x0 ADD DUP3 SWAP1 DUP1 PUSH1 0x1 DUP2 SLOAD ADD DUP1 DUP3 SSTORE DUP1 SWAP2 POP POP SWAP1 PUSH1 0x1 DUP3 SUB SWAP1 PUSH1 0x0 MSTORE PUSH1 0x20 PUSH1 0x0 KECCAK256 ADD PUSH1 0x0 SWAP1 SWAP2 SWAP3 SWAP1 SWAP2 SWAP1 SWAP2 POP SSTORE POP DUP1 PUSH1 0x1 PUSH1 0x0 DUP6 PUSH20 0xFFFFFFFFFFFFFFFFFFFFFFFFFFFFFFFFFFFFFFFF AND PUSH20 0xFFFFFFFFFFFFFFFFFFFFFFFFFFFFFFFFFFFFFFFF AND DUP2 MSTORE PUSH1 0x20 ADD SWAP1 DUP2 MSTORE PUSH1 0x20 ADD PUSH1 0x0 KECCAK256 PUSH1 0x1 ADD PUSH1 0x0 DUP5 DUP2 MSTORE PUSH1 0x20 ADD SWAP1 DUP2 MSTORE PUSH1 0x20 ADD PUSH1 0x0 KECCAK256 DUP2 SWAP1 SSTORE POP PUSH32 0x6FAFA77DBA68917DB1DFE31BF75081DFE9663078428BA0B51B547C90208744C6 DUP4 DUP4 DUP4 PUSH1 0x40 MLOAD DUP1 DUP5 PUSH20 0xFFFFFFFFFFFFFFFFFFFFFFFFFFFFFFFFFFFFFFFF AND PUSH20 0xFFFFFFFFFFFFFFFFFFFFFFFFFFFFFFFFFFFFFFFF AND DUP2 MSTORE PUSH1 0x20 ADD DUP4 DUP2 MSTORE PUSH1 0x20 ADD DUP3 DUP2 MSTORE PUSH1 0x20 ADD SWAP4 POP POP POP POP PUSH1 0x40 MLOAD DUP1 SWAP2 SUB SWAP1 LOG1 POP POP POP JUMP INVALID MSIZE PUSH16 0x757220726F6C65206973206E6F742072 PUSH6 0x636F676E6973 PUSH6 0x642061732061 KECCAK256 PUSH17 0x72696E6369706C65A265627A7A72315820 0x27 NOT PUSH23 0x169BCED494095048893027F4D631C533C398C6248F802E 0xC2 0x28 STATICCALL SMOD RETURNDATASIZE PUSH3 0x64736F PUSH13 0x63430005110032000000000000 "
				},
				"gasEstimates": {
					"creation": {
						"codeDepositCost": "394000",
						"executionCost": "21296",
						"totalCost": "415296"
					},
					"external": {
						"addGrade(address)": "infinite",
						"getStudentMarks(address,uint256)": "1331",
						"getTotalMarks(address)": "infinite",
						"setStudentMarks(address,uint256,uint256)": "63188"
					}
				},
				"methodIdentifiers": {
					"addGrade(address)": "cc75d5cc",
					"getStudentMarks(address,uint256)": "dc343bb3",
					"getTotalMarks(address)": "4e74cf69",
					"setStudentMarks(address,uint256,uint256)": "de8939c0"
				}
			},
			"storageLayout": {
				"storage": [
					{
						"astId": 3,
						"contract": "structMap.sol:studentMarks",
						"label": "pAdd",
						"offset": 0,
						"slot": "0",
						"type": "t_address"
					},
					{
						"astId": 17,
						"contract": "structMap.sol:studentMarks",
						"label": "studentReport",
						"offset": 0,
						"slot": "1",
						"type": "t_mapping(t_address,t_struct(studentMarksStructure)13_storage)"
					}
				],
				"types": {
					"t_address": {
						"encoding": "inplace",
						"label": "address",
						"numberOfBytes": "20"
					},
					"t_array(t_uint256)dyn_storage": {
						"base": "t_uint256",
						"encoding": "dynamic_array",
						"label": "uint256[]",
						"numberOfBytes": "32"
					},
					"t_bool": {
						"encoding": "inplace",
						"label": "bool",
						"numberOfBytes": "1"
					},
					"t_mapping(t_address,t_struct(studentMarksStructure)13_storage)": {
						"encoding": "mapping",
						"key": "t_address",
						"label": "mapping(address => struct studentMarks.studentMarksStructure)",
						"numberOfBytes": "32",
						"value": "t_struct(studentMarksStructure)13_storage"
					},
					"t_mapping(t_uint256,t_uint256)": {
						"encoding": "mapping",
						"key": "t_uint256",
						"label": "mapping(uint256 => uint256)",
						"numberOfBytes": "32",
						"value": "t_uint256"
					},
					"t_struct(studentMarksStructure)13_storage": {
						"encoding": "inplace",
						"label": "struct studentMarks.studentMarksStructure",
						"members": [
							{
								"astId": 6,
								"contract": "structMap.sol:studentMarks",
								"label": "subjectList",
								"offset": 0,
								"slot": "0",
								"type": "t_array(t_uint256)dyn_storage"
							},
							{
								"astId": 10,
								"contract": "structMap.sol:studentMarks",
								"label": "subjectMarks",
								"offset": 0,
								"slot": "1",
								"type": "t_mapping(t_uint256,t_uint256)"
							},
							{
								"astId": 12,
								"contract": "structMap.sol:studentMarks",
								"label": "grade",
								"offset": 0,
								"slot": "2",
								"type": "t_bool"
							}
						],
						"numberOfBytes": "96"
					},
					"t_uint256": {
						"encoding": "inplace",
						"label": "uint256",
						"numberOfBytes": "32"
					}
				}
			},
			"userdoc": {
				"methods": {}
			}
		}
	}
}