{
	"collegeDepartmentRating.sol": {
		"collegeRating": {
			"abi": [
				{
					"inputs": [],
					"payable": false,
					"stateMutability": "nonpayable",
					"type": "constructor"
				},
				{
					"anonymous": false,
					"inputs": [
						{
							"indexed": false,
							"internalType": "address",
							"name": "collegeAddress",
							"type": "address"
						},
						{
							"indexed": false,
							"internalType": "uint256",
							"name": "dId",
							"type": "uint256"
						},
						{
							"indexed": false,
							"internalType": "uint256",
							"name": "_rating",
							"type": "uint256"
						}
					],
					"name": "enterRating",
					"type": "event"
				},
				{
					"constant": true,
					"inputs": [
						{
							"internalType": "address",
							"name": "_collegeAddress",
							"type": "address"
						}
					],
					"name": "getCollageRating",
					"outputs": [
						{
							"internalType": "uint256",
							"name": "",
							"type": "uint256"
						},
						{
							"internalType": "uint256",
							"name": "",
							"type": "uint256"
						}
					],
					"payable": false,
					"stateMutability": "view",
					"type": "function"
				},
				{
					"constant": true,
					"inputs": [
						{
							"internalType": "address",
							"name": "_collegeAddress",
							"type": "address"
						},
						{
							"internalType": "uint256",
							"name": "_deptId",
							"type": "uint256"
						}
					],
					"name": "getDeptRating",
					"outputs": [
						{
							"internalType": "uint256",
							"name": "",
							"type": "uint256"
						}
					],
					"payable": false,
					"stateMutability": "view",
					"type": "function"
				},
				{
					"constant": false,
					"inputs": [
						{
							"internalType": "address",
							"name": "_collegeAddress",
							"type": "address"
						},
						{
							"internalType": "uint256",
							"name": "_deptId",
							"type": "uint256"
						},
						{
							"internalType": "uint256",
							"name": "_rating",
							"type": "uint256"
						}
					],
					"name": "setRating",
					"outputs": [],
					"payable": false,
					"stateMutability": "nonpayable",
					"type": "function"
				}
			],
			"devdoc": {
				"methods": {}
			},
			"evm": {
				"assembly": "    /* \"collegeDepartmentRating.sol\":25:2108  contract collegeRating{... */\n  mstore(0x40, 0x80)\n    /* \"collegeDepartmentRating.sol\":275:324  constructor() public{... */\n  callvalue\n    /* \"--CODEGEN--\":8:17   */\n  dup1\n    /* \"--CODEGEN--\":5:7   */\n  iszero\n  tag_1\n  jumpi\n    /* \"--CODEGEN--\":30:31   */\n  0x00\n    /* \"--CODEGEN--\":27:28   */\n  dup1\n    /* \"--CODEGEN--\":20:32   */\n  revert\n    /* \"--CODEGEN--\":5:7   */\ntag_1:\n    /* \"collegeDepartmentRating.sol\":275:324  constructor() public{... */\n  pop\n    /* \"collegeDepartmentRating.sol\":309:319  msg.sender */\n  caller\n    /* \"collegeDepartmentRating.sol\":302:306  cAdd */\n  0x00\n  dup1\n    /* \"collegeDepartmentRating.sol\":302:319  cAdd = msg.sender */\n  0x0100\n  exp\n  dup2\n  sload\n  dup2\n  0xffffffffffffffffffffffffffffffffffffffff\n  mul\n  not\n  and\n  swap1\n  dup4\n  0xffffffffffffffffffffffffffffffffffffffff\n  and\n  mul\n  or\n  swap1\n  sstore\n  pop\n    /* \"collegeDepartmentRating.sol\":25:2108  contract collegeRating{... */\n  dataSize(sub_0)\n  dup1\n  dataOffset(sub_0)\n  0x00\n  codecopy\n  0x00\n  return\nstop\n\nsub_0: assembly {\n        /* \"collegeDepartmentRating.sol\":25:2108  contract collegeRating{... */\n      mstore(0x40, 0x80)\n      callvalue\n        /* \"--CODEGEN--\":8:17   */\n      dup1\n        /* \"--CODEGEN--\":5:7   */\n      iszero\n      tag_1\n      jumpi\n        /* \"--CODEGEN--\":30:31   */\n      0x00\n        /* \"--CODEGEN--\":27:28   */\n      dup1\n        /* \"--CODEGEN--\":20:32   */\n      revert\n        /* \"--CODEGEN--\":5:7   */\n    tag_1:\n        /* \"collegeDepartmentRating.sol\":25:2108  contract collegeRating{... */\n      pop\n      jumpi(tag_2, lt(calldatasize, 0x04))\n      shr(0xe0, calldataload(0x00))\n      dup1\n      0x2936bdb3\n      eq\n      tag_3\n      jumpi\n      dup1\n      0x868c2b91\n      eq\n      tag_4\n      jumpi\n      dup1\n      0xd6a6bacf\n      eq\n      tag_5\n      jumpi\n    tag_2:\n      0x00\n      dup1\n      revert\n        /* \"collegeDepartmentRating.sol\":1536:2105  function getCollageRating(address _collegeAddress ) public view returns(uint , uint)... */\n    tag_3:\n      tag_6\n      0x04\n      dup1\n      calldatasize\n      sub\n        /* \"--CODEGEN--\":13:15   */\n      0x20\n        /* \"--CODEGEN--\":8:11   */\n      dup2\n        /* \"--CODEGEN--\":5:16   */\n      lt\n        /* \"--CODEGEN--\":2:4   */\n      iszero\n      tag_7\n      jumpi\n        /* \"--CODEGEN--\":29:30   */\n      0x00\n        /* \"--CODEGEN--\":26:27   */\n      dup1\n        /* \"--CODEGEN--\":19:31   */\n      revert\n        /* \"--CODEGEN--\":2:4   */\n    tag_7:\n        /* \"collegeDepartmentRating.sol\":1536:2105  function getCollageRating(address _collegeAddress ) public view returns(uint , uint)... */\n      dup2\n      add\n      swap1\n      dup1\n      dup1\n      calldataload\n      0xffffffffffffffffffffffffffffffffffffffff\n      and\n      swap1\n      0x20\n      add\n      swap1\n      swap3\n      swap2\n      swap1\n      pop\n      pop\n      pop\n      tag_8\n      jump\t// in\n    tag_6:\n      mload(0x40)\n      dup1\n      dup4\n      dup2\n      mstore\n      0x20\n      add\n      dup3\n      dup2\n      mstore\n      0x20\n      add\n      swap3\n      pop\n      pop\n      pop\n      mload(0x40)\n      dup1\n      swap2\n      sub\n      swap1\n      return\n        /* \"collegeDepartmentRating.sol\":1013:1327  function setRating(address _collegeAddress, uint _deptId, uint _rating)... */\n    tag_4:\n      tag_9\n      0x04\n      dup1\n      calldatasize\n      sub\n        /* \"--CODEGEN--\":13:15   */\n      0x60\n        /* \"--CODEGEN--\":8:11   */\n      dup2\n        /* \"--CODEGEN--\":5:16   */\n      lt\n        /* \"--CODEGEN--\":2:4   */\n      iszero\n      tag_10\n      jumpi\n        /* \"--CODEGEN--\":29:30   */\n      0x00\n        /* \"--CODEGEN--\":26:27   */\n      dup1\n        /* \"--CODEGEN--\":19:31   */\n      revert\n        /* \"--CODEGEN--\":2:4   */\n    tag_10:\n        /* \"collegeDepartmentRating.sol\":1013:1327  function setRating(address _collegeAddress, uint _deptId, uint _rating)... */\n      dup2\n      add\n      swap1\n      dup1\n      dup1\n      calldataload\n      0xffffffffffffffffffffffffffffffffffffffff\n      and\n      swap1\n      0x20\n      add\n      swap1\n      swap3\n      swap2\n      swap1\n      dup1\n      calldataload\n      swap1\n      0x20\n      add\n      swap1\n      swap3\n      swap2\n      swap1\n      dup1\n      calldataload\n      swap1\n      0x20\n      add\n      swap1\n      swap3\n      swap2\n      swap1\n      pop\n      pop\n      pop\n      tag_11\n      jump\t// in\n    tag_9:\n      stop\n        /* \"collegeDepartmentRating.sol\":1334:1529  function getDeptRating(address _collegeAddress, uint _deptId)... */\n    tag_5:\n      tag_12\n      0x04\n      dup1\n      calldatasize\n      sub\n        /* \"--CODEGEN--\":13:15   */\n      0x40\n        /* \"--CODEGEN--\":8:11   */\n      dup2\n        /* \"--CODEGEN--\":5:16   */\n      lt\n        /* \"--CODEGEN--\":2:4   */\n      iszero\n      tag_13\n      jumpi\n        /* \"--CODEGEN--\":29:30   */\n      0x00\n        /* \"--CODEGEN--\":26:27   */\n      dup1\n        /* \"--CODEGEN--\":19:31   */\n      revert\n        /* \"--CODEGEN--\":2:4   */\n    tag_13:\n        /* \"collegeDepartmentRating.sol\":1334:1529  function getDeptRating(address _collegeAddress, uint _deptId)... */\n      dup2\n      add\n      swap1\n      dup1\n      dup1\n      calldataload\n      0xffffffffffffffffffffffffffffffffffffffff\n      and\n      swap1\n      0x20\n      add\n      swap1\n      swap3\n      swap2\n      swap1\n      dup1\n      calldataload\n      swap1\n      0x20\n      add\n      swap1\n      swap3\n      swap2\n      swap1\n      pop\n      pop\n      pop\n      tag_14\n      jump\t// in\n    tag_12:\n      mload(0x40)\n      dup1\n      dup3\n      dup2\n      mstore\n      0x20\n      add\n      swap2\n      pop\n      pop\n      mload(0x40)\n      dup1\n      swap2\n      sub\n      swap1\n      return\n        /* \"collegeDepartmentRating.sol\":1536:2105  function getCollageRating(address _collegeAddress ) public view returns(uint , uint)... */\n    tag_8:\n        /* \"collegeDepartmentRating.sol\":1608:1612  uint */\n      0x00\n        /* \"collegeDepartmentRating.sol\":1615:1619  uint */\n      dup1\n        /* \"collegeDepartmentRating.sol\":1635:1646  uint length */\n      0x00\n        /* \"collegeDepartmentRating.sol\":1649:1659  uint  temp */\n      dup1\n        /* \"collegeDepartmentRating.sol\":1669:1684  uint collRating */\n      0x00\n        /* \"collegeDepartmentRating.sol\":1687:1688  0 */\n      dup1\n        /* \"collegeDepartmentRating.sol\":1669:1688  uint collRating = 0 */\n      swap1\n      pop\n        /* \"collegeDepartmentRating.sol\":1714:1721  cRating */\n      0x01\n        /* \"collegeDepartmentRating.sol\":1714:1738  cRating[_collegeAddress] */\n      0x00\n        /* \"collegeDepartmentRating.sol\":1722:1737  _collegeAddress */\n      dup8\n        /* \"collegeDepartmentRating.sol\":1714:1738  cRating[_collegeAddress] */\n      0xffffffffffffffffffffffffffffffffffffffff\n      and\n      0xffffffffffffffffffffffffffffffffffffffff\n      and\n      dup2\n      mstore\n      0x20\n      add\n      swap1\n      dup2\n      mstore\n      0x20\n      add\n      0x00\n      keccak256\n        /* \"collegeDepartmentRating.sol\":1714:1745  cRating[_collegeAddress].deptId */\n      0x00\n      add\n        /* \"collegeDepartmentRating.sol\":1714:1752  cRating[_collegeAddress].deptId.length */\n      dup1\n      sload\n      swap1\n      pop\n        /* \"collegeDepartmentRating.sol\":1705:1752  length = cRating[_collegeAddress].deptId.length */\n      swap3\n      pop\n        /* \"collegeDepartmentRating.sol\":1769:1775  uint i */\n      0x00\n        /* \"collegeDepartmentRating.sol\":1778:1779  0 */\n      dup1\n        /* \"collegeDepartmentRating.sol\":1769:1779  uint i = 0 */\n      swap1\n      pop\n        /* \"collegeDepartmentRating.sol\":1764:1956  for (uint i = 0 ; i < length ; i++){... */\n    tag_16:\n        /* \"collegeDepartmentRating.sol\":1786:1792  length */\n      dup4\n        /* \"collegeDepartmentRating.sol\":1782:1783  i */\n      dup2\n        /* \"collegeDepartmentRating.sol\":1782:1792  i < length */\n      lt\n        /* \"collegeDepartmentRating.sol\":1764:1956  for (uint i = 0 ; i < length ; i++){... */\n      iszero\n      tag_17\n      jumpi\n        /* \"collegeDepartmentRating.sol\":1821:1828  cRating */\n      0x01\n        /* \"collegeDepartmentRating.sol\":1821:1845  cRating[_collegeAddress] */\n      0x00\n        /* \"collegeDepartmentRating.sol\":1829:1844  _collegeAddress */\n      dup9\n        /* \"collegeDepartmentRating.sol\":1821:1845  cRating[_collegeAddress] */\n      0xffffffffffffffffffffffffffffffffffffffff\n      and\n      0xffffffffffffffffffffffffffffffffffffffff\n      and\n      dup2\n      mstore\n      0x20\n      add\n      swap1\n      dup2\n      mstore\n      0x20\n      add\n      0x00\n      keccak256\n        /* \"collegeDepartmentRating.sol\":1821:1852  cRating[_collegeAddress].deptId */\n      0x00\n      add\n        /* \"collegeDepartmentRating.sol\":1853:1854  i */\n      dup2\n        /* \"collegeDepartmentRating.sol\":1821:1855  cRating[_collegeAddress].deptId[i] */\n      dup2\n      sload\n      dup2\n      lt\n      tag_19\n      jumpi\n      invalid\n    tag_19:\n      swap1\n      0x00\n      mstore\n      keccak256(0x00, 0x20)\n      add\n      sload\n        /* \"collegeDepartmentRating.sol\":1813:1855  temp =  cRating[_collegeAddress].deptId[i] */\n      swap3\n      pop\n        /* \"collegeDepartmentRating.sol\":1922:1932  collRating */\n      dup2\n        /* \"collegeDepartmentRating.sol\":1882:1889  cRating */\n      0x01\n        /* \"collegeDepartmentRating.sol\":1882:1906  cRating[_collegeAddress] */\n      0x00\n        /* \"collegeDepartmentRating.sol\":1890:1905  _collegeAddress */\n      dup10\n        /* \"collegeDepartmentRating.sol\":1882:1906  cRating[_collegeAddress] */\n      0xffffffffffffffffffffffffffffffffffffffff\n      and\n      0xffffffffffffffffffffffffffffffffffffffff\n      and\n      dup2\n      mstore\n      0x20\n      add\n      swap1\n      dup2\n      mstore\n      0x20\n      add\n      0x00\n      keccak256\n        /* \"collegeDepartmentRating.sol\":1882:1913  cRating[_collegeAddress].rating */\n      0x01\n      add\n        /* \"collegeDepartmentRating.sol\":1882:1919  cRating[_collegeAddress].rating[temp] */\n      0x00\n        /* \"collegeDepartmentRating.sol\":1914:1918  temp */\n      dup6\n        /* \"collegeDepartmentRating.sol\":1882:1919  cRating[_collegeAddress].rating[temp] */\n      dup2\n      mstore\n      0x20\n      add\n      swap1\n      dup2\n      mstore\n      0x20\n      add\n      0x00\n      keccak256\n      sload\n        /* \"collegeDepartmentRating.sol\":1882:1932  cRating[_collegeAddress].rating[temp] + collRating */\n      add\n        /* \"collegeDepartmentRating.sol\":1869:1932  collRating = cRating[_collegeAddress].rating[temp] + collRating */\n      swap2\n      pop\n        /* \"collegeDepartmentRating.sol\":1795:1798  i++ */\n      dup1\n      dup1\n      0x01\n      add\n      swap2\n      pop\n      pop\n        /* \"collegeDepartmentRating.sol\":1764:1956  for (uint i = 0 ; i < length ; i++){... */\n      jump(tag_16)\n    tag_17:\n      pop\n        /* \"collegeDepartmentRating.sol\":2047:2053  length */\n      dup3\n        /* \"collegeDepartmentRating.sol\":2034:2044  collRating */\n      dup2\n        /* \"collegeDepartmentRating.sol\":2034:2053  collRating / length */\n      dup2\n      tag_21\n      jumpi\n      invalid\n    tag_21:\n      div\n        /* \"collegeDepartmentRating.sol\":2021:2053  collRating = collRating / length */\n      swap1\n      pop\n        /* \"collegeDepartmentRating.sol\":2074:2080  length */\n      dup3\n        /* \"collegeDepartmentRating.sol\":2083:2093  collRating */\n      dup2\n        /* \"collegeDepartmentRating.sol\":2063:2095  return   ( length , collRating ) */\n      swap5\n      pop\n      swap5\n      pop\n      pop\n      pop\n      pop\n        /* \"collegeDepartmentRating.sol\":1536:2105  function getCollageRating(address _collegeAddress ) public view returns(uint , uint)... */\n      swap2\n      pop\n      swap2\n      jump\t// out\n        /* \"collegeDepartmentRating.sol\":1013:1327  function setRating(address _collegeAddress, uint _deptId, uint _rating)... */\n    tag_11:\n        /* \"collegeDepartmentRating.sol\":1111:1126  _collegeAddress */\n      dup3\n        /* \"collegeDepartmentRating.sol\":726:736  msg.sender */\n      caller\n        /* \"collegeDepartmentRating.sol\":708:736  collegeAddress != msg.sender */\n      0xffffffffffffffffffffffffffffffffffffffff\n      and\n        /* \"collegeDepartmentRating.sol\":708:722  collegeAddress */\n      dup2\n        /* \"collegeDepartmentRating.sol\":708:736  collegeAddress != msg.sender */\n      0xffffffffffffffffffffffffffffffffffffffff\n      and\n      eq\n      iszero\n        /* \"collegeDepartmentRating.sol\":700:782  require(collegeAddress != msg.sender, \"Same College can't give rating to itself.\") */\n      tag_23\n      jumpi\n      mload(0x40)\n      0x08c379a000000000000000000000000000000000000000000000000000000000\n      dup2\n      mstore\n      0x04\n      add\n      dup1\n      dup1\n      0x20\n      add\n      dup3\n      dup2\n      sub\n      dup3\n      mstore\n      0x29\n      dup2\n      mstore\n      0x20\n      add\n      dup1\n      data_91147b02be505eafcfba0508d08ec0ac96c0f2c9821fe2bf6f36d6096e4f3ea2\n      0x29\n      swap2\n      codecopy\n      0x40\n      add\n      swap2\n      pop\n      pop\n      mload(0x40)\n      dup1\n      swap2\n      sub\n      swap1\n      revert\n    tag_23:\n        /* \"collegeDepartmentRating.sol\":1138:1145  cRating */\n      0x01\n        /* \"collegeDepartmentRating.sol\":1138:1162  cRating[_collegeAddress] */\n      0x00\n        /* \"collegeDepartmentRating.sol\":1146:1161  _collegeAddress */\n      dup6\n        /* \"collegeDepartmentRating.sol\":1138:1162  cRating[_collegeAddress] */\n      0xffffffffffffffffffffffffffffffffffffffff\n      and\n      0xffffffffffffffffffffffffffffffffffffffff\n      and\n      dup2\n      mstore\n      0x20\n      add\n      swap1\n      dup2\n      mstore\n      0x20\n      add\n      0x00\n      keccak256\n        /* \"collegeDepartmentRating.sol\":1138:1169  cRating[_collegeAddress].deptId */\n      0x00\n      add\n        /* \"collegeDepartmentRating.sol\":1175:1182  _deptId */\n      dup4\n        /* \"collegeDepartmentRating.sol\":1138:1183  cRating[_collegeAddress].deptId.push(_deptId) */\n      swap1\n      dup1\n        /* \"--CODEGEN--\":39:40   */\n      0x01\n        /* \"--CODEGEN--\":33:36   */\n      dup2\n        /* \"--CODEGEN--\":27:37   */\n      sload\n        /* \"--CODEGEN--\":23:41   */\n      add\n        /* \"--CODEGEN--\":57:67   */\n      dup1\n        /* \"--CODEGEN--\":52:55   */\n      dup3\n        /* \"--CODEGEN--\":45:68   */\n      sstore\n        /* \"--CODEGEN--\":79:89   */\n      dup1\n        /* \"--CODEGEN--\":72:89   */\n      swap2\n      pop\n        /* \"--CODEGEN--\":0:93   */\n      pop\n        /* \"collegeDepartmentRating.sol\":1138:1183  cRating[_collegeAddress].deptId.push(_deptId) */\n      swap1\n      0x01\n      dup3\n      sub\n      swap1\n      0x00\n      mstore\n      keccak256(0x00, 0x20)\n      add\n      0x00\n      swap1\n      swap2\n      swap3\n      swap1\n      swap2\n      swap1\n      swap2\n      pop\n      sstore\n      pop\n        /* \"collegeDepartmentRating.sol\":1235:1242  _rating */\n      dup2\n        /* \"collegeDepartmentRating.sol\":1192:1199  cRating */\n      0x01\n        /* \"collegeDepartmentRating.sol\":1192:1216  cRating[_collegeAddress] */\n      0x00\n        /* \"collegeDepartmentRating.sol\":1200:1215  _collegeAddress */\n      dup7\n        /* \"collegeDepartmentRating.sol\":1192:1216  cRating[_collegeAddress] */\n      0xffffffffffffffffffffffffffffffffffffffff\n      and\n      0xffffffffffffffffffffffffffffffffffffffff\n      and\n      dup2\n      mstore\n      0x20\n      add\n      swap1\n      dup2\n      mstore\n      0x20\n      add\n      0x00\n      keccak256\n        /* \"collegeDepartmentRating.sol\":1192:1223  cRating[_collegeAddress].rating */\n      0x01\n      add\n        /* \"collegeDepartmentRating.sol\":1192:1232  cRating[_collegeAddress].rating[_deptId] */\n      0x00\n        /* \"collegeDepartmentRating.sol\":1224:1231  _deptId */\n      dup6\n        /* \"collegeDepartmentRating.sol\":1192:1232  cRating[_collegeAddress].rating[_deptId] */\n      dup2\n      mstore\n      0x20\n      add\n      swap1\n      dup2\n      mstore\n      0x20\n      add\n      0x00\n      keccak256\n        /* \"collegeDepartmentRating.sol\":1192:1242  cRating[_collegeAddress].rating[_deptId] = _rating */\n      dup2\n      swap1\n      sstore\n      pop\n        /* \"collegeDepartmentRating.sol\":1263:1310  enterRating(_collegeAddress, _deptId, _rating ) */\n      0xe479d3bf97f2a940e7c0466a960c725a7794d1243fb60cae056bedd68ae7f8a0\n        /* \"collegeDepartmentRating.sol\":1275:1290  _collegeAddress */\n      dup5\n        /* \"collegeDepartmentRating.sol\":1292:1299  _deptId */\n      dup5\n        /* \"collegeDepartmentRating.sol\":1301:1308  _rating */\n      dup5\n        /* \"collegeDepartmentRating.sol\":1263:1310  enterRating(_collegeAddress, _deptId, _rating ) */\n      mload(0x40)\n      dup1\n      dup5\n      0xffffffffffffffffffffffffffffffffffffffff\n      and\n      0xffffffffffffffffffffffffffffffffffffffff\n      and\n      dup2\n      mstore\n      0x20\n      add\n      dup4\n      dup2\n      mstore\n      0x20\n      add\n      dup3\n      dup2\n      mstore\n      0x20\n      add\n      swap4\n      pop\n      pop\n      pop\n      pop\n      mload(0x40)\n      dup1\n      swap2\n      sub\n      swap1\n      log1\n        /* \"collegeDepartmentRating.sol\":1013:1327  function setRating(address _collegeAddress, uint _deptId, uint _rating)... */\n      pop\n      pop\n      pop\n      pop\n      jump\t// out\n        /* \"collegeDepartmentRating.sol\":1334:1529  function getDeptRating(address _collegeAddress, uint _deptId)... */\n    tag_14:\n        /* \"collegeDepartmentRating.sol\":1423:1427  uint */\n      0x00\n        /* \"collegeDepartmentRating.sol\":1466:1473  cRating */\n      0x01\n        /* \"collegeDepartmentRating.sol\":1466:1490  cRating[_collegeAddress] */\n      0x00\n        /* \"collegeDepartmentRating.sol\":1474:1489  _collegeAddress */\n      dup5\n        /* \"collegeDepartmentRating.sol\":1466:1490  cRating[_collegeAddress] */\n      0xffffffffffffffffffffffffffffffffffffffff\n      and\n      0xffffffffffffffffffffffffffffffffffffffff\n      and\n      dup2\n      mstore\n      0x20\n      add\n      swap1\n      dup2\n      mstore\n      0x20\n      add\n      0x00\n      keccak256\n        /* \"collegeDepartmentRating.sol\":1466:1497  cRating[_collegeAddress].rating */\n      0x01\n      add\n        /* \"collegeDepartmentRating.sol\":1466:1506  cRating[_collegeAddress].rating[_deptId] */\n      0x00\n        /* \"collegeDepartmentRating.sol\":1498:1505  _deptId */\n      dup4\n        /* \"collegeDepartmentRating.sol\":1466:1506  cRating[_collegeAddress].rating[_deptId] */\n      dup2\n      mstore\n      0x20\n      add\n      swap1\n      dup2\n      mstore\n      0x20\n      add\n      0x00\n      keccak256\n      sload\n        /* \"collegeDepartmentRating.sol\":1442:1521  return ( ... */\n      swap1\n      pop\n        /* \"collegeDepartmentRating.sol\":1334:1529  function getDeptRating(address _collegeAddress, uint _deptId)... */\n      swap3\n      swap2\n      pop\n      pop\n      jump\t// out\n    stop\n    data_91147b02be505eafcfba0508d08ec0ac96c0f2c9821fe2bf6f36d6096e4f3ea2 53616d6520436f6c6c6567652063616e2774206769766520726174696e6720746f20697473656c662e\n\n    auxdata: 0xa265627a7a72315820087ddcf4d3c922f78121ab5a35ad0861c813fdf676365b8090b1aa9039f3f04f64736f6c63430005110032\n}\n",
				"bytecode": {
					"linkReferences": {},
					"object": "608060405234801561001057600080fd5b50336000806101000a81548173ffffffffffffffffffffffffffffffffffffffff021916908373ffffffffffffffffffffffffffffffffffffffff160217905550610519806100606000396000f3fe608060405234801561001057600080fd5b50600436106100415760003560e01c80632936bdb314610046578063868c2b91146100a5578063d6a6bacf146100fd575b600080fd5b6100886004803603602081101561005c57600080fd5b81019080803573ffffffffffffffffffffffffffffffffffffffff16906020019092919050505061015f565b604051808381526020018281526020019250505060405180910390f35b6100fb600480360360608110156100bb57600080fd5b81019080803573ffffffffffffffffffffffffffffffffffffffff169060200190929190803590602001909291908035906020019092919050505061029a565b005b6101496004803603604081101561011357600080fd5b81019080803573ffffffffffffffffffffffffffffffffffffffff1690602001909291908035906020019092919050505061045d565b6040518082815260200191505060405180910390f35b6000806000806000809050600160008773ffffffffffffffffffffffffffffffffffffffff1673ffffffffffffffffffffffffffffffffffffffff16815260200190815260200160002060000180549050925060008090505b8381101561027f57600160008873ffffffffffffffffffffffffffffffffffffffff1673ffffffffffffffffffffffffffffffffffffffff168152602001908152602001600020600001818154811061020d57fe5b9060005260206000200154925081600160008973ffffffffffffffffffffffffffffffffffffffff1673ffffffffffffffffffffffffffffffffffffffff16815260200190815260200160002060010160008581526020019081526020016000205401915080806001019150506101b8565b5082818161028957fe5b049050828194509450505050915091565b823373ffffffffffffffffffffffffffffffffffffffff168173ffffffffffffffffffffffffffffffffffffffff161415610320576040517f08c379a00000000000000000000000000000000000000000000000000000000081526004018080602001828103825260298152602001806104bc6029913960400191505060405180910390fd5b600160008573ffffffffffffffffffffffffffffffffffffffff1673ffffffffffffffffffffffffffffffffffffffff16815260200190815260200160002060000183908060018154018082558091505090600182039060005260206000200160009091929091909150555081600160008673ffffffffffffffffffffffffffffffffffffffff1673ffffffffffffffffffffffffffffffffffffffff1681526020019081526020016000206001016000858152602001908152602001600020819055507fe479d3bf97f2a940e7c0466a960c725a7794d1243fb60cae056bedd68ae7f8a0848484604051808473ffffffffffffffffffffffffffffffffffffffff1673ffffffffffffffffffffffffffffffffffffffff168152602001838152602001828152602001935050505060405180910390a150505050565b6000600160008473ffffffffffffffffffffffffffffffffffffffff1673ffffffffffffffffffffffffffffffffffffffff16815260200190815260200160002060010160008381526020019081526020016000205490509291505056fe53616d6520436f6c6c6567652063616e2774206769766520726174696e6720746f20697473656c662ea265627a7a72315820087ddcf4d3c922f78121ab5a35ad0861c813fdf676365b8090b1aa9039f3f04f64736f6c63430005110032",
					"opcodes": "PUSH1 0x80 PUSH1 0x40 MSTORE CALLVALUE DUP1 ISZERO PUSH2 0x10 JUMPI PUSH1 0x0 DUP1 REVERT JUMPDEST POP CALLER PUSH1 0x0 DUP1 PUSH2 0x100 EXP DUP2 SLOAD DUP2 PUSH20 0xFFFFFFFFFFFFFFFFFFFFFFFFFFFFFFFFFFFFFFFF MUL NOT AND SWAP1 DUP4 PUSH20 0xFFFFFFFFFFFFFFFFFFFFFFFFFFFFFFFFFFFFFFFF AND MUL OR SWAP1 SSTORE POP PUSH2 0x519 DUP1 PUSH2 0x60 PUSH1 0x0 CODECOPY PUSH1 0x0 RETURN INVALID PUSH1 0x80 PUSH1 0x40 MSTORE CALLVALUE DUP1 ISZERO PUSH2 0x10 JUMPI PUSH1 0x0 DUP1 REVERT JUMPDEST POP PUSH1 0x4 CALLDATASIZE LT PUSH2 0x41 JUMPI PUSH1 0x0 CALLDATALOAD PUSH1 0xE0 SHR DUP1 PUSH4 0x2936BDB3 EQ PUSH2 0x46 JUMPI DUP1 PUSH4 0x868C2B91 EQ PUSH2 0xA5 JUMPI DUP1 PUSH4 0xD6A6BACF EQ PUSH2 0xFD JUMPI JUMPDEST PUSH1 0x0 DUP1 REVERT JUMPDEST PUSH2 0x88 PUSH1 0x4 DUP1 CALLDATASIZE SUB PUSH1 0x20 DUP2 LT ISZERO PUSH2 0x5C JUMPI PUSH1 0x0 DUP1 REVERT JUMPDEST DUP2 ADD SWAP1 DUP1 DUP1 CALLDATALOAD PUSH20 0xFFFFFFFFFFFFFFFFFFFFFFFFFFFFFFFFFFFFFFFF AND SWAP1 PUSH1 0x20 ADD SWAP1 SWAP3 SWAP2 SWAP1 POP POP POP PUSH2 0x15F JUMP JUMPDEST PUSH1 0x40 MLOAD DUP1 DUP4 DUP2 MSTORE PUSH1 0x20 ADD DUP3 DUP2 MSTORE PUSH1 0x20 ADD SWAP3 POP POP POP PUSH1 0x40 MLOAD DUP1 SWAP2 SUB SWAP1 RETURN JUMPDEST PUSH2 0xFB PUSH1 0x4 DUP1 CALLDATASIZE SUB PUSH1 0x60 DUP2 LT ISZERO PUSH2 0xBB JUMPI PUSH1 0x0 DUP1 REVERT JUMPDEST DUP2 ADD SWAP1 DUP1 DUP1 CALLDATALOAD PUSH20 0xFFFFFFFFFFFFFFFFFFFFFFFFFFFFFFFFFFFFFFFF AND SWAP1 PUSH1 0x20 ADD SWAP1 SWAP3 SWAP2 SWAP1 DUP1 CALLDATALOAD SWAP1 PUSH1 0x20 ADD SWAP1 SWAP3 SWAP2 SWAP1 DUP1 CALLDATALOAD SWAP1 PUSH1 0x20 ADD SWAP1 SWAP3 SWAP2 SWAP1 POP POP POP PUSH2 0x29A JUMP JUMPDEST STOP JUMPDEST PUSH2 0x149 PUSH1 0x4 DUP1 CALLDATASIZE SUB PUSH1 0x40 DUP2 LT ISZERO PUSH2 0x113 JUMPI PUSH1 0x0 DUP1 REVERT JUMPDEST DUP2 ADD SWAP1 DUP1 DUP1 CALLDATALOAD PUSH20 0xFFFFFFFFFFFFFFFFFFFFFFFFFFFFFFFFFFFFFFFF AND SWAP1 PUSH1 0x20 ADD SWAP1 SWAP3 SWAP2 SWAP1 DUP1 CALLDATALOAD SWAP1 PUSH1 0x20 ADD SWAP1 SWAP3 SWAP2 SWAP1 POP POP POP PUSH2 0x45D JUMP JUMPDEST PUSH1 0x40 MLOAD DUP1 DUP3 DUP2 MSTORE PUSH1 0x20 ADD SWAP2 POP POP PUSH1 0x40 MLOAD DUP1 SWAP2 SUB SWAP1 RETURN JUMPDEST PUSH1 0x0 DUP1 PUSH1 0x0 DUP1 PUSH1 0x0 DUP1 SWAP1 POP PUSH1 0x1 PUSH1 0x0 DUP8 PUSH20 0xFFFFFFFFFFFFFFFFFFFFFFFFFFFFFFFFFFFFFFFF AND PUSH20 0xFFFFFFFFFFFFFFFFFFFFFFFFFFFFFFFFFFFFFFFF AND DUP2 MSTORE PUSH1 0x20 ADD SWAP1 DUP2 MSTORE PUSH1 0x20 ADD PUSH1 0x0 KECCAK256 PUSH1 0x0 ADD DUP1 SLOAD SWAP1 POP SWAP3 POP PUSH1 0x0 DUP1 SWAP1 POP JUMPDEST DUP4 DUP2 LT ISZERO PUSH2 0x27F JUMPI PUSH1 0x1 PUSH1 0x0 DUP9 PUSH20 0xFFFFFFFFFFFFFFFFFFFFFFFFFFFFFFFFFFFFFFFF AND PUSH20 0xFFFFFFFFFFFFFFFFFFFFFFFFFFFFFFFFFFFFFFFF AND DUP2 MSTORE PUSH1 0x20 ADD SWAP1 DUP2 MSTORE PUSH1 0x20 ADD PUSH1 0x0 KECCAK256 PUSH1 0x0 ADD DUP2 DUP2 SLOAD DUP2 LT PUSH2 0x20D JUMPI INVALID JUMPDEST SWAP1 PUSH1 0x0 MSTORE PUSH1 0x20 PUSH1 0x0 KECCAK256 ADD SLOAD SWAP3 POP DUP2 PUSH1 0x1 PUSH1 0x0 DUP10 PUSH20 0xFFFFFFFFFFFFFFFFFFFFFFFFFFFFFFFFFFFFFFFF AND PUSH20 0xFFFFFFFFFFFFFFFFFFFFFFFFFFFFFFFFFFFFFFFF AND DUP2 MSTORE PUSH1 0x20 ADD SWAP1 DUP2 MSTORE PUSH1 0x20 ADD PUSH1 0x0 KECCAK256 PUSH1 0x1 ADD PUSH1 0x0 DUP6 DUP2 MSTORE PUSH1 0x20 ADD SWAP1 DUP2 MSTORE PUSH1 0x20 ADD PUSH1 0x0 KECCAK256 SLOAD ADD SWAP2 POP DUP1 DUP1 PUSH1 0x1 ADD SWAP2 POP POP PUSH2 0x1B8 JUMP JUMPDEST POP DUP3 DUP2 DUP2 PUSH2 0x289 JUMPI INVALID JUMPDEST DIV SWAP1 POP DUP3 DUP2 SWAP5 POP SWAP5 POP POP POP POP SWAP2 POP SWAP2 JUMP JUMPDEST DUP3 CALLER PUSH20 0xFFFFFFFFFFFFFFFFFFFFFFFFFFFFFFFFFFFFFFFF AND DUP2 PUSH20 0xFFFFFFFFFFFFFFFFFFFFFFFFFFFFFFFFFFFFFFFF AND EQ ISZERO PUSH2 0x320 JUMPI PUSH1 0x40 MLOAD PUSH32 0x8C379A000000000000000000000000000000000000000000000000000000000 DUP2 MSTORE PUSH1 0x4 ADD DUP1 DUP1 PUSH1 0x20 ADD DUP3 DUP2 SUB DUP3 MSTORE PUSH1 0x29 DUP2 MSTORE PUSH1 0x20 ADD DUP1 PUSH2 0x4BC PUSH1 0x29 SWAP2 CODECOPY PUSH1 0x40 ADD SWAP2 POP POP PUSH1 0x40 MLOAD DUP1 SWAP2 SUB SWAP1 REVERT JUMPDEST PUSH1 0x1 PUSH1 0x0 DUP6 PUSH20 0xFFFFFFFFFFFFFFFFFFFFFFFFFFFFFFFFFFFFFFFF AND PUSH20 0xFFFFFFFFFFFFFFFFFFFFFFFFFFFFFFFFFFFFFFFF AND DUP2 MSTORE PUSH1 0x20 ADD SWAP1 DUP2 MSTORE PUSH1 0x20 ADD PUSH1 0x0 KECCAK256 PUSH1 0x0 ADD DUP4 SWAP1 DUP1 PUSH1 0x1 DUP2 SLOAD ADD DUP1 DUP3 SSTORE DUP1 SWAP2 POP POP SWAP1 PUSH1 0x1 DUP3 SUB SWAP1 PUSH1 0x0 MSTORE PUSH1 0x20 PUSH1 0x0 KECCAK256 ADD PUSH1 0x0 SWAP1 SWAP2 SWAP3 SWAP1 SWAP2 SWAP1 SWAP2 POP SSTORE POP DUP2 PUSH1 0x1 PUSH1 0x0 DUP7 PUSH20 0xFFFFFFFFFFFFFFFFFFFFFFFFFFFFFFFFFFFFFFFF AND PUSH20 0xFFFFFFFFFFFFFFFFFFFFFFFFFFFFFFFFFFFFFFFF AND DUP2 MSTORE PUSH1 0x20 ADD SWAP1 DUP2 MSTORE PUSH1 0x20 ADD PUSH1 0x0 KECCAK256 PUSH1 0x1 ADD PUSH1 0x0 DUP6 DUP2 MSTORE PUSH1 0x20 ADD SWAP1 DUP2 MSTORE PUSH1 0x20 ADD PUSH1 0x0 KECCAK256 DUP2 SWAP1 SSTORE POP PUSH32 0xE479D3BF97F2A940E7C0466A960C725A7794D1243FB60CAE056BEDD68AE7F8A0 DUP5 DUP5 DUP5 PUSH1 0x40 MLOAD DUP1 DUP5 PUSH20 0xFFFFFFFFFFFFFFFFFFFFFFFFFFFFFFFFFFFFFFFF AND PUSH20 0xFFFFFFFFFFFFFFFFFFFFFFFFFFFFFFFFFFFFFFFF AND DUP2 MSTORE PUSH1 0x20 ADD DUP4 DUP2 MSTORE PUSH1 0x20 ADD DUP3 DUP2 MSTORE PUSH1 0x20 ADD SWAP4 POP POP POP POP PUSH1 0x40 MLOAD DUP1 SWAP2 SUB SWAP1 LOG1 POP POP POP POP JUMP JUMPDEST PUSH1 0x0 PUSH1 0x1 PUSH1 0x0 DUP5 PUSH20 0xFFFFFFFFFFFFFFFFFFFFFFFFFFFFFFFFFFFFFFFF AND PUSH20 0xFFFFFFFFFFFFFFFFFFFFFFFFFFFFFFFFFFFFFFFF AND DUP2 MSTORE PUSH1 0x20 ADD SWAP1 DUP2 MSTORE PUSH1 0x20 ADD PUSH1 0x0 KECCAK256 PUSH1 0x1 ADD PUSH1 0x0 DUP4 DUP2 MSTORE PUSH1 0x20 ADD SWAP1 DUP2 MSTORE PUSH1 0x20 ADD PUSH1 0x0 KECCAK256 SLOAD SWAP1 POP SWAP3 SWAP2 POP POP JUMP INVALID MSTORE8 PUSH2 0x6D65 KECCAK256 NUMBER PUSH16 0x6C6C6567652063616E27742067697665 KECCAK256 PUSH19 0x6174696E6720746F20697473656C662EA26562 PUSH27 0x7A72315820087DDCF4D3C922F78121AB5A35AD0861C813FDF67636 JUMPDEST DUP1 SWAP1 0xB1 0xAA SWAP1 CODECOPY RETURN CREATE 0x4F PUSH5 0x736F6C6343 STOP SDIV GT STOP ORIGIN "
				},
				"gasEstimates": {
					"creation": {
						"codeDepositCost": "261000",
						"executionCost": "21166",
						"totalCost": "282166"
					},
					"external": {
						"getCollageRating(address)": "infinite",
						"getDeptRating(address,uint256)": "1331",
						"setRating(address,uint256,uint256)": "infinite"
					}
				},
				"methodIdentifiers": {
					"getCollageRating(address)": "2936bdb3",
					"getDeptRating(address,uint256)": "d6a6bacf",
					"setRating(address,uint256,uint256)": "868c2b91"
				}
			},
			"storageLayout": {
				"storage": [
					{
						"astId": 3,
						"contract": "collegeDepartmentRating.sol:collegeRating",
						"label": "cAdd",
						"offset": 0,
						"slot": "0",
						"type": "t_address"
					},
					{
						"astId": 17,
						"contract": "collegeDepartmentRating.sol:collegeRating",
						"label": "cRating",
						"offset": 0,
						"slot": "1",
						"type": "t_mapping(t_address,t_struct(ratingStruct)13_storage)"
					}
				],
				"types": {
					"t_address": {
						"encoding": "inplace",
						"label": "address",
						"numberOfBytes": "20"
					},
					"t_array(t_uint256)dyn_storage": {
						"base": "t_uint256",
						"encoding": "dynamic_array",
						"label": "uint256[]",
						"numberOfBytes": "32"
					},
					"t_mapping(t_address,t_struct(ratingStruct)13_storage)": {
						"encoding": "mapping",
						"key": "t_address",
						"label": "mapping(address => struct collegeRating.ratingStruct)",
						"numberOfBytes": "32",
						"value": "t_struct(ratingStruct)13_storage"
					},
					"t_mapping(t_uint256,t_uint256)": {
						"encoding": "mapping",
						"key": "t_uint256",
						"label": "mapping(uint256 => uint256)",
						"numberOfBytes": "32",
						"value": "t_uint256"
					},
					"t_struct(ratingStruct)13_storage": {
						"encoding": "inplace",
						"label": "struct collegeRating.ratingStruct",
						"members": [
							{
								"astId": 6,
								"contract": "collegeDepartmentRating.sol:collegeRating",
								"label": "deptId",
								"offset": 0,
								"slot": "0",
								"type": "t_array(t_uint256)dyn_storage"
							},
							{
								"astId": 10,
								"contract": "collegeDepartmentRating.sol:collegeRating",
								"label": "rating",
								"offset": 0,
								"slot": "1",
								"type": "t_mapping(t_uint256,t_uint256)"
							},
							{
								"astId": 12,
								"contract": "collegeDepartmentRating.sol:collegeRating",
								"label": "avgRating",
								"offset": 0,
								"slot": "2",
								"type": "t_uint256"
							}
						],
						"numberOfBytes": "96"
					},
					"t_uint256": {
						"encoding": "inplace",
						"label": "uint256",
						"numberOfBytes": "32"
					}
				}
			},
			"userdoc": {
				"methods": {}
			}
		}
	}
}