{
	"structMap.sol": {
		"studentMarks": {
			"abi": [
				{
					"anonymous": false,
					"inputs": [
						{
							"indexed": false,
							"internalType": "uint256",
							"name": "studentId",
							"type": "uint256"
						},
						{
							"indexed": false,
							"internalType": "uint256",
							"name": "subjectId",
							"type": "uint256"
						},
						{
							"indexed": false,
							"internalType": "uint256",
							"name": "_marks",
							"type": "uint256"
						}
					],
					"name": "eAddStudentSubjectMark",
					"type": "event"
				},
				{
					"constant": true,
					"inputs": [
						{
							"internalType": "uint256",
							"name": "_studentId",
							"type": "uint256"
						},
						{
							"internalType": "uint256",
							"name": "_subjectId",
							"type": "uint256"
						}
					],
					"name": "getStudentMarks",
					"outputs": [
						{
							"internalType": "uint256",
							"name": "",
							"type": "uint256"
						}
					],
					"payable": false,
					"stateMutability": "view",
					"type": "function"
				},
				{
					"constant": true,
					"inputs": [
						{
							"internalType": "uint256",
							"name": "_studentId",
							"type": "uint256"
						}
					],
					"name": "getTotalMarks",
					"outputs": [
						{
							"internalType": "uint256",
							"name": "",
							"type": "uint256"
						}
					],
					"payable": false,
					"stateMutability": "view",
					"type": "function"
				},
				{
					"constant": false,
					"inputs": [
						{
							"internalType": "uint256",
							"name": "_studentId",
							"type": "uint256"
						},
						{
							"internalType": "uint256",
							"name": "_subjectId",
							"type": "uint256"
						},
						{
							"internalType": "uint256",
							"name": "_marks",
							"type": "uint256"
						}
					],
					"name": "setStudentMarks",
					"outputs": [],
					"payable": false,
					"stateMutability": "nonpayable",
					"type": "function"
				}
			],
			"devdoc": {
				"methods": {}
			},
			"evm": {
				"assembly": "    /* \"structMap.sol\":25:1256  contract studentMarks{... */\n  mstore(0x40, 0x80)\n  callvalue\n    /* \"--CODEGEN--\":8:17   */\n  dup1\n    /* \"--CODEGEN--\":5:7   */\n  iszero\n  tag_1\n  jumpi\n    /* \"--CODEGEN--\":30:31   */\n  0x00\n    /* \"--CODEGEN--\":27:28   */\n  dup1\n    /* \"--CODEGEN--\":20:32   */\n  revert\n    /* \"--CODEGEN--\":5:7   */\ntag_1:\n    /* \"structMap.sol\":25:1256  contract studentMarks{... */\n  pop\n  dataSize(sub_0)\n  dup1\n  dataOffset(sub_0)\n  0x00\n  codecopy\n  0x00\n  return\nstop\n\nsub_0: assembly {\n        /* \"structMap.sol\":25:1256  contract studentMarks{... */\n      mstore(0x40, 0x80)\n      callvalue\n        /* \"--CODEGEN--\":8:17   */\n      dup1\n        /* \"--CODEGEN--\":5:7   */\n      iszero\n      tag_1\n      jumpi\n        /* \"--CODEGEN--\":30:31   */\n      0x00\n        /* \"--CODEGEN--\":27:28   */\n      dup1\n        /* \"--CODEGEN--\":20:32   */\n      revert\n        /* \"--CODEGEN--\":5:7   */\n    tag_1:\n        /* \"structMap.sol\":25:1256  contract studentMarks{... */\n      pop\n      jumpi(tag_2, lt(calldatasize, 0x04))\n      shr(0xe0, calldataload(0x00))\n      dup1\n      0x47c6da5a\n      eq\n      tag_3\n      jumpi\n      dup1\n      0x70f5cf49\n      eq\n      tag_4\n      jumpi\n      dup1\n      0xf093db8b\n      eq\n      tag_5\n      jumpi\n    tag_2:\n      0x00\n      dup1\n      revert\n        /* \"structMap.sol\":380:617  function setStudentMarks(uint _studentId, uint _subjectId, uint _marks) public{... */\n    tag_3:\n      tag_6\n      0x04\n      dup1\n      calldatasize\n      sub\n        /* \"--CODEGEN--\":13:15   */\n      0x60\n        /* \"--CODEGEN--\":8:11   */\n      dup2\n        /* \"--CODEGEN--\":5:16   */\n      lt\n        /* \"--CODEGEN--\":2:4   */\n      iszero\n      tag_7\n      jumpi\n        /* \"--CODEGEN--\":29:30   */\n      0x00\n        /* \"--CODEGEN--\":26:27   */\n      dup1\n        /* \"--CODEGEN--\":19:31   */\n      revert\n        /* \"--CODEGEN--\":2:4   */\n    tag_7:\n        /* \"structMap.sol\":380:617  function setStudentMarks(uint _studentId, uint _subjectId, uint _marks) public{... */\n      dup2\n      add\n      swap1\n      dup1\n      dup1\n      calldataload\n      swap1\n      0x20\n      add\n      swap1\n      swap3\n      swap2\n      swap1\n      dup1\n      calldataload\n      swap1\n      0x20\n      add\n      swap1\n      swap3\n      swap2\n      swap1\n      dup1\n      calldataload\n      swap1\n      0x20\n      add\n      swap1\n      swap3\n      swap2\n      swap1\n      pop\n      pop\n      pop\n      tag_8\n      jump\t// in\n    tag_6:\n      stop\n        /* \"structMap.sol\":843:1251  function getTotalMarks(uint _studentId)public view returns(uint){... */\n    tag_4:\n      tag_9\n      0x04\n      dup1\n      calldatasize\n      sub\n        /* \"--CODEGEN--\":13:15   */\n      0x20\n        /* \"--CODEGEN--\":8:11   */\n      dup2\n        /* \"--CODEGEN--\":5:16   */\n      lt\n        /* \"--CODEGEN--\":2:4   */\n      iszero\n      tag_10\n      jumpi\n        /* \"--CODEGEN--\":29:30   */\n      0x00\n        /* \"--CODEGEN--\":26:27   */\n      dup1\n        /* \"--CODEGEN--\":19:31   */\n      revert\n        /* \"--CODEGEN--\":2:4   */\n    tag_10:\n        /* \"structMap.sol\":843:1251  function getTotalMarks(uint _studentId)public view returns(uint){... */\n      dup2\n      add\n      swap1\n      dup1\n      dup1\n      calldataload\n      swap1\n      0x20\n      add\n      swap1\n      swap3\n      swap2\n      swap1\n      pop\n      pop\n      pop\n      tag_11\n      jump\t// in\n    tag_9:\n      mload(0x40)\n      dup1\n      dup3\n      dup2\n      mstore\n      0x20\n      add\n      swap2\n      pop\n      pop\n      mload(0x40)\n      dup1\n      swap2\n      sub\n      swap1\n      return\n        /* \"structMap.sol\":660:829  function getStudentMarks(uint _studentId , uint _subjectId) public view returns(uint) {... */\n    tag_5:\n      tag_12\n      0x04\n      dup1\n      calldatasize\n      sub\n        /* \"--CODEGEN--\":13:15   */\n      0x40\n        /* \"--CODEGEN--\":8:11   */\n      dup2\n        /* \"--CODEGEN--\":5:16   */\n      lt\n        /* \"--CODEGEN--\":2:4   */\n      iszero\n      tag_13\n      jumpi\n        /* \"--CODEGEN--\":29:30   */\n      0x00\n        /* \"--CODEGEN--\":26:27   */\n      dup1\n        /* \"--CODEGEN--\":19:31   */\n      revert\n        /* \"--CODEGEN--\":2:4   */\n    tag_13:\n        /* \"structMap.sol\":660:829  function getStudentMarks(uint _studentId , uint _subjectId) public view returns(uint) {... */\n      dup2\n      add\n      swap1\n      dup1\n      dup1\n      calldataload\n      swap1\n      0x20\n      add\n      swap1\n      swap3\n      swap2\n      swap1\n      dup1\n      calldataload\n      swap1\n      0x20\n      add\n      swap1\n      swap3\n      swap2\n      swap1\n      pop\n      pop\n      pop\n      tag_14\n      jump\t// in\n    tag_12:\n      mload(0x40)\n      dup1\n      dup3\n      dup2\n      mstore\n      0x20\n      add\n      swap2\n      pop\n      pop\n      mload(0x40)\n      dup1\n      swap2\n      sub\n      swap1\n      return\n        /* \"structMap.sol\":380:617  function setStudentMarks(uint _studentId, uint _subjectId, uint _marks) public{... */\n    tag_8:\n        /* \"structMap.sol\":470:483  studentReport */\n      0x00\n        /* \"structMap.sol\":470:495  studentReport[_studentId] */\n      dup1\n        /* \"structMap.sol\":484:494  _studentId */\n      dup5\n        /* \"structMap.sol\":470:495  studentReport[_studentId] */\n      dup2\n      mstore\n      0x20\n      add\n      swap1\n      dup2\n      mstore\n      0x20\n      add\n      0x00\n      keccak256\n        /* \"structMap.sol\":470:507  studentReport[_studentId].subjectList */\n      0x00\n      add\n        /* \"structMap.sol\":513:523  _subjectId */\n      dup3\n        /* \"structMap.sol\":470:524  studentReport[_studentId].subjectList.push(_subjectId) */\n      swap1\n      dup1\n        /* \"--CODEGEN--\":39:40   */\n      0x01\n        /* \"--CODEGEN--\":33:36   */\n      dup2\n        /* \"--CODEGEN--\":27:37   */\n      sload\n        /* \"--CODEGEN--\":23:41   */\n      add\n        /* \"--CODEGEN--\":57:67   */\n      dup1\n        /* \"--CODEGEN--\":52:55   */\n      dup3\n        /* \"--CODEGEN--\":45:68   */\n      sstore\n        /* \"--CODEGEN--\":79:89   */\n      dup1\n        /* \"--CODEGEN--\":72:89   */\n      swap2\n      pop\n        /* \"--CODEGEN--\":0:93   */\n      pop\n        /* \"structMap.sol\":470:524  studentReport[_studentId].subjectList.push(_subjectId) */\n      swap1\n      0x01\n      dup3\n      sub\n      swap1\n      0x00\n      mstore\n      keccak256(0x00, 0x20)\n      add\n      0x00\n      swap1\n      swap2\n      swap3\n      swap1\n      swap2\n      swap1\n      swap2\n      pop\n      sstore\n      pop\n        /* \"structMap.sol\":589:595  _marks */\n      dup1\n        /* \"structMap.sol\":536:549  studentReport */\n      0x00\n        /* \"structMap.sol\":536:561  studentReport[_studentId] */\n      dup1\n        /* \"structMap.sol\":550:560  _studentId */\n      dup6\n        /* \"structMap.sol\":536:561  studentReport[_studentId] */\n      dup2\n      mstore\n      0x20\n      add\n      swap1\n      dup2\n      mstore\n      0x20\n      add\n      0x00\n      keccak256\n        /* \"structMap.sol\":536:574  studentReport[_studentId].subjectMarks */\n      0x01\n      add\n        /* \"structMap.sol\":536:586  studentReport[_studentId].subjectMarks[_subjectId] */\n      0x00\n        /* \"structMap.sol\":575:585  _subjectId */\n      dup5\n        /* \"structMap.sol\":536:586  studentReport[_studentId].subjectMarks[_subjectId] */\n      dup2\n      mstore\n      0x20\n      add\n      swap1\n      dup2\n      mstore\n      0x20\n      add\n      0x00\n      keccak256\n        /* \"structMap.sol\":536:595  studentReport[_studentId].subjectMarks[_subjectId] = _marks */\n      dup2\n      swap1\n      sstore\n      pop\n        /* \"structMap.sol\":380:617  function setStudentMarks(uint _studentId, uint _subjectId, uint _marks) public{... */\n      pop\n      pop\n      pop\n      jump\t// out\n        /* \"structMap.sol\":843:1251  function getTotalMarks(uint _studentId)public view returns(uint){... */\n    tag_11:\n        /* \"structMap.sol\":902:906  uint */\n      0x00\n        /* \"structMap.sol\":919:930  uint length */\n      dup1\n        /* \"structMap.sol\":933:946  studentReport */\n      0x00\n        /* \"structMap.sol\":933:958  studentReport[_studentId] */\n      dup1\n        /* \"structMap.sol\":947:957  _studentId */\n      dup5\n        /* \"structMap.sol\":933:958  studentReport[_studentId] */\n      dup2\n      mstore\n      0x20\n      add\n      swap1\n      dup2\n      mstore\n      0x20\n      add\n      0x00\n      keccak256\n        /* \"structMap.sol\":933:970  studentReport[_studentId].subjectList */\n      0x00\n      add\n        /* \"structMap.sol\":933:977  studentReport[_studentId].subjectList.length */\n      dup1\n      sload\n      swap1\n      pop\n        /* \"structMap.sol\":919:977  uint length = studentReport[_studentId].subjectList.length */\n      swap1\n      pop\n        /* \"structMap.sol\":989:1004  uint totalMarks */\n      0x00\n        /* \"structMap.sol\":1007:1008  0 */\n      dup1\n        /* \"structMap.sol\":989:1008  uint totalMarks = 0 */\n      swap1\n      pop\n        /* \"structMap.sol\":1031:1037  uint i */\n      0x00\n        /* \"structMap.sol\":1040:1041  0 */\n      dup1\n        /* \"structMap.sol\":1031:1041  uint i = 0 */\n      swap1\n      pop\n        /* \"structMap.sol\":1027:1212  for(uint i = 0 ; i < length ; i++ ){... */\n    tag_18:\n        /* \"structMap.sol\":1048:1054  length */\n      dup3\n        /* \"structMap.sol\":1044:1045  i */\n      dup2\n        /* \"structMap.sol\":1044:1054  i < length */\n      lt\n        /* \"structMap.sol\":1027:1212  for(uint i = 0 ; i < length ; i++ ){... */\n      iszero\n      tag_19\n      jumpi\n        /* \"structMap.sol\":1189:1199  totalMarks */\n      dup2\n        /* \"structMap.sol\":1091:1104  studentReport */\n      0x00\n        /* \"structMap.sol\":1091:1116  studentReport[_studentId] */\n      dup1\n        /* \"structMap.sol\":1105:1115  _studentId */\n      dup8\n        /* \"structMap.sol\":1091:1116  studentReport[_studentId] */\n      dup2\n      mstore\n      0x20\n      add\n      swap1\n      dup2\n      mstore\n      0x20\n      add\n      0x00\n      keccak256\n        /* \"structMap.sol\":1091:1129  studentReport[_studentId].subjectMarks */\n      0x01\n      add\n        /* \"structMap.sol\":1091:1171  studentReport[_studentId].subjectMarks[studentReport[_studentId].subjectList[i]] */\n      0x00\n        /* \"structMap.sol\":1130:1143  studentReport */\n      dup1\n        /* \"structMap.sol\":1130:1155  studentReport[_studentId] */\n      0x00\n        /* \"structMap.sol\":1144:1154  _studentId */\n      dup10\n        /* \"structMap.sol\":1130:1155  studentReport[_studentId] */\n      dup2\n      mstore\n      0x20\n      add\n      swap1\n      dup2\n      mstore\n      0x20\n      add\n      0x00\n      keccak256\n        /* \"structMap.sol\":1130:1167  studentReport[_studentId].subjectList */\n      0x00\n      add\n        /* \"structMap.sol\":1168:1169  i */\n      dup5\n        /* \"structMap.sol\":1130:1170  studentReport[_studentId].subjectList[i] */\n      dup2\n      sload\n      dup2\n      lt\n      tag_21\n      jumpi\n      invalid\n    tag_21:\n      swap1\n      0x00\n      mstore\n      keccak256(0x00, 0x20)\n      add\n      sload\n        /* \"structMap.sol\":1091:1171  studentReport[_studentId].subjectMarks[studentReport[_studentId].subjectList[i]] */\n      dup2\n      mstore\n      0x20\n      add\n      swap1\n      dup2\n      mstore\n      0x20\n      add\n      0x00\n      keccak256\n      sload\n        /* \"structMap.sol\":1091:1199  studentReport[_studentId].subjectMarks[studentReport[_studentId].subjectList[i]] ... */\n      add\n        /* \"structMap.sol\":1078:1199  totalMarks = studentReport[_studentId].subjectMarks[studentReport[_studentId].subjectList[i]] ... */\n      swap2\n      pop\n        /* \"structMap.sol\":1057:1060  i++ */\n      dup1\n      dup1\n      0x01\n      add\n      swap2\n      pop\n      pop\n        /* \"structMap.sol\":1027:1212  for(uint i = 0 ; i < length ; i++ ){... */\n      jump(tag_18)\n    tag_19:\n      pop\n        /* \"structMap.sol\":1231:1241  totalMarks */\n      dup1\n        /* \"structMap.sol\":1224:1241  return totalMarks */\n      swap3\n      pop\n      pop\n      pop\n        /* \"structMap.sol\":843:1251  function getTotalMarks(uint _studentId)public view returns(uint){... */\n      swap2\n      swap1\n      pop\n      jump\t// out\n        /* \"structMap.sol\":660:829  function getStudentMarks(uint _studentId , uint _subjectId) public view returns(uint) {... */\n    tag_14:\n        /* \"structMap.sol\":740:744  uint */\n      0x00\n        /* \"structMap.sol\":767:780  studentReport */\n      dup1\n        /* \"structMap.sol\":767:792  studentReport[_studentId] */\n      0x00\n        /* \"structMap.sol\":781:791  _studentId */\n      dup5\n        /* \"structMap.sol\":767:792  studentReport[_studentId] */\n      dup2\n      mstore\n      0x20\n      add\n      swap1\n      dup2\n      mstore\n      0x20\n      add\n      0x00\n      keccak256\n        /* \"structMap.sol\":767:805  studentReport[_studentId].subjectMarks */\n      0x01\n      add\n        /* \"structMap.sol\":767:817  studentReport[_studentId].subjectMarks[_subjectId] */\n      0x00\n        /* \"structMap.sol\":806:816  _subjectId */\n      dup4\n        /* \"structMap.sol\":767:817  studentReport[_studentId].subjectMarks[_subjectId] */\n      dup2\n      mstore\n      0x20\n      add\n      swap1\n      dup2\n      mstore\n      0x20\n      add\n      0x00\n      keccak256\n      sload\n        /* \"structMap.sol\":760:817  return studentReport[_studentId].subjectMarks[_subjectId] */\n      swap1\n      pop\n        /* \"structMap.sol\":660:829  function getStudentMarks(uint _studentId , uint _subjectId) public view returns(uint) {... */\n      swap3\n      swap2\n      pop\n      pop\n      jump\t// out\n\n    auxdata: 0xa265627a7a72315820bf31487c7e8fbf1023ca0dd393626fe0cd494fff005c74460885a6ab88f0782464736f6c63430005110032\n}\n",
				"bytecode": {
					"linkReferences": {},
					"object": "608060405234801561001057600080fd5b50610289806100206000396000f3fe608060405234801561001057600080fd5b50600436106100415760003560e01c806347c6da5a1461004657806370f5cf4914610088578063f093db8b146100ca575b600080fd5b6100866004803603606081101561005c57600080fd5b81019080803590602001909291908035906020019092919080359060200190929190505050610116565b005b6100b46004803603602081101561009e57600080fd5b8101908080359060200190929190505050610185565b6040518082815260200191505060405180910390f35b610100600480360360408110156100e057600080fd5b810190808035906020019092919080359060200190929190505050610223565b6040518082815260200191505060405180910390f35b60008084815260200190815260200160002060000182908060018154018082558091505090600182039060005260206000200160009091929091909150555080600080858152602001908152602001600020600101600084815260200190815260200160002081905550505050565b600080600080848152602001908152602001600020600001805490509050600080905060008090505b828110156102185781600080878152602001908152602001600020600101600080600089815260200190815260200160002060000184815481106101ee57fe5b906000526020600020015481526020019081526020016000205401915080806001019150506101ae565b508092505050919050565b600080600084815260200190815260200160002060010160008381526020019081526020016000205490509291505056fea265627a7a72315820bf31487c7e8fbf1023ca0dd393626fe0cd494fff005c74460885a6ab88f0782464736f6c63430005110032",
					"opcodes": "PUSH1 0x80 PUSH1 0x40 MSTORE CALLVALUE DUP1 ISZERO PUSH2 0x10 JUMPI PUSH1 0x0 DUP1 REVERT JUMPDEST POP PUSH2 0x289 DUP1 PUSH2 0x20 PUSH1 0x0 CODECOPY PUSH1 0x0 RETURN INVALID PUSH1 0x80 PUSH1 0x40 MSTORE CALLVALUE DUP1 ISZERO PUSH2 0x10 JUMPI PUSH1 0x0 DUP1 REVERT JUMPDEST POP PUSH1 0x4 CALLDATASIZE LT PUSH2 0x41 JUMPI PUSH1 0x0 CALLDATALOAD PUSH1 0xE0 SHR DUP1 PUSH4 0x47C6DA5A EQ PUSH2 0x46 JUMPI DUP1 PUSH4 0x70F5CF49 EQ PUSH2 0x88 JUMPI DUP1 PUSH4 0xF093DB8B EQ PUSH2 0xCA JUMPI JUMPDEST PUSH1 0x0 DUP1 REVERT JUMPDEST PUSH2 0x86 PUSH1 0x4 DUP1 CALLDATASIZE SUB PUSH1 0x60 DUP2 LT ISZERO PUSH2 0x5C JUMPI PUSH1 0x0 DUP1 REVERT JUMPDEST DUP2 ADD SWAP1 DUP1 DUP1 CALLDATALOAD SWAP1 PUSH1 0x20 ADD SWAP1 SWAP3 SWAP2 SWAP1 DUP1 CALLDATALOAD SWAP1 PUSH1 0x20 ADD SWAP1 SWAP3 SWAP2 SWAP1 DUP1 CALLDATALOAD SWAP1 PUSH1 0x20 ADD SWAP1 SWAP3 SWAP2 SWAP1 POP POP POP PUSH2 0x116 JUMP JUMPDEST STOP JUMPDEST PUSH2 0xB4 PUSH1 0x4 DUP1 CALLDATASIZE SUB PUSH1 0x20 DUP2 LT ISZERO PUSH2 0x9E JUMPI PUSH1 0x0 DUP1 REVERT JUMPDEST DUP2 ADD SWAP1 DUP1 DUP1 CALLDATALOAD SWAP1 PUSH1 0x20 ADD SWAP1 SWAP3 SWAP2 SWAP1 POP POP POP PUSH2 0x185 JUMP JUMPDEST PUSH1 0x40 MLOAD DUP1 DUP3 DUP2 MSTORE PUSH1 0x20 ADD SWAP2 POP POP PUSH1 0x40 MLOAD DUP1 SWAP2 SUB SWAP1 RETURN JUMPDEST PUSH2 0x100 PUSH1 0x4 DUP1 CALLDATASIZE SUB PUSH1 0x40 DUP2 LT ISZERO PUSH2 0xE0 JUMPI PUSH1 0x0 DUP1 REVERT JUMPDEST DUP2 ADD SWAP1 DUP1 DUP1 CALLDATALOAD SWAP1 PUSH1 0x20 ADD SWAP1 SWAP3 SWAP2 SWAP1 DUP1 CALLDATALOAD SWAP1 PUSH1 0x20 ADD SWAP1 SWAP3 SWAP2 SWAP1 POP POP POP PUSH2 0x223 JUMP JUMPDEST PUSH1 0x40 MLOAD DUP1 DUP3 DUP2 MSTORE PUSH1 0x20 ADD SWAP2 POP POP PUSH1 0x40 MLOAD DUP1 SWAP2 SUB SWAP1 RETURN JUMPDEST PUSH1 0x0 DUP1 DUP5 DUP2 MSTORE PUSH1 0x20 ADD SWAP1 DUP2 MSTORE PUSH1 0x20 ADD PUSH1 0x0 KECCAK256 PUSH1 0x0 ADD DUP3 SWAP1 DUP1 PUSH1 0x1 DUP2 SLOAD ADD DUP1 DUP3 SSTORE DUP1 SWAP2 POP POP SWAP1 PUSH1 0x1 DUP3 SUB SWAP1 PUSH1 0x0 MSTORE PUSH1 0x20 PUSH1 0x0 KECCAK256 ADD PUSH1 0x0 SWAP1 SWAP2 SWAP3 SWAP1 SWAP2 SWAP1 SWAP2 POP SSTORE POP DUP1 PUSH1 0x0 DUP1 DUP6 DUP2 MSTORE PUSH1 0x20 ADD SWAP1 DUP2 MSTORE PUSH1 0x20 ADD PUSH1 0x0 KECCAK256 PUSH1 0x1 ADD PUSH1 0x0 DUP5 DUP2 MSTORE PUSH1 0x20 ADD SWAP1 DUP2 MSTORE PUSH1 0x20 ADD PUSH1 0x0 KECCAK256 DUP2 SWAP1 SSTORE POP POP POP POP JUMP JUMPDEST PUSH1 0x0 DUP1 PUSH1 0x0 DUP1 DUP5 DUP2 MSTORE PUSH1 0x20 ADD SWAP1 DUP2 MSTORE PUSH1 0x20 ADD PUSH1 0x0 KECCAK256 PUSH1 0x0 ADD DUP1 SLOAD SWAP1 POP SWAP1 POP PUSH1 0x0 DUP1 SWAP1 POP PUSH1 0x0 DUP1 SWAP1 POP JUMPDEST DUP3 DUP2 LT ISZERO PUSH2 0x218 JUMPI DUP2 PUSH1 0x0 DUP1 DUP8 DUP2 MSTORE PUSH1 0x20 ADD SWAP1 DUP2 MSTORE PUSH1 0x20 ADD PUSH1 0x0 KECCAK256 PUSH1 0x1 ADD PUSH1 0x0 DUP1 PUSH1 0x0 DUP10 DUP2 MSTORE PUSH1 0x20 ADD SWAP1 DUP2 MSTORE PUSH1 0x20 ADD PUSH1 0x0 KECCAK256 PUSH1 0x0 ADD DUP5 DUP2 SLOAD DUP2 LT PUSH2 0x1EE JUMPI INVALID JUMPDEST SWAP1 PUSH1 0x0 MSTORE PUSH1 0x20 PUSH1 0x0 KECCAK256 ADD SLOAD DUP2 MSTORE PUSH1 0x20 ADD SWAP1 DUP2 MSTORE PUSH1 0x20 ADD PUSH1 0x0 KECCAK256 SLOAD ADD SWAP2 POP DUP1 DUP1 PUSH1 0x1 ADD SWAP2 POP POP PUSH2 0x1AE JUMP JUMPDEST POP DUP1 SWAP3 POP POP POP SWAP2 SWAP1 POP JUMP JUMPDEST PUSH1 0x0 DUP1 PUSH1 0x0 DUP5 DUP2 MSTORE PUSH1 0x20 ADD SWAP1 DUP2 MSTORE PUSH1 0x20 ADD PUSH1 0x0 KECCAK256 PUSH1 0x1 ADD PUSH1 0x0 DUP4 DUP2 MSTORE PUSH1 0x20 ADD SWAP1 DUP2 MSTORE PUSH1 0x20 ADD PUSH1 0x0 KECCAK256 SLOAD SWAP1 POP SWAP3 SWAP2 POP POP JUMP INVALID LOG2 PUSH6 0x627A7A723158 KECCAK256 0xBF BALANCE 0x48 PUSH29 0x7E8FBF1023CA0DD393626FE0CD494FFF005C74460885A6AB88F0782464 PUSH20 0x6F6C634300051100320000000000000000000000 "
				},
				"gasEstimates": {
					"creation": {
						"codeDepositCost": "129800",
						"executionCost": "177",
						"totalCost": "129977"
					},
					"external": {
						"getStudentMarks(uint256,uint256)": "1313",
						"getTotalMarks(uint256)": "infinite",
						"setStudentMarks(uint256,uint256,uint256)": "61455"
					}
				},
				"methodIdentifiers": {
					"getStudentMarks(uint256,uint256)": "f093db8b",
					"getTotalMarks(uint256)": "70f5cf49",
					"setStudentMarks(uint256,uint256,uint256)": "47c6da5a"
				}
			},
			"storageLayout": {
				"storage": [
					{
						"astId": 13,
						"contract": "structMap.sol:studentMarks",
						"label": "studentReport",
						"offset": 0,
						"slot": "0",
						"type": "t_mapping(t_uint256,t_struct(studentMarksStructure)9_storage)"
					}
				],
				"types": {
					"t_array(t_uint256)dyn_storage": {
						"base": "t_uint256",
						"encoding": "dynamic_array",
						"label": "uint256[]",
						"numberOfBytes": "32"
					},
					"t_mapping(t_uint256,t_struct(studentMarksStructure)9_storage)": {
						"encoding": "mapping",
						"key": "t_uint256",
						"label": "mapping(uint256 => struct studentMarks.studentMarksStructure)",
						"numberOfBytes": "32",
						"value": "t_struct(studentMarksStructure)9_storage"
					},
					"t_mapping(t_uint256,t_uint256)": {
						"encoding": "mapping",
						"key": "t_uint256",
						"label": "mapping(uint256 => uint256)",
						"numberOfBytes": "32",
						"value": "t_uint256"
					},
					"t_struct(studentMarksStructure)9_storage": {
						"encoding": "inplace",
						"label": "struct studentMarks.studentMarksStructure",
						"members": [
							{
								"astId": 4,
								"contract": "structMap.sol:studentMarks",
								"label": "subjectList",
								"offset": 0,
								"slot": "0",
								"type": "t_array(t_uint256)dyn_storage"
							},
							{
								"astId": 8,
								"contract": "structMap.sol:studentMarks",
								"label": "subjectMarks",
								"offset": 0,
								"slot": "1",
								"type": "t_mapping(t_uint256,t_uint256)"
							}
						],
						"numberOfBytes": "64"
					},
					"t_uint256": {
						"encoding": "inplace",
						"label": "uint256",
						"numberOfBytes": "32"
					}
				}
			},
			"userdoc": {
				"methods": {}
			}
		}
	}
}